:020000040000FA
:10000000403DFE1F950200000D9700009B0300007D
:10001000FD9600009108000029AC000000000000DF
:10002000000000000000000000000000A702000027
:10003000DD1D000000000000E702000001A100003B
:1000400039290000492900005929000069290000C8
:10005000792900008929000099290000A9290000B8
:10006000B9290000C9290000D9290000E9290000A8
:10007000F9290000092A0000192A0000292A000095
:10008000392A0000492A0000592A0000692A000084
:10009000792A0000892A0000992A0000A92A000074
:1000A000B92A0000C92A0000D92A0000E92A000064
:1000B000F92A0000092B0000192B0000292B000051
:1000C000392B00004D2B0000612B0000752B000028
:1000D000892B00009D2B0000B12B0000C52B0000D8
:1000E000D92B0000ED2B0000012C0000152C000086
:1000F000292C00003D2C0000512C0000652C000034
:10010000792C00008D2C0000A12C0000B52C0000E3
:10011000C92C0000DD2C0000F12C0000052D000092
:10012000192D00002D2D0000412D0000552D00003F
:10013000692D00007D2D0000912D0000A52D0000EF
:10014000B92D0000CD2D0000E12D0000F52D00009F
:10015000092E00001D2E0000312E0000452E00004B
:10016000592E00006D2E0000812E0000952E0000FB
:10017000A92E0000BD2E0000D12E0000E52E0000AB
:10018000F92E00000D2F0000212F0000352F000058
:10019000492F00005D2F0000712F0000852F000007
:1001A000992F0000AD2F0000C12F0000D52F0000B7
:1001B000E92F0000FD2F0000113000002530000065
:1001C000393000004D300000613000007530000013
:1001D000893000009D300000B1300000C5300000C3
:1001E000D9300000ED300000013100001531000071
:1001F000293100003D31000051310000653100001F
:10020000793100008D310000A1310000B5310000CE
:10021000C9310000DD310000F1310000053200007D
:10022000193200002D32000041320000553200002A
:10023000693200007D32000091320000A5320000DA
:10024000B9320000ED340000813D0000814500001E
:10025000094B00009D51000031580000895C0000EE
:1002600055640000216C00006D7100006D7B000082
:10027000318400009D890000658F00008593000097
:10028000DFF80CD000F0D0FA004800474D0800001D
:10029000403DFE1F0648804706480047FEE7FEE750
:1002A000FEE7FEE7FEE7FEE7FEE7FEE7FEE7FEE726
:1002B000F5A2000081020000EFF3108072B67047D3
:1002C00080F310887047434A1368012B04D04FF025
:1002D00001031360404A1060404A116040484FF0EB
:1002E000805101607047EFF3108272B6394801689F
:1002F00051B34FF0000101603748016891B1EFF34D
:1003000009811EF0100F08BF21ED108B21E9F00FBD
:100310004FF000041EF0100F08BF012441F8044DF7
:10032000006801602D490968096808C9B1E8F00F43
:10033000002B18BFB1EC108B81F309884EF0100E22
:10034000002B18BF2EF0100E82F310884EF0040E12
:10035000704722490860EFF3148222F0040282F30E
:1003600014881D494FF0000008601A494FF0010041
:1003700008601C484FF47F01D0F8002041EA0201D8
:10038000016017484FF0805101601748006800680D
:1003900080F3088861B662B670471EF0040F0CBF88
:1003A000EFF30880EFF3098020E9F00F40F804ED47
:1003B00040F804ED1EF0040F0CBF80F3088880F3B2
:1003C000098800B50DF0D4FE5DF804EB4EF0040E84
:1003D00070470000241DFE1FC81BFE1FD01BFE1F00
:1003E00004ED00E020ED00E008ED00E0004870477B
:1003F000E8FF00007047000070470000704770473A
:10040000BDE0DDE0FFFFFFFFFFFFFFFFFFFFFFFF9E
:10041000FFFFFFFFFFFFFFFFFFFFFFFFFFFFFFFFEC
:10042000FFFFFFFFFFFFFFFFFFFFFFFFFFFFFFFFDC
:10043000FFFFFFFFFFFFFFFFFFFFFFFFFFFFFFFFCC
:10044000FFFFFFFFFFFFFFFFFFFFFFFFFFFFFFFFBC
:10045000FFFFFFFFFFFFFFFFFFFFFFFFFFFFFFFFAC
:100460002DE9F05F0546002092469B4688460646E9
:10047000814640241BE0284641464746224600F07C
:100480002EF953465A46C01A914110D311461846C8
:10049000224600F015F92D1A67EB01084F46224657
:1004A0000120002100F00CF917EB00094E41201E3D
:1004B000A4F10104DFDC484631462A464346BDE844
:1004C000F09F40EA01039B0703D009E008C9121F0F
:1004D00008C0042AFAD203E011F8013B00F8013BFE
:1004E000521EF9D27047D2B201E000F8012B491E2A
:1004F000FBD270470022F6E710B513460A460446C1
:100500001946FFF7F0FF204610BD421E12F8013FCA
:10051000002BFBD111F8013B02F8013B002BF9D174
:10052000704710B5044604E00B7800F8013B03B1B6
:10053000491C521EF8D2204610BD421C10F8011B67
:100540000029FBD1801A7047034611F8012B00F8EF
:10055000012B002AF9D11846704730B50546002016
:10056000034600E05B1C934205D2EC5CC85C201A99
:1005700001D1002CF6D130BD2DE9F04D81EA030404
:1005800004F0004B21F0004514464FF0000A23F020
:10059000004150EA050220D054EA01021DD0C5F303
:1005A0000A570246C5F31303C1F31300C1F30A56F9
:1005B00040F4801543F48013A7EB0608101BD646C1
:1005C00008F2FD3873EB050002D308F1010801E0E1
:1005D00092185B41B8F1000F03DA00200146BDE834
:1005E000F08D00204FF48011064684460EE0171B64
:1005F00073EB050705D3121B63EB050306434CEAB7
:10060000010C49084FEA300092185B4150EA01079B
:10061000EDD152EA030012D082EA040083EA050118
:10062000084305D0101BAB4106D20122002306E08F
:1006300000224FF0004302E06FF0010253101AEB6A
:1006400006004CEB085110EB0A0041EB0B01BDE832
:10065000F04D00F08BB80EB540F23341029100210D
:10066000CDE900110A460B4600F08FF803B000BD3B
:100670000EB540F2334202920022CDE90022134629
:1006800000F083F803B000BD01F0004330B421F066
:10069000004150EA010206D00A0DA2F56072C1F3D2
:1006A0001301002A02DC30BC00207047440F44EAEA
:1006B000C104C100E01830BC00EBC25000F01FB80C
:1006C000202A04DB203A00FA02F100207047914012
:1006D000C2F1200320FA03F3194390407047202A07
:1006E00004DB203A21FA02F00021704721FA02F3DC
:1006F000D040C2F1200291400843194670470029BA
:10070000A8BF7047401C490008BF20F00100704797
:1007100010B4B0FA80FC00FA0CF050EA010404BFF7
:1007200010BC704749B1CCF1200421FA04F411FA4D
:100730000CF118BF012121430843A3EB0C01CB1D91
:100740004FEA00614FEA102042BF002010BC704702
:1007500000EBC35010440029A4BF10BC7047401CDC
:10076000490008BF20F0010010BC704710B5141EEE
:1007700073F1000408DA401C41F1000192185B415A
:100780001A4301D120F0010010BD2DE9F04D924631
:100790009B4611B1B1FA81F202E0B0FA80F2203248
:1007A0009046FFF78DFF04460F4640EA0A0041EAF3
:1007B0000B0153465A46084313D0114653EA010031
:1007C00019D0C8F140025046FFF789FF05460E4692
:1007D000504659464246FFF773FF084305D00120B3
:1007E00004E020463946BDE8F08D0020054346EA86
:1007F000E0762C4337430A986305E40AA0EB08002F
:100800000022FD0A44EA47540A3002D5002001467E
:10081000E9E7010510196941DDE908450019694159
:10082000BDE8F04DA2E70000064C074D06E0E06889
:1008300040F0010394E8070098471034AC42F6D327
:10084000FFF722FDF81101001812010080B582B0F7
:100850000FF096F800210190084602B080BD00001C
:1008600070470000704700007047000070470000AC
:10087000704700007047000070470000704700009C
:10088000704700007047000070470000704700008C
:1008900080B500F001F880BD70470000704700008F
:1008A0007047000088B002468DF81F0006910020B6
:1008B000059048F20001C4F204010968049148F26D
:1008C0000401C4F204010968039148F20801C4F26A
:1008D00004010968029148F20C01C4F2040109689C
:1008E00001918DF8030044F22600C4F2050000785F
:1008F00000F00700052827D1FFE701208DF803004D
:1009000048F20000C4F204004FF60E21CFF6FF714A
:10091000016048F20400C4F204004FF0FF310160AE
:1009200048F20800C4F20400016048F20C00C4F26E
:1009300004000160FFE7059801300590FFE7059886
:10094000B028F8D3FFE7FFE79DF81F00C007002895
:100950000AD0FFE744F22000C4F205000168069ABD
:1009600062F302010160FFE79DF81F008007002885
:100970000BD5FFE744F22000C4F205000168069A97
:10098000120962F306110160FFE79DF81F0040079E
:1009900000280BD5FFE744F22000C4F205000168EF
:1009A000069A120A62F30A210160FFE79DF81F0010
:1009B000000700280BD5FFE744F22000C4F2050031
:1009C0000168069A120B62F30E310160FFE79DF891
:1009D0001F00C00600280BD5FFE744F22000C4F238
:1009E00005000168BDF81A2062F312410160FFE7BB
:1009F0009DF81F00800600280BD5FFE744F2200079
:100A0000C4F205000168069A120D62F316510160E6
:100A1000FFE79DF81F00400600280BD5FFE744F2D2
:100A20002000C4F2050001689DF81B2062F31A61E2
:100A30000160FFE79DF80300012824D1FFE7049837
:100A400048F20001C4F204010860039848F204016E
:100A5000C4F204010860029848F20801C4F20401DB
:100A60000860019848F20C01C4F2040108600020FB
:100A70000590FFE7059801300590FFE70598B0283D
:100A8000F8D3FFE7FFE708B07047000086B0059095
:100A900000208DF813000598002804D1FFE70420FA
:100AA0008DF81300ABE044F22600C4F20500007894
:100AB00000F0070001460528009162D80099DFE8A0
:100AC00001F0030B12171E2640F24000C1F6FE7023
:100AD00000680599086055E0059841F20021C0F2D0
:100AE0007A0101604EE005984FF40041016049E051
:100AF000059841F20021C0F27A01016042E040F223
:100B00004000C1F6FE700068059908603AE044F2C2
:100B10000010C4F205000168090F02910168C1F3D9
:100B200007210391016801F00301019100680006AB
:100B3000002812D4FFE70198013041F20021C0F2F1
:100B40007A01B1FBF0F00399013148430299013178
:100B5000B0FBF1F00599086012E040F24000C1F6E8
:100B6000FE70006801990131B0FBF1F00399013189
:100B7000484302990131B0FBF1F005990860FFE7A5
:100B800000E0FFE70598006844F22001C4F2050187
:100B90000A68C2F30262D040059A50600598006866
:100BA0000A68C2F30252D040059A90600598006826
:100BB0000A6802F00702D040059AD06005980068E4
:100BC0000A68C2F30212D040059A106105980068C5
:100BD0000A68C2F30222D040059A50610598006865
:100BE0000A68C2F30232D040059A90610598006805
:100BF0000968C1F30241C8400599C861FFE79DF843
:100C0000130006B0704700008DB00C9000208DF8E6
:100C10002F000C98002804D1FFE704208DF82F0046
:100C2000B6E044F20010C4F205000168090F089113
:100C30000168C1F3036107910168C1F30351069193
:100C40000168C1F307210A91016801F003010991CC
:100C500044F20411C4F205010A68120F03920A68F3
:100C6000C2F3036202920A68C2F3035201920A6855
:100C7000C2F308220592096801F01F01049100687F
:100C80000006002806D4FFE741F20020C0F27A00F7
:100C9000009006E040F24000C1F6FE70006800904F
:100CA000FFE7009809990131B0FBF1F00C99086059
:100CB000009809990131B0FBF1F00A9901314843DC
:100CC0000C994860009809990131B0FBF1F00A993C
:100CD0000131484308990131B0FBF1F00C9988606B
:100CE000009809990131B0FBF1F00A9901314843AC
:100CF00007990131B0FBF1F00C99C860009809998F
:100D00000131B0FBF1F00A990131484306990131F4
:100D1000B0FBF1F00C990861009804990131B0FB27
:100D2000F1F00C994861009804990131B0FBF1F0A1
:100D30000599013148430C99886100980499013163
:100D4000B0FBF1F005990131484303990131B0FB43
:100D5000F1F00C99C861009804990131B0FBF1F0F1
:100D600005990131484302990131B0FBF1F00C992A
:100D70000862009804990131B0FBF1F00599013146
:100D8000484301990131B0FBF1F00C994862FFE74B
:100D90009DF82F000DB0704781B001468DF803001B
:100DA00044F23C00C4F2050000789DF80320104096
:100DB000C0B2002818BF012001B0704781B00146C1
:100DC000ADF80200BDF8020044F21002C4F20502C0
:100DD000108001B07047000080B582B001468DF8E8
:100DE000070000208DF8060000909DF807000028FD
:100DF00007D1FFE740F2C050C4F2A82001210160F2
:100E00001DE040F2C050C4F2A820002101600A2079
:100E10008DF80600FFE70098B0F5805F0ED8FFE779
:100E20004020FFF7B9FF012804D1FFE700208DF82B
:100E3000060003E0009801300090ECE7FFE79DF822
:100E4000060002B080BD000080B582B0019001981C
:100E5000002804D1FFE704208DF8030018E0019872
:100E6000406844F20411C4F205010860019800785A
:100E7000002806D1FFE70120FFF7AEFF8DF8030041
:100E800005E00020FFF7A8FF8DF80300FFE7FFE76C
:100E90009DF8030002B080BD82B0019000208DF863
:100EA00003000198002804D1FFE704208DF8030017
:100EB00020E0019800214160019801210170019812
:100EC000426861F31F7242600198426861F31B62DD
:100ED00042600198426861F317524260019842688B
:100EE000132363F3102242600198426861F3040205
:100EF0004260FFE79DF8030002B0704780B582B002
:100F000001468DF8070000208DF8060000909DF83E
:100F10000700002816D1FFE744F22600C4F20500BE
:100F2000007800F00700052804D1FFE70B208DF8BA
:100F3000060006E040F24050C4F2A8200121016002
:100F4000FFE71DE040F24050C4F2A82000210160FC
:100F50000A208DF80600FFE70098B0F5805F0ED8F4
:100F6000FFE72020FFF718FF012804D1FFE700204A
:100F70008DF8060003E0009801300090ECE7FFE7F1
:100F80009DF8060002B080BD80B582B00190019846
:100F9000002804D1FFE704208DF8030021E0019828
:100FA0004068C0F3C01042F21C01C4F2A8210860DE
:100FB0000198406844F20011C4F2050108600198EC
:100FC0000078002806D1FFE70120FFF797FF8DF892
:100FD000030005E00020FFF791FF8DF80300FFE715
:100FE000FFE79DF8030002B080BD000082B00190D1
:100FF00000208DF803000198002804D1FFE70420A9
:101000008DF8030022E00198002141600198012140
:1010100001700198426861F31F7242600198426852
:1010200061F31B6242600198426861F317524260AB
:101030000198132242710198426861F301024260F3
:101040000198416821F080014160FFE79DF80300AD
:1010500002B0704780B588B001468DF81F000020AF
:10106000069048F20002C4F204021268059248F2A7
:101070000402C4F204021268049248F20802C4F2A4
:1010800004021268039248F20C02C4F204021268CD
:1010900002928DF8070044F22600C4F205000078A1
:1010A00000F00700052805D0FFE79DF81F00052880
:1010B00027D1FFE701208DF8070048F20000C4F2B5
:1010C00004004FF60E21CFF6FF71016048F20400D4
:1010D000C4F204004FF0FF31016048F20800C4F28E
:1010E0000400016048F20C00C4F204000160FFE754
:1010F000069801300690FFE70698B028F8D3FFE77E
:10110000FFE79DF81F0044F22601C4F205010870B4
:101110009DF80700012824D1FFE7059848F2000157
:10112000C4F204010860049848F20401C4F2040106
:101130000860039848F20801C4F2040108600298AC
:1011400048F20C01C4F20401086000200690FFE799
:10115000069801300690FFE70698B028F8D3FFE71D
:10116000FFE709F01DF808B080BD000082B001461D
:101170008DF8070000208DF8060000909DF807000C
:10118000002816D1FFE744F22600C4F205000078DB
:1011900000F00700042804D1FFE70B208DF80600BB
:1011A00006E048F20000C4F2982001210160FFE748
:1011B00010E048F20000C4F2982000210160FFE72F
:1011C0000098B0F5805F04D8FFE7009801300090E8
:1011D000F6E7FFE79DF8060002B0704780B582B0E1
:1011E00001900198002804D1FFE704208DF8030046
:1011F00025E04CF23040C4F20400A52101700198B2
:1012000040784CF20441C4F20401087001988078DF
:101210004CF21441C4F204010870019800780028CF
:1012200006D1FFE70120FFF7A1FF8DF8030005E0DD
:101230000020FFF79BFF8DF80300FFE7FFE79DF815
:10124000030002B080BD000082B0019000208DF844
:1012500003000198002804D1FFE704208DF8030063
:1012600008E0019801210170019800214170019866
:101270008170FFE79DF8030002B0704780B582B02F
:1012800001468DF8070000208DF8060000909DF8BB
:101290000700002833D1FFE744F22600C4F205001E
:1012A000007800F00700032804D1FFE70B208DF839
:1012B000060023E042F21C00C4F2A82000680028C7
:1012C00014D1FFE740F24050C4F2A8200068002883
:1012D00004D1FFE70B208DF8060006E040F24060E5
:1012E000C4F2A82001210160FFE706E040F240605F
:1012F000C4F2A82001210160FFE7FFE71DE040F2F2
:101300004060C4F2A820002101600A208DF8060088
:10131000FFE70098B0F5805F0ED8FFE70820FFF7E1
:101320003BFD012804D1FFE700208DF8060003E013
:10133000009801300090ECE7FFE79DF8060002B04E
:1013400080BD000080B582B001900198002804D1D2
:10135000FFE704208DF8030023E00198C07844F2F1
:10136000A201C4F205010870019841788078084311
:1013700040F080004CF67841C4F2040108700198F6
:101380000078002806D1FFE70120FFF777FF8DF8EE
:10139000030005E00020FFF771FF8DF80300FFE771
:1013A000FFE79DF8030002B080BD00007047000019
:1013B00082B0019000208DF803000198002804D12C
:1013C000FFE704208DF803000BE001980121017074
:1013D0000198002181700198417001980521C17028
:1013E000FFE79DF8030002B070470000704700005F
:1013F0007047000010B596B00DF11C0CDDF864E0EC
:10140000189C1590149113921293002008908DF857
:101410001B00149811901398109011980028CDF883
:1014200014C000F01C81FFE71098002800F017811D
:10143000FFE7059890ED0A0AB8EE400A90ED091A08
:10144000B8EE411AB1EE002A21EE021A80EE010A2E
:10145000BFEE001A30EE010A80ED080A90ED080A8E
:10146000BCEEC00A80ED020A099901314FF000027A
:1014700042F10002109BA1FB031C02FB03C24FEAD6
:10148000820242EA91724FEA81010C910D92159904
:101490004CF60042C4F20102914238D0FFE71598A1
:1014A0004DF20001C4F20101884230D0FFE71598E7
:1014B0004DF20041C4F20101884228D0FFE715989F
:1014C0004DF60001C4F20101884220D0FFE71598D3
:1014D00040F60041C4F20201884218D0FFE7159897
:1014E00041F20001C4F20201884210D0FFE71598D2
:1014F00041F20041C4F20201884208D0FFE715988A
:1015000041F60001C4F20201884227D1FFE70598A5
:1015100090ED080A90ED021AB8EE411A30EE410A39
:101520009FED531AB4EEC10AF1EE10FA15DDFFE794
:101530000C980D99090241EA10610002119A0023EA
:10154000FEF78EFF803808900898802804D3FFE7C4
:1015500004208DF81B00FFE7FFE7FFE79DF81B0065
:1015600000287BD1FFE70898002818BF01204FEA28
:101570004070189908600898099900EB01201299A9
:1015800008601998002868D0FFE70898002825D13E
:10159000FFE71198FFF75FF841EC100B0C980D99DD
:1015A0008DED020BFFF764F841EC100B9DED021B73
:1015B00051EC110B53EC102BFEF7DEFF41EC100B3E
:1015C00051EC100BFFF760F802EE100ABFEE003A84
:1015D00032EE032A059880ED002A3AE00C980D9926
:1015E000090241EA106100020C900D9111980899CE
:1015F00080314FF0000242F10002A0FB011300FB1A
:1016000002300A910B900A980B99FFF731F841ECE0
:10161000100B0C980D998DED000BFFF729F841EC9C
:10162000100B9DED001B51EC110B53EC102BFEF732
:10163000A3FF41EC100B51EC100BFFF725F802EE65
:10164000100ABFEE003A32EE032A059880ED002A18
:10165000FFE7079819990860FFE7FFE703E0042018
:101660008DF81B00FFE79DF81B0016B010BD00BFF2
:10167000ACC52737B0B59AB00DF11C0CDDF87CE095
:101680001E9C199018911792169300200C9040F20E
:101690001421C0F201010A684B688D68C9680B917A
:1016A0000A95099308928DF81B00189814901798C2
:1016B000159014980028CDF814C000F03081FFE791
:1016C0001598002800F02B81FFE71998406900F475
:1016D000600013901398400D08A931F81000139082
:1016E000059890ED0D0AB8EE400A90ED0E1AB8EE8E
:1016F000411A90ED0C2AB8EE422A21EE021A31EE80
:10170000011A80EE010ABFEE001A30EE010A80EDE8
:101710000B0A90ED0B0ABCEEC00A80ED060A139985
:101720000D9A0132A1FB02234FF0000C4CF1000C8A
:1017300001FB0C31159BA2FB032C01FB03C14FEAFB
:10174000410141EAD2714FEA420210921191199976
:101750004CF60042C4F20102914238D0FFE71998DA
:101760004DF20001C4F20101884230D0FFE7199820
:101770004DF20041C4F20101884228D0FFE71998D8
:101780004DF60001C4F20101884220D0FFE719980C
:1017900040F60041C4F20201884218D0FFE71998D0
:1017A00041F20001C4F20201884210D0FFE719980B
:1017B00041F20041C4F20201884208D0FFE71998C3
:1017C00041F60001C4F20201884227D1FFE70598E3
:1017D00090ED0B0A90ED061AB8EE411A30EE410A70
:1017E0009FED531AB4EEC10AF1EE10FA15DDFFE7D2
:1017F00010981199090241EA10610002149A00231D
:10180000FEF72EFE80380C900C98802804D3FFE75A
:1018100004208DF81B00FFE7FFE7FFE79DF81B00A2
:1018200000287BD1FFE70C98002818BF01204FEA61
:1018300040701E9908600C980D9900EB01201699D4
:1018400008601F98002868D0FFE70C98002825D171
:10185000FFE71498FEF7FFFE41EC100B109811996A
:101860008DED020BFEF704FF41EC100B9DED021B0A
:1018700051EC110B53EC102BFEF77EFE41EC100BDC
:1018800051EC100BFEF700FF02EE100ABFEE003A1B
:1018900032EE032A059880ED002A3AE0109811995B
:1018A000090241EA106100021090119114980C99FC
:1018B00080314FF0000242F10002A0FB011300FB57
:1018C00002300E910F900E980F99FEF7D1FE41EC69
:1018D000100B109811998DED000BFEF7C9FE41EC2D
:1018E000100B9DED001B51EC110B53EC102BFEF770
:1018F00043FE41EC100B51EC100BFEF7C5FE02EE5F
:10190000100ABFEE003A32EE032A059880ED002A55
:10191000FFE707981F990860FFE7FFE703E004204F
:101920008DF81B00FFE79DF81B001AB0B0BD00BF8B
:10193000ACC5273710B596B00DF11C0CDDF864E08E
:10194000189C1590149113921293002008908DF812
:101950001B00149810901398119010980028CDF83F
:1019600014C000F03881FFE71198002800F033819F
:10197000FFE71598C06880B2C00B0F90059890EDF6
:10198000090AB8EE400A90ED0A1AB8EE411AB2EE12
:10199000002A21EE021A90ED082AB8EE422AB0EE93
:1019A000003A33EE422A21EE021A80EE010ABFEE1F
:1019B000001A30EE010A80ED070A90ED070ABCEE2E
:1019C000C00A80ED020A0F99D1F102014FF0000226
:1019D00062F10003DDF824C01CF1010CA1FB0CE452
:1019E00042F1000201FB024103FB0C11119AAEFB14
:1019F000023C01FB02C14FEAC10141EA53714FEAC7
:101A0000C3020C920D9115994CF60042C4F20102EA
:101A1000914238D0FFE715984DF20001C4F2010160
:101A2000884230D0FFE715984DF20041C4F2010121
:101A3000884228D0FFE715984DF60001C4F2010155
:101A4000884220D0FFE7159840F60041C4F2020119
:101A5000884218D0FFE7159841F20001C4F2020154
:101A6000884210D0FFE7159841F20041C4F202010C
:101A7000884208D0FFE7159841F60001C4F2020140
:101A8000884227D1FFE7059890ED070A90ED021AEA
:101A9000B8EE411A30EE410A9FED531AB4EEC10A76
:101AA000F1EE10FA15DDFFE70C980D99090241EAF5
:101AB00010610002109A0023FEF7D2FC80380890D3
:101AC0000898802804D3FFE704208DF81B00FFE767
:101AD000FFE7FFE79DF81B0000287BD1FFE7089890
:101AE000002818BF01204FEA407018990860089834
:101AF000099900EB0120129908601998002868D014
:101B0000FFE70898002825D1FFE71098FEF7A3FD0E
:101B100041EC100B0C980D998DED020BFEF7A8FD12
:101B200041EC100B9DED021B51EC110B53EC102BF3
:101B3000FEF722FD41EC100B51EC100BFEF7A4FD5B
:101B400002EE100ABFEE003A32EE032A059880ED4D
:101B5000002A3AE00C980D99090241EA106100024E
:101B60000C900D911098089980314FF0000242F1CD
:101B70000002A0FB011300FB02300A910B900A98AF
:101B80000B99FEF775FD41EC100B0C980D998DED3E
:101B9000000BFEF76DFD41EC100B9DED001B51ECB1
:101BA000110B53EC102BFEF7E7FC41EC100B51EC42
:101BB000100BFEF769FD02EE100ABFEE003A32EE9E
:101BC000032A059880ED002AFFE707981999086015
:101BD000FFE7FFE703E004208DF81B00FFE79DF817
:101BE0001B0016B010BD00BFACC527377047000002
:101BF0007047000070470000704700007047000009
:101C000070470000704700007047000083B00290EA
:101C100040F24400C1F6FE70006844F22001C4F2B4
:101C200005010968C1F30261C84041F25971CDF262
:101C3000B711A0FB0101490B0091FFE70298411E7B
:101C4000029100280BD0FFE700980190FFE7019870
:101C5000411E0191002801D0FFE7F8E7EEE703B04D
:101C60007047000070470000704700007047000098
:101C70007047000070470000704700007047000088
:101C80007047000070470000704700007047000078
:101C90007047000070470000704700007047000068
:101CA0007047000070470000704700007047000058
:101CB0007047000070470000704700007047000048
:101CC0007047000070470000704700007047000038
:101CD0007047000070470000704700007047000028
:101CE0007047000070470000704700007047000018
:101CF0007047000070470000704700007047000008
:101D000070470000704700007047000070470000F7
:101D100070470000704700007047000070470000E7
:101D20007047000082B013468C4601908DF8031076
:101D30008DF802209DF8020001280BD1FFE79DF8E5
:101D40000300012101FA00F0C0B20199CA691043F1
:101D5000C8610AE09DF80300012101FA00F0C0B259
:101D600001994A6B10434863FFE702B070470000D7
:101D700083B00B4602908DF80710009200980299EC
:101D80009DF8072001EB8211486403B07047000002
:101D900083B013468C4602908DF80710ADF80420EE
:101DA00002989DF8071000EB8110483000900098D1
:101DB0000068BDF80410C0EA01400099086003B053
:101DC0007047000070470000704700007047000037
:101DD00070470000704700007047000080B500F0B9
:101DE00001F880BD704700007047000081B00146D7
:101DF0008DF803009DF8030048F24432C4F220221B
:101E0000106001B07047000081B040F24040C4F261
:101E1000010000680090009801B0704781B0009008
:101E200040F25040C4F2010000680099086040F29E
:101E30005440C4F2010000680099486040F25840E4
:101E4000C4F2010000680099886001B0704700008A
:101E500081B001468DF803009DF8030048F240323E
:101E6000C4F22022106001B07047000040F2004030
:101E7000C4F2010041F211110160704740F20040CC
:101E8000C4F2010041F21111016070477047000077
:101E90007047000081B001468DF803009DF80300F3
:101EA00048F24832C4F22022106001B070470000AE
:101EB00081B0009040F21840C4F201000168009A1D
:101EC00062F30301016001B07047000040F200407E
:101ED000C4F2010040F22311016043F210210160BD
:101EE0007047000040F20040C4F2010040F22311AC
:101EF000016043F21021016070470000704700004C
:101F000070470000704700007047000070470000F5
:101F100070470000704700007047000070470000E5
:101F200070470000704700007047000070470000D5
:101F300070470000704700007047000070470000C5
:101F400070470000704700007047000070470000B5
:101F500070470000704700007047000070470000A5
:101F60007047000070470000704700007047000095
:101F700070470000704700007047000085B00B46B6
:101F800084468DF81300ADF81010039200208DF8F0
:101F900003000398002804D1FFE704208DF8030014
:101FA00041E00020ADF80600FFE7BDF806000F286D
:101FB00038D8FFE7BDF81000BDF80610C840C007CC
:101FC000002828D0FFE79DF813008001BDF8061017
:101FD00000EB810043F60041C4F205010844029081
:101FE0000398018AC28911438289114342891143AE
:101FF00002891143C2881143828811430288114328
:1020000042881143408A0843ADF80400BDF804003B
:1020100002990880FFE7FFE7BDF806000130ADF840
:102020000600C2E7FFE79DF8030005B07047000017
:1020300043F6FC30C4F205004FF42541018070479F
:1020400043F6FC30C4F205004FF42541018070478F
:1020500043F6FC30C4F205004FF42541018070477F
:1020600043F6FC30C4F205004FF42541018070476F
:1020700082B00A4603468DF80700ADF804109DF8BB
:10208000070043F60A01C4F2050101EB00100090BD
:10209000BDF804000099B1F800C040EA0C000880C7
:1020A00002B07047B0B584B09C4696460C460546D3
:1020B0008DF80F00ADF80C108DF80B20ADF808303E
:1020C00000208DF80300FFE79DF803000F2825D8B6
:1020D000FFE7BDF80C009DF80310C840C0070028BA
:1020E00015D0FFE79DF80F0080019DF8031000EB6D
:1020F000810043F60241C4F2050108440190BDF895
:1021000008009DF80B10084301990880FFE7FFE7DE
:102110009DF8030001308DF80300D5E704B0B0BD91
:1021200082B00A4603468DF80700ADF804109DF80A
:10213000070043F60801C4F2050101EB001000900E
:10214000BDF804000099B1F800C040EA0C00088016
:1021500002B0704782B0019000208DF80300019812
:10216000002804D1FFE704208DF8030015E0019852
:102170000021018001984180019881800198C180EF
:102180000198018101984181019881810198C18163
:102190000198018201984182FFE79DF8030002B097
:1021A0007047000043F6FC30C4F205004AF20151CA
:1021B0000180704743F6FC30C4F205004AF2015139
:1021C0000180704743F6FC30C4F205004AF2015129
:1021D0000180704743F6FC30C4F205004AF2015119
:1021E0000180704780B582B0FFF7E4FF032008212B
:1021F000312200230193FFF755FF05204FF4806142
:102200003022019BFFF74EFFFFF71AFF02B080BD9F
:1022100070470000704700007047000070470000E2
:1022200070470000704700007047000070470000D2
:1022300070470000704700007047000070470000C2
:1022400070470000704700007047000070470000B2
:1022500070470000704700007047000070470000A2
:102260007047000070470000704700007047000092
:102270008EB00D900C910B9200208DF82B000590E4
:102280000221049100900C98002804D0FFE70B98DD
:10229000002804D1FFE704208DF82B009DE040F2D8
:1022A0004400C1F6FE70006844F22001C4F205014A
:1022B0000968C1F30231C84009900C9800680121F7
:1022C00001FA00F008900C98806807900C9840681C
:1022D00006900D98006BC006002807D5FFE70D9803
:1022E000006B00F0030001300590FFE7089800281C
:1022F00003D1FFE703200490FFE79DED090AB8EE44
:10230000400A9DED061AB8EE411A80EE010A9DEDD5
:10231000081AB8EE411A80EE010A8DED030A9DED10
:10232000040AB8EE400A30EE000A9DED051AB8EE38
:10233000411A31EE011A30EE010A9DED071AB8EE8E
:10234000411A30EE010A8DED020A9DED030A9DED62
:10235000021A30EE410A8DED010A9DED030A9DED52
:10236000021AB4EEC10AF1EE10FA04DCFFE7042011
:102370008DF82B0030E09DED010A9FED201AB4EEA0
:10238000C10AF1EE10FA04DDFFE704208DF82B00FE
:1023900021E09DED010ABCEEC01A11EE100A01EE1B
:1023A000100AB8EE411A30EE411A81EE000A8DEDA6
:1023B000000A0C98006800049DED010ABCEEC00AFA
:1023C00010EE101A40EA5100A1EB510140EA012041
:1023D0000D99C862FFE7FFE7FFE70B98002809D0D7
:1023E000FFE79DF82B00002804D1FFE700980B9928
:1023F0000860FFE79DF82B000EB0704700007842A0
:1024000082B00A4601908DF80310019800689DF88B
:10241000031061F300000199086002B070470000EA
:1024200081B000900098016821F0010101600098DE
:10243000016841F40041016001B0704782B00A4672
:1024400001908DF803109DF80300012806D1FFE7E5
:102450000198816821F08001816005E00198816820
:1024600041F080018160FFE702B0704781B00090C9
:102470000098016841F48071016001B0704700006C
:1024800081B000900098016841F40071016001B0D2
:102490007047000082B0019000910198C0690099D6
:1024A0000840002818BF012002B0704780B584B0F2
:1024B0000390029101920298002804D1FFE70420C2
:1024C0008DF803002BE00398016821F00101016001
:1024D0000398016841F4004101600398016841F0EC
:1024E0000101016003980299019AFFF7C1FE8DF87E
:1024F00003009DF80300002810D1FFE7039801684E
:1025000021F0400101600398016821F4004101605D
:102510000398016821F001010160FFE7FFE79DF8E2
:10252000030004B080BD000082B0019000208DF84F
:1025300003000198002804D1FFE704208DF8030070
:1025400009E001984CF2503141600198002101608E
:1025500001988160FFE79DF8030002B0704700001A
:1025600010B58AB0DDF830C096460C4608908DF85C
:102570001F108DF81E200693ADF816C008984FF472
:102580000031CDF808E00194FFF784FF012804D161
:10259000FFE702208DF827003BE10898FFF766FF70
:1025A0004FF4A0200490FFE708988021FFF772FF06
:1025B000002817D1FFE70498411E0491002810D18C
:1025C000FFE708984FF40031FFF764FF012804D1BA
:1025D000FFE70898FFF754FFFFE703208DF8270077
:1025E00017E1E1E79DF81F004000089981F82400F9
:1025F0004FF4A0200490FFE708980821FFF74AFF56
:1026000000281ED1FFE70498411E0491002817D12D
:10261000FFE708984FF40031FFF73CFF01280BD18A
:10262000FFE708984FF48051FFF734FF08990090B6
:102630000846FFF725FFFFE703208DF82700E8E0B5
:10264000DAE74FF4A0200490FFE708984FF4805198
:10265000FFF720FF012817D1FFE70498411E0491DE
:10266000002810D1FFE708984FF40031FFF712FF60
:10267000012804D1FFE70898FFF702FFFFE70420D5
:102680008DF82700C5E0E0E79DF81E00089981F865
:1026900024004FF4A0200490FFE708980821FFF7DA
:1026A000F9FE002817D1FFE70498411E0491002885
:1026B00010D1FFE708984FF40031FFF7EBFE012837
:1026C00004D1FFE70898FFF7DBFEFFE703208DF852
:1026D00027009EE0E1E74FF4A0200490FFE7089870
:1026E0004FF48051FFF7D6FE012817D1FFE7049879
:1026F000411E0491002810D1FFE708984FF40031E3
:10270000FFF7C8FE012804D1FFE70898FFF7B8FEDD
:10271000FFE703208DF827007BE0E0E700208DF83D
:102720000F00FFE79DF80F00BDF81610884253DA3E
:10273000FFE706989DF80F10405C089981F8240087
:102740004FF4A0200490FFE708980821FFF7A2FEAD
:10275000002817D1FFE70498411E0491002810D1EA
:10276000FFE708984FF40031FFF794FE012804D1E9
:10277000FFE70898FFF784FEFFE703208DF82700A6
:1027800047E0E1E74FF4A0200490FFE708984FF4FA
:102790008051FFF77FFE012817D1FFE70498411E03
:1027A0000491002810D1FFE708984FF40031FFF79B
:1027B00071FE012804D1FFE70898FFF761FEFFE7EB
:1027C00003208DF8270024E0E0E7FFE79DF80F00E5
:1027D00001308DF80F00A5E74FF4A0200490FFE72B
:1027E0000898FFF74DFE0498411E0491002804D17B
:1027F000FFE703208DF827000BE0FFE70898102182
:10280000FFF748FE0028EBD0FFE700208DF82700F7
:10281000FFE79DF827000AB010BD000070470000D8
:1028200070470000704700007047000070470000CC
:1028300070470000704700007047000070470000BC
:1028400070470000704700007047000083B002909E
:1028500000208DF803000298002804D1FFE704202F
:102860008DF8030064E002980188490901EB4101F9
:10287000202202EB4101B0F9020081420DD8FFE7AE
:1028800002980188490901EB4101252202EB41012F
:10289000B0F9020081420AD2FFE70298B0F90200C3
:1028A000202804D3FFE704208DF803003FE00298BE
:1028B000B0F9020041F25C01C4F2050101EB8000B5
:1028C0000190019800686FF35F2040F2FF11884289
:1028D0000FD1FFE7029800880199086002984168CB
:1028E000B0F9020040F63C12C1F6FE7242F8201028
:1028F0001CE002980088019909686FF35F21884203
:102900000FD1FFE70298008801990860029841689A
:10291000B0F9020040F63C12C1F6FE7242F82010F7
:1029200003E007208DF80300FFE7FFE7FFE7FFE77D
:102930009DF8030003B0704780B540F63C10C1F627
:10294000FE700068804780BD80B540F63C10C1F63F
:10295000FE704068804780BD80B540F63C10C1F6EF
:10296000FE708068804780BD80B540F63C10C1F69F
:10297000FE70C068804780BD80B540F63C10C1F64F
:10298000FE700069804780BD80B540F63C10C1F6FE
:10299000FE704069804780BD80B540F63C10C1F6AE
:1029A000FE708069804780BD80B540F63C10C1F65E
:1029B000FE70C069804780BD80B540F63C10C1F60E
:1029C000FE70006A804780BD80B540F63C10C1F6BD
:1029D000FE70406A804780BD80B540F63C10C1F66D
:1029E000FE70806A804780BD80B540F63C10C1F61D
:1029F000FE70C06A804780BD80B540F63C10C1F6CD
:102A0000FE70006B804780BD80B540F63C10C1F67B
:102A1000FE70406B804780BD80B540F63C10C1F62B
:102A2000FE70806B804780BD80B540F63C10C1F6DB
:102A3000FE70C06B804780BD80B540F63C10C1F68B
:102A4000FE70006C804780BD80B540F63C10C1F63A
:102A5000FE70406C804780BD80B540F63C10C1F6EA
:102A6000FE70806C804780BD80B540F63C10C1F69A
:102A7000FE70C06C804780BD80B540F63C10C1F64A
:102A8000FE70006D804780BD80B540F63C10C1F6F9
:102A9000FE70406D804780BD80B540F63C10C1F6A9
:102AA000FE70806D804780BD80B540F63C10C1F659
:102AB000FE70C06D804780BD80B540F63C10C1F609
:102AC000FE70006E804780BD80B540F63C10C1F6B8
:102AD000FE70406E804780BD80B540F63C10C1F668
:102AE000FE70806E804780BD80B540F63C10C1F618
:102AF000FE70C06E804780BD80B540F63C10C1F6C8
:102B0000FE70006F804780BD80B540F63C10C1F676
:102B1000FE70406F804780BD80B540F63C10C1F626
:102B2000FE70806F804780BD80B540F63C10C1F6D6
:102B3000FE70C06F804780BD80B540F63C10C1F686
:102B4000FE70D0F88000804780BD000080B540F660
:102B50003C10C1F6FE70D0F88400804780BD0000B4
:102B600080B540F63C10C1F6FE70D0F88800804772
:102B700080BD000080B540F63C10C1F6FE70D0F874
:102B80008C00804780BD000080B540F63C10C1F647
:102B9000FE70D0F89000804780BD000080B540F600
:102BA0003C10C1F6FE70D0F89400804780BD000054
:102BB00080B540F63C10C1F6FE70D0F89800804712
:102BC00080BD000080B540F63C10C1F6FE70D0F824
:102BD0009C00804780BD000080B540F63C10C1F6E7
:102BE000FE70D0F8A000804780BD000080B540F6A0
:102BF0003C10C1F6FE70D0F8A400804780BD0000F4
:102C000080B540F63C10C1F6FE70D0F8A8008047B1
:102C100080BD000080B540F63C10C1F6FE70D0F8D3
:102C2000AC00804780BD000080B540F63C10C1F686
:102C3000FE70D0F8B000804780BD000080B540F63F
:102C40003C10C1F6FE70D0F8B400804780BD000093
:102C500080B540F63C10C1F6FE70D0F8B800804751
:102C600080BD000080B540F63C10C1F6FE70D0F883
:102C7000BC00804780BD000080B540F63C10C1F626
:102C8000FE70D0F8C000804780BD000080B540F6DF
:102C90003C10C1F6FE70D0F8C400804780BD000033
:102CA00080B540F63C10C1F6FE70D0F8C8008047F1
:102CB00080BD000080B540F63C10C1F6FE70D0F833
:102CC000CC00804780BD000080B540F63C10C1F6C6
:102CD000FE70D0F8D000804780BD000080B540F67F
:102CE0003C10C1F6FE70D0F8D400804780BD0000D3
:102CF00080B540F63C10C1F6FE70D0F8D800804791
:102D000080BD000080B540F63C10C1F6FE70D0F8E2
:102D1000DC00804780BD000080B540F63C10C1F665
:102D2000FE70D0F8E000804780BD000080B540F61E
:102D30003C10C1F6FE70D0F8E400804780BD000072
:102D400080B540F63C10C1F6FE70D0F8E800804730
:102D500080BD000080B540F63C10C1F6FE70D0F892
:102D6000EC00804780BD000080B540F63C10C1F605
:102D7000FE70D0F8F000804780BD000080B540F6BE
:102D80003C10C1F6FE70D0F8F400804780BD000012
:102D900080B540F63C10C1F6FE70D0F8F8008047D0
:102DA00080BD000080B540F63C10C1F6FE70D0F842
:102DB000FC00804780BD000080B540F63C10C1F6A5
:102DC000FE70D0F80001804780BD000080B540F65D
:102DD0003C10C1F6FE70D0F80401804780BD0000B1
:102DE00080B540F63C10C1F6FE70D0F8080180476F
:102DF00080BD000080B540F63C10C1F6FE70D0F8F2
:102E00000C01804780BD000080B540F63C10C1F643
:102E1000FE70D0F81001804780BD000080B540F6FC
:102E20003C10C1F6FE70D0F81401804780BD000050
:102E300080B540F63C10C1F6FE70D0F8180180470E
:102E400080BD000080B540F63C10C1F6FE70D0F8A1
:102E50001C01804780BD000080B540F63C10C1F6E3
:102E6000FE70D0F82001804780BD000080B540F69C
:102E70003C10C1F6FE70D0F82401804780BD0000F0
:102E800080B540F63C10C1F6FE70D0F828018047AE
:102E900080BD000080B540F63C10C1F6FE70D0F851
:102EA0002C01804780BD000080B540F63C10C1F683
:102EB000FE70D0F83001804780BD000080B540F63C
:102EC0003C10C1F6FE70D0F83401804780BD000090
:102ED00080B540F63C10C1F6FE70D0F8380180474E
:102EE00080BD000080B540F63C10C1F6FE70D0F801
:102EF0003C01804780BD000080B540F63C10C1F623
:102F0000FE70D0F84001804780BD000080B540F6DB
:102F10003C10C1F6FE70D0F84401804780BD00002F
:102F200080B540F63C10C1F6FE70D0F848018047ED
:102F300080BD000080B540F63C10C1F6FE70D0F8B0
:102F40004C01804780BD000080B540F63C10C1F6C2
:102F5000FE70D0F85001804780BD000080B540F67B
:102F60003C10C1F6FE70D0F85401804780BD0000CF
:102F700080B540F63C10C1F6FE70D0F8580180478D
:102F800080BD000080B540F63C10C1F6FE70D0F860
:102F90005C01804780BD000080B540F63C10C1F662
:102FA000FE70D0F86001804780BD000080B540F61B
:102FB0003C10C1F6FE70D0F86401804780BD00006F
:102FC00080B540F63C10C1F6FE70D0F8680180472D
:102FD00080BD000080B540F63C10C1F6FE70D0F810
:102FE0006C01804780BD000080B540F63C10C1F602
:102FF000FE70D0F87001804780BD000080B540F6BB
:103000003C10C1F6FE70D0F87401804780BD00000E
:1030100080B540F63C10C1F6FE70D0F878018047CC
:1030200080BD000080B540F63C10C1F6FE70D0F8BF
:103030007C01804780BD000080B540F63C10C1F6A1
:10304000FE70D0F88001804780BD000080B540F65A
:103050003C10C1F6FE70D0F88401804780BD0000AE
:1030600080B540F63C10C1F6FE70D0F8880180476C
:1030700080BD000080B540F63C10C1F6FE70D0F86F
:103080008C01804780BD000080B540F63C10C1F641
:10309000FE70D0F89001804780BD000080B540F6FA
:1030A0003C10C1F6FE70D0F89401804780BD00004E
:1030B00080B540F63C10C1F6FE70D0F8980180470C
:1030C00080BD000080B540F63C10C1F6FE70D0F81F
:1030D0009C01804780BD000080B540F63C10C1F6E1
:1030E000FE70D0F8A001804780BD000080B540F69A
:1030F0003C10C1F6FE70D0F8A401804780BD0000EE
:1031000080B540F63C10C1F6FE70D0F8A8018047AB
:1031100080BD000080B540F63C10C1F6FE70D0F8CE
:10312000AC01804780BD000080B540F63C10C1F680
:10313000FE70D0F8B001804780BD000080B540F639
:103140003C10C1F6FE70D0F8B401804780BD00008D
:1031500080B540F63C10C1F6FE70D0F8B80180474B
:1031600080BD000080B540F63C10C1F6FE70D0F87E
:10317000BC01804780BD000080B540F63C10C1F620
:10318000FE70D0F8C001804780BD000080B540F6D9
:103190003C10C1F6FE70D0F8C401804780BD00002D
:1031A00080B540F63C10C1F6FE70D0F8C8018047EB
:1031B00080BD000080B540F63C10C1F6FE70D0F82E
:1031C000CC01804780BD000080B540F63C10C1F6C0
:1031D000FE70D0F8D001804780BD000080B540F679
:1031E0003C10C1F6FE70D0F8D401804780BD0000CD
:1031F00080B540F63C10C1F6FE70D0F8D80180478B
:1032000080BD000080B540F63C10C1F6FE70D0F8DD
:10321000DC01804780BD000080B540F63C10C1F65F
:10322000FE70D0F8E001804780BD000080B540F618
:103230003C10C1F6FE70D0F8E401804780BD00006C
:1032400080B540F63C10C1F6FE70D0F8E80180472A
:1032500080BD000080B540F63C10C1F6FE70D0F88D
:10326000EC01804780BD000080B540F63C10C1F6FF
:10327000FE70D0F8F001804780BD000080B540F6B8
:103280003C10C1F6FE70D0F8F401804780BD00000C
:1032900080B540F63C10C1F6FE70D0F8F8018047CA
:1032A00080BD000080B540F63C10C1F6FE70D0F83D
:1032B000FC01804780BD000080B582B041F25C20F7
:1032C000C4F205000068019040F68020C4F2A220FC
:1032D0000068012809D1FFE79DF80400C007002815
:1032E00003D0FFE7FEF71CFEFFE740F68420C4F2A0
:1032F000A2200068012809D1FFE79DF8040080079B
:10330000002803D5FFE7FEF70DFEFFE740F6882013
:10331000C4F2A2200068012809D1FFE79DF804004B
:103320004007002803D5FFE7FEF7FEFDFFE740F664
:103330008C20C4F2A2200068012809D1FFE79DF883
:1033400004000007002803D5FFE7FEF7EFFDFFE7C5
:1033500040F69020C4F2A2200068012809D1FFE7BE
:103360009DF80400C006002803D5FFE7FEF7E0FD46
:10337000FFE740F69420C4F2A2200068012809D19A
:10338000FFE79DF804008006002803D5FFE7FEF75D
:10339000D1FDFFE740F69820C4F2A2200068012882
:1033A00009D1FFE79DF804004006002803D5FFE798
:1033B000FEF7C2FDFFE740F69C20C4F2A2200068A1
:1033C000012809D1FFE79DF804000006002803D575
:1033D000FFE7FEF7B3FDFFE740F6A020C4F2A2200E
:1033E0000068012809D1FFE79DF80500C007002803
:1033F00003D0FFE7FEF7A4FDFFE740F6A420C4F2E8
:10340000A2200068012809D1FFE79DF80500800788
:10341000002803D5FFE7FEF795FDFFE740F6A8205B
:10342000C4F2A2200068012809D1FFE79DF8050039
:103430004007002803D5FFE7FEF786FDFFE740F6CB
:10344000AC20C4F2A2200068012809D1FFE79DF852
:1034500005000007002803D5FFE7FEF777FDFFE72B
:1034600040F6B020C4F2A2200068012809D1FFE78D
:103470009DF80500C006002803D5FFE7FEF768FDAC
:10348000FFE740F6B420C4F2A2200068012809D169
:10349000FFE79DF805008006002803D5FFE7FEF74B
:1034A00059FDFFE740F6B820C4F2A22000680128C9
:1034B00009D1FFE79DF805004006002803D5FFE786
:1034C000FEF74AFDFFE740F6BC20C4F2A2200068E8
:1034D000012809D1FFE79DF805000006002803D563
:1034E000FFE7FEF73BFDFFE702B080BD80B584B08B
:1034F00041F26020C4F205000068039040F63050AD
:10350000C4F2A6200068012855D1FFE740F2002050
:10351000C4F2A6200068002812D1FFE740F2001094
:10352000C4F2A6200068012809D1FFE79DF80C002D
:10353000C007002803D0FFE7FEF7B4FBFFE7FFE773
:1035400040F24020C4F2A6200068002812D1FFE714
:1035500040F24010C4F2A6200068012809D1FFE71C
:103560009DF80D00C007002803D0FFE7FEF77AFBA7
:10357000FFE7FFE743F20400C4F20500006800F033
:103580000110029043F20C00C4F2050000684FF0F5
:10359000011121EA0000019002980199084209D026
:1035A000FFE79DF80E00C007002803D0FFE7FEF7F5
:1035B00069FBFFE7FFE741F2B050C4F2A6200068C4
:1035C000012855D1FFE740F20420C4F2A62000688C
:1035D000002812D1FFE740F20410C4F2A6200068D0
:1035E000012809D1FFE79DF80C008007002803D5CA
:1035F000FFE7FEF759FBFFE7FFE740F24420C4F284
:10360000A6200068002812D1FFE740F24410C4F25F
:10361000A6200068012809D1FFE79DF80D0080076A
:10362000002803D5FFE7FEF71FFBFFE7FFE743F2A4
:103630000400C4F20500006800F00210029043F29A
:103640000C00C4F2050000684FF0021121EA0000EE
:10365000019002980199084209D0FFE79DF80E00F9
:10366000C007002803D0FFE7FEF70EFBFFE7FFE7E8
:1036700041F63060C4F2A6200068012855D1FFE76A
:1036800040F20820C4F2A6200068002812D1FFE70B
:1036900040F20810C4F2A6200068012809D1FFE713
:1036A0009DF80C004007002803D5FFE7FEF7FEFA5F
:1036B000FFE7FFE740F24820C4F2A6200068002898
:1036C00012D1FFE740F24810C4F2A620006801289A
:1036D00009D1FFE79DF80D004007002803D5FFE75B
:1036E000FEF7C4FAFFE7FFE743F20400C4F2050067
:1036F000006800F00410029043F20C00C4F20500D0
:1037000000684FF0041121EA00000190029801992D
:10371000084209D0FFE79DF80E00C007002803D03B
:10372000FFE7FEF7B3FAFFE7FFE742F2B060C4F24B
:10373000A6200068012855D1FFE740F20C20C4F212
:10374000A6200068002812D1FFE740F20C10C4F256
:10375000A6200068012809D1FFE79DF80C000007AA
:10376000002803D5FFE7FEF7A3FAFFE7FFE740F2E3
:103770004C20C4F2A6200068002812D1FFE740F2D6
:103780004C10C4F2A6200068012809D1FFE79DF87B
:103790000D000007002803D5FFE7FEF769FAFFE7F1
:1037A000FFE743F20400C4F20500006800F00810CF
:1037B000029043F20C00C4F2050000684FF00811BB
:1037C00021EA0000019002980199084209D0FFE720
:1037D0009DF80E00C007002803D0FFE7FEF758FA57
:1037E000FFE7FFE742F63070C4F2A6200068012828
:1037F00055D1FFE740F21020C4F2A620006800284F
:1038000012D1FFE740F21010C4F2A6200068012890
:1038100009D1FFE79DF80C00C006002803D5FFE79B
:10382000FEF748FAFFE7FFE740F25020C4F2A62077
:103830000068002812D1FFE740F25010C4F2A62021
:103840000068012809D1FFE79DF80D00C006002897
:1038500003D5FFE7FEF70EFAFFE7FFE743F20400A8
:10386000C4F20500006800F01010029043F20C0052
:10387000C4F2050000684FF0101121EA0000019029
:1038800002980199084209D0FFE79DF80E00C00791
:10389000002803D0FFE7FEF7FDF9FFE7FFE743F25B
:1038A000B070C4F2A6200068012855D1FFE740F2AD
:1038B0001420C4F2A6200068002812D1FFE740F2CD
:1038C0001410C4F2A6200068012809D1FFE79DF872
:1038D0000C008006002803D5FFE7FEF7EDF9FFE7AF
:1038E000FFE740F25420C4F2A6200068002812D15D
:1038F000FFE740F25410C4F2A6200068012809D165
:10390000FFE79DF80D008006002803D5FFE7FEF7CE
:10391000B3F9FFE7FFE743F20400C4F205000068D3
:1039200000F02010029043F20C00C4F20500006881
:103930004FF0201121EA00000190029801990842FD
:1039400009D0FFE79DF80E00C007002803D0FFE76D
:10395000FEF7A2F9FFE7FFE744F23000C4F2A62029
:103960000068012855D1FFE740F21820C4F2A620D4
:103970000068002812D1FFE740F21810C4F2A62018
:103980000068012809D1FFE79DF80C0040060028D7
:1039900003D5FFE7FEF792F9FFE7FFE740F2582073
:1039A000C4F2A6200068002812D1FFE740F25810A8
:1039B000C4F2A6200068012809D1FFE79DF80D0098
:1039C0004006002803D5FFE7FEF758F9FFE7FFE7B9
:1039D00043F20400C4F20500006800F040100290B9
:1039E00043F20C00C4F2050000684FF0401121EAD8
:1039F0000000019002980199084209D0FFE79DF864
:103A00000E00C007002803D0FFE7FEF747F9FFE7E5
:103A1000FFE744F6B000C4F2A6200068012855D1A3
:103A2000FFE740F21C20C4F2A6200068002812D153
:103A3000FFE740F21C10C4F2A6200068012809D15B
:103A4000FFE79DF80C000006002803D5FFE7FEF70E
:103A500037F9FFE7FFE740F25C20C4F2A6200068D8
:103A6000002812D1FFE740F25C10C4F2A6200068E3
:103A7000012809D1FFE79DF80D000006002803D5B5
:103A8000FFE7FEF7FDF8FFE7FFE743F20400C4F2AB
:103A9000050000688021C0F240010840029043F216
:103AA0000C00C4F20500006821EA000001900298B1
:103AB0000199084209D0FFE79DF80E00C0070028D1
:103AC00003D0FFE7FEF7ECF8FFE7FFE748F200500E
:103AD000C4F220200068002818D0FFE740F2204000
:103AE000C4F2010000680F21C0F20E0108400290EC
:103AF0000298002809D0FFE79DF80E0080070028F3
:103B000003D5FFE7FEF7C4F9FFE7FFE748F20850E7
:103B1000C4F220200068002816D0FFE740F22040C1
:103B2000C4F20100006800F0201002900298002802
:103B300009D0FFE79DF80E004007002803D5FFE7F6
:103B4000FEF752F9FFE7FFE748F20450C4F22020E5
:103B50000068002816D0FFE740F22040C4F20100C0
:103B6000006800F0101002900298002809D0FFE7CA
:103B70009DF80E000007002803D5FFE7FEF786F941
:103B8000FFE7FFE70C20C9F60040006800F0800066
:103B900002900298002809D0FFE79DF80E00400629
:103BA000002803D5FFE705F06FFFFFE746F2180096
:103BB000C4F205000068029046F20400C4F2050059
:103BC0000068019002980199084040F67F61084220
:103BD00009D0FFE79DF80E000006002803D5FFE797
:103BE000FEF704F8FFE746F21840C4F2050000684B
:103BF000029046F20440C4F2050000680190029869
:103C00000199084040F67F61084209D0FFE79DF81E
:103C10000F00C007002803D0FFE7FDF7E9FFFFE72B
:103C200046F61800C4F205000068029046F604004B
:103C3000C4F205000068019002980199084040F61E
:103C40007F61084209D0FFE79DF80F008007002838
:103C500003D5FFE7FDF7CEFFFFE746F61840C4F2B5
:103C600005000068029046F60440C4F205000068B2
:103C7000019002980199084040F67F61084209D0FE
:103C8000FFE79DF80F004007002803D5FFE7FDF789
:103C9000B3FFFFE747F21800C4F205000068029086
:103CA00047F20400C4F205000068019002980199EF
:103CB000084040F67F61084209D0FFE79DF80F00F9
:103CC0000007002803D5FFE7FDF798FFFFE747F25D
:103CD0001840C4F205000068029047F20440C4F2A4
:103CE00005000068019002980199084040F67F6144
:103CF000084209D0FFE79DF80F00C006002803D551
:103D0000FFE7FDF77DFFFFE747F61800C4F2050067
:103D10000068029047F60400C4F2050000680190B4
:103D200002980199084040F67F61084209D0FFE7F8
:103D30009DF80F008006002803D5FFE7FDF762FF1E
:103D4000FFE747F61840C4F205000068029047F606
:103D50000440C4F2050000680190029801990840EF
:103D600040F67F61084209D0FFE79DF80F0040064A
:103D7000002803D5FFE7FDF747FFFFE704B080BD4C
:103D800080B584B041F26420C4F20500006803905D
:103D90009DF80E000007002803D5FFE705F0ACFCF6
:103DA000ECE348F63050C4F2A6200068012855D153
:103DB000FFE748F20020C4F2A6200068002812D1D4
:103DC000FFE748F20010C4F2A6200068012809D1DC
:103DD000FFE79DF80C00C007002803D0FFE7FDF7C0
:103DE00091FFFFE7FFE748F24020C4F2A6200068F9
:103DF000002812D1FFE748F24010C4F2A620006864
:103E0000012809D1FFE79DF80D00C007002803D065
:103E1000FFE7FDF757FFFFE7FFE743F20440C4F277
:103E20000500006800F00110029043F20C40C4F25B
:103E3000050000684FF0011121EA0000019002988E
:103E40000199084209D0FFE79DF80E00C00700283D
:103E500003D0FFE7FDF746FFFFE7FFE749F2B05069
:103E6000C4F2A6200068012855D1FFE748F20420DB
:103E7000C4F2A6200068002812D1FFE748F204101F
:103E8000C4F2A6200068012809D1FFE79DF80C00C4
:103E90008007002803D5FFE7FDF736FFFFE7FFE7C0
:103EA00048F24420C4F2A6200068002812D1FFE79F
:103EB00048F24410C4F2A6200068012809D1FFE7A7
:103EC0009DF80D008007002803D5FFE7FDF7FCFEF5
:103ED000FFE7FFE743F20440C4F20500006800F08A
:103EE0000210029043F20C40C4F2050000684FF04B
:103EF000021121EA0000019002980199084209D0BC
:103F0000FFE79DF80E00C007002803D0FFE7FDF78C
:103F1000EBFEFFE7FFE749F63060C4F2A620006839
:103F2000012855D1FFE748F20820C4F2A620006816
:103F3000002812D1FFE748F20810C4F2A62000685A
:103F4000012809D1FFE79DF80C004007002803D5A0
:103F5000FFE7FDF7DBFEFFE7FFE748F24820C4F28A
:103F6000A6200068002812D1FFE748F24810C4F2EA
:103F7000A6200068012809D1FFE79DF80D00400741
:103F8000002803D5FFE7FDF7A1FEFFE7FFE743F2B7
:103F90000440C4F20500006800F00410029043F2EF
:103FA0000C40C4F2050000684FF0041121EA000043
:103FB000019002980199084209D0FFE79DF80E0090
:103FC000C007002803D0FFE7FDF790FEFFE7FFE7FB
:103FD0004AF2B060C4F2A6200068012855D1FFE77C
:103FE00048F20C20C4F2A6200068002812D1FFE796
:103FF00048F20C10C4F2A6200068012809D1FFE79E
:104000009DF80C000007002803D5FFE7FDF780FEB0
:10401000FFE7FFE748F24C20C4F2A6200068002822
:1040200012D1FFE748F24C10C4F2A6200068012824
:1040300009D1FFE79DF80D000007002803D5FFE731
:10404000FDF746FEFFE7FFE743F20440C4F2050038
:10405000006800F00810029043F20C40C4F2050022
:1040600000684FF0081121EA0000019002980199C0
:10407000084209D0FFE79DF80E00C007002803D0D2
:10408000FFE7FDF735FEFFE7FFE74AF63070C4F2C1
:10409000A6200068012855D1FFE748F21020C4F29D
:1040A000A6200068002812D1FFE748F21010C4F2E1
:1040B000A6200068012809D1FFE79DF80C00C00682
:1040C000002803D5FFE7FDF725FEFFE7FFE748F2ED
:1040D0005020C4F2A6200068002812D1FFE748F261
:1040E0005010C4F2A6200068012809D1FFE79DF80E
:1040F0000D00C006002803D5FFE7FDF7EBFDFFE745
:10410000FFE743F20440C4F20500006800F010101D
:10411000029043F20C40C4F2050000684FF0101109
:1041200021EA0000019002980199084209D0FFE7B6
:104130009DF80E00C007002803D0FFE7FDF7DAFD69
:10414000FFE7FFE74BF2B070C4F2A6200068012839
:1041500055D1FFE748F21420C4F2A62000680028D9
:1041600012D1FFE748F21410C4F2A620006801281B
:1041700009D1FFE79DF80C008006002803D5FFE772
:10418000FDF7CAFDFFE7FFE748F25420C4F2A6207E
:104190000068002812D1FFE748F25410C4F2A620AC
:1041A0000068012809D1FFE79DF80D00800600286E
:1041B00003D5FFE7FDF790FDFFE7FFE743F204407B
:1041C000C4F20500006800F02010029043F20C4099
:1041D000C4F2050000684FF0201121EA00000190B0
:1041E00002980199084209D0FFE79DF80E00C00728
:1041F000002803D0FFE7FDF77FFDFFE7FFE74CF264
:104200003000C4F2A6200068012855D1FFE748F22B
:104210001820C4F2A6200068002812D1FFE748F257
:104220001810C4F2A6200068012809D1FFE79DF804
:104230000C004006002803D5FFE7FDF76FFDFFE700
:10424000FFE748F25820C4F2A6200068002812D1E7
:10425000FFE748F25810C4F2A6200068012809D1EF
:10426000FFE79DF80D004006002803D5FFE7FDF7A6
:1042700035FDFFE7FFE743F20440C4F205000068A4
:1042800000F04010029043F20C40C4F205000068B8
:104290004FF0401121EA0000019002980199084274
:1042A00009D0FFE79DF80E00C007002803D0FFE704
:1042B000FDF724FDFFE7FFE74CF6B000C4F2A620AF
:1042C0000068012855D1FFE748F21C20C4F2A6205F
:1042D0000068002812D1FFE748F21C10C4F2A620A3
:1042E0000068012809D1FFE79DF80C0000060028AE
:1042F00003D5FFE7FDF714FDFFE7FFE748F25C2079
:10430000C4F2A6200068002812D1FFE748F25C1032
:10431000C4F2A6200068012809D1FFE79DF80D002E
:104320000006002803D5FFE7FDF7DAFCFFE7FFE70B
:1043300043F20440C4F2050000688021C0F240014D
:104340000840029043F20C40C4F20500006821EAE4
:104350000000019002980199084209D0FFE79DF8FA
:104360000E00C007002803D0FFE7FDF7C9FCFFE7F8
:10437000FFE740F28010C4F2AB200068012812D1A0
:10438000FFE740F20010C4F2AB200068012809D119
:10439000FFE79DF80E00C006002803D5FFE7FDF7F4
:1043A00015FDFFE7FFE740F28410C4F2AB20006880
:1043B000012812D1FFE740F20410C4F2AB200068DC
:1043C000012809D1FFE79DF80E008006002803D5DB
:1043D000FFE7FDF7FFFCFFE7FFE740F28810C4F2BC
:1043E000AB200068012812D1FFE740F20810C4F2A8
:1043F000AB200068012809D1FFE79DF80E004006B8
:10440000002803D5FFE7FDF7E3FCFFE7FFE740F2F5
:104410008C10C4F2AB200068012812D1FFE740F2F3
:104420000C10C4F2AB200068012809D1FFE79DF809
:104430000E000006002803D5FFE7FDF7C5FCFFE7E7
:10444000FFE740F29010C4F2AB200068012812D1BF
:10445000FFE740F21010C4F2AB200068012809D138
:10446000FFE79DF80F00C007002803D0FFE7FDF726
:10447000B3FCFFE7FFE740F29410C4F2AB20006802
:10448000012812D1FFE740F21410C4F2AB200068FB
:10449000012809D1FFE79DF80F008007002803D508
:1044A000FFE7FDF78FFCFFE7FFE740F20010C4F2E3
:1044B000B0200068012812D1FFE740F27C30C4F23E
:1044C000B0200068012809D1FFE79DF80F00000720
:1044D000002803D5FFE7FDF749FDFFE7FFE748F2B6
:1044E0000010C4F2B0200068012812D1FFE748F2A2
:1044F0007C30C4F2B0200068012809D1FFE79DF8A4
:104500000F00C006002803D5FFE7FDF731FDFFE7E8
:10451000FFE740F20010C4F2B1200068012812D178
:10452000FFE740F27C30C4F2B1200068012809D1D5
:10453000FFE79DF80F008006002803D5FFE7FDF791
:1045400019FDFFE7FFE748F20010C4F2B120006850
:10455000012812D1FFE748F27C30C4F2B120006894
:10456000012809D1FFE79DF80F004006002803D578
:10457000FFE7FDF701FDFFE7FFE7FFE704B080BDC0
:1045800080B582B041F26820C4F205000068019055
:1045900040F20820C4F248200068012812D1FFE749
:1045A00040F28020C4F248200068012809D1FFE7CA
:1045B0009DF80400C007002803D0FFE705F0EAFEDD
:1045C000FFE7FFE740F24820C4F2482000680128D6
:1045D00012D1FFE740F2C020C4F248200068012851
:1045E00009D1FFE79DF804008007002803D5FFE705
:1045F00005F0D2FEFFE7FFE748F20820C4F24820AA
:104600000068012812D1FFE748F28020C4F2482058
:104610000068012809D1FFE79DF804004007002841
:1046200003D5FFE705F0BAFEFFE7FFE748F24820B1
:10463000C4F248200068012812D1FFE748F2C020E8
:10464000C4F248200068012809D1FFE79DF8040062
:104650000007002803D5FFE705F0A2FEFFE7FFE70C
:1046600040F28020C4F249200068012812D1FFE7FF
:1046700040F20040C4F249200068012809D1FFE758
:104680009DF80400C006002803D5FFE705F05EFF93
:10469000FFE7FFE740F2C020C4F24920006801288C
:1046A00012D1FFE740F24040C4F2492000680128DF
:1046B00009D1FFE79DF804008006002803D5FFE735
:1046C00005F046FFFFE7FFE740F28420C4F24920EF
:1046D0000068012812D1FFE740F20440C4F24920EB
:1046E0000068012809D1FFE79DF804004006002872
:1046F00003D5FFE705F02EFFFFE7FFE740F2C420F8
:10470000C4F249200068012812D1FFE740F244407A
:10471000C4F249200068012809D1FFE79DF8040090
:104720000006002803D5FFE705F016FFFFE7FFE7C7
:1047300048F28020C4F249200068012812D1FFE726
:1047400048F20040C4F249200068012809D1FFE77F
:104750009DF80500C007002803D0FFE705F0FEFE26
:10476000FFE7FFE748F2C020C4F2492000680128B3
:1047700012D1FFE748F24040C4F249200068012806
:1047800009D1FFE79DF805008007002803D5FFE762
:1047900005F0E6FEFFE7FFE748F28420C4F2492077
:1047A0000068012812D1FFE748F20440C4F2492012
:1047B0000068012809D1FFE79DF80500400700289F
:1047C00003D5FFE705F0CEFEFFE7FFE748F2C42080
:1047D000C4F249200068012812D1FFE748F24440A2
:1047E000C4F249200068012809D1FFE79DF80500BF
:1047F0000007002803D5FFE705F0B6FEFFE7FFE757
:1048000040F28020C4F24A200068012812D1FFE75C
:1048100040F20040C4F24A200068012809D1FFE7B5
:104820009DF80500C006002803D5FFE705F09EFEB1
:10483000FFE7FFE740F2C020C4F24A2000680128E9
:1048400012D1FFE740F24040C4F24A20006801283C
:1048500009D1FFE79DF805008006002803D5FFE792
:1048600005F086FEFFE7FFE740F28420C4F24A200D
:104870000068012812D1FFE740F20440C4F24A2048
:104880000068012809D1FFE79DF8050040060028CF
:1048900003D5FFE705F06EFEFFE7FFE740F2C42017
:1048A000C4F24A200068012812D1FFE740F24440D8
:1048B000C4F24A200068012809D1FFE79DF80500ED
:1048C0000006002803D5FFE705F056FEFFE7FFE7E7
:1048D00048F28020C4F24A200068012812D1FFE784
:1048E00048F20040C4F24A200068012809D1FFE7DD
:1048F0009DF80600C007002803D0FFE705F03EFE44
:10490000FFE7FFE748F2C020C4F24A200068012810
:1049100012D1FFE748F24040C4F24A200068012863
:1049200009D1FFE79DF806008007002803D5FFE7BF
:1049300005F026FEFFE7FFE748F28420C4F24A2094
:104940000068012812D1FFE748F20440C4F24A206F
:104950000068012809D1FFE79DF8060040070028FC
:1049600003D5FFE705F00EFEFFE7FFE748F2C4209E
:10497000C4F24A200068012812D1FFE748F24440FF
:10498000C4F24A200068012809D1FFE79DF806001B
:104990000007002803D5FFE705F0F6FDFFE7FFE776
:1049A00040F61400C4F298200068012812D1FFE7F5
:1049B00040F60010C4F298200068012809D1FFE7F2
:1049C0009DF80700C007002803D0FFE705F072F844
:1049D000FFE7FFE740F69400C4F298200068012842
:1049E00012D1FFE740F60410C4F2982000680128B5
:1049F00009D1FFE79DF80700C007002803D0FFE7B3
:104A000005F05AF8FFE7FFE740F21810C4F29820CB
:104A10000068012812D1FFE740F20C10C4F2982080
:104A20000068012809D1FFE79DF8070080070028EA
:104A300003D5FFE705F03AF8FFE7FFE740F214106F
:104A4000C4F298200068012812D1FFE740F2081054
:104A5000C4F298200068012809D1FFE79DF80700FB
:104A60004007002803D5FFE705F022F8FFE7FFE73E
:104A700040F60000C4F2A8200068012812D1FFE728
:104A800040F62000C4F2A8200068012809D1FFE701
:104A90009DF807008006002803D5FFE7FCF786FC99
:104AA000FFE7FFE748F61C30C4F2982000680128B1
:104AB00012D1FFE748F61030C4F2982000680128B0
:104AC00009D1FFE79DF807004006002803D5FFE75E
:104AD00004F0BCFFFFE7FFE749F20440C4F2040022
:104AE000006800F4403000900098002809D0FFE7EB
:104AF0009DF807000006002803D5FFE705F0C6FA79
:104B0000FFE702B080BD000080B582B041F26C20AA
:104B1000C4F205000068019042F68000C4F2302023
:104B20000068012812D1FFE742F68040C4F230202D
:104B30000068012809D1FFE79DF80400C00700289C
:104B400003D0FFE705F058FDFFE7FFE742F68400DA
:104B5000C4F230200068012812D1FFE742F68440F9
:104B6000C4F230200068012809D1FFE79DF8040055
:104B70008007002803D5FFE705F040FDFFE7FFE7CA
:104B800042F68800C4F230200068012812D1FFE705
:104B900042F68840C4F230200068012809D1FFE7BE
:104BA0009DF804004007002803D5FFE705F028FD25
:104BB000FFE7FFE742F68C00C4F2302000680128CE
:104BC00012D1FFE742F68C40C4F230200068012881
:104BD00009D1FFE79DF804000007002803D5FFE78F
:104BE00005F010FDFFE7FFE742F69000C4F2302029
:104BF0000068012812D1FFE742F69040C4F230204D
:104C00000068012809D1FFE79DF80400C0060028CC
:104C100003D5FFE705F0F8FCFFE7FFE742F6940055
:104C2000C4F230200068012812D1FFE742F6944018
:104C3000C4F230200068012809D1FFE79DF8040084
:104C40008006002803D5FFE705F0E0FCFFE7FFE75B
:104C500042F69800C4F230200068012812D1FFE724
:104C600042F69840C4F230200068012809D1FFE7DD
:104C70009DF804004006002803D5FFE705F0C8FCB6
:104C8000FFE7FFE742F69C00C4F2302000680128ED
:104C900012D1FFE742F69C40C4F2302000680128A0
:104CA00009D1FFE79DF804000006002803D5FFE7BF
:104CB00005F0B0FCFFE7FFE740F21030C4F27020CF
:104CC0000068012812D1FFE740F21830C4F27020CA
:104CD0000068012809D1FFE79DF80500C0070028FA
:104CE00003D0FFE705F052FCFFE7FFE740F2143086
:104CF000C4F270200068012812D1FFE740F21C3096
:104D0000C4F270200068012809D1FFE79DF8050072
:104D10008007002803D5FFE705F03AFCFFE7FFE72F
:104D200040F29030C4F270200068012812D1FFE7F1
:104D300040F29830C4F270200068012809D1FFE7E2
:104D40009DF805004007002803D5FFE705F022FC89
:104D5000FFE7FFE740F29430C4F2702000680128BA
:104D600012D1FFE740F29C30C4F2702000680128A5
:104D700009D1FFE79DF805000007002803D5FFE7EC
:104D800005F00AFCFFE7FFE740F21040C4F2702094
:104D90000068012812D1FFE740F21840C4F27020E9
:104DA0000068012809D1FFE79DF80500C00600282A
:104DB00003D5FFE705F0F2FBFFE7FFE740F2144001
:104DC000C4F270200068012812D1FFE740F21C40B5
:104DD000C4F270200068012809D1FFE79DF80500A2
:104DE0008006002803D5FFE705F0DAFBFFE7FFE7C1
:104DF00040F62010C4F270200068012812D1FFE7AD
:104E000040F62410C4F270200068012809D1FFE7A1
:104E10009DF805004006002803D5FFE705F0C2FB1A
:104E2000FFE7FFE740F63410C4F270200068012865
:104E300012D1FFE740F63810C4F270200068012854
:104E400009D1FFE79DF805000006002803D5FFE71C
:104E500005F0ACFBFFE7FFE74AF68000C4F2302024
:104E60000068012812D1FFE74AF68040C4F23020E2
:104E70000068012809D1FFE79DF80600C007002857
:104E800003D0FFE705F0D2FBFFE7FFE74AF6840017
:104E9000C4F230200068012812D1FFE74AF68440AE
:104EA000C4F230200068012809D1FFE79DF8060010
:104EB0008007002803D5FFE705F0BAFBFFE7FFE70F
:104EC0004AF68800C4F230200068012812D1FFE7BA
:104ED0004AF68840C4F230200068012809D1FFE773
:104EE0009DF806004007002803D5FFE705F0A2FB68
:104EF000FFE7FFE74AF68C00C4F230200068012883
:104F000012D1FFE74AF68C40C4F230200068012835
:104F100009D1FFE79DF806000007002803D5FFE749
:104F200005F08AFBFFE7FFE74AF69000C4F2302065
:104F30000068012812D1FFE74AF69040C4F2302001
:104F40000068012809D1FFE79DF80600C006002887
:104F500003D5FFE705F072FBFFE7FFE74AF6940091
:104F6000C4F230200068012812D1FFE74AF69440CD
:104F7000C4F230200068012809D1FFE79DF806003F
:104F80008006002803D5FFE705F05AFBFFE7FFE79F
:104F90004AF69800C4F230200068012812D1FFE7D9
:104FA0004AF69840C4F230200068012809D1FFE792
:104FB0009DF806004006002803D5FFE705F042FBF8
:104FC000FFE7FFE74AF69C00C4F2302000680128A2
:104FD00012D1FFE74AF69C40C4F230200068012855
:104FE00009D1FFE79DF806000006002803D5FFE77A
:104FF00005F02AFBFFE7FFE748F21030C4F270200B
:105000000068012812D1FFE748F21830C4F270207E
:105010000068012809D1FFE79DF80700C0070028B4
:1050200003D0FFE705F0C4FAFFE7FFE748F21430CA
:10503000C4F270200068012812D1FFE748F21C304A
:10504000C4F270200068012809D1FFE79DF807002D
:105050008007002803D5FFE705F0ACFAFFE7FFE77C
:1050600048F29030C4F270200068012812D1FFE7A6
:1050700048F29830C4F270200068012809D1FFE797
:105080009DF807004007002803D5FFE705F094FAD4
:10509000FFE7FFE748F29430C4F27020006801286F
:1050A00012D1FFE748F29C30C4F27020006801285A
:1050B00009D1FFE79DF807000007002803D5FFE7A7
:1050C00005F07CFAFFE7FFE748F21040C4F27020D9
:1050D0000068012812D1FFE748F21840C4F270209E
:1050E0000068012809D1FFE79DF80700C0060028E5
:1050F00003D5FFE705F064FAFFE7FFE748F2144045
:10510000C4F270200068012812D1FFE748F21C4069
:10511000C4F270200068012809D1FFE79DF807005C
:105120008006002803D5FFE705F04CFAFFE7FFE70C
:1051300048F62010C4F270200068012812D1FFE761
:1051400048F62410C4F270200068012809D1FFE756
:105150009DF807004006002803D5FFE705F034FA64
:10516000FFE7FFE748F63410C4F27020006801281A
:1051700012D1FFE748F63810C4F270200068012809
:1051800009D1FFE79DF807000006002803D5FFE7D7
:1051900005F01EFAFFE7FFE702B080BD80B582B0E0
:1051A00041F27020C4F205000068019042F68000D0
:1051B000C4F231200068012812D1FFE742F6804096
:1051C000C4F231200068012809D1FFE79DF80400EE
:1051D000C007002803D0FFE705F042FAFFE7FFE72A
:1051E00042F68400C4F231200068012812D1FFE7A2
:1051F00042F68440C4F231200068012809D1FFE75B
:105200009DF804008007002803D5FFE705F02AFA7F
:10521000FFE7FFE742F68800C4F23120006801286A
:1052200012D1FFE742F68840C4F23120006801281D
:1052300009D1FFE79DF804004007002803D5FFE7E8
:1052400005F012FAFFE7FFE742F68C00C4F23120C6
:105250000068012812D1FFE742F68C40C4F23120E9
:105260000068012809D1FFE79DF804000007002825
:1052700003D5FFE705F0FAF9FFE7FFE742F69000F4
:10528000C4F231200068012812D1FFE742F69040B5
:10529000C4F231200068012809D1FFE79DF804001D
:1052A000C006002803D5FFE705F0E2F9FFE7FFE7B6
:1052B00042F69400C4F231200068012812D1FFE7C1
:1052C00042F69440C4F231200068012809D1FFE77A
:1052D0009DF804008006002803D5FFE705F0CAF911
:1052E000FFE7FFE742F69800C4F23120006801288A
:1052F00012D1FFE742F69840C4F23120006801283D
:1053000009D1FFE79DF804004006002803D5FFE718
:1053100005F0B2F9FFE7FFE742F69C00C4F2312046
:105320000068012812D1FFE742F69C40C4F2312008
:105330000068012809D1FFE79DF804000006002855
:1053400003D5FFE705F09AF9FFE7FFE740F21030D9
:10535000C4F271200068012812D1FFE740F2183032
:10536000C4F271200068012809D1FFE79DF805000B
:10537000C007002803D0FFE705F02CF9FFE7FFE79F
:1053800040F21430C4F271200068012812D1FFE706
:1053900040F21C30C4F271200068012809D1FFE7F7
:1053A0009DF805008007002803D5FFE705F014F9F4
:1053B000FFE7FFE740F29030C4F271200068012857
:1053C00012D1FFE740F29830C4F271200068012842
:1053D00009D1FFE79DF805004007002803D5FFE746
:1053E00005F0FCF8FFE7FFE740F29430C4F27120CB
:1053F0000068012812D1FFE740F29C30C4F271200E
:105400000068012809D1FFE79DF805000007002882
:1054100003D5FFE705F0E4F8FFE7FFE740F21040AF
:10542000C4F271200068012812D1FFE740F2184051
:10543000C4F271200068012809D1FFE79DF805003A
:10544000C006002803D5FFE705F0CCF8FFE7FFE72B
:1054500040F21440C4F271200068012812D1FFE725
:1054600040F21C40C4F271200068012809D1FFE716
:105470009DF805008006002803D5FFE705F0B4F885
:10548000FFE7FFE740F62010C4F271200068012812
:1054900012D1FFE740F62410C4F271200068012801
:1054A00009D1FFE79DF805004006002803D5FFE776
:1054B00005F09CF8FFE7FFE740F63410C4F27120D6
:1054C0000068012812D1FFE740F63810C4F27120BD
:1054D0000068012809D1FFE79DF8050000060028B3
:1054E00003D5FFE705F086F8FFE7FFE742F6A000E7
:1054F000C4F230200068012812D1FFE742F6A04034
:10550000C4F230200068012809D1FFE79DF80600A9
:10551000C007002803D0FFE705F07EF8FFE7FFE7AC
:1055200042F6C000C4F230200068012812D1FFE723
:1055300042F6A440C4F230200068012809D1FFE7F8
:105540009DF806000007002803D5FFE705F06AF87C
:10555000FFE7FFE742F6C400C4F2302000680128EC
:1055600012D1FFE742F6A840C4F2302000680128BB
:1055700009D1FFE79DF806000007002803D5FFE7E3
:1055800005F04CF8FFE7FFE742F6C800C4F2302010
:105590000068012812D1FFE742F6AC40C4F2302087
:1055A0000068012809D1FFE79DF80600C006002821
:1055B00003D5FFE705F038F8FFE7FFE742F6CC0038
:1055C000C4F230200068012812D1FFE742F6B04053
:1055D000C4F230200068012809D1FFE79DF80600D9
:1055E000C006002803D5FFE705F01AF8FFE7FFE73C
:1055F00041F28040C4F270200068002812D1FFE719
:1056000041F29040C4F270200068012809D1FFE700
:105610009DF806008006002803D5FFE704F0C4FFCC
:10562000FFE7FFE741F28440C4F2702000680028E1
:1056300012D1FFE741F2A040C4F2702000680128B7
:1056400009D1FFE79DF806004006002803D5FFE7D3
:1056500004F0AAFFFFE7FFE741F28840C4F27020A0
:105660000068002812D1FFE741F2B040C4F2702078
:105670000068012809D1FFE79DF806000006002810
:1056800003D5FFE704F090FFFFE7FFE74AF6A0002D
:10569000C4F230200068012812D1FFE74AF6A0408A
:1056A000C4F230200068012809D1FFE79DF8070007
:1056B000C007002803D0FFE704F0C8FFFFE7FFE7BB
:1056C0004AF6C000C4F230200068012812D1FFE77A
:1056D0004AF6A440C4F230200068012809D1FFE74F
:1056E0009DF807000007002803D5FFE704F0B4FF8A
:1056F000FFE7FFE74AF6C400C4F230200068012843
:1057000012D1FFE74AF6A840C4F230200068012811
:1057100009D1FFE79DF807000007002803D5FFE740
:1057200004F096FFFFE7FFE74AF6C800C4F2302016
:105730000068012812D1FFE74AF6AC40C4F23020DD
:105740000068012809D1FFE79DF80700C00600287E
:1057500003D5FFE704F082FFFFE7FFE74AF6CC003E
:10576000C4F230200068012812D1FFE74AF6B040A9
:10577000C4F230200068012809D1FFE79DF8070036
:10578000C006002803D5FFE704F064FFFFE7FFE74A
:1057900049F28040C4F270200068002812D1FFE76F
:1057A00049F29040C4F270200068012809D1FFE757
:1057B0009DF807008006002803D5FFE704F006FFE8
:1057C000FFE7FFE749F28440C4F270200068002838
:1057D00012D1FFE749F2A040C4F27020006801280E
:1057E00009D1FFE79DF807004006002803D5FFE731
:1057F00004F0ECFEFFE7FFE749F28840C4F27020B6
:105800000068002812D1FFE749F2B040C4F27020CE
:105810000068012809D1FFE79DF80700000600286D
:1058200003D5FFE704F0D2FEFFE7FFE702B080BD3B
:1058300080B582B041F27420C4F205000068019086
:1058400042F6A000C4F231200068012812D1FFE71F
:1058500042F6A040C4F231200068012809D1FFE7D8
:105860009DF80400C007002803D0FFE704F008FFFC
:10587000FFE7FFE742F6C000C4F2312000680128CC
:1058800012D1FFE742F6A440C4F23120006801289B
:1058900009D1FFE79DF804000007002803D5FFE7C2
:1058A00004F0F4FEFFE7FFE742F6C400C4F2312043
:1058B0000068012812D1FFE742F6A840C4F2312067
:1058C0000068012809D1FFE79DF8040000070028BF
:1058D00003D5FFE704F0D6FEFFE7FFE742F6C80076
:1058E000C4F231200068012812D1FFE742F6AC4033
:1058F000C4F231200068012809D1FFE79DF80400B7
:10590000C006002803D5FFE704F0C2FEFFE7FFE76B
:1059100042F6CC00C4F231200068012812D1FFE722
:1059200042F6B040C4F231200068012809D1FFE7F7
:105930009DF80400C006002803D5FFE704F0A4FE8C
:10594000FFE7FFE741F28040C4F2712000680028C1
:1059500012D1FFE741F29040C4F2712000680128A3
:1059600009D1FFE79DF804008006002803D5FFE772
:1059700004F03EFEFFE7FFE741F28440C4F27120ED
:105980000068002812D1FFE741F2A040C4F2712064
:105990000068012809D1FFE79DF8040040060028AF
:1059A00003D5FFE704F024FEFFE7FFE741F288405C
:1059B000C4F271200068002812D1FFE741F2B04024
:1059C000C4F271200068012809D1FFE79DF80400A6
:1059D0000006002803D5FFE704F00AFEFFE7FFE713
:1059E0004AF68000C4F231200068012812D1FFE796
:1059F0004AF68040C4F231200068012809D1FFE74F
:105A00009DF80600C007002803D0FFE704F042FE1F
:105A1000FFE7FFE74AF68400C4F23120006801285E
:105A200012D1FFE74AF68440C4F231200068012811
:105A300009D1FFE79DF806008007002803D5FFE79E
:105A400004F02AFEFFE7FFE74AF68800C4F231209F
:105A50000068012812D1FFE74AF68840C4F23120DD
:105A60000068012809D1FFE79DF8060040070028DB
:105A700003D5FFE704F012FEFFE7FFE74AF68C00CC
:105A8000C4F231200068012812D1FFE74AF68C40A9
:105A9000C4F231200068012809D1FFE79DF8060013
:105AA0000007002803D5FFE704F0FAFDFFE7FFE752
:105AB0004AF69000C4F231200068012812D1FFE7B5
:105AC0004AF69040C4F231200068012809D1FFE76E
:105AD0009DF80600C006002803D5FFE704F0E2FDAC
:105AE000FFE7FFE74AF69400C4F23120006801287E
:105AF00012D1FFE74AF69440C4F231200068012831
:105B000009D1FFE79DF806008006002803D5FFE7CE
:105B100004F0CAFDFFE7FFE74AF69800C4F231201F
:105B20000068012812D1FFE74AF69840C4F23120FC
:105B30000068012809D1FFE79DF80600400600280B
:105B400003D5FFE704F0B2FDFFE7FFE74AF69C004C
:105B5000C4F231200068012812D1FFE74AF69C40C8
:105B6000C4F231200068012809D1FFE79DF8060042
:105B70000006002803D5FFE704F09AFDFFE7FFE7E2
:105B80004AF6A000C4F231200068012812D1FFE7D4
:105B90004AF6A040C4F231200068012809D1FFE78D
:105BA0009DF80700C007002803D0FFE704F082FD3E
:105BB000FFE7FFE74AF6C000C4F231200068012881
:105BC00012D1FFE74AF6A440C4F231200068012850
:105BD00009D1FFE79DF807000007002803D5FFE77C
:105BE00004F06EFDFFE7FFE74AF6C400C4F231207F
:105BF0000068012812D1FFE74AF6A840C4F231201C
:105C00000068012809D1FFE79DF807000007002878
:105C100003D5FFE704F050FDFFE7FFE74AF6C800B1
:105C2000C4F231200068012812D1FFE74AF6AC40E7
:105C3000C4F231200068012809D1FFE79DF8070070
:105C4000C006002803D5FFE704F03CFDFFE7FFE7AF
:105C50004AF6CC00C4F231200068012812D1FFE7D7
:105C60004AF6B040C4F231200068012809D1FFE7AC
:105C70009DF80700C006002803D5FFE704F01EFDCD
:105C8000FFE7FFE702B080BD80B582B041F2782027
:105C9000C4F205000068019042F68000C4F2322090
:105CA0000068012812D1FFE742F68040C4F232209A
:105CB0000068012809D1FFE79DF80400C00700280B
:105CC00003D0FFE704F000FDFFE7FFE742F68400A2
:105CD000C4F232200068012812D1FFE742F6844066
:105CE000C4F232200068012809D1FFE79DF80400C2
:105CF0008007002803D5FFE704F0E8FCFFE7FFE793
:105D000042F68800C4F232200068012812D1FFE771
:105D100042F68840C4F232200068012809D1FFE72A
:105D20009DF804004007002803D5FFE704F0D0FCED
:105D3000FFE7FFE742F68C00C4F23220006801283A
:105D400012D1FFE742F68C40C4F2322000680128ED
:105D500009D1FFE79DF804000007002803D5FFE7FD
:105D600004F0B8FCFFE7FFE742F69000C4F23220EF
:105D70000068012812D1FFE742F69040C4F23220B9
:105D80000068012809D1FFE79DF80400C00600283B
:105D900003D5FFE704F0A0FCFFE7FFE742F694001D
:105DA000C4F232200068012812D1FFE742F6944085
:105DB000C4F232200068012809D1FFE79DF80400F1
:105DC0008006002803D5FFE704F088FCFFE7FFE723
:105DD00042F69800C4F232200068012812D1FFE791
:105DE00042F69840C4F232200068012809D1FFE74A
:105DF0009DF804004006002803D5FFE704F070FC7E
:105E0000FFE7FFE742F69C00C4F232200068012859
:105E100012D1FFE742F69C40C4F23220006801280C
:105E200009D1FFE79DF804000006002803D5FFE72D
:105E300004F058FCFFE7FFE742F6A000C4F232206E
:105E40000068012812D1FFE742F6A040C4F23220D8
:105E50000068012809D1FFE79DF80500C007002868
:105E600003D0FFE704F040FCFFE7FFE742F6C00085
:105E7000C4F232200068012812D1FFE742F6A440A4
:105E8000C4F232200068012809D1FFE79DF805001F
:105E90000007002803D5FFE704F02CFCFFE7FFE72D
:105EA00042F6C400C4F232200068012812D1FFE794
:105EB00042F6A840C4F232200068012809D1FFE769
:105EC0009DF805000007002803D5FFE704F00EFC4D
:105ED000FFE7FFE742F6C800C4F23220006801285D
:105EE00012D1FFE742F6AC40C4F23220006801282C
:105EF00009D1FFE79DF80500C006002803D5FFE79C
:105F000004F0FAFBFFE7FFE742F6CC00C4F23220D0
:105F10000068012812D1FFE742F6B040C4F23220F7
:105F20000068012809D1FFE79DF80500C006002898
:105F300003D5FFE704F0DCFBFFE7FFE741F23000A9
:105F4000C4F274200068012812D1FFE741F2380042
:105F5000C4F274200068012809D1FFE79DF805000C
:105F60008006002803D5FFE704F042FCFFE7FFE7C7
:105F700041F23400C4F274200068012812D1FFE716
:105F800041F23C00C4F274200068012809D1FFE707
:105F90009DF805004006002803D5FFE704F02AFC21
:105FA000FFE7FFE741F20020C4F2742000680128F7
:105FB00012D1FFE741F28030C4F27420006801285A
:105FC00009D1FFE79DF805000006002803D5FFE78B
:105FD00004F006FCFFE7FFE741F20420C4F274205E
:105FE0000068012812D1FFE741F28430C4F2742026
:105FF0000068012809D1FFE79DF805000006002888
:1060000003D5FFE704F0EEFBFFE7FFE741F20820CE
:10601000C4F274200068012812D1FFE741F28830F1
:10602000C4F274200068012809D1FFE79DF805003B
:106030000006002803D5FFE704F0D6FBFFE7FFE7E3
:1060400041F20C20C4F274200068012812D1FFE74D
:1060500041F28C30C4F274200068012809D1FFE7B6
:106060009DF805000006002803D5FFE704F0BEFBFD
:10607000FFE7FFE74AF68000C4F2322000680128FB
:1060800012D1FFE74AF68040C4F2322000680128AE
:1060900009D1FFE79DF80600C007002803D0FFE7FD
:1060A00004F02CFBFFE7FFE74AF68400C4F232203D
:1060B0000068012812D1FFE74AF68440C4F232207A
:1060C0000068012809D1FFE79DF806008007002835
:1060D00003D5FFE704F014FBFFE7FFE74AF688006B
:1060E000C4F232200068012812D1FFE74AF6884046
:1060F000C4F232200068012809D1FFE79DF80600AC
:106100004007002803D5FFE704F0FCFAFFE7FFE7AC
:106110004AF68C00C4F232200068012812D1FFE751
:106120004AF68C40C4F232200068012809D1FFE70A
:106130009DF806000007002803D5FFE704F0E4FA05
:10614000FFE7FFE74AF69000C4F23220006801281A
:1061500012D1FFE74AF69040C4F2322000680128CD
:1061600009D1FFE79DF80600C006002803D5FFE728
:1061700004F0CCFAFFE7FFE74AF69400C4F23220BD
:106180000068012812D1FFE74AF69440C4F2322099
:106190000068012809D1FFE79DF806008006002865
:1061A00003D5FFE704F0B4FAFFE7FFE74AF69800EB
:1061B000C4F232200068012812D1FFE74AF6984065
:1061C000C4F232200068012809D1FFE79DF80600DB
:1061D0004006002803D5FFE704F09CFAFFE7FFE73D
:1061E0004AF69C00C4F232200068012812D1FFE771
:1061F0004AF69C40C4F232200068012809D1FFE72A
:106200009DF806000006002803D5FFE704F084FA95
:10621000FFE7FFE74AF6A000C4F232200068012839
:1062200012D1FFE74AF6A040C4F2322000680128EC
:1062300009D1FFE79DF80700C007002803D0FFE75A
:1062400004F06CFAFFE7FFE74AF6C000C4F2322020
:106250000068012812D1FFE74AF6A440C4F23220B8
:106260000068012809D1FFE79DF807000007002812
:1062700003D5FFE704F058FAFFE7FFE74AF6C4004A
:10628000C4F232200068012812D1FFE74AF6A84084
:10629000C4F232200068012809D1FFE79DF8070009
:1062A0000007002803D5FFE704F03AFAFFE7FFE70D
:1062B0004AF6C800C4F232200068012812D1FFE774
:1062C0004AF6AC40C4F232200068012809D1FFE749
:1062D0009DF80700C006002803D5FFE704F026FA62
:1062E000FFE7FFE74AF6CC00C4F23220006801283D
:1062F00012D1FFE74AF6B040C4F23220006801280C
:1063000009D1FFE79DF80700C006002803D5FFE785
:1063100004F008FAFFE7FFE749F23000C4F2742006
:106320000068012812D1FFE749F23800C4F2742056
:106330000068012809D1FFE79DF8070080060028C2
:1063400003D5FFE704F060FAFFE7FFE749F2340006
:10635000C4F274200068012812D1FFE749F23C0022
:10636000C4F274200068012809D1FFE79DF80700F6
:106370004006002803D5FFE704F048FAFFE7FFE7EF
:1063800049F20020C4F274200068012812D1FFE70E
:1063900049F28030C4F274200068012809D1FFE777
:1063A0009DF807000006002803D5FFE704F024FA53
:1063B000FFE7FFE749F20420C4F2742000680128D7
:1063C00012D1FFE749F28430C4F27420006801283A
:1063D00009D1FFE79DF807000006002803D5FFE775
:1063E00004F00CFAFFE7FFE749F20820C4F274203A
:1063F0000068012812D1FFE749F28830C4F2742006
:106400000068012809D1FFE79DF807000006002871
:1064100003D5FFE704F0F4F9FFE7FFE749F20C20AA
:10642000C4F274200068012812D1FFE749F28C30D1
:10643000C4F274200068012809D1FFE79DF8070025
:106440000006002803D5FFE704F0DCF9FFE7FFE7CB
:1064500002B080BD80B582B041F27C20C4F205005C
:106460000068019042F68000C4F2332000680128E1
:1064700012D1FFE742F68040C4F2332000680128C1
:1064800009D1FFE79DF80400C007002803D0FFE70B
:1064900004F04EF9FFE7FFE742F68400C4F2332030
:1064A0000068012812D1FFE742F68440C4F233208D
:1064B0000068012809D1FFE79DF804008007002843
:1064C00003D5FFE704F036F9FFE7FFE742F688005F
:1064D000C4F233200068012812D1FFE742F6884059
:1064E000C4F233200068012809D1FFE79DF80400B9
:1064F0004007002803D5FFE704F01EF9FFE7FFE798
:1065000042F68C00C4F233200068012812D1FFE764
:1065100042F68C40C4F233200068012809D1FFE71D
:106520009DF804000007002803D5FFE704F006F9F2
:10653000FFE7FFE742F69000C4F23320006801282D
:1065400012D1FFE742F69040C4F2332000680128E0
:1065500009D1FFE79DF80400C006002803D5FFE736
:1065600004F0EEF8FFE7FFE742F69400C4F23320B0
:106570000068012812D1FFE742F69440C4F23320AC
:106580000068012809D1FFE79DF804008006002873
:1065900003D5FFE704F0D6F8FFE7FFE742F69800DF
:1065A000C4F233200068012812D1FFE742F6984078
:1065B000C4F233200068012809D1FFE79DF80400E8
:1065C0004006002803D5FFE704F0BEF8FFE7FFE729
:1065D00042F69C00C4F233200068012812D1FFE784
:1065E00042F69C40C4F233200068012809D1FFE73D
:1065F0009DF804000006002803D5FFE704F0A6F884
:10660000FFE7FFE742F6A000C4F23320006801284C
:1066100012D1FFE742F6A040C4F2332000680128FF
:1066200009D1FFE79DF80500C007002803D0FFE768
:1066300004F08EF8FFE7FFE742F6C000C4F2332013
:106640000068012812D1FFE742F6A440C4F23320CB
:106650000068012809D1FFE79DF805000007002820
:1066600003D5FFE704F07AF8FFE7FFE742F6C4003E
:10667000C4F233200068012812D1FFE742F6A84097
:10668000C4F233200068012809D1FFE79DF8050016
:106690000007002803D5FFE704F05CF8FFE7FFE7F9
:1066A00042F6C800C4F233200068012812D1FFE787
:1066B00042F6AC40C4F233200068012809D1FFE75C
:1066C0009DF80500C006002803D5FFE704F048F850
:1066D000FFE7FFE742F6CC00C4F233200068012850
:1066E00012D1FFE742F6B040C4F23320006801281F
:1066F00009D1FFE79DF80500C006002803D5FFE794
:1067000004F02AF8FFE7FFE741F23000C4F27520F9
:106710000068012812D1FFE741F23800C4F2752069
:106720000068012809D1FFE79DF8050080060028D0
:1067300003D5FFE704F074F8FFE7FFE741F2340008
:10674000C4F275200068012812D1FFE741F23C0035
:10675000C4F275200068012809D1FFE79DF8050003
:106760004006002803D5FFE704F05CF8FFE7FFE7E9
:1067700041F20020C4F275200068012812D1FFE721
:1067800041F28030C4F275200068012809D1FFE78A
:106790009DF805000006002803D5FFE704F038F84F
:1067A000FFE7FFE741F20420C4F2752000680128EA
:1067B00012D1FFE741F28430C4F27520006801284D
:1067C00009D1FFE79DF805000006002803D5FFE783
:1067D00004F020F8FFE7FFE741F20820C4F275203B
:1067E0000068012812D1FFE741F28830C4F2752019
:1067F0000068012809D1FFE79DF805000006002880
:1068000003D5FFE704F008F8FFE7FFE741F20C20AB
:10681000C4F275200068012812D1FFE741F28C30E4
:10682000C4F275200068012809D1FFE79DF8050032
:106830000006002803D5FFE703F0F0FFFFE7FFE7BE
:106840004AF68000C4F233200068012812D1FFE725
:106850004AF68040C4F233200068012809D1FFE7DE
:106860009DF80600C007002803D0FFE703F07AFF79
:10687000FFE7FFE74AF68400C4F2332000680128EE
:1068800012D1FFE74AF68440C4F2332000680128A1
:1068900009D1FFE79DF806008007002803D5FFE730
:1068A00003F062FFFFE7FFE74AF68800C4F23320F7
:1068B0000068012812D1FFE74AF68840C4F233206D
:1068C0000068012809D1FFE79DF80600400700286D
:1068D00003D5FFE703F04AFFFFE7FFE74AF68C0026
:1068E000C4F233200068012812D1FFE74AF68C4039
:1068F000C4F233200068012809D1FFE79DF80600A3
:106900000007002803D5FFE703F032FFFFE7FFE7AA
:106910004AF69000C4F233200068012812D1FFE744
:106920004AF69040C4F233200068012809D1FFE7FD
:106930009DF80600C006002803D5FFE703F01AFF04
:10694000FFE7FFE74AF69400C4F23320006801280D
:1069500012D1FFE74AF69440C4F2332000680128C0
:1069600009D1FFE79DF806008006002803D5FFE760
:1069700003F002FFFFE7FFE74AF69800C4F2332076
:106980000068012812D1FFE74AF69840C4F233208C
:106990000068012809D1FFE79DF80600400600289D
:1069A00003D5FFE703F0EAFEFFE7FFE74AF69C00A6
:1069B000C4F233200068012812D1FFE74AF69C4058
:1069C000C4F233200068012809D1FFE79DF80600D2
:1069D0000006002803D5FFE703F0D2FEFFE7FFE73C
:1069E0004AF6A000C4F233200068012812D1FFE764
:1069F0004AF6A040C4F233200068012809D1FFE71D
:106A00009DF80700C007002803D0FFE703F0BAFE97
:106A1000FFE7FFE74AF6C000C4F233200068012810
:106A200012D1FFE74AF6A440C4F2332000680128DF
:106A300009D1FFE79DF807000007002803D5FFE70D
:106A400003F0A6FEFFE7FFE74AF6C400C4F23320D6
:106A50000068012812D1FFE74AF6A840C4F23320AB
:106A60000068012809D1FFE79DF80700000700280A
:106A700003D5FFE703F088FEFFE7FFE74AF6C8000B
:106A8000C4F233200068012812D1FFE74AF6AC4077
:106A9000C4F233200068012809D1FFE79DF8070000
:106AA000C006002803D5FFE703F074FEFFE7FFE709
:106AB0004AF6CC00C4F233200068012812D1FFE767
:106AC0004AF6B040C4F233200068012809D1FFE73C
:106AD0009DF80700C006002803D5FFE703F056FE27
:106AE000FFE7FFE749F23000C4F275200068012893
:106AF00012D1FFE749F23800C4F27520006801287E
:106B000009D1FFE79DF807008006002803D5FFE7BD
:106B100003F092FEFFE7FFE749F23400C4F275206C
:106B20000068012812D1FFE749F23C00C4F2752049
:106B30000068012809D1FFE79DF8070040060028FA
:106B400003D5FFE703F07AFEFFE7FFE749F20020F5
:106B5000C4F275200068012812D1FFE749F28030A5
:106B6000C4F275200068012809D1FFE79DF80700ED
:106B70000006002803D5FFE703F056FEFFE7FFE716
:106B800049F20420C4F275200068012812D1FFE701
:106B900049F28430C4F275200068012809D1FFE76A
:106BA0009DF807000006002803D5FFE703F03EFE2E
:106BB000FFE7FFE749F20820C4F2752000680128CA
:106BC00012D1FFE749F28830C4F27520006801282D
:106BD00009D1FFE79DF807000006002803D5FFE76D
:106BE00003F026FEFFE7FFE749F20C20C4F2752010
:106BF0000068012812D1FFE749F28C30C4F27520F9
:106C00000068012809D1FFE79DF807000006002869
:106C100003D5FFE703F00EFEFFE7FFE702B080BDFC
:106C200080B584B041F28020C4F205000068039072
:106C300047F61440C4F20100006840F60E710840A7
:106C4000029047F60C40C4F2010000680840019031
:106C500002980199084209D0FFE79DF80C00C0078F
:106C6000002803D0FFE7FBF749F9FFE747F6344078
:106C7000C4F20100006840F60E710840029047F629
:106C80002C40C4F20100006808400190029801996C
:106C9000084209D0FFE79DF80C008007002803D5C3
:106CA000FFE7FBF72DF9FFE747F65440C4F2010078
:106CB000006840F60E710840029047F64C40C4F25E
:106CC000010000680840019002980199084209D02B
:106CD000FFE79DF80C004007002803D5FFE7FBF70E
:106CE00011F9FFE747F67440C4F20100006840F66E
:106CF0000E710840029047F66C40C4F20100006833
:106D00000840019002980199084209D0FFE79DF8D8
:106D10000C000007002803D5FFE7FBF7F5F8FFE7B5
:106D200047F69440C4F20100006840F60E71084036
:106D3000029047F68C40C4F20100006808400190C0
:106D400002980199084209D0FFE79DF80C00C0069F
:106D5000002803D5FFE7FBF7D9F8FFE747F6B44073
:106D6000C4F20100006840F60E710840029047F638
:106D7000AC40C4F2010000680840019002980199FB
:106D8000084209D0FFE79DF80C008006002803D5D3
:106D9000FFE7FBF7BDF8FFE747F6D440C4F2010078
:106DA000006840F60E710840029047F6CC40C4F2ED
:106DB000010000680840019002980199084209D03A
:106DC000FFE79DF80C004006002803D5FFE7FBF71E
:106DD000A1F8FFE748F29410C4F2392000680128B6
:106DE00027D1FFE74CF60040C4F20100006800F034
:106DF0000B0002900298002809D0FFE79DF80D00D3
:106E0000C006002803D5FFE703F064FDFFE748F262
:106E10001400C4F239200068012809D1FFE79DF869
:106E20000D008006002803D5FFE703F051FDFFE7C2
:106E3000FFE748F29C10C4F239200068012812D103
:106E4000FFE748F21C00C4F239200068012809D18C
:106E5000FFE79DF80D004006002803D5FFE703F08B
:106E60003DFDFFE7FFE748F29810C4F239200068C3
:106E7000012812D1FFE748F21800C4F23920006857
:106E8000012809D1FFE79DF80D000006002803D571
:106E9000FFE703F025FDFFE7FFE748F28410C4F2A7
:106EA00039200068012812D1FFE748F22000C4F21F
:106EB00039200068012809D1FFE79DF80E00C007BE
:106EC000002803D0FFE703F007FDFFE7FFE740F2EC
:106ED0009410C4F23A200068012826D1FFE74DF251
:106EE0000000C4F20100006800F00B00029002985C
:106EF000002809D0FFE79DF80E008007002803D581
:106F0000FFE703F0F1FCFFE71420C4F23A20006829
:106F1000012809D1FFE79DF80E004007002803D59E
:106F2000FFE703F0DFFCFFE7FFE740F29C10C4F24D
:106F30003A200068012811D1FFE71C20C4F23A2052
:106F40000068012809D1FFE79DF80E00000700281E
:106F500003D5FFE703F0CCFCFFE7FFE740F2981012
:106F6000C4F23A200068012811D1FFE71820C4F2CA
:106F70003A200068012809D1FFE79DF80E00C006FD
:106F8000002803D5FFE703F0B5FCFFE7FFE740F279
:106F90008410C4F23A200068012811D1FFE72020B4
:106FA000C4F23A200068012809D1FFE79DF80E00DD
:106FB0008006002803D5FFE703F098FCFFE7FFE712
:106FC000A820C4F238200068012812D1FFE740F25F
:106FD0009C20C4F238200068012809D1FFE79DF801
:106FE0000E004006002803D5FFE702F0BDFFFFE7D3
:106FF000FFE7A420C4F238200068012812D1FFE77F
:1070000040F29420C4F238200068012809D1FFE73B
:107010009DF80E000006002803D5FFE702F0A6FF4A
:10702000FFE7FFE7AC20C4F238200068012812D146
:10703000FFE740F28420C4F238200068002809D11C
:10704000FFE79DF80F00C007002803D0FFE702F01C
:1070500089FFFFE7FFE7A020C4F23820006801287D
:1070600016D1FFE74CF21400C4F20100006800F0F2
:107070001D0002900298002809D0FFE79DF80F003C
:107080008007002803D5FFE702F06AFFFFE7FFE76C
:1070900048F2A800C4F238200068012812D1FFE7A6
:1070A00048F29C20C4F238200068012809D1FFE78B
:1070B0009DF80F000007002803D5FFE702F05CFFF2
:1070C000FFE7FFE748F2A400C4F238200068012877
:1070D00012D1FFE748F29420C4F23820006801285A
:1070E00009D1FFE79DF80F00C006002803D5FFE790
:1070F00002F044FFFFE7FFE748F2AC00C4F238209B
:107100000068012812D1FFE748F28420C4F2382039
:107110000068002809D1FFE79DF80F0080060028CD
:1071200003D5FFE702F026FFFFE7FFE748F2A000E4
:10713000C4F238200068012816D1FFE74CF2144051
:10714000C4F20100006800F01D00029002980028BF
:1071500009D0FFE79DF80F004006002803D5FFE7A0
:1071600002F006FFFFE7FFE704B080BD80B584B002
:1071700041F28420C4F205000068039041F230001F
:10718000C4F24C200068012812D1FFE741F2380018
:10719000C4F24C200068012809D1FFE79DF80C00DB
:1071A000C007002803D0FFE703F052FBFFE7FFE72B
:1071B00041F23400C4F24C200068012812D1FFE7EC
:1071C00041F23C00C4F24C200068012809D1FFE7DD
:1071D0009DF80C008007002803D5FFE703F03AFB79
:1071E000FFE7FFE741F20020C4F24C2000680128CD
:1071F00012D1FFE741F28030C4F24C200068012830
:1072000009D1FFE79DF80C004007002803D5FFE7F0
:1072100003F016FBFFE7FFE741F20420C4F24C2025
:107220000068012812D1FFE741F28430C4F24C20FB
:107230000068012809D1FFE79DF80C0040070028ED
:1072400003D5FFE703F0FEFAFFE7FFE741F208206E
:10725000C4F24C200068012812D1FFE741F28830C7
:10726000C4F24C200068012809D1FFE79DF80C000A
:107270004007002803D5FFE703F0E6FAFFE7FFE742
:1072800041F20C20C4F24C200068012812D1FFE723
:1072900041F28C30C4F24C200068012809D1FFE78C
:1072A0009DF80C004007002803D5FFE703F0CEFA55
:1072B000FFE7FFE749F23000C4F24C2000680128E4
:1072C00012D1FFE749F23800C4F24C2000680128CF
:1072D00009D1FFE79DF80C000007002803D5FFE760
:1072E00003F0C2FAFFE7FFE749F23400C4F24C2092
:1072F0000068012812D1FFE749F23C00C4F24C209B
:107300000068012809D1FFE79DF80C00C00600289D
:1073100003D5FFE703F0AAFAFFE7FFE749F20020F1
:10732000C4F24C200068012812D1FFE749F28030F6
:10733000C4F24C200068012809D1FFE79DF80C0039
:107340008006002803D5FFE703F086FAFFE7FFE792
:1073500049F20420C4F24C200068012812D1FFE752
:1073600049F28430C4F24C200068012809D1FFE7BB
:107370009DF80C008006002803D5FFE703F06EFAA5
:10738000FFE7FFE749F20820C4F24C20006801281B
:1073900012D1FFE749F28830C4F24C20006801287E
:1073A00009D1FFE79DF80C008006002803D5FFE710
:1073B00003F056FAFFE7FFE749F20C20C4F24C2035
:1073C0000068012812D1FFE749F28C30C4F24C204A
:1073D0000068012809D1FFE79DF80C00800600280D
:1073E00003D5FFE703F03EFAFFE7FFE741F2300085
:1073F000C4F24D200068012812D1FFE741F23800A5
:10740000C4F24D200068012809D1FFE79DF80C0067
:107410004006002803D5FFE703F032FAFFE7FFE755
:1074200041F23400C4F24D200068012812D1FFE778
:1074300041F23C00C4F24D200068012809D1FFE769
:107440009DF80C000006002803D5FFE703F01AFAA8
:10745000FFE7FFE741F20020C4F24D200068012859
:1074600012D1FFE741F28030C4F24D2000680128BC
:1074700009D1FFE79DF80D00C007002803D0FFE702
:1074800003F0F6F9FFE7FFE741F20420C4F24D20D4
:107490000068012812D1FFE741F28430C4F24D2088
:1074A0000068012809D1FFE79DF80D00C0070028FA
:1074B00003D0FFE703F0DEF9FFE7FFE741F2082022
:1074C000C4F24D200068012812D1FFE741F2883054
:1074D000C4F24D200068012809D1FFE79DF80D0096
:1074E000C007002803D0FFE703F0C6F9FFE7FFE776
:1074F00041F20C20C4F24D200068012812D1FFE7B0
:1075000041F28C30C4F24D200068012809D1FFE718
:107510009DF80D00C007002803D0FFE703F0AEF987
:10752000FFE7FFE749F23000C4F24D200068012870
:1075300012D1FFE749F23800C4F24D20006801285B
:1075400009D1FFE79DF80D008007002803D5FFE76C
:1075500003F0A2F9FFE7FFE749F23400C4F24D203F
:107560000068012812D1FFE749F23C00C4F24D2027
:107570000068012809D1FFE79DF80D0040070028A9
:1075800003D5FFE703F08AF9FFE7FFE749F20020A0
:10759000C4F24D200068012812D1FFE749F2803083
:1075A000C4F24D200068012809D1FFE79DF80D00C5
:1075B0000007002803D5FFE703F066F9FFE7FFE7C0
:1075C00049F20420C4F24D200068012812D1FFE7DF
:1075D00049F28430C4F24D200068012809D1FFE748
:1075E0009DF80D000007002803D5FFE703F04EF9D2
:1075F000FFE7FFE749F20820C4F24D2000680128A8
:1076000012D1FFE749F28830C4F24D20006801280A
:1076100009D1FFE79DF80D000007002803D5FFE71B
:1076200003F036F9FFE7FFE749F20C20C4F24D20E2
:107630000068012812D1FFE749F28C30C4F24D20D6
:107640000068012809D1FFE79DF80D000007002818
:1076500003D5FFE703F01EF9FFE7FFE748F29410B8
:10766000C4F23A200068012827D1FFE74DF200401C
:10767000C4F20100006800F00B000290029800289C
:1076800009D0FFE79DF80D00C006002803D5FFE7ED
:1076900003F034F9FFE748F21400C4F23A2000681E
:1076A000012809D1FFE79DF80D008006002803D5C9
:1076B000FFE703F021F9FFE7FFE748F29C10C4F26F
:1076C0003A200068012812D1FFE748F21C00C4F2FA
:1076D0003A200068012809D1FFE79DF80D00400617
:1076E000002803D5FFE703F00BF9FFE7FFE748F2B7
:1076F0009810C4F23A200068012812D1FFE748F23E
:107700001800C4F23A200068012809D1FFE79DF86B
:107710000D000006002803D5FFE703F0F3F8FFE7AC
:10772000FFE740F29410C4F23B200068012826D104
:10773000FFE74DF60000C4F20100006800F00B0006
:1077400002900298002809D0FFE79DF80E00C007BC
:10775000002803D0FFE703F0D9F8FFE71420C4F2B4
:107760003B200068012809D1FFE79DF80E00800743
:10777000002803D5FFE703F0C7F8FFE7FFE740F273
:107780009C10C4F23B200068012811D1FFE71C20A7
:10779000C4F23B200068012809D1FFE79DF80E00E4
:1077A0004007002803D5FFE703F0B2F8FFE7FFE743
:1077B00040F29810C4F23B200068012811D1FFE785
:1077C0001820C4F23B200068012809D1FFE79DF88A
:1077D0000E000007002803D5FFE703F09BF8FFE742
:1077E000FFE79DF80E0000F010000021B1EB101F24
:1077F00071D0FFE749F2A500C4F2000000788DF8CF
:10780000070049F2A400C4F2000000788DF80600D9
:1078100049F2A600C4F2000000788DF8050049F294
:10782000BF00C4F2000000788DF804009DF8040049
:10783000800600284BD4FFE79DF80700C00700280A
:1078400045D1FFE79DF807009DF80610084010F0AD
:10785000FE0F3CD1FFE79DF805008007002806D504
:10786000FFE79DF80500C007002830D1FFE79DF82D
:1078700005000007002806D5FFE79DF80500400732
:10788000002824D4FFE79DF805008006002806D5CF
:10789000FFE79DF80500C006002818D4FFE79DF813
:1078A0000400C006002806D5FFE79DF80400000785
:1078B00000280CD4FFE79DF804000006002809D535
:1078C000FFE79DF804004006002803D5FFE7F8F71E
:1078D000E5FFFFE7FFE79DF80E0000F02000002124
:1078E000B1EB501F71D0FFE748F2A500C4F20700CA
:1078F00000788DF8070048F2A400C4F20700007871
:107900008DF8060048F2A600C4F2070000788DF852
:10791000050048F2BF00C4F2070000788DF80400AB
:107920009DF80400800600284BD4FFE79DF807006F
:10793000C007002845D1FFE79DF807009DF8061015
:10794000084010F0FE0F3CD1FFE79DF805008007CE
:10795000002806D5FFE79DF80500C007002830D1B4
:10796000FFE79DF805000007002806D5FFE79DF812
:1079700005004007002824D4FFE79DF80500800695
:10798000002806D5FFE79DF80500C006002818D49A
:10799000FFE79DF80400C006002806D5FFE79DF824
:1079A0000400000700280CD4FFE79DF8040000063F
:1079B000002809D5FFE79DF804004006002803D5FC
:1079C000FFE7F8F76DFFFFE7FFE7A820C4F23920D3
:1079D0000068012812D1FFE740F29C20C4F2392050
:1079E0000068012809D1FFE79DF80E004006002835
:1079F00003D5FFE702F0C8FAFFE7FFE7A420C4F2CF
:107A000039200068012812D1FFE740F29420C4F227
:107A100039200068012809D1FFE79DF80E00000613
:107A2000002803D5FFE702F0B1FAFFE7FFE7AC203B
:107A3000C4F239200068012812D1FFE740F2842007
:107A4000C4F239200068002809D1FFE79DF80F0033
:107A5000C007002803D0FFE702F094FAFFE7FFE732
:107A6000A020C4F239200068012816D1FFE74CF6A7
:107A70001400C4F20100006800F01D00029002989A
:107A8000002809D0FFE79DF80F008007002803D5E4
:107A9000FFE702F075FAFFE7FFE7A820C4F24020F5
:107AA0000068012812D1FFE740F29C20C4F2402078
:107AB0000068012809D1FFE79DF80F0000070028A2
:107AC00003D5FFE702F068FAFFE7FFE7A420C4F25E
:107AD00040200068012812D1FFE740F29420C4F250
:107AE00040200068012809D1FFE79DF80F00C0067B
:107AF000002803D5FFE702F051FAFFE7FFE7AC20CB
:107B0000C4F240200068012812D1FFE740F284202F
:107B1000C4F240200068002809D1FFE79DF80F005B
:107B20008006002803D5FFE702F034FAFFE7FFE7FD
:107B3000A020C4F240200068012815D1FFE71420DE
:107B4000C4F20200006800F01D00029002980028B4
:107B500009D0FFE79DF80F004006002803D5FFE796
:107B600002F016FAFFE7FFE704B080BD80B582B0EF
:107B700041F28820C4F205000068019041F2300013
:107B8000C4F24E200068012812D1FFE741F238000C
:107B9000C4F24E200068012809D1FFE79DF80400D7
:107BA000C007002803D0FFE702F082FEFFE7FFE7EF
:107BB00041F23400C4F24E200068012812D1FFE7E0
:107BC00041F23C00C4F24E200068012809D1FFE7D1
:107BD0009DF804008007002803D5FFE702F06AFE45
:107BE000FFE7FFE741F20020C4F24E2000680128C1
:107BF00012D1FFE741F28030C4F24E200068012824
:107C000009D1FFE79DF804004007002803D5FFE7EE
:107C100002F046FEFFE7FFE741F20420C4F24E20E7
:107C20000068012812D1FFE741F28430C4F24E20EF
:107C30000068012809D1FFE79DF8040040070028EB
:107C400003D5FFE702F02EFEFFE7FFE741F2082031
:107C5000C4F24E200068012812D1FFE741F28830BB
:107C6000C4F24E200068012809D1FFE79DF8040006
:107C70004007002803D5FFE702F016FEFFE7FFE705
:107C800041F20C20C4F24E200068012812D1FFE717
:107C900041F28C30C4F24E200068012809D1FFE780
:107CA0009DF804004007002803D5FFE702F0FEFD21
:107CB000FFE7FFE749F23000C4F24E2000680128D8
:107CC00012D1FFE749F23800C4F24E2000680128C3
:107CD00009D1FFE79DF804000007002803D5FFE75E
:107CE00002F062FDFFE7FFE749F23400C4F24E20E4
:107CF0000068012812D1FFE749F23C00C4F24E208F
:107D00000068012809D1FFE79DF80400C00600289B
:107D100003D5FFE702F04AFDFFE7FFE749F2002045
:107D2000C4F24E200068012812D1FFE749F28030EA
:107D3000C4F24E200068012809D1FFE79DF8040035
:107D40008006002803D5FFE702F026FDFFE7FFE7E6
:107D500049F20420C4F24E200068012812D1FFE746
:107D600049F28430C4F24E200068012809D1FFE7AF
:107D70009DF804008006002803D5FFE702F00EFD01
:107D8000FFE7FFE749F20820C4F24E20006801280F
:107D900012D1FFE749F28830C4F24E200068012872
:107DA00009D1FFE79DF804008006002803D5FFE70E
:107DB00002F0F6FCFFE7FFE749F20C20C4F24E2088
:107DC0000068012812D1FFE749F28C30C4F24E203E
:107DD0000068012809D1FFE79DF80400800600280B
:107DE00003D5FFE702F0DEFCFFE7FFE741F23000DA
:107DF000C4F24F200068012812D1FFE741F2380099
:107E0000C4F24F200068012809D1FFE79DF8040063
:107E10004006002803D5FFE702F0D2FCFFE7FFE7AA
:107E200041F23400C4F24F200068012812D1FFE76C
:107E300041F23C00C4F24F200068012809D1FFE75D
:107E40009DF804000006002803D5FFE702F0BAFC05
:107E5000FFE7FFE741F20020C4F24F20006801284D
:107E600012D1FFE741F28030C4F24F2000680128B0
:107E700009D1FFE79DF80500C007002803D0FFE700
:107E800002F096FCFFE7FFE741F20420C4F24F2026
:107E90000068012812D1FFE741F28430C4F24F207C
:107EA0000068012809D1FFE79DF80500C0070028F8
:107EB00003D0FFE702F07EFCFFE7FFE741F2082076
:107EC000C4F24F200068012812D1FFE741F2883048
:107ED000C4F24F200068012809D1FFE79DF8050092
:107EE000C007002803D0FFE702F066FCFFE7FFE7CA
:107EF00041F20C20C4F24F200068012812D1FFE7A4
:107F000041F28C30C4F24F200068012809D1FFE70C
:107F10009DF80500C007002803D0FFE702F04EFCE3
:107F2000FFE7FFE749F23000C4F24F200068012864
:107F300012D1FFE749F23800C4F24F20006801284F
:107F400009D1FFE79DF805008007002803D5FFE76A
:107F500002F042FCFFE7FFE749F23400C4F24F2091
:107F60000068012812D1FFE749F23C00C4F24F201B
:107F70000068012809D1FFE79DF8050040070028A7
:107F800003D5FFE702F02AFCFFE7FFE749F20020F4
:107F9000C4F24F200068012812D1FFE749F2803077
:107FA000C4F24F200068012809D1FFE79DF80500C1
:107FB0000007002803D5FFE702F006FCFFE7FFE714
:107FC00049F20420C4F24F200068012812D1FFE7D3
:107FD00049F28430C4F24F200068012809D1FFE73C
:107FE0009DF805000007002803D5FFE702F0EEFB2F
:107FF000FFE7FFE749F20820C4F24F20006801289C
:1080000012D1FFE749F28830C4F24F2000680128FE
:1080100009D1FFE79DF805000007002803D5FFE719
:1080200002F0D6FBFFE7FFE749F20C20C4F24F2035
:108030000068012812D1FFE749F28C30C4F24F20CA
:108040000068012809D1FFE79DF805000007002816
:1080500003D5FFE702F0BEFBFFE7FFE748F2102081
:10806000C4F23B200068012812D1FFE748F2280043
:10807000C4F23B200068012809D1FFE79DF8050004
:10808000C006002803D5FFE702F046FCFFE7FFE744
:1080900048F22020C4F23B200068012812D1FFE7FB
:1080A00048F22400C4F23B200068012809D1FFE710
:1080B0009DF80500C006002803D5FFE702F02EFC5E
:1080C000FFE7FFE748F29410C4F23B200068012864
:1080D00027D1FFE74DF60040C4F20100006800F030
:1080E0000B0000900098002809D0FFE79DF80500DC
:1080F0008006002803D5FFE702F014FCFFE748F2F2
:108100001400C4F23B200068012809D1FFE79DF864
:1081100005004006002803D5FFE702F001FCFFE759
:10812000FFE748F29C10C4F23B200068012812D1FE
:10813000FFE748F21C00C4F23B200068012809D187
:10814000FFE79DF805000006002803D5FFE702F0D1
:10815000EBFBFFE7FFE748F29810C4F23B20006812
:10816000012812D1FFE748F21800C4F23B20006852
:10817000012809D1FFE79DF80600C007002803D0B9
:10818000FFE702F0D3FBFFE7FFE748F29410C4F2E9
:1081900041200068012827D1FFE740F60040C4F2E3
:1081A0000200006800F00B0000900098002809D041
:1081B000FFE79DF806008007002803D5FFE702F0DF
:1081C000B9FBFFE748F21400C4F24120006801281F
:1081D00009D1FFE79DF806004007002803D5FFE717
:1081E00002F0A6FBFFE7FFE748F29C10C4F2412033
:1081F0000068012812D1FFE748F21C00C4F24120B8
:108200000068012809D1FFE79DF806000007002853
:1082100003D5FFE702F092FBFFE7FFE748F2981073
:10822000C4F241200068012812D1FFE748F218008B
:10823000C4F241200068012809D1FFE79DF806003B
:10824000C006002803D5FFE702F07AFBFFE7FFE74F
:1082500048F28410C4F241200068012812D1FFE7DF
:1082600048F22000C4F241200068012809D1FFE74C
:108270009DF806008006002803D5FFE702F05CFBAE
:10828000FFE7FFE748F2A800C4F240200068012899
:1082900012D1FFE748F29C20C4F240200068012878
:1082A00009D1FFE79DF806004006002803D5FFE747
:1082B00001F07AFEFFE7FFE748F2A400C4F2402095
:1082C0000068012812D1FFE748F29420C4F2402050
:1082D0000068012809D1FFE79DF806000006002884
:1082E00003D5FFE701F062FEFFE7FFE748F2AC00CD
:1082F000C4F240200068012812D1FFE748F2842030
:10830000C4F240200068002809D1FFE79DF807006B
:10831000C007002803D0FFE701F044FEFFE7FFE7B6
:1083200048F2A000C4F240200068012816D1FFE7FF
:1083300040F21440C4F20200006800F01D000090FA
:108340000098002809D0FFE79DF807008007002863
:1083500003D5FFE701F024FEFFE7FFE7A820C4F202
:1083600041200068012812D1FFE740F29C20C4F2AE
:1083700041200068012809D1FFE79DF807000007A8
:10838000002803D5FFE701F017FEFFE7FFE7A42071
:10839000C4F241200068012812D1FFE740F2942086
:1083A000C4F241200068012809D1FFE79DF80700C9
:1083B000C006002803D5FFE701F000FEFFE7FFE756
:1083C000AC20C4F241200068012812D1FFE740F23E
:1083D0008420C4F241200068002809D1FFE79DF8FD
:1083E00007008006002803D5FFE701F0E3FDFFE763
:1083F000FFE7A020C4F241200068012816D1FFE762
:1084000040F61400C4F20200006800F01D00009065
:108410000098002809D0FFE79DF8070040060028D3
:1084200003D5FFE701F0C4FDFFE7FFE702B080BD21
:1084300080B590B041F28C20C4F2050000680F9026
:108440000420C4F23C200068012811D1FFE78020FD
:10845000C4F23C200068012809D1FFE79DF83C00E8
:10846000C007002803D0FFE7FAF7DCF9FFE7FFE7D2
:108470000C20C4F23C200068012811D1FFE78420C1
:10848000C4F23C200068012809D1FFE79DF83C00B8
:108490008007002803D5FFE7FAF7C2F9FFE7FFE7F7
:1084A0001020C4F23C200068012816D1FFE74EF2EC
:1084B0000800C4F20100006800F003000E900E985E
:1084C000002809D0FFE79DF83C004007002803D5AD
:1084D000FFE7FAF7A3F9FFE7FFE748F20400C4F269
:1084E0003C200068012812D1FFE748F28000C4F266
:1084F0003C200068012809D1FFE79DF83C000007F7
:10850000002803D5FFE7FAF793F9FFE7FFE748F202
:108510000C00C4F23C200068012812D1FFE748F2A9
:108520008400C4F23C200068012809D1FFE79DF8CF
:108530003C00C006002803D5FFE7FAF777F9FFE70C
:10854000FFE748F21000C4F23C200068012816D171
:10855000FFE74EF20840C4F20100006800F003009B
:108560000E900E98002809D0FFE79DF83C00800689
:10857000002803D5FFE7FAF757F9FFE7FFE740F2D6
:108580009410C4F242200068012826D1FFE741F28E
:108590000000C4F20200006800F00B000E900E987C
:1085A000002809D0FFE79DF83C004006002803D5CD
:1085B000FFE702F0C9F9FFE71420C4F24220006887
:1085C000012809D1FFE79DF83C000006002803D5EB
:1085D000FFE702F0B7F9FFE7FFE740F29C10C4F2B3
:1085E00042200068012811D1FFE71C20C4F242207C
:1085F0000068012809D1FFE79DF83D00C007002869
:1086000003D0FFE702F0A4F9FFE7FFE740F298107C
:10861000C4F242200068012811D1FFE71820C4F2FB
:1086200042200068012809D1FFE79DF83D0080073E
:10863000002803D5FFE702F08DF9FFE7FFE740F2DE
:108640008410C4F242200068012811D1FFE72020E5
:10865000C4F242200068012809D1FFE79DF83D00DF
:108660004007002803D5FFE702F070F9FFE7FFE7B6
:1086700048F29410C4F242200068012827D1FFE795
:1086800041F20040C4F20200006800F00B000E90BE
:108690000E98002809D0FFE79DF83D00000700284C
:1086A00003D5FFE702F05AF9FFE748F21400C4F2DD
:1086B00042200068012809D1FFE79DF83D00C0066F
:1086C000002803D5FFE702F047F9FFE7FFE748F28C
:1086D0009C10C4F242200068012812D1FFE748F242
:1086E0001C00C4F242200068012809D1FFE79DF870
:1086F0003D008006002803D5FFE702F031F9FFE7CF
:10870000FFE748F29810C4F242200068012812D115
:10871000FFE748F21800C4F242200068012809D19E
:10872000FFE79DF83D004006002803D5FFE702F073
:1087300019F9FFE7FFE740F20010C4F200300068CB
:1087400001281FD1FFE71820C4F2080000684FF687
:10875000FB41CFF27C7108400E901420C4F2080057
:10876000006808400D900E980D99084209D0FFE767
:108770009DF83D000006002803D5FFE702F052FAFD
:10878000FFE7FFE79DF83E00C006002834D5FFE76D
:108790003020C4F20700008840F2F7110840ADF81D
:1087A00032003820C4F2070000880840ADF83000DD
:1087B0003A20C4F20700008840F27F110840ADF86B
:1087C0002E00BDF83200BDF83010084203D0FFE79C
:1087D00001F076F9FFE740F23C60C4F2E020006867
:1087E000012808D1FFE7BDF82E00002803D0FFE7DD
:1087F00001F064F9FFE7FFE79DF83E00000600285E
:1088000037D5FFE748F23040C4F20700008840F255
:10881000F7110840ADF8320048F23840C4F20700C2
:1088200000880840ADF8300048F23A40C4F2070032
:10883000008840F27F110840ADF82E00BDF83200EC
:10884000BDF83010084203D0FFE701F03DF9FFE723
:1088500048F23C60C4F2F0200068012808D1FFE72C
:10886000BDF82E00002803D0FFE701F02BF9FFE749
:10887000FFE740F20410C4F206000068F821C0F2DD
:108880000E0108400A9040F20810C4F20600006889
:108890000C22C0F26F021040099040F20C10C4F29A
:1088A000060000680840089040F21010C4F206006C
:1088B00000681040079040F28C70C4F2C02000683D
:1088C000039040F20C70C4F2C0200068029040F2A5
:1088D000A470C4F2C0200068019040F22470C4F279
:1088E000C020006800904EF21000C4F2C020006862
:1088F000049041F21400C4F20600006800F4C03095
:10890000069041F21C00C4F20600006800F4C0307A
:1089100005909DF83F00C006002822D5FFE70A9881
:108920000899C943084218D1FFE709980799C94334
:10893000084212D1FFE702980399C94308420CD1BB
:10894000FFE70098019988430499084205D1FFE7A1
:1089500006980599084203D0FFE7F9F7DDFAFFE72B
:10896000FFE740F28C70C4F2C0200068002812D1EA
:10897000FFE740F20C70C4F2C0200068012809D162
:10898000FFE79DF83F008006002803D5FFE7F9F7D1
:10899000C5FAFFE7FFE710B080BD000080B584B0E6
:1089A00041F29020C4F20500006803900420C4F254
:1089B00044200068012811D1FFE78020C4F2442040
:1089C0000068012809D1FFE79DF80C00C0070028C6
:1089D00003D0FFE7F9F732FFFFE7FFE70C20C4F20F
:1089E00044200068012811D1FFE78420C4F244200C
:1089F0000068012809D1FFE79DF80C0080070028D6
:108A000003D5FFE7F9F718FFFFE7FFE71020C4F2EF
:108A100044200068012816D1FFE742F20800C4F2A2
:108A20000200006800F0030002900298002809D0BC
:108A3000FFE79DF80C004007002803D5FFE7F9F792
:108A4000F9FEFFE7FFE748F20400C4F244200068A3
:108A5000012812D1FFE748F28000C4F244200068E8
:108A6000012809D1FFE79DF80C000007002803D575
:108A7000FFE7F9F7E9FEFFE7FFE748F20C00C4F271
:108A800044200068012812D1FFE748F28400C4F2B4
:108A900044200068012809D1FFE79DF80C00C006BA
:108AA000002803D5FFE7F9F7CDFEFFE7FFE748F21F
:108AB0001000C4F244200068012816D1FFE742F2FA
:108AC0000840C4F20200006800F00300029002981F
:108AD000002809D0FFE79DF80C008006002803D588
:108AE000FFE7F9F7ADFEFFE7FFE740F29410C4F2AD
:108AF00043200068012826D1FFE741F60000C4F2B8
:108B00000200006800F00B0002900298002809D0D3
:108B1000FFE79DF80C004006002803D5FFE701F0B1
:108B200025FFFFE71420C4F243200068012809D183
:108B3000FFE79DF80C000006002803D5FFE701F0D1
:108B400013FFFFE7FFE740F29C10C4F243200068E8
:108B5000012811D1FFE71C20C4F24320006801283E
:108B600009D1FFE79DF80D00C007002803D0FFE7FB
:108B700001F0FEFEFFE7FFE740F29810C4F2432049
:108B80000068012811D1FFE71820C4F243200068D3
:108B9000012809D1FFE79DF80D008007002803D5C3
:108BA000FFE701F0E7FEFFE7FFE748F21020C4F21D
:108BB00043200068012812D1FFE748F22800C4F2E0
:108BC00043200068012809D1FFE79DF80D00400708
:108BD000002803D5FFE701F06FFEFFE7FFE748F24B
:108BE0002020C4F243200068012812D1FFE748F298
:108BF0002400C4F243200068012809D1FFE79DF852
:108C00000D004007002803D5FFE701F057FEFFE7FE
:108C1000FFE748F29410C4F243200068012827D1EE
:108C2000FFE741F60040C4F20200006800F00B00CC
:108C300002900298002809D0FFE79DF80D00000778
:108C4000002803D5FFE701F03DFEFFE748F21400DE
:108C5000C4F243200068012809D1FFE79DF80D0008
:108C6000C006002803D5FFE701F02AFEFFE7FFE773
:108C700048F29C10C4F243200068012812D1FFE79B
:108C800048F21C00C4F243200068012809D1FFE724
:108C90009DF80D008006002803D5FFE701F014FEC3
:108CA000FFE7FFE748F29810C4F24320006801286C
:108CB00012D1FFE748F21800C4F2432000680128EF
:108CC00009D1FFE79DF80D004006002803D5FFE716
:108CD00001F0FCFDFFE7FFE79820C4F29C2000684C
:108CE000012812D1FFE740F29830C4F29C200068BE
:108CF000012809D1FFE79DF80E00C007002803D026
:108D0000FFE7F9F787FAFFE7FFE79C20C4F29C2012
:108D10000068012812D1FFE740F29C30C4F29C2089
:108D20000068012809D1FFE79DF80E0080070028A0
:108D300003D5FFE7F9F770FAFFE7FFE78C20C4F2ED
:108D40009C200068012812D1FFE740F28C30C4F269
:108D50009C200068012809D1FFE79DF80E0040071C
:108D6000002803D5FFE7F9F759FAFFE7FFE74EF2CE
:108D70000400C4F20400006845F21721C0F2F001BB
:108D8000084002904EF21C00C4F204000068084043
:108D9000019002980199084209D0FFE79DF80E0062
:108DA0000007002803D5FFE7F9F732FAFFE748F29A
:108DB0009800C4F29C200068012812D1FFE748F215
:108DC0009830C4F29C200068012809D1FFE79DF883
:108DD0000E00C006002803D5FFE7F9F723FAFFE7E6
:108DE000FFE748F29C00C4F29C200068012812D1E1
:108DF000FFE748F29C30C4F29C200068012809D1AA
:108E0000FFE79DF80E008006002803D5FFE7F9F77D
:108E10000BFAFFE7FFE748F28C00C4F29C200068E1
:108E2000012812D1FFE748F28C30C4F29C20006880
:108E3000012809D1FFE79DF80E004006002803D560
:108E4000FFE7F9F7F3F9FFE7FFE74EF20440C4F25A
:108E50000400006845F21721C0F2F00108400290BA
:108E60004EF21C40C4F204000068084001900298D1
:108E70000199084209D0FFE79DF80E00000600287E
:108E800003D5FFE7F9F7CCF9FFE79820C4F29D205E
:108E90000068012812D1FFE740F29830C4F29D200B
:108EA0000068012809D1FFE79DF80F00C0070028DE
:108EB00003D0FFE7F9F7BEF9FFE7FFE79C20C4F214
:108EC0009D200068012812D1FFE740F29C30C4F2D7
:108ED0009D200068012809D1FFE79DF80F00800759
:108EE000002803D5FFE7F9F7A7F9FFE7FFE78C2094
:108EF000C4F29D200068012812D1FFE740F28C30B7
:108F0000C4F29D200068012809D1FFE79DF80F00F9
:108F10004007002803D5FFE7F9F790F9FFE7FFE7DF
:108F20004EF60400C4F20400006845F21721C0F2B6
:108F3000F001084002904EF61C00C4F204000068E4
:108F40000840019002980199084209D0FFE79DF876
:108F50000F000007002803D5FFE7F9F769F9FFE7DD
:108F600004B080BD80B584B041F29420C4F2050005
:108F70000068039048F29800C4F29D200068012820
:108F800012D1FFE748F29830C4F29D200068012812
:108F900009D1FFE79DF80C00C007002803D0FFE7C8
:108FA000F9F750F9FFE7FFE748F29C00C4F29D2073
:108FB0000068012812D1FFE748F29C30C4F29D20DE
:108FC0000068012809D1FFE79DF80C008007002800
:108FD00003D5FFE7F9F738F9FFE7FFE748F28C0020
:108FE000C4F29D200068012812D1FFE748F28C30BE
:108FF000C4F29D200068012809D1FFE79DF80C000C
:109000004007002803D5FFE7F9F720F9FFE7FFE75E
:109010004EF60440C4F20400006845F21721C0F285
:10902000F001084002904EF61C40C4F204000068B3
:109030000840019002980199084209D0FFE79DF885
:109040000C000007002803D5FFE7F9F7F9F8FFE760
:109050009820C4F29E200068012812D1FFE740F258
:109060009830C4F29E200068012809D1FFE79DF8DE
:109070000C00C006002803D5FFE7F9F7EBF8FFE77F
:10908000FFE79C20C4F29E200068012812D1FFE770
:1090900040F29C30C4F29E200068012809D1FFE70D
:1090A0009DF80C008006002803D5FFE7F9F7D4F8F7
:1090B000FFE7FFE78C20C4F29E200068012812D150
:1090C000FFE740F28C30C4F29E200068012809D1ED
:1090D000FFE79DF80C004006002803D5FFE7F9F7ED
:1090E000BDF8FFE7FFE74FF20400C4F20400006898
:1090F00045F21721C0F2F001084002904FF21C0027
:10910000C4F20400006808400190029801990842E6
:1091100009D0FFE79DF80C000006002803D5FFE703
:10912000F9F796F8FFE79820C4F29F20006801281D
:1091300012D1FFE740F29830C4F29F200068012866
:1091400009D1FFE79DF80D00C007002803D0FFE715
:10915000F9F788F8FFE7FFE79C20C4F29F2000683A
:10916000012812D1FFE740F29C30C4F29F20006832
:10917000012809D1FFE79DF80D008007002803D5DD
:10918000FFE7F9F771F8FFE7FFE78C20C4F29F20B3
:109190000068012812D1FFE740F28C30C4F29F2012
:1091A0000068012809D1FFE79DF80D00400700285D
:1091B00003D5FFE7F9F75AF8FFE7FFE74FF604009A
:1091C000C4F20400006845F21721C0F2F001084023
:1091D00002904FF61C00C4F20400006808400190A1
:1091E00002980199084209D0FFE79DF80D00000799
:1091F000002803D5FFE7F9F733F8FFE748F200301E
:10920000C4F299200068012812D1FFE749F6846072
:10921000C4F299200068012809D1FFE79DF80D00EC
:109220008006002803D5FFE700F0BCFBFFE7FFE75F
:1092300048F21030C4F299200068012812D1FFE7EB
:1092400049F69460C4F299200068012809D1FFE72B
:109250009DF80D004006002803D5FFE700F0A4FBB1
:10926000FFE7FFE748F20030C4F2902000680128D1
:1092700012D1FFE748F28030C4F290200068012844
:1092800009D1FFE79DF80E00C007002803D0FFE7D3
:10929000F8F768FEFFE7FFE748F20430C4F29020D9
:1092A0000068012812D1FFE748F28430C4F2902010
:1092B0000068012809D1FFE79DF80E00800700280B
:1092C00003D5FFE7F8F74CFEFFE7FFE748F2083069
:1092D000C4F290200068012812D1FFE748F28830DC
:1092E000C4F290200068012809D1FFE79DF80E0024
:1092F0004007002803D5FFE7F8F736FEFFE7FFE752
:1093000049F20400C4F20400006800F44030029006
:109310000298002809D0FFE79DF80E0000070028FA
:1093200003D5FFE701F086FCFFE748F21800C4F21E
:1093300093200068012823D1FFE748F20810C4F207
:1093400093200068012809D1FFE79DF80E00C006B0
:10935000002803D5FFE7F8F74BF8FFE748F20410C1
:10936000C4F293200068012809D1FFE79DF80E00A0
:10937000C006002803D5FFE7F8F738F8FFE7FFE756
:1093800004B080BD80B582B041F29820C4F20500DF
:109390000068019040F6A000C4F280200068012817
:1093A00012D1FFE740F68000C4F280200068012857
:1093B00009D1FFE79DF80400C007002803D0FFE7AC
:1093C000F7F74EFAFFE7FFE740F6A400C4F280206B
:1093D0000068012812D1FFE740F68400C4F2802023
:1093E0000068012809D1FFE79DF8040080070028E4
:1093F00003D5FFE7F7F736FAFFE7FFE741F204404E
:10940000C4F280200068012812D1FFE741F24040F9
:10941000C4F280200068012809D1FFE79DF804000C
:109420004007002803D5FFE7F6F7E4FFFFE7FFE773
:1094300041F21440C4F280200068012832D1FFE7D5
:10944000A020C4F20400008800F44070009041F2B3
:109450004440C4F28020006801280DD1FFE7009845
:10946000002809D1FFE79DF804000007002803D574
:10947000FFE7F6F7C3FFFFE741F25040C4F2802058
:10948000006801280DD1FFE70098002809D0FFE708
:109490009DF804000007002803D5FFE7F6F7ACFFAE
:1094A000FFE7FFE748F6A000C4F28020006801282B
:1094B00012D1FFE748F68000C4F28020006801283E
:1094C00009D1FFE79DF80400C006002803D5FFE797
:1094D000F7F7D0F9FFE7FFE748F6A400C4F28020D1
:1094E0000068012812D1FFE748F68400C4F280200A
:1094F0000068012809D1FFE79DF8040080060028D4
:1095000003D5FFE7F7F7B8F9FFE7FFE749F20440B3
:10951000C4F280200068012812D1FFE749F24040E0
:10952000C4F280200068012809D1FFE79DF80400FB
:109530004006002803D5FFE7F7F796F9FFE7FFE7B6
:1095400049F21440C4F280200068012835D1FFE7B9
:1095500040F2A040C4F20400008800F44070009083
:1095600049F24440C4F28020006801280ED1FFE790
:10957000009800280AD1FFE79DF804000021B1EB14
:10958000D01F03D0FFE7F7F773F9FFE749F2504028
:10959000C4F28020006801280ED1FFE7009800285F
:1095A0000AD0FFE79DF804000021B1EBD01F03D0E3
:1095B000FFE7F7F75BF9FFE7FFE740F6A000C4F22B
:1095C00081200068012812D1FFE740F68000C4F234
:1095D00081200068012809D1FFE79DF80400C0063A
:1095E000002803D5FFE7F7F74FF9FFE7FFE740F65D
:1095F000A400C4F281200068012812D1FFE740F6E0
:109600008400C4F281200068012809D1FFE79DF899
:109610000500C007002803D0FFE7F7F737F9FFE799
:10962000FFE741F20440C4F281200068012812D112
:10963000FFE741F24040C4F281200068012809D1CF
:10964000FFE79DF805008007002803D5FFE7F7F73F
:1096500015F9FFE7FFE741F21440C4F281200068EA
:10966000012833D1FFE740F6A000C4F204000088CF
:1096700000F44070009041F24440C4F28120006840
:1096800001280DD1FFE70098002809D1FFE79DF8D8
:1096900005004007002803D5FFE7F7F7F3F8FFE7D9
:1096A00041F25040C4F28120006801280DD1FFE74B
:1096B0000098002809D0FFE79DF805004007002822
:1096C00003D5FFE7F7F7DCF8FFE7FFE79DF80600B3
:1096D000C00700280ED0FFE748F23800C8F6100097
:1096E00000684FF65371084203D0FFE700F00CF812
:1096F000FFE7FFE702B080BD7047000080B500F0D3
:1097000001F880BD704700007047000080B500F090
:1097100001F880BD80B540F63C30C1F6FE700068AF
:10972000002807D0FFE740F63C30C1F6FE70006825
:109730008047FFE780BD000080B584B002A801909B
:10974000F7F7AAFB00218DF8081003910399032273
:1097500062F3040103910399C72363F3102103917A
:10976000039962F317510391039962F31B6103910B
:10977000039962F31F710391019900900846F7F76E
:1097800063FB04B080BD000080B586B07F2042F24C
:109790001021C0F21101F7F785F80420012103918F
:1097A000039A00F00DFC0B2002210291029A00F0B6
:1097B00007FC0520F8F77CFB04A80190F7F716FCDE
:1097C00000218DF810100591059921F003010591F4
:1097D00077218DF8151005990E2262F31751059126
:1097E000059941F0706105910599032262F31F719B
:1097F0000591059921F08001059101990090084695
:10980000F7F7C2FB06B080BD48F21000C4F20400B6
:109810000021CAF2A55101607047000048F2100013
:10982000C4F204000121CAF2A55101607047000092
:1098300082B00A4601908DF803109DF803000128BC
:109840000AD1FFE7019848F20401C4F204010A6852
:1098500022EA0000086008E0019848F20401C4F21E
:1098600004010A6810430860FFE702B07047000077
:1098700082B00A4601908DF803109DF8030001287C
:109880000AD1FFE7019848F20801C4F204010A680E
:1098900022EA0000086008E0019848F20801C4F2DA
:1098A00004010A6810430860FFE702B07047000037
:1098B00082B00A4601908DF803109DF8030001283C
:1098C0000AD1FFE7019848F20C01C4F204010A68CA
:1098D00022EA0000086008E0019848F20C01C4F296
:1098E00004010A6810430860FFE702B070470000F7
:1098F00081B00146ADF80200BDF8020044F2FE322C
:10990000C4F20502138823EA000040F425401080C9
:1099100001B0704781B00146ADF80200BDF8020009
:1099200044F2FE32C4F20502138823EA000040F438
:109930002540108001B0704781B00146ADF80200AB
:10994000BDF8020044F2FE32C4F20502138823EA95
:10995000000040F42540108001B0704781B00146FE
:10996000ADF80200BDF8020044F2FE32C4F2050276
:10997000138823EA000040F42540108001B07047AE
:1099800081B00146ADF80200BDF8020044F2FE329B
:10999000C4F20502138823EA000040F42540108039
:1099A00001B07047704700007047000081B0014669
:1099B000ADF80200BDF8020044F2FE32C4F2050226
:1099C00013881843108001B07047000081B0014631
:1099D000ADF80200BDF8020044F2FE32C4F2050206
:1099E00013881843108001B07047000081B0014611
:1099F000ADF80200BDF8020044F2FE32C4F20502E6
:109A000013881843108001B07047000081B00146F0
:109A1000ADF80200BDF8020044F2FE32C4F20502C5
:109A200013881843108001B07047000081B00146D0
:109A3000ADF80200BDF8020044F2FE32C4F20502A5
:109A400013881843108001B0704700007047000071
:109A500080B5F8F7A7FBFFF7E1FE4AF20350FFF7E6
:109A6000B5FF00F00BFBF8F73DFA80BD80B5F8F7C5
:109A7000DFFAFFF7C9FE4AF20350FFF74BFF00F091
:109A8000F5FAF8F7FBF980BD704700004CF6FC4092
:109A9000C4F20400016841F00041016000BF00BF52
:109AA00000BF00BF00BF00BF70470000704700004C
:109AB00070470000704700007047000070470000CA
:109AC00070470000704700007047000080B586B006
:109AD000059004910392FFE740F27400C1F6FE7016
:109AE0000078002803D1FFE701F0D2F8FFE7FFE795
:109AF000EFF311804FF0200181F311880190059858
:109B00000499039A00F008F80290019880F31188F4
:109B1000029806B080BD000080B58AB00990089117
:109B2000079208980490099800EB400040F27401F5
:109B3000C1F6FE7101EBC000183003900398406934
:109B40000028029008D0FFE70298012819D0FFE70B
:109B5000029802282CD032E0039801F0E5F8059035
:109B600005980799884203D2FFE70020069007E096
:109B70000798069003980499079A01F09BFBFFE76A
:109B800020E0039801F0D0F80590059807998842E5
:109B900003D2FFE70598019002E007980190FFE7E4
:109BA0000198069003980499069A01F083FB09E056
:109BB00003980499079A01F00FFB069002E0002039
:109BC0000690FFE706980AB080BD000080B584B01B
:109BD000039002910298F6F7B0FC01900398029965
:109BE000019AFFF773FF04B080BD000082B080B51A
:109BF00084B0079306920390029106A80090039800
:109C000002996A4600F008F80190019804B0BDE896
:109C1000804002B07047000080B5A4B0239022912C
:109C2000219207A81B9040201C9000201D90239992
:109C30001F911E90FFE7229800788DF883002298EC
:109C4000013022909DF88300002801D1FFE771E1E7
:109C50009DF88300252840F06081FFE700201890E0
:109C600001201A90FFE7229800788DF883009DF874
:109C70008300233801460D28049129D80499DFE890
:109C800001F01F2727272727272717270727270F11
:109C9000189840F0010018902298013022901AE0A4
:109CA000189840F00200189022980130229012E09B
:109CB000189840F0040018902298013022900AE091
:109CC000189840F00800189022980130229002E085
:109CD00000201A90FFE7FFE71A980028C3D1FFE79A
:109CE00000201790FFE7229800788DF883009DF8F8
:109CF0008300302805DBFFE79DF883003A2801DB6D
:109D0000FFE710E0229801302290179800EB8000C6
:109D10009DF8831001EB400030381790FFE70120D9
:109D20000028E0D1FFE700201990229800788DF8F4
:109D300083009DF883002E2825D1FFE7229801306B
:109D40002290FFE7229800788DF883009DF8830029
:109D5000302805DBFFE79DF883003A2801DBFFE7A9
:109D600010E0229801302290199800EB80009DF8B5
:109D7000831001EB400030381990FFE701200028E4
:109D8000E0D1FFE7FFE7229800788DF88300FFE736
:109D90009DF883006C2805D0FFE79DF883006828B4
:109DA00008D1FFE7229801302290229800788DF8A0
:109DB000830000E004E0FFE701200028E8D1FFE78E
:109DC0009DF8830001462528039100F09C80FFE761
:109DD000039858284FD0FFE70398632814D0FFE773
:109DE000039864281FD0FFE70398702877D0FFE717
:109DF0000398732853D0FFE70398752827D0FFE70F
:109E00000398782837D083E0219801680A1D026002
:109E100008681A901A988DF81B009DF81B101BA853
:109E200001F074F975E0219801680A1D0260086864
:109E30001A901A99199B1798189AEC46CCF8042096
:109E4000CCF800001BA80A2200F08EFF61E02198E8
:109E500001680A1D026008681A901A99199B1798E0
:109E6000189AEC46CCF80420CCF800001BA80A2273
:109E700001F06CF84DE0219801680A1D0260086845
:109E80001A901A99199B1798189AEC46CCF8042046
:109E9000CCF800001BA8102201F058F839E02198F6
:109EA00001680A1D026008680590FFE705980078C0
:109EB0008DF883000598013005909DF883000028F7
:109EC00001D1FFE70AE09DF883101BA801F01EF9FD
:109ED000FFE71E98B0F1FF3FE8DCFFE719E02198AB
:109EE00001680A1D026008681A901A9968460022E3
:109EF0004260082202601BA8102302921A46029BAD
:109F000001F024F805E01BA8252101F0FFF800E08E
:109F1000FFE722980130229005E09DF883101BA8EE
:109F200001F0F4F8FFE7FFE71E98B0F1FF3F3FF7BD
:109F300082AEFFE71E9801280FDBFFE71D9800287F
:109F400006D0FFE723981D9A07A9FFF7BFFDFFE79B
:109F50001D981E9908441E90FFE71E9824B080BDEE
:109F60007047000070470000704700007047000015
:109F70007047000070470000704700007047000005
:109F800070470000704700007047000070470000F5
:109F900070470000704700007047000070470000E5
:109FA00070470000704700007047000070470000D5
:109FB00070470000704700007047000070470000C5
:109FC00080B588B007900691059240F20420C0F257
:109FD0000100016842688368C0680390029301929F
:109FE000009100208DF81300FFE79DF8130003286F
:109FF00039D8FFE707989DF813106A4652F82110E8
:10A00000084229D0FFE79DF81300C0008DF8120028
:10A010009DF8120004308DF8110040F60000C4F2E3
:10A02000050001689DF81220072303FA02FC9DF841
:10A0300011E003FA0EF343EA0C039943DDF818C06C
:10A040000CFA02F2DDF814C00CFA0EFC42EA0C0223
:10A050001A4011430160FFE7FFE79DF8130001304C
:10A060008DF81300C1E708B080BD000040F6040081
:10A07000C4F20500762101607047000040F604003C
:10A08000C4F20500772101607047000070470000AE
:10A0900070470000704700007047000070470000E4
:10A0A00080B582B0009000980138B0F1807F03D372
:10A0B000FFE70120019019E0009801384EF21401E9
:10A0C000CEF2000108604FF0FF300F2101F0A2F93D
:10A0D0004EF21800CEF20000002101604EF2100096
:10A0E000CEF20000072202600191FFE7019802B062
:10A0F00080BD000040F64030C1F6FE700068704739
:10A1000080B504F045F904F0C5FF00F003F804F051
:10A1100051F980BD40F64430C1F6FE70006840F64B
:10A120004031C1F6FE710A681044086070470000B3
:10A1300080B582B0019001208DF8030001980028BD
:10A1400029D0FFE70198B0F57A7F24D8FFE701987E
:10A150004FF47A71B1FBF0F040F64431C1F6FE7174
:10A16000086040F24400C1F6FE70006844F220012D
:10A17000C4F205010968C1F30261C8400199B0FB4E
:10A18000F1F0FFF78DFF002804D1FFE700208DF8E4
:10A190000300FFE7FFE79DF8030002B080BD000069
:10A1A00085B040F28460C4F201000068C007002856
:10A1B0000AD0FFE740F24000C1F6FE7042F20041D3
:10A1C000C0F2F401016009E040F24000C1F6FE7007
:10A1D00042F60051C0F231110160FFE744F226005F
:10A1E000C4F20500007800F007008DF813009DF818
:10A1F000130001460528009100F278800099DFE8FD
:10A2000001F0030E18202A3240F24000C1F6FE7021
:10A21000006840F24401C1F6FE71086067E040F258
:10A220004400C1F6FE7041F20021C0F27A010160E3
:10A230005DE040F24400C1F6FE704FF40041016061
:10A2400055E040F24400C1F6FE7041F20021C0F238
:10A250007A0101604BE040F24400C1F6FE704FF419
:10A260000041016043E044F20010C4F205000168BF
:10A27000090F02910168C1F307210391006800F002
:10A280000300019042F21C00C4F2A82000680028DC
:10A2900015D1FFE70198013041F20021C0F27A01A7
:10A2A000B1FBF0F003990131484302990131B0FB51
:10A2B000F1F040F24401C1F6FE71086015E040F291
:10A2C0004000C1F6FE70006801990131B0FBF1F069
:10A2D00003990131484302990131B0FBF1F040F29A
:10A2E0004401C1F6FE710860FFE700E0FFE705B03A
:10A2F0007047000080B54EF68850CEF2000001682D
:10A3000041F470010160FFF74BFF80BD80B586B05E
:10A310000A4603468DF817008DF816109DF81710A1
:10A3200006200492039300F011F80A20029004F032
:10A330008DFC9DF8161007220190104600F006F8DB
:10A34000029804F083FC06B080BD000080B586B0A2
:10A350000A4603468DF817008DF816109DF8170071
:10A3600069464FF0010CC1F800C04EF20001C4F282
:10A3700004014FF0740C0DF1160E0490084661466E
:10A38000DDF810C00392624602937346F8F7E8F8CE
:10A3900006B080BD704700007047000070470000A5
:10A3A0007047000080B582B013468C4601908DF84E
:10A3B00003108DF802209DF8030000018DF80300C2
:10A3C000019800699DF8031001228A4090439DF88E
:10A3D00002E00EFA01F1114008430199086102B050
:10A3E00080BD000080B584B09C468E4603908DF8F9
:10A3F0000B1001928DF803309DF80B0000018DF8D1
:10A400000B009DF8030001280AD1FFE703980069BB
:10A4100001999DF80B20914008430399086109E0D8
:10A4200001989DF80B10884003990A6922EA000000
:10A430000861FFE704B080BD87B00B4606908DF839
:10A440001710049204208DF803000498002844D0CB
:10A45000FFE700208DF803009DF8170080000390AF
:10A460000698039908440190069803990844083017
:10A4700002900498408A019908600498008A029921
:10A480000860049801688268C0680843104303901C
:10A490009DF8170000018DF81700069800699DF8D7
:10A4A00017104FF2F2028A409043039B03FA01F126
:10A4B0001140084306990861069800699DF8171035
:10A4C0004FF4E0628A409043049B5B6803FA01F119
:10A4D0001140084306990861FFE79DF8030007B0A3
:10A4E0007047000083B013468C4602908DF8071029
:10A4F000ADF8042002989DF8071000EB8100009051
:10A50000BDF804000099086003B0704782B0019064
:10A5100004208DF803000198002812D0FFE701986D
:10A5200000210160019841600198816001984FF617
:10A53000FF720282019841820198C1608DF8031078
:10A54000FFE79DF8030002B070470000704700006D
:10A55000704700007047000070470000704700001F
:10A56000704700007047000070470000704700000F
:10A5700070470000704700007047000070470000FF
:10A5800070470000704700007047000070470000EF
:10A97000704700007047000082B00190009100987D
:10A980000199CA681043C86002B0704783B013468B
:10A99000029001918DF803209DF80300012807D152
:10A9A000FFE701980299CA6810430246C86007E0B1
:10A9B00001980299CA6822EA00000246C860FFE7CF
:10A9C00003B0704782B0019000910198006800992F
:10A9D0000840002818BF012002B0704781B00090E5
:10A9E00000984068000C01B07047000082B00A4631
:10A9F0000190ADF80210BDF802006FF35F200199DD
:10AA0000486002B07047000080B58CB00B900A918E
:10AA100009920020079006900B98806900F00300CF
:10AA20004000012101FA00F0049040F24400C1F618
:10AA3000FE70006844F22001C4F205010968C1F308
:10AA40000211C8400499B0FBF1F005900B984069E1
:10AA500000F0200008900898002810D0FFE70B981D
:10AA600005990A9A099BEC46CCF8043006ABCCF861
:10AA7000003007ABF6F7FEFD8DF80F0029E00B98CC
:10AA8000C06800F0807008900898002810D0FFE798
:10AA90000B9805990A9A099BEC46CCF8043006AB52
:10AAA000CCF8003007ABF6F7A5FC8DF80F000FE0EF
:10AAB0000B9805990A9A099BEC46CCF8043006AB32
:10AAC000CCF8003007ABF6F735FF8DF80F00FFE745
:10AAD000FFE79DF80F00002855D1FFE70B984CF6D3
:10AAE0000041C4F20101884240D0FFE70B984DF2CB
:10AAF0000001C4F20101884238D0FFE70B984DF203
:10AB00000041C4F20101884230D0FFE70B984DF6B6
:10AB10000001C4F20101884228D0FFE70B9840F6FB
:10AB20000041C4F20201884220D0FFE70B9841F2B5
:10AB30000001C4F20201884218D0FFE70B9841F2ED
:10AB40000041C4F20201884210D0FFE70B9841F6A1
:10AB50000001C4F20201884208D0FFE706980028ED
:10AB600004D0FFE701208DF80F000BE00B98C068C0
:10AB70000699490F61F35D700B99C86007980B99AE
:10AB80008860FFE7FFE79DF80F000CB080BD000074
:10AB900080B584B00390029104208DF807000298DC
:10ABA00000283BD0FFE703984FF47B01C160029877
:10ABB00041684069084340F4C06003990861029805
:10ABC000806A039948610298C16802698369D0F874
:10ABD0001CC01143194341EA0C01026A1143406A47
:10ABE00008430399C86003980021C1610298406836
:10ABF000B0F5805F0DD0FFE7029880680399886107
:10AC00000398029909680022FFF7FEFE8DF80700FD
:10AC100003E000208DF80700FFE7FFE79DF807003D
:10AC200004B080BD7047000080B500F001F880BD21
:10AC3000704700007047000080B584B003A8029000
:10AC4000F6F702FB00218DF80C108DF80D108DF831
:10AC50000E10029901900846F6F7C0FA04B080BDC4
:10AC600080B584B003A80290F6F7A2FB00218DF80E
:10AC70000C1002228DF80D208DF80E1003218DF896
:10AC80000F10029901900846F6F75CFB04B080BDF6
:10AC900080B582B040F27400C1F6FE700190019858
:10ACA0000321016101984161019840F64931C0F2E8
:10ACB00001018161019840F22C12C1F6FE72C2615D
:10ACC00001984FF48062026201980022826201982A
:10ACD00042620198C26201980166019840F21C111B
:10ACE000C1F6FE71416601981021816601980267E4
:10ACF0000198C266019842670198073040F64531D5
:10AD0000C0F20101F5F720FC019940F63E32C0F295
:10AD10000102009008461146F5F716FC0199202221
:10AD20008A7102B080BD000084B00390039800696E
:10AD300002900398C068019002980199884209D84E
:10AD4000FFE7039880680199401A02990844013886
:10AD5000009005E002980199C94308440090FFE77C
:10AD6000009804B07047000010B58CB0DDF83CC00E
:10AD7000DDF838E00B900A91099208930A98B0F137
:10AD8000FF3F04DCFFE70A984042059002E00A9882
:10AD90000590FFE70598069001200790FFE70698C9
:10ADA0000999884209DBFFE70698099990FBF1F0C1
:10ADB0000690079801300790F1E7089807998842B4
:10ADC00003D9FFE708980790FFE70E9800280ED0F8
:10ADD000FFE70A98002806D4FFE79DF83C004007EB
:10ADE000002804D5FFE70E9801380E90FFE79DF884
:10ADF0003C008007002804D5FFE7089800282FD0E2
:10AE0000FFE79DF83C00C007002829D1FFE70E9816
:10AE1000002824D0FFE7FFE70E98002100280491C6
:10AE200008D0FFE707980E990022884238BF012218
:10AE30000492FFE70498C00700280FD0FFE70E98A0
:10AE400001380E900B98202100F060F90B98C06833
:10AE5000B0F1FF3F01DCFFE700E0DDE7FFE7FFE7E0
:10AE60000B98C06800286FD4FFE70A98B0F1FF3F45
:10AE700008DCFFE70A9840420A900B982D2100F069
:10AE800045F90CE09DF83C004007002805D5FFE798
:10AE90000B982B2100F03AF900E0FFE7FFE70B9851
:10AEA000C06800284FD4FFE79DF83C0080070028C9
:10AEB00033D5FFE79DF83C00C00700282DD1FFE700
:10AEC0000898002829D1FFE70E98002824D0FFE732
:10AED000FFE70E9800210028039108D0FFE70798AC
:10AEE0000E990022884238BF01220392FFE703989F
:10AEF000C00700280FD0FFE70E9801380E900B987E
:10AF0000302100F003F90B98C068B0F1FF3F01DC7D
:10AF1000FFE700E0DDE7FFE7FFE70B98C0680028E8
:10AF200010D4FFE70B980A99099A089BDDF838C0FE
:10AF3000DDF83CE06C46C4F804E0C4F800C000F062
:10AF400005F8FFE7FFE7FFE70CB010BD80B58CB058
:10AF5000DDF83CC0DDF838E00B900A9109920893C7
:10AF60000A980590012006900490FFE7059809993A
:10AF7000884209D3FFE705980999B0FBF1F00590E5
:10AF8000049801300490F1E708980499884203D9A5
:10AF9000FFE708980490FFE79DF83C00C0070028F1
:10AFA0003CD1FFE70E98002837D0FFE79DF83C0022
:10AFB0008007002808D5FFE70898002804D1FFE79C
:10AFC00030208DF80F0003E020208DF80F00FFE700
:10AFD000FFE70E9800210028029108D0FFE70498AF
:10AFE0000E990022884238BF01220292FFE70298A0
:10AFF000C007002810D0FFE70E9801380E900B987C
:10B000009DF80F1000F082F80B98C068B0F1FF3F78
:10B0100001DCFFE700E0DCE7FFE7FFE70B98C06833
:10B02000002870D4FFE7FFE70898022804D3FFE761
:10B030000898013808900BE00A980699B0FBF1F0E7
:10B04000079007980999884201D2FFE705E0FFE7DA
:10B050000998069948430690E6E7FFE70A9806999B
:10B06000B0FBF1F00790079806990A9A00FB1120AF
:10B070000A900B9807994FF6EC72C0F20002515CEF
:10B0800000F044F80B98C068B0F1FF3F01DCFFE727
:10B0900009E009980699B1FBF0F00690FFE70698E1
:10B0A0000028DBD1FFE79DF83C00C007002829D02D
:10B0B000FFE70E98002824D0FFE7FFE70E98002155
:10B0C0000028019108D0FFE704980E9900228842D9
:10B0D00038BF01220192FFE70198C00700280FD076
:10B0E000FFE70E9801380E900B98202100F00EF823
:10B0F0000B98C068B0F1FF3F01DCFFE700E0DDE73F
:10B10000FFE7FFE7FFE70CB080BD000080B584B02B
:10B110000A4603908DF80B100398806801900198FF
:10B1200001300399496888420FD8FFE79DF80B006A
:10B1300003990968019A885401980130039988603D
:10B140000398C1680131C160FFE7039841688068D6
:10B15000884215D1FFE70398016882680069FEF70D
:10B16000B5FC03998968884205D0FFE703984FF042
:10B17000FF31C16003E0039800218160FFE7FFE732
:10B1800004B080BD82B0009000980138B0F1807F9B
:10B1900003D3FFE7012001901AE0009801384EF236
:10B1A0001401CEF2000108604EF62350CEF20000EA
:10B1B000FF2101704EF21800CEF200000021016064
:10B1C0004EF21000CEF20000072202600191FFE76C
:10B1D000019802B07047000080B58AB009900891CC
:10B1E0000792002005900998C0680390FFE709982E
:10B1F0000069049004980399884206D9FFE70498EF
:10B200000399C9430844069008E0099880680399A7
:10B21000049A891AC94308440690FFE706980999D9
:10B220008968039A891A884203D2FFE70698029038
:10B2300005E0099880680399401A0290FFE7029898
:10B24000069006980799884203D2FFE70698019076
:10B2500002E007980190FFE701980690099840687E
:10B26000039908440899069AF5F72BF90699059A67
:10B27000114405910699089A114408910699079A74
:10B28000511A07910699039A114403910399099A57
:10B290009268914203D1FFE700200390FFE70398F3
:10B2A0000999C860FFE707980028A0D1FFE7059833
:10B2B0000AB080BD80B588B00790069105920798C6
:10B2C000C0680390079880680399401A029002981A
:10B2D000059988420ED9FFE707984068039908440A
:10B2E0000699059AF5F7EDF80399059A1144079A1E
:10B2F000D1601DE0029804900798406803990844C3
:10B300000699049AF5F7DDF80599029A891A0491CD
:10B3100007994968069A029B1A44049B01900846C3
:10B3200011461A46F5F7CDF80499079AD160FFE760
:10B3300008B080BD81B00146ADF80200BDF9020041
:10B3400000280FD4FFE7BDF9020000F01F01012221
:10B3500002FA01F140094EF28022CEF2000242F8D8
:10B360002010FFE701B0704781B00146ADF8020040
:10B37000BDF9020000280FD4FFE7BDF9020000F07C
:10B380001F01012202FA01F140094EF20012CEF231
:10B39000000242F82010FFE701B0704781B001467B
:10B3A000ADF80200BDF9020000280FD4FFE7BDF997
:10B3B000020000F01F01012202FA01F140094EF2E1
:10B3C0000012CEF2000242F82010FFE701B07047F1
:10B3D00082B00246ADF806000091BDF906000028D3
:10B3E0000AD4FFE700980001BDF906104EF20042B2
:10B3F000CEF2000288540BE000980001BDF8061060
:10B4000001F00F014EF61452CEF200028854FFE70D
:10B4100002B0704782B00246ADF806000091BDF957
:10B42000060000280AD4FFE700980001BDF90610C5
:10B430004EF20042CEF2000288540BE00098000168
:10B44000BDF8061001F00F014EF61452CEF20002C4
:10B450008854FFE702B0704782B00090009800283F
:10B4600003D1FFE70020019036E09DF8000000289E
:10B470000AD0FFE79DF8000040F20111C0F201017F
:10B48000085C0130019027E09DF8010000280AD0F7
:10B49000FFE79DF8010040F20111C0F20101085CD4
:10B4A0000930019018E09DF8020000280AD0FFE75B
:10B4B0009DF8020040F20111C0F20101085C113058
:10B4C000019009E09DF8030040F20111C0F2010172
:10B4D000085C19300190FFE7019802B07047000046
:10B4E00081B041F65840C1F6FE70009000980068A7
:10B4F0000099401A18BF012001B0704780B592B082
:10B5000010900F910E9200200C90FFE710980C996C
:10B51000405C00212028029110D0FFE710980C9980
:10B52000405C00210928029108D0FFE70C980F9990
:10B530000022884238BF01220292FFE70298C0072A
:10B54000002804D0FFE70C9801300C90DEE70C983F
:10B55000002804D1FFE74FF0FF30119030E0109841
:10B560000C9902F035FA0B900B98002804D1FFE7F4
:10B570004FF0FF30119023E000200A9009900890CE
:10B580000790069005900490039010980F9903AAD5
:10B5900002F0A0FA0D900D98002804D1FFE74FF0BB
:10B5A000FF3011900CE00B980D9903AA019008460A
:10B5B0001146019A90470E99086000201190FFE70C
:10B5C000119812B080BD0000B0B590B0DDF85CC03D
:10B5D000DDF858E0159C149D0F900E910D920C9380
:10B5E0008DF82FE00F981430CDF828C009940895F5
:10B5F00002F032FF0D980F9908620C980F9948627B
:10B6000014980F99886215980F99C8620F98816AEB
:10B61000C26A232007900846079903F05BF80F9948
:10B620000A6A4B6AD1F828C0C96A614404394EF6E7
:10B630005D4CC0F2000C0690104605911946059A23
:10B64000634602F065FE0F99C8619DF82F000F99BF
:10B6500081F836009DF82F000F9981F835000F987A
:10B660000021816317980F9AD06317980F9A10647E
:10B670000F9801630F9880F834100F9801670F98A6
:10B6800041670F9800F144026B46596019604EF60D
:10B690008173C0F2000304901046049A039111468E
:10B6A0001A46049B03F0A0FD039810B0B0BD000043
:10B6B00080B586B0DDF820C0059004910392029316
:10B6C0008DF807C09DF80700059948720598417AE2
:10B6D00001F0FE01417204980599C861039805992B
:10B6E00008620598002181620298059A50620091D3
:10B6F000FFE7009800280CDCFFE70598009900EBB5
:10B70000C100143002F0B0FEFFE700980130009055
:10B71000EFE706B080BD000080B582B00190002048
:10B720000090FFE7009800280CDCFFE701980099E3
:10B7300000EBC100143002F079FFFFE70098013000
:10B740000090EFE702B080BD80B584B00B46039057
:10B750008DF80B10019203989DF80B10019A00933D
:10B76000F6F706FB04B080BD80B584B013468C4666
:10B7700003908DF80B108DF80A2003989DF80B109C
:10B780009DF80A2002F001020193CDF800C0F6F7FF
:10B79000C9FA04B080BD000080B584B013468C4661
:10B7A00003908DF80B10ADF8082003989DF80B104E
:10B7B000BDF808200193CDF800C0F6F7E9FA04B00F
:10B7C00080BD00002DE9F0418AB0F6F71DFB40F284
:10B7D000B051C1F6FE710860081D0991F6F71EFB15
:10B7E0000998016840F2AC52C1F6FE72116040F651
:10B7F000B311C0F201010023184608920793FEF727
:10B80000E5F908990A784B7891F802C091F803E0BD
:10B81000099C6568A668E768E846C8F81070C8F82B
:10B820000C60C8F80850C8F80420C8F8003040F68A
:10B83000D711C0F20101079A06901046724663467E
:10B84000FEF7D4F969460F220A6040F63F11C0F2B4
:10B85000010140F60C22C0F2010240F61F23C0F2A3
:10B860000103DDF81CC005906046FEF7BFF90AB081
:10B87000BDE8F08180B594B01290119108A8F5F759
:10B8800005F94AF20B5104900846FEF7AFF81298FA
:10B890004EF20001C4F20401884205D1FFE71020F6
:10B8A0000121FDF7C5FF4BE012984EF20041C4F2B2
:10B8B0000401884205D1FFE720200121FDF7B8FFF0
:10B8C0003DE012984EF60001C4F20401884205D111
:10B8D000FFE740200121FDF7ABFF2FE012984EF665
:10B8E0000041C4F20401884205D1FFE78020012114
:10B8F000FDF79EFF21E012984FF20001C4F204010F
:10B90000884206D1FFE74FF480700121FDF790FFD8
:10B9100012E012984FF60001C4F20401884206D1E9
:10B92000FFE74FF400700121FDF782FF03E00120E3
:10B930008DF84F0031E0FFE7FFE7FFE7FFE7FFE7A4
:10B940004AF20B50FDF7F8FFF6F74CFC1298F6F7A9
:10B9500067FD05A80390F6F7E7FD1199069105210B
:10B96000079104210591129910AA029008460399A3
:10B97000F6F79CFD12990122019008461146F6F750
:10B980003FFD4EF20000C4F2040000210091F6F7E2
:10B9900055FD00988DF84F00FFE79DF84F0014B05B
:10B9A00080BD000080B588B00B468446ADF81E000F
:10B9B000ADF81C100692BDF81C00ADF81200BDF8E1
:10B9C0001E00ADF810000698059004A80393CDF86A
:10B9D00008C0F6F73BFFBDF9121001900846FFF7CB
:10B9E000A9FCBDF912000F21FFF7F2FCBDF912000E
:10B9F000FFF7D4FC08B080BD80B5B2B031909DF89F
:10BA0000C400C007002827D0FFE740F6B311C0F2FA
:10BA1000010100203090FEF7D9F840F62931C0F23C
:10BA20000101309A2F901046FEF7E0F869460D228A
:10BA30000A6040F63F11C0F2010140F63022C0F228
:10BA4000010240F63E23C0F20103DDF8C0C02E9093
:10BA50006046FEF7CBF8FFE79DF8C400800700289A
:10BA600027D5FFE740F6B311C0F2010100202D9069
:10BA7000FEF7ACF840F69B21C0F201012D9A2C9004
:10BA80001046FEF7B3F8694611220A6040F63F11EE
:10BA9000C0F2010140F63022C0F2010240F63E231E
:10BAA000C0F20103DDF8B4C02B906046FEF79EF8AB
:10BAB000FFE79DF8C4004007002827D5FFE740F6C0
:10BAC000B311C0F2010100202A90FEF77FF840F682
:10BAD0006821C0F201012A9A29901046FEF786F8E3
:10BAE000694615220A6040F63F11C0F2010140F696
:10BAF0003022C0F2010240F63E23C0F20103DDF81D
:10BB0000A8C028906046FEF771F8FFE79DF8C400D2
:10BB10000007002827D5FFE740F6B311C0F2010166
:10BB200000202790FEF752F840F65221C0F20101A2
:10BB3000279A26901046FEF759F8694619220A609E
:10BB400040F63F11C0F2010140F63022C0F201027E
:10BB500040F63E23C0F20103DDF89CC0259060460C
:10BB6000FEF744F8FFE79DF8C400C006002827D57B
:10BB7000FFE740F6B311C0F2010100202490FEF768
:10BB800025F840F65D21C0F20101249A2390104669
:10BB9000FEF72CF869461D220A6040F63F11C0F2FC
:10BBA000010140F63022C0F2010240F63E23C0F20D
:10BBB0000103DDF890C022906046FEF717F8FFE71A
:10BBC0009DF8C4008006002827D5FFE740F6B31192
:10BBD000C0F2010100202190FDF7F8FF40F673212B
:10BBE000C0F20101219A20901046FDF7FFFF69463F
:10BBF00021220A6040F63F11C0F2010140F63022D6
:10BC0000C0F2010240F63E23C0F20103DDF884C019
:10BC10001F906046FDF7EAFFFFE79DF8C40040066D
:10BC2000002827D5FFE740F6B311C0F2010100203C
:10BC30001E90FDF7CBFF40F67221C0F201011E9A63
:10BC40001D901046FDF7D2FF694625220A6040F696
:10BC50003F11C0F2010140F63022C0F2010240F66D
:10BC60003E23C0F20103DDF878C01C906046FDF76A
:10BC7000BDFFFFE79DF8C4000006002827D5FFE7B9
:10BC800040F6B311C0F2010100201B90FDF79EFFAA
:10BC900040F6AC21C0F201011B9A1A901046FDF744
:10BCA000A5FF694629220A6040F63F11C0F2010152
:10BCB00040F63022C0F2010240F63E23C0F20103FA
:10BCC000DDF86CC019906046FDF790FFFFE79DF826
:10BCD000C500C007002827D0FFE740F6B311C0F227
:10BCE000010100201890FDF771FF40F68C21C0F291
:10BCF0000101189A17901046FDF778FF69462D222A
:10BD00000A6040F63F11C0F2010140F63022C0F255
:10BD1000010240F63E23C0F20103DDF860C0169038
:10BD20006046FDF763FFFFE79DF8C5008007002828
:10BD300027D5FFE740F6B311C0F2010100201590AE
:10BD4000FDF744FF40F60231C0F20101159A14904C
:10BD50001046FDF74BFF694631220A6040F63F115D
:10BD6000C0F2010140F63022C0F2010240F63E234B
:10BD7000C0F20103DDF854C013906046FDF736FFB2
:10BD8000FFE79DF8C5004007002827D5FFE740F6EC
:10BD9000B311C0F2010100201290FDF717FF40F629
:10BDA0001231C0F20101129A11901046FDF71EFFE8
:10BDB000694635220A6040F63F11C0F2010140F6A3
:10BDC0003022C0F2010240F63E23C0F20103DDF84A
:10BDD00048C010906046FDF709FFFFE79DF8C500D9
:10BDE0000007002827D5FFE740F6B311C0F2010194
:10BDF00000200F90FDF7EAFE40F6CD21C0F20101D0
:10BE00000F9A0E901046FDF7F1FE694639220A603E
:10BE100040F63F11C0F2010140F63022C0F20102AB
:10BE200040F63E23C0F20103DDF83CC00D906046B1
:10BE3000FDF7DCFEFFE79DF8C500C006002827D50A
:10BE4000FFE740F6B311C0F2010100200C90FDF7AE
:10BE5000BDFE40F6E121C0F201010C9A0B901046A4
:10BE6000FDF7C4FE69463D220A6040F63F11C0F26C
:10BE7000010140F63022C0F2010240F63E23C0F23A
:10BE80000103DDF830C00A906046FDF7AFFEFFE722
:10BE90009DF8C5008006002827D5FFE740F6B311BE
:10BEA000C0F2010100200990FDF790FE40F6F1215B
:10BEB000C0F20101099A08901046FDF797FE694605
:10BEC00041220A6040F63F11C0F2010140F63022E3
:10BED000C0F2010240F63E23C0F20103DDF824C0A7
:10BEE00007906046FDF782FEFFE79DF8C50040061B
:10BEF000002827D5FFE740F6B311C0F2010100206A
:10BF00000690FDF763FE40F6BC21C0F20101069ADF
:10BF100005901046FDF76AFE694645220A6040F624
:10BF20003F11C0F2010140F63022C0F2010240F69A
:10BF30003E23C0F20103DDF818C004906046FDF70F
:10BF400055FEFFE79DF8C7004006002827D5FFE70C
:10BF500040F6B311C0F2010100200390FDF736FE58
:10BF600040F67D21C0F20101039A02901046FDF7D0
:10BF70003DFE694649220A6040F63F11C0F20101C8
:10BF800040F63022C0F2010240F63E23C0F2010327
:10BF9000DDF80CC001906046FDF728FEFFE732B0E7
:10BFA00080BD000080B58EB0FDF752FDFEF758FE53
:10BFB0000390FEF741FE0290FDF7E6FB0190FDF7CE
:10BFC000BBFB052100900846F5F744F80920F4F77B
:10BFD000F5FEFDF74BFD04A8F4F716FE0EB080BD8C
:10BFE00080B58CB09C468E460B908DF82B10099234
:10BFF0008DF823304AF202500590CDF810C0CDF8EC
:10C000000CE0FDF703FD4FF4805001210291FDF794
:10C010002FFC0598FDF7A2FC099A44F20000C4F237
:10C0200002000021FEF708FA029901900846F5F790
:10C03000EDFD9DF82300002809D0FFE70B989DF83F
:10C040002B104FF4A0420123FEF7CCF9FFE70B9829
:10C050009DF82B1000220092FEF744FA00980CB0D5
:10C0600080BD000080B584B00A4603908DF80B10A7
:10C0700003989DF80B10002301921A460093FEF7D7
:10C0800091F9009804B080BD80B58CB00B900A91F6
:10C0900005A8FEF73BFA00210691079120220592A0
:10C0A00041F26F73ADF82430ADF826104FF68D6174
:10C0B000C0F200010A230490104603911946039A26
:10C0C0000293FFF76FFC4FF6D962C0F200024FF403
:10C0D00096700299FFF766FC0A9890F82C000128E8
:10C0E00018D1FFE70A9890F82C3044F20000C4F20F
:10C0F0000200002105AAFFF773FF4FF6DD62C0F2D0
:10C1000000024FF498710923019008461946FFF781
:10C1100049FCFFE70CB080BD80B590B04FF4E13032
:10C120000F9000218DF8301004228DF8312001236A
:10C13000ADF8323021238DF834308DF835200222CD
:10C14000ADF8362020238DF83830019008914FF457
:10C150000060029005910B9109914FF40040079007
:10C16000049103924FF000400A9006914CF6004073
:10C17000C4F2010001A900F003F810B080BD000076
:10C1800080B586B0059004914AF20B50FDF74EFC45
:10C19000049800F0C1F805994CF60042C4F201027F
:10C1A00091420AD1FFE74FF480100121FDF780FB97
:10C1B00005980499FFF768FFFFE705984DF2000125
:10C1C000C4F20101884206D1FFE74FF400100121BB
:10C1D000FDF76EFBFFE705984DF20041C4F2010147
:10C1E000884206D1FFE74FF480000121FDF760FB94
:10C1F000FFE705984DF60001C4F20101884206D11F
:10C20000FFE74FF400000121FDF752FBFFE705981F
:10C210004DF60041C4F20101884206D1FFE74FF01C
:10C2200080700121FDF744FBFFE7059840F60041CF
:10C23000C4F20201884206D1FFE74FF000700121ED
:10C24000FDF736FBFFE7059841F20001C4F2020159
:10C25000884206D1FFE74FF080600121FDF728FBFF
:10C26000FFE7059841F20041C4F20201884206D17D
:10C27000FFE74FF000600121FDF71AFBFFE705988B
:10C2800041F60001C4F20201884206D1FFE74FF0F7
:10C2900080500121FDF70CFBFFE7059841F60041B6
:10C2A000C4F20201884206D1FFE74FF0005001219D
:10C2B000FDF7FEFAFFE74AF20B50FDF761FB059828
:10C2C0000499FEF765FC05990822012303900846AE
:10C2D00011461A460293FEF759FB05980421029A6B
:10C2E000FEF754FB05982021029AFEF74FFB0498B5
:10C2F00090F82C0000280CD0FFE70598012101914F
:10C30000019AFEF743FB05980221019AFEF73EFBD6
:10C31000FFE7002006B080BD80B584B00390F5F73C
:10C3200051FF0398C18D90F82D2090F83000002324
:10C3300002901046029A0193F5F7B4FE0398418EDD
:10C3400090F8312090F8340000901046009A019B3C
:10C35000F5F7A8FEF5F77CFE019804B080BD00005B
:10C3600080B582B040F6CA60C0F2010002F03EF82B
:10C370004EF62950CEF20000017841F25F02C0F281
:10C3800001020190104602F031F801980178C907C6
:10C39000002907D0FFE741F24A00C0F2010002F095
:10C3A00025F8FFE74EF62950CEF20000007880070E
:10C3B000002807D5FFE741F23F00C0F2010002F07C
:10C3C00015F8FFE74EF62950CEF20000007840073E
:10C3D000002807D5FFE741F23D00C0F2010002F05E
:10C3E00005F8FFE74EF62950CEF20000007800076E
:10C3F000002807D5FFE741F23300C0F2010001F049
:10C40000F5FFFFE74EF62950CEF200000078C00697
:10C41000002807D5FFE741F23500C0F2010001F026
:10C42000E5FFFFE74EF62950CEF200000078000647
:10C4300000280CD5FFE74EF63850CEF20000016818
:10C4400040F6D660C0F2010001F0D0FF06E040F6F1
:10C450003E50C0F2010001F0C9FFFFE702B080BD0D
:10C4600080B582B0F5F732FD01200190F5F7BEFCF2
:10C470000198F5F7EDFC0198F5F70CFDF5F7F6FCE2
:10C4800002B080BD80B586B0049003910498012865
:10C4900004DCFFE74FF0FF30059028E003980430FC
:10C4A00000F028F802900398806840F65831C0F2F6
:10C4B000010102F0EBFA002803D1FFE70020019010
:10C4C000FFE70398806840F65231C0F2010102F0A4
:10C4D000DDFA002803D1FFE701200190FFE79DF876
:10C4E0000800019900F05CF800200590FFE705982E
:10C4F00006B080BD80B582B0019000200090FFE7BB
:10C50000F3F774FF0068019909680978405C2028F6
:10C510000DD1FFE7009800EB800001990A68531CD9
:10C520000B60117801EB400030380090E8E700988C
:10C5300002B080BD80B584B00390029100F068FF26
:10C5400000210190084604B080BD000083B0029035
:10C55000019101980A2815D1FFE7029800684CF66E
:10C56000CD41CCF6CC41A0FB0123DB0803EB8303D8
:10C57000A0EB4300009002980368A3FB0113DB08C3
:10C58000036009E00298006800F00F000090029834
:10C59000016809090160FFE7009803B070470000D7
:10C5A00080B58CB002468DF82F000A919DF82F00BF
:10C5B000039200F0D9FB09900998002801D1FFE708
:10C5C0004DE004A8F5F7C6FD0A99002909D1FFE757
:10C5D0000220ADF812000020ADF81400ADF81A00EA
:10C5E0002EE00A98012808D1FFE70020ADF81200DC
:10C5F000ADF81400ADF81A0021E00A98022809D11C
:10C60000FFE70020ADF81200ADF814004020ADF8AF
:10C610001A0013E00A98032801D1FFE71FE00A98E7
:10C62000042809D1FFE70020ADF812000421ADF87D
:10C630001410ADF81A00FFE7FFE7FFE7FFE7FFE799
:10C64000F5F7C8FD09980179008904AA0290084607
:10C650000299F5F793FC0190F5F702FDFFE70CB0A6
:10C6600080BD000080B586B00A4603468DF81700ED
:10C670008DF816109DF817000392029300F074FBDA
:10C6800004900498002801D1FFE716E09DF81600F9
:10C69000002809D0FFE70498017900890190084635
:10C6A0000199F5F73DFD08E00498017900890090B3
:10C6B00008460099F5F7DCFCFFE706B080BD0000F6
:10C6C00080B584B041F63850C1F6FE70006890F82D
:10C6D00021004008C007002808D1FFE740F2C05001
:10C6E000C1F6FE7000210170039040E040F244600A
:10C6F000C1F6FE700068002810D0FFE740F24460E9
:10C70000C1F6FE70016840F2C050C1F6FE70802292
:10C710000290F3F706FF0299039128E001F0D8F99F
:10C7200000280BD0FFE740F2C050C1F6FE7040F683
:10C730004261C0F20101F3F707FF0AE040F2C05086
:10C74000C1F6FE7040F64761C0F20101F3F7FCFE4E
:10C75000FFE740F2C050C1F6FE7040F64E61C0F2F5
:10C7600001010190F3F7D1FE01990391FFE70398CE
:10C7700004B080BD80B501F09BFC80BD81B000900D
:10C780009DF8000041F63851C1F6FE71096891F834
:10C79000212000F0010002F0FD0242EA400081F891
:10C7A000210001B07047000082B001900091019813
:10C7B00040F2A451C1F6FE710860009840F2A85101
:10C7C000C1F6FE71086002B07047000080B58AB003
:10C7D0000020099041F24811C0F2010141F2F81223
:10C7E000C0F20102079008461146FFF7DDFF41F64F
:10C7F0003850C1F6FE7040F22C51C1F6FE71016056
:10C8000040F24861C1F6FE7108916A460A23D3607E
:10C81000062393604FF40073536040F2C063C1F687
:10C82000FE73136040F65362C0F201024CF68103BE
:10C83000C0F200030690084611461A46079B02F014
:10C84000B5FA09900698006840F65F61C0F20101F0
:10C85000079A079B02F0D6F8012105900846FFF7DA
:10C860008DFF0898002808D0FFE70998002804D118
:10C87000FFE7089802F036FBFFE700200AB080BD12
:10C8800080B58CB00B9041F63850C1F6FE70006850
:10C8900090F8211041F0010180F82110FFF710FFFE
:10C8A00001F0A4FDFFE7FFF765FF0A900A98B0F1D9
:10C8B000FF3F01DCFFE7F6E70A981B2809D1FFE7F5
:10C8C00041F63850C1F6FE700068012180F8201052
:10C8D000E9E741F63850C1F6FE70006890F8200094
:10C8E000012816D1FFE70A985B2809D1FFE741F636
:10C8F0003850C1F6FE700068022180F82010D2E79F
:10C9000041F63850C1F6FE700068002180F8201012
:10C910006BE041F63850C1F6FE70006890F82000D8
:10C92000022861D1FFE741F63850C1F6FE70006879
:10C93000002180F820100A98412801D1FFE7B2E7D2
:10C940000A98422801D1FFE7ADE70A9844281CD194
:10C95000FFE741F63850C1F6FE700068B0F8740089
:10C96000002811D0FFE740F64060C0F2010001F05E
:10C970003DFD41F63850C1F6FE700068B0F8741005
:10C980000139A0F87410FFE78DE70A98432827D1F2
:10C99000FFE741F63850C1F6FE700068B0F8741039
:10C9A000B0F8720081421ADAFFE741F63850C1F65A
:10C9B000FE700168B1F87420114491F8221040F61D
:10C9C0005062C0F201020690104601F00FFD069879
:10C9D0000168B1F874200132A1F87420FFE762E722
:10C9E000FFE7FFE7FFE7FFE7FFE7FFE70A98002819
:10C9F00004D0FFE70A98FF2801D1FFE753E70A9820
:10CA0000092831D1FFE700200990FFE7099841F696
:10CA10003851C1F6FE710968B1F8741088420BDA1A
:10CA2000FFE740F64060C0F2010001F0DFFCFFE7E5
:10CA3000099801300990E9E741F63850C1F6FE70D7
:10CA4000016822310590084602F0D4FF059801687C
:10CA500001F12200F3F771FD05990A68A2F872004E
:10CA60000A68A2F874001EE70A987F2804D0FFE73E
:10CA70000A9808287CD1FFE741F63850C1F6FE70CD
:10CA80000068B0F87400002801D1FFE70BE741F619
:10CA90003850C1F6FE700168B1F87220013AA1F871
:10CAA00072200168B1F87420013AA1F8742000687E
:10CAB000B0F87210B0F87400814246DDFFE741F62D
:10CAC0003850C1F6FE700168B1F874208B1803F17C
:10CAD000220C2333B1F872108A1A0490604619466A
:10CAE00001F0B4FD04990A68B2F872301A440023C8
:10CAF00082F822300A68B2F874301A4402F1220136
:10CB000040F63B62C0F201020390104601F06EFC59
:10CB100004980168B1F874100891FFE7089841F68D
:10CB20003851C1F6FE710968B1F8721088420BDC09
:10CB3000FFE740F64060C0F2010001F057FCFFE75C
:10CB4000089801300890E9E711E040F63760C0F23C
:10CB5000010001F04BFC41F63850C1F6FE70006850
:10CB6000B0F872100844002180F82210FFE79AE61E
:10CB7000FFE7FFE70A980D2804D0FFE70A980A2884
:10CB800040D1FFE700F0A4FF012821D1FFE741F6E3
:10CB90003850C1F6FE70006890F82100C0070028E8
:10CBA00007D0FFE740F63E50C0F2010001F01EFC46
:10CBB000FFE741F63850C1F6FE70006800F122012F
:10CBC000B0F8720002900846029900F0A3FE00E05F
:10CBD000FFE7FFF775FD01F009FC41F63850C1F69B
:10CBE000FE70016822315022019008461146F3F789
:10CBF00081FC019801680022A1F872200168A1F867
:10CC0000742050E641F63850C1F6FE700068B0F866
:10CC10007200502809DBFFE741F63850C1F6FE707C
:10CC200000680021A0F87210FFE741F63850C1F605
:10CC3000FE700068B0F87410B0F87200814253DAE8
:10CC4000FFE741F63850C1F6FE700168B1F8742074
:10CC50008B1803F1230C2233B1F872108A1A00905A
:10CC60006046194601F0F2FC0A99009A1368B3F87D
:10CC700074C0634483F82210116891F82110C90729
:10CC8000002911D0FFE741F63850C1F6FE70006868
:10CC9000B0F87410084400F1220140F65C60C0F264
:10CCA000010001F0A3FBFFE741F63850C1F6FE702A
:10CCB0000068B0F874000790FFE7079841F6385114
:10CCC000C1F6FE710968B1F8721088420BDAFFE70D
:10CCD00040F64060C0F2010001F088FBFFE70798D2
:10CCE00001300790E9E71AE00A9841F63851C1F699
:10CCF000FE710A68B2F872301A4482F8220008689D
:10CD000090F82100C007002808D0FFE70A9940F6F4
:10CD10005060C0F2010001F069FBFFE7FFE700206F
:10CD20000A9041F63850C1F6FE700168B1F87220E1
:10CD30000132A1F872200168B1F874200132A1F823
:10CD400074200068B0F8720050280CDBFFE741F651
:10CD50003850C1F6FE7001680022A1F87220006808
:10CD6000A0F87420FFE79EE582B001468DF8070029
:10CD70009DF807008F2815D8FFE79DF8070000EB06
:10CD8000400040F22421C0F2010101EB800000903C
:10CD9000009800680130002803D1FFE700200090D0
:10CDA000FFE702E000200090FFE7009802B0704724
:10CDB00080B54EF62C50CEF20000006880070028A7
:10CDC00007D5FFE740F6F660C0F2010001F00EFB68
:10CDD000FFE74EF62C50CEF200000068400000281D
:10CDE00022D5FFE74EF62950CEF200000078002849
:10CDF00003D0FFE7FFF7B4FAFFE74EF62850CEF274
:10CE000000000078002803D0FFE700F09FFCFFE758
:10CE10004EF62A50CEF200000088002803D0FFE72B
:10CE200002F0BAFFFFE7FFE74EF62C50CEF200000B
:10CE30000068C00F002807D0FFE740F60B70C0F273
:10CE4000010001F0D3FAFFE780BD000080B540F695
:10CE50007530C0F2010001F0C9FA002080BD000069
:10CE600080B584B001468DF80F009DF80F000322B5
:10CE700002901046029A01911146FDF767FA04B03C
:10CE800080BD000080B584B0029001910298012815
:10CE900004DCFFE74FF0FF300390ACE001984068FE
:10CEA00040F63331C0F2010101F0F0FD00281ED13F
:10CEB000FFE70198806841F23211C0F2010101F0F0
:10CEC000E5FD002809D1FFE740F63810C1F6FE70F5
:10CED000017841F08001017008E040F63810C1F699
:10CEE000FE70017801F07F010170FFE7FFE7019814
:10CEF000406841F23211C0F2010101F0C7FD002883
:10CF00001ED1FFE70198806841F23211C0F20101A1
:10CF100001F0BCFD002809D1FFE740F63810C1F64A
:10CF2000FE70017841F04001017008E040F63810D1
:10CF3000C1F6FE70017801F0BF010170FFE7FFE765
:10CF40000198406840F63531C0F2010101F09EFDC4
:10CF500000281ED1FFE70198806841F23211C0F22B
:10CF6000010101F093FD002809D1FFE740F63810D8
:10CF7000C1F6FE70017841F02001017008E040F632
:10CF80003810C1F6FE70017801F0DF010170FFE793
:10CF9000FFE70198406840F63B31C0F2010101F023
:10CFA00075FD002809D1FFE740F63810C1F6FE7084
:10CFB000017841F0E0010170FFE70198406840F618
:10CFC0003731C0F2010101F061FD002809D1FFE70E
:10CFD00040F63810C1F6FE70017801F01F010170B3
:10CFE000FFE740F63810C1F6FE700078FFF738FF13
:10CFF00000200390FFE7039804B080BD80B582B0A5
:10D0000040F61940C0F2010001F0F0F940F2A450DE
:10D01000C1F6FE7000680190FFE7019840F2A85148
:10D02000C1F6FE71096888421AD2FFE701980068CC
:10D0300040F6A751C0F201010222F3F78EFA002850
:10D0400001D1FFE708E00198016841F21D10C0F22C
:10D05000010001F0CBF9FFE7019808300190DCE70F
:10D06000002002B080BD000080B588B08C460790DB
:10D070008DF81B10059204939DF81B00CDF804C099
:10D0800001F096FB039003980430029002980799F0
:10D0900008609DF81B000799087205980799486079
:10D0A00004980799C86007980021016108B080BD05
:10D0B00080B58AB008900791002006900799086112
:10D0C0000798C068002805D0FFE70798007A002875
:10D0D00003D1FFE70020099052E007980068039011
:10D0E0000898002805D1FFE70398049001200690D6
:10D0F00002E008980490FFE7F3F7DEF80590069841
:10D10000002813D1FFE704980C3800900098007AAB
:10D1100000F07F000799097A884206D0FFE705985A
:10D12000F3F7CEF8002009902AE0FFE700200190F5
:10D13000079840680290FFE70498006804900498FC
:10D140000399884203D1FFE7002004900FE0019883
:10D1500001300190049802990A1D0292086001981A
:10D160000799C968884201D1FFE700E0E4E7059824
:10D17000F3F7A6F801980799086104980990FFE76A
:10D1800009980AB080BD000080B5A0B000201190C1
:10D1900040F6D350C0F201000F901AA8052112AA40
:10D1A00008230B93FFF760FF0B98109010990F9ACC
:10D1B00040F69340C0F2010001F018F9109800F019
:10D1C00073FD40F6FD30C0F2010001F00FF9FFE7FA
:10D1D00011981AA9FFF76CFF119000200E90FFE73D
:10D1E0000E981E9988426BDAFFE70E9812A951F843
:10D1F00020000C380D90F3F75FF81F900D98007A1F
:10D2000000F07F009DF87010884204D0FFE71F985F
:10D21000F3F756F850E01F98F3F752F80D980C907A
:10D220000C98143001F08CF9002827D1FFE71099F1
:10D230000C98428C038C00F1140C0A906046099102
:10D240000892079301F09AF9694688600798486048
:10D250000898086040F69150C0F201000822099930
:10D260000A9B01F0C3F80C98143002F0E5FB40F67D
:10D270003E50C0F2010001F0B9F81CE010990C9882
:10D28000428C038C00F1140C0690604605910492C8
:10D29000039301F073F96946886003984860049825
:10D2A000086040F63B40C0F2010008220599069B49
:10D2B00001F09CF8FFE7FFE70E9801300E908FE732
:10D2C000FFE7119800287FF483AFFFE7002020B02C
:10D2D00080BD000080B59EB000200F9040F6BA508F
:10D2E000C0F201000D9018A8022110AA082309938A
:10D2F000FFF7BAFE09980E900E990D9A40F6794004
:10D30000C0F2010001F072F80E9800F0CDFC40F67A
:10D31000E830C0F2010001F069F8FFE70F9818A9A2
:10D32000FFF7C6FE0F9000200C90FFE70C981C99A9
:10D33000884263DAFFE70C9810A951F820000C38F6
:10D340000B90F2F7B9FF1D900B98007A00F07F0068
:10D350009DF86810884204D0FFE71D98F2F7B0FFEF
:10D3600048E01D98F2F7ACFF0B980A900A98143029
:10D3700001F0E6F8002823D1FFE70E990A98828B86
:10D3800000F11403089018460791069201F0F6F890
:10D39000694648600698086040F68150C0F2010076
:10D3A00008220799089B01F021F80A98143002F02E
:10D3B00043FB40F63E50C0F2010001F017F818E0C0
:10D3C0000E990A98828B00F1140305901846049177
:10D3D000039201F0D3F8694648600398086040F66C
:10D3E0002B40C0F2010008220499059B00F0FEFFCB
:10D3F000FFE7FFE70C9801300C9097E7FFE70F98E5
:10D4000000287FF48BAFFFE700201EB080BD000036
:10D4100080B5BAB000202B9040F6AA50C0F20100AF
:10D420002A9034A801212CAA08230593FFF71CFE9B
:10D430000598299029992A9A40F6E740C0F2010000
:10D4400000F0D4FF299800F02FFC40F68730C0F29E
:10D45000010000F0CBFFFFE72B9834A9FFF728FE6F
:10D460002B9000202890FFE728983899884280F276
:10D47000AD80FFE728982CA951F820000C382790A0
:10D48000F2F71AFF39902798007A00F07F009DF894
:10D49000D810884204D0FFE73998F2F711FF91E0E5
:10D4A000279909A87822F3F70CF83998F2F708FFC2
:10D4B000279808902999089890F835206B461A60AB
:10D4C00040F65B52C0F201020823049010461A464F
:10D4D000049B00F08BFF089890F8340000F00F00D8
:10D4E0008DF81F009DF81F00012807D1FFE740F6C7
:10D4F0005250C0F2010000F079FF33E09DF81F00A8
:10D50000022807D1FFE740F6B150C0F2010000F059
:10D510006DFF26E09DF81F00002807D1FFE740F6C9
:10D520004050C0F2010000F061FF19E09DF81F00BB
:10D53000042807D1FFE740F64950C0F2010000F08F
:10D5400055FF0CE09DF81F00032807D1FFE740F6C8
:10D55000C450C0F2010000F049FFFFE7FFE7FFE71A
:10D56000FFE7FFE70898806A0690FFE706980078D3
:10D57000232804D1FFE7069801300690F6E70898C3
:10D58000C169826AC36AD0F830C0511A1944DDF803
:10D5900018E0A2EB0E021A444FF0640E02FB0EF2EA
:10D5A000B2FBF3F2006CEE46CEF804C0CEF80000F9
:10D5B00040F65140C0F2010003921A46039B00F06E
:10D5C00015FFFFE72898013028904DE7FFE72B98DB
:10D5D00000287FF441AFFFE700203AB080BD000093
:10D5E00080B59AB000200B9040F6CD50C0F20100FB
:10D5F000099014A80A210CAA08230593FFF734FD0B
:10D6000005980A900A99099A40F6C140C0F20100B3
:10D6100000F0ECFE0A9800F047FB40F6C430C0F280
:10D62000010000F0E3FEFFE70B9814A9FFF740FDAF
:10D630000B9000200890FFE708981899884248DA74
:10D64000FFE708980CA951F820000C380790F2F772
:10D6500033FE19900798007A00F07F009DF858106B
:10D66000884204D0FFE71998F2F72AFE2DE01998B6
:10D67000F2F726FE079806900A990698426A836A8E
:10D68000EC46CCF80430CCF8002040F66752C0F2EB
:10D6900001020823049010461A46049B00F0A6FEDF
:10D6A0000698407AC007002807D0FFE740F6B6404A
:10D6B000C0F2010000F09AFE06E040F6B440C0F26D
:10D6C000010000F093FEFFE7FFE7089801300890A3
:10D6D000B2E7FFE70B980028A6D1FFE701F0D4FCE2
:10D6E00040F62B51C0F2010103900846039900F067
:10D6F0007DFE00201AB080BD80B584B0002003906C
:10D700004EF20001C4F2040148F2A062C0F201022C
:10D71000029008461146FEF7ADF8029901900846BE
:10D72000FCF7F4FD0298FFF79BFBFFE7322001F0C6
:10D730008DFA0090FAE7000080B582B0019000F009
:10D7400041FCFFF7D9FF02B080BD000080B582B078
:10D7500040F6A960C0F2010000F048FE4EF62850E5
:10D76000CEF20000017841F27502C0F20102019090
:10D77000104600F03BFE01980178C907002907D048
:10D78000FFE741F20E00C0F2010000F02FFEFFE7BC
:10D790004EF62850CEF2000000788007002807D50A
:10D7A000FFE741F20400C0F2010000F01FFEFFE7B6
:10D7B0004EF62850CEF2000000780007002807D56A
:10D7C000FFE741F23200C0F2010000F00FFEFFE778
:10D7D0004EF62850CEF200000078C006002807D58B
:10D7E000FFE741F22900C0F2010000F0FFFDFFE772
:10D7F0004EF62850CEF200000078000600280CD526
:10D80000FFE74EF63450CEF20000016840F6E660C5
:10D81000C0F2010000F0EAFD06E040F63E50C0F222
:10D82000010000F0E3FDFFE702B080BD80B58AB0E3
:10D83000099000200790069009980078002806D1EA
:10D84000FFE700200390039900F004F960E040F244
:10D85000A450C1F6FE7000680490FFE7049840F2FF
:10D86000A851C1F6FE710968884246D2FFE70498C4
:10D87000006840F63061C0F201010622F2F76DFE49
:10D88000002801D0FFE734E00498006806300590D6
:10D890000998059902900191F2F74FFE02990090C4
:10D8A00008460199009AF2F758FE002820D1FFE7B8
:10D8B0000798002807D1FFE7059806900698F2F729
:10D8C0003CFE0790FFE70698059902F0FBF80890E8
:10D8D00008980799884203DAFFE708980790FFE75E
:10D8E000059941F21D10C0F2010000F07FFDFFE735
:10D8F000FFE7049808300490B0E70698002806D0A7
:10D90000FFE709980699079A01F0FCF8FFE7FFE79F
:10D910000AB080BD80B588B006900591FFE70698F3
:10D92000007801212028029108D0FFE706980078AE
:10D930000938B0FA80F040090290FFE70298C0076A
:10D94000002807D0FFE706980130069005980138B7
:10D950000590E4E70598002803D1FFE70020079031
:10D9600032E00698059904AAFDF7C8FD002803D106
:10D97000FFE70498079027E006980390FFE70398D5
:10D98000007800212028019107D0FFE70398007854
:10D99000002818BF01200190FFE70198C007002868
:10D9A00004D0FFE7039801300390E8E703980021D3
:10D9B0000170069940F6DB50C0F2010000F016FD40
:10D9C0004FF0FF300790FFE7079808B080BD0000D8
:10D9D00080B584B0039002910020009040F2A450E2
:10D9E000C1F6FE7000680190FFE7019840F2A8516F
:10D9F000C1F6FE710968884228D2FFE701980068E5
:10DA000040F63061C0F201010622F2F7A6FD0028BF
:10DA100001D0FFE716E00198006806300399029AEA
:10DA2000F2F79BFD00280CD1FFE7019800680299EE
:10DA300008448079002804D1FFE7019840680090ED
:10DA400004E0FFE7019808300190CEE7009804B0A9
:10DA500080BD000080B584B00390029140F6116053
:10DA6000C0F2010000F0C2FC40F2A450C1F6FE700A
:10DA700000680190FFE7019840F2A851C1F6FE71DD
:10DA8000096888421BD2FFE70198006840F63061C0
:10DA9000C0F201010622F2F760FD002801D0FFE785
:10DAA00009E001980068811D40F62C60C0F2010079
:10DAB00000F09CFCFFE7019808300190DBE740F69E
:10DAC0003E50C0F2010000F091FC002004B080BD87
:10DAD0000120704780B58AB0099008910792099893
:10DAE0000690002005900490FFE705980899884269
:10DAF00080F0D780FFE7FFE706980078202807D05E
:10DB0000FFE70698007800210928029108D1FFE775
:10DB1000059808990022884238BF01220292FFE747
:10DB20000298C00700280AD0FFE70698002101707C
:10DB3000069801300690059801300590DCE70498BE
:10DB4000082824D3FFE740F6F350C0F2010000F0AC
:10DB50004DFC00200390FFE70398049988420FD200
:10DB6000FFE70798039950F8211040F62C60C0F2A7
:10DB7000010000F03BFCFFE7039801300390EBE766
:10DB800040F63E50C0F2010000F030FC89E00598FC
:10DB90000899884201D3FFE783E00698007822289D
:10DBA0004CD1FFE7069801300690059801300590AA
:10DBB00006980799049A41F82200049801300490CD
:10DBC000FFE70698007800212228019108D0FFE79E
:10DBD000059808990022884238BF01220192FFE788
:10DBE0000198C007002819D0FFE7069800785C2844
:10DBF0000DD1FFE706984078222807D1FFE7069865
:10DC000001300690059801300590FFE7FFE7069880
:10DC100001300690059801300590D2E705980899E3
:10DC2000884201D3FFE73CE0069800210170069886
:10DC30000130069005980130059031E0069807996B
:10DC4000049A41F82200049801300490FFE70698F6
:10DC500000780021202800910FD0FFE70698007877
:10DC600000210928009108D0FFE7059808990022B3
:10DC7000884238BF01220092FFE70098C0070028C1
:10DC800007D0FFE70698013006900598013005900F
:10DC9000DDE705980899884201D3FFE701E0FFE737
:10DCA00023E704980AB080BD80B582B00190FFE7F9
:10DCB0000198411E0191002807D0FFE740F67D50F2
:10DCC000C0F2010000F092FBF2E702B080BD00005C
:10DCD00010B590B0DDF850C0DDF84CE0129C0F900C
:10DCE0000E910D920C93139806901298039014982D
:10DCF000400640F6E401C0F2010140F6F502C0F230
:10DD00000102002848BF0A4605929DF850004FEADC
:10DD1000C060002805D5FFE7149820F0010014909A
:10DD2000FFE71498C0072021002818BF30218DF884
:10DD30002F104FF000008DF82E009DF850004FEA94
:10DD40008070002823D5FFE70D98B0F1FF3F07DC76
:10DD5000FFE72D208DF82E000D9840420D9015E024
:10DD60009DF850004007002804D5FFE72B208DF8D0
:10DD70002E000AE09DF850000007002804D5FFE7B8
:10DD800020208DF82E00FFE7FFE7FFE7FFE70020E8
:10DD900004900D98002808D1FFE70498411C0491D5
:10DDA0000DF11E0130220A5415E0FFE70D980028FE
:10DDB00010D0FFE705980C990DAA02901046FEF7C7
:10DDC000C5FB0299085C04994A1C04920DF11E02DD
:10DDD0005054EBE7FFE704981399884203DDFFE70F
:10DDE00004981390FFE713980399081A03909DF87D
:10DDF000500010F0110F22D1FFE79DF82E000028EF
:10DE000008D0FFE70398012804DBFFE703980138F7
:10DE10000390FFE7FFE70398411E039101280DDB04
:10DE2000FFE70F980E99884204D2FFE70F98202150
:10DE30000170FFE70F9801300F90ECE7FFE79DF8C6
:10DE40002E00002811D0FFE70F980E99884205D2C6
:10DE5000FFE79DF82E000F990870FFE7039801383F
:10DE600003900F9801300F90FFE79DF85000C00617
:10DE7000002816D4FFE7FFE70398411E039101280D
:10DE80000EDBFFE70F980E99884205D2FFE79DF859
:10DE90002F000F990870FFE70F9801300F90EBE704
:10DEA000FFE7FFE7049813994A1E139288420DDAA0
:10DEB000FFE70F980E99884204D2FFE70F983021B0
:10DEC0000170FFE70F9801300F90EBE7FFE7049830
:10DED000411E049100210128019106DBFFE706980D
:10DEE000002818BF01200190FFE70198C007002813
:10DEF00010D0FFE70F980E99884207D2FFE70498E9
:10DF00000DF11E01085C0F990870FFE70F980130B2
:10DF10000F90DCE7FFE70398411E039101280DDB1A
:10DF2000FFE70F980E99884204D2FFE70F9820214F
:10DF30000170FFE70F9801300F90ECE70F9810B0D9
:10DF400010BD000080B586B041F64030C1F6FE70CD
:10DF50000590059869461422CA6002228A6040F63C
:10DF6000F6724A6040F64832C1F6FE720A6041F22B
:10DF7000A101C0F201014DF23972C0F2000200238A
:10DF800000F014FF0490059800F0ACFF06B080BDCF
:10DF900080B582B041F23810C0F201000190FFE775
:10DFA000019841F23C11C0F20101884208D2FFE71A
:10DFB000019800688047FFE7019804300190EFE77F
:10DFC00002B080BD80B582B041F23C10C0F20100C9
:10DFD0000190FFE7019841F24411C0F2010188422B
:10DFE00008D2FFE7019800688047FFE701980430F6
:10DFF0000190EFE702B080BD80B582B0F2F75CF926
:10E00000019041F65440C1F6FE7001880131018053
:10E010000198F2F755F902B080BD000080B582B0DA
:10E02000F2F74AF9019041F65440C1F6FE700188BA
:10E0300001390180B0F90000002815DCFFE741F646
:10E040005440C1F6FE70002101800198F2F738F9C2
:10E0500041F6C030C1F6FE700068002803D0FFE72B
:10E0600000F024FCFFE703E00198F2F729F9FFE74D
:10E0700002B080BD80B582B001F054FDFCF790F88D
:10E0800040F24400C1F6FE70006844F6D351C1F27C
:10E090006201A0FB0101890901900846FDF772F8B1
:10E0A0000090FFF775FFFEF791FB02B080BD000006
:10E0B00080B582B04FF0FF3001904CF60040C4F2C2
:10E0C00001002021FCF77EFC002808D0FFE74CF679
:10E0D0000040C4F20100FCF781FC019016E04CF610
:10E0E0000040C4F201000821FCF76CFC002809D0B4
:10E0F000FFE74CF60040C4F201004FF40021FCF7AA
:10E100003BFCFFE70A2000F07FFEFFE79DF80400DC
:10E1100002B080BD80B582B00190FBF7EBFF0090AC
:10E12000FFE7FFE74CF60040C4F201008021FCF756
:10E1300049FC002809D1FFE7FBF7DCFF0099401AF2
:10E140000B2801D3FFE711E0ECE7019801784CF6CA
:10E150000040C4F20100FCF749FC01980130019035
:10E16000FFE7019800780028DBD1FFE702B080BD0F
:10E1700080B586B005900598283004900598043045
:10E18000039041F6C430C1F6FE700068002812D03A
:10E19000FFE741F6C430C1F6FE70006804990190B3
:10E1A00008460199884702900298002802D1FFE7AB
:10E1B00006B080BDFFE70398016C40F6DB70C0F24B
:10E1C000010000F013F90398416A40F61870C0F29C
:10E1D000010000F00BF90398816A40F63270C0F23A
:10E1E000010000F003F90398C16A40F64C70C0F2D8
:10E1F000010000F0FBF80398016B40F66670C0F276
:10E20000010000F0F3F80398416840F67370C0F223
:10E21000010000F0EBF80398816840F68070C0F2CE
:10E22000010000F0E3F80398C16840F68D70C0F279
:10E23000010000F0DBF80398016940F69A70C0F223
:10E24000010000F0D3F80398416940F6A770C0F2CE
:10E25000010000F0CBF80398816940F6B470C0F279
:10E26000010000F0C3F80398C16940F62570C0F2C0
:10E27000010000F0BBF80398016A40F63F70C0F25D
:10E28000010000F0B3F80398416B40F65970C0F2FA
:10E29000010000F0ABF80398816B40F6CE70C0F23D
:10E2A000010000F0A3F80398C16B40F6C170C0F202
:10E2B000010000F09BF805980078400700280ED573
:10E2C000FFE700F0D5FD40F67E61C0F2010100904D
:10E2D0000846009900F08AF8FFF79AF806E040F641
:10E2E0006460C0F2010000F081F8FFE70598007853
:10E2F000C006002807D4FFE740F69B60C0F201008B
:10E3000000F074F8FFE7FEF753FDFFE7FEE70000BB
:10E3100087B006900591049203930498043001900D
:10E32000019820F00700019001984438019001986D
:10E33000029000200090FFE7009810280DD8FFE71A
:10E34000029800994BF6EF62CDF6AD6240F82120BD
:10E35000FFE7009801300090EEE7059802994862C7
:10E360000298002181620298C162029801630298BA
:10E3700041630398029A90630698029AD0630298C8
:10E380004FF08072026402980160019807B07047F4
:10E3900080B582B0F1F790FF019041F6CC30C1F624
:10E3A000FE700178013101700198F1F789FF02B028
:10E3B00080BD000080B582B0F1F77EFF019041F68C
:10E3C000CC30C1F6FE700178013901700198F1F787
:10E3D00077FF02B080BD000080B582B00190019847
:10E3E000143000F029F8002002B080BD83B080B561
:10E3F00083B0079306920591029005A80190029AB6
:10E40000019B41F6D430C1F6FE707F2100F0E0FFA1
:10E4100000900098802803D3FFE77F200090FFE75B
:10E4200041F6D430C1F6FE70FFF774FE03B0BDE8CC
:10E43000804003B07047000081B0009000984060B9
:10E440000099086001B0704781B00090009840606A
:10E450000099086001B0704781B00090009840605A
:10E460000099086001B0704781B00090009840604A
:10E470000099086001B0704782B001900091009847
:10E48000019909684860019800680099086000983F
:10E490000199086001980099486002B07047000037
:10E4A00082B0019000910098019909684860019834
:10E4B0000068009908600098019908600198009927
:10E4C000486002B07047000082B00190009100984F
:10E4D00001990968486001980068009908600098EF
:10E4E0000199086001980099486002B070470000E7
:10E4F00082B00190009100980199496808600198E4
:10E500004068009948600098019948600198009916
:10E51000086002B07047000082B00190009100983E
:10E52000019949680860019840680099486000981E
:10E530000199486001980099086002B07047000096
:10E5400081B0009000980168081AB0FA80F0400984
:10E5500001B0704781B0009000980168081AB0FAC5
:10E5600080F0400901B0704781B0009000980168C8
:10E57000081AB0FA80F0400901B0704783B00290E9
:10E580000020019002980090FFE70098006802992F
:10E59000884207D0FFE7009800680090019801309A
:10E5A0000190F2E7019803B07047000081B000903D
:10E5B0000098016840684860009801684068016000
:10E5C000009840600099086001B0704781B00090E9
:10E5D00000980168406848600098016840680160E0
:10E5E000009840600099086001B0704781B00090C9
:10E5F00000980168406848600098016840680160C0
:10E60000009840600099086001B0704781B00090A8
:10E61000009801684068486000980168406801609F
:10E62000009840600099086001B0704781B0009088
:10E63000009801684068486000980168406801607F
:10E64000009840600099086001B0704785B0049060
:10E650000391029204980190039800900098019908
:10E66000884222D2FFE701980099029A1144884219
:10E670001BD2FFE702980199084401900298009983
:10E6800008440090FFE70298411E029100280BD039
:10E69000FFE70098411E009110F8010C01994A1EF5
:10E6A000019201F8010CEEE710E0FFE70298411E2D
:10E6B0000291002809D0FFE70098411C00910078E2
:10E6C00001994A1C01920870F0E7FFE7049805B031
:10E6D0007047000088B00790069105920798039054
:10E6E0009DF818000090059804283ED3FFE79DF898
:10E6F0001C008007002838D1FFE707980190009898
:10E7000040EA00200290029840EA00400290FFE7B1
:10E710000598102818D3FFE7029801990A1D019265
:10E720000860029801990A1D0192086002980199F7
:10E730000A1D01920860029801990A1D0192086061
:10E74000059810380590E3E7FFE70598042809D3FA
:10E75000FFE7029801990A1D0192086005980438A4
:10E760000590F2E701980390FFE7FFE70598411E47
:10E770000591002806D0FFE7009803994A1C0392F0
:10E780000870F3E7079808B07047000080B582B0C2
:10E790000190019800210172F1F78EFD009001981F
:10E7A0000C30FFF713FF0098F1F78AFD02B080BD2F
:10E7B00083B001468DF8070000200090FFE7009825
:10E7C00003281ADCFFE70098000140F20001C1F6BF
:10E7D000FE71085C9DF80710884209D1FFE7009898
:10E7E00040F20001C1F6FE7101EB0010029007E05B
:10E7F000FFE7009801300090E1E700200290FFE77A
:10E80000029803B07047000080B58AB00B460990AB
:10E810008DF823100792002005909DF823000293A5
:10E82000FFF7C6FF0490FFF7E7FB049840680590E8
:10E83000FFE7059804990431884208D0FFE705985E
:10E840000C380390FFE7059800680590F1E7FFF7A3
:10E85000E5FB9DF8230040F08000099908720998B3
:10E860000799082200F04EF90190F1F725FD069076
:10E870000498043009990C31FFF7FEFD0698F1F772
:10E880001FFD0AB080BD000082B000900098007AA1
:10E890000006002803D5FFE70120019002E00020D8
:10E8A0000190FFE7019802B07047000080B584B086
:10E8B000F1F702FD039041F65440C1F6FE70B0F945
:10E8C0000000002844D1FFE741F6A040C1F6FE70E9
:10E8D0000068FCF7C1FD01380090009841F66041E6
:10E8E000C1F6FE7151F8300014380290029841F6DA
:10E8F000C031C1F6FE710968884228D0FFE7009850
:10E9000041F6BC31C1F6FE71087041F6C030C1F667
:10E91000FE70016801910299016041F6CC30C1F6A8
:10E92000FE70007800280AD1FFE701981C30029998
:10E930001C31F1F7C8FC0398F1F7C2FC0CE0019818
:10E940001C3002991C31F1F7BEFCFFE7FFE7FFE73F
:10E950000398F1F7B5FCFFE704B080BD80B584B043
:10E960000390F1F7A9FC0290039890F8341001F09D
:10E97000F001013180F83410039890F8351041F619
:10E980006042C1F6FE7202EBC101143001900846EC
:10E990000199FFF7ADFD0398806B41F6A041C1F6E8
:10E9A000FE710A68104308600298F1F789FC04B010
:10E9B00080BD000080B582B00190F1F77DFC009031
:10E9C00001981430FFF712FE019890F8350041F6D7
:10E9D0006041C1F6FE7101EBC000FFF7BBFD0028EE
:10E9E0000BD0FFE70198806B41F6A041C1F6FE71A4
:10E9F0000A6822EA00000860FFE70098F1F760FC6F
:10EA000002B080BD80B586B09C460590049103920B
:10EA10008DF80B300598049A0221CDF804C0FFF759
:10EA2000F3FE0598FFF7D8FC0399059A91839DF8AA
:10EA30000B10059A517200210090084606B080BD67
:10EA400080B582B041F2AC00C0F20100FFF7CEFC0D
:10EA500041F2DF00C0F20100FFF7C8FC41F22810CC
:10EA6000C0F201006946086041F20310C0F20100E3
:10EA7000012203210191019BFFF7B8FC41F2B5008F
:10EA8000C0F20100FFF7B2FC02B080BD83B002907B
:10EA90000191FFE7029800780021002800910AD038
:10EAA000FFE70298007801990978401AB0FA80F0DF
:10EAB00040090090FFE70098C007002807D0FFE753
:10EAC000029801300290019801300190E2E702982B
:10EAD000007801990978401A03B0704782B001901C
:10EAE00001980090FFE700980078002805D0FFE724
:10EAF000FFE7009801300090F5E700980199401A6F
:10EB000002B0704785B004900391029202980028E9
:10EB100026D0FFE70498019003980090FFE7009843
:10EB2000411C0091007801994A1C0192087000284C
:10EB30000ED1FFE7FFE7029801380290002806D0C7
:10EB4000FFE70198411C019100210170F3E706E005
:10EB5000FFE70298013802900028E0D1FFE7FFE7C5
:10EB6000049805B07047000080B582B041F654406B
:10EB7000C1F6FE70002101800191FFE7019807288E
:10EB80000EDCFFE7019841F66041C1F6FE7101EB32
:10EB9000C000FFF759FCFFE7019801300190EDE755
:10EBA00041F6BC30C1F6FE700721017041F6C0305D
:10EBB000C1F6FE700021016041F6A040C1F6FE7072
:10EBC000016041F65840C1F6FE70FFF73DFC02B00F
:10EBD00080BD000080B582B041F6A040C1F6FE7055
:10EBE0000068FCF739FC01380090009841F660415C
:10EBF000C1F6FE7151F8300014380190019841F6C9
:10EC0000C031C1F6FE71086001981C30F1F7A1FB1C
:10EC100002B080BD80B582B000200190FFE701986E
:10EC200000280ED1FFE7019841F62C51C1F6FE7184
:10EC300001EBC000FFF718FCFFE7019801300190DD
:10EC4000EDE702B080BD00007047000080B582B0E3
:10EC50000190019800F012F902B080BD80B584B037
:10EC600041F6C030C1F6FE7000680390F1F724FB56
:10EC700002900398FFF79EFE0398042180F8341059
:10EC80000398443000F09EFA039901900846FFF77C
:10EC9000FBFD012809D1FFE70398006F002804D18C
:10ECA000FFE70398FFF772FD09E0039800F11401F4
:10ECB00041F65840C1F6FE70FFF7F2FBFFE70298FD
:10ECC000F1F7FEFAFFF7F2FD04B080BD80B582B027
:10ECD0000190FFE700F002F8FCE7000080B582B089
:10ECE000FFE7FCF7FDFB002838D0FFE7F1F7E4FA77
:10ECF0000190FCF7F5FB002828D0FFE741F65840CB
:10ED0000C1F6FE7000681438009000981430FFF7C8
:10ED10004DFCFFF771F90098006F002804D0FFE761
:10ED20000098016F8847FFE70098FFF7ADFD0128C5
:10ED300009D1FFE70098FFF729FDFFF76FF9019868
:10ED4000F1F7BEFA0AE0FFF769F903E00198F1F77D
:10ED5000B7FA03E00198F1F7B3FAC2E702B080BD59
:10ED600080B586B068462021C1600721816080217E
:10ED7000416041F6A441C1F6FE71016040F6C00059
:10ED8000C1F6FE7041F2A601C0F201014EF6CD427D
:10ED9000C0F200020023059000F008F805990490E5
:10EDA000084600F09FF806B080BD000070B58CB03A
:10EDB000DDF84CC0DDF848E0119C109D0B900A91E5
:10EDC000099208938DF81FE00B980A9A0121CDF85B
:10EDD00018C005940495FFF717FD0B980A99099A36
:10EDE000089BDDF840C0DDF844E09DF81F40139D0E
:10EDF0006E46F560B460C6F804E0C6F800C0FCF7E3
:10EE0000E3FB0CB070BD000080B582B001900198AA
:10EE100000F008F90090009800F030F802B080BDD2
:10EE200080B584B00290029890F8340000F00F0092
:10EE3000022804D0FFE74FF0FF30039015E0F1F710
:10EE40003BFA019002981430FFF7E0FB029844303F
:10EE500000F09CFA019900900846F1F731FA029807
:10EE6000FFF77CFD00200390FFE7039804B080BD0E
:10EE700041F6C030C1F6FE700068704780B586B0BC
:10EE80000590F1F719FA049041F6C030C1F6FE7012
:10EE900000680390039800F047F80399443100227A
:10EEA00005AB0290084611461A4600F065F9039931
:10EEB00044310190084600F0B7F9049900900846E3
:10EEC000F1F7FEF9FFF7F2FC0398006B023000281F
:10EED00004D1FFE7039800210163FFE7002006B09B
:10EEE00080BD000080B582B00190019890F8361086
:10EEF00080F83510019890F83510012202FA01F1DE
:10EF000081630198022180F834100198FFF788FF8F
:10EF10000090FFF7ADFF002803D0FFE7FFF7C6FC26
:10EF2000FFE7002002B080BD80B584B00290029857
:10EF300090F8340000F00F00012804D0FFE74FF0F4
:10EF4000FF30039019E0F1F7B7F90190029890F8BB
:10EF5000341001F0F001023180F834100298FFF70C
:10EF600029FD0298443000F011FA019900900846FA
:10EF7000F1F7A6F900200390FFE7039804B080BDE5
:10EF800080B582B001900198009000986FF0010167
:10EF9000016300981430FFF739FB0098FFF7DEFC9F
:10EFA000FFF784FC02B080BD80B584B0F1F784F92E
:10EFB000029041F6C030C1F6FE70006801900198E1
:10EFC00090F8340000F00F00012821D1FFE70198EC
:10EFD0004169806981421BD0FFE701981430FFF737
:10EFE00015FB019890F8351041F66042C1F6FE72AB
:10EFF00002EBC1011430009008460099FFF78CFA2B
:10F000000298F1F75DF9FFF751FC0020039005E04D
:10F010000298F1F755F900200390FFE7039804B038
:10F0200080BD000082B001900198B0F1FF3F04DC88
:10F03000FFE74FF0FF30009022E0019844F6D351F3
:10F04000C1F2620150FB01F0821102EBD0704FF46B
:10F050007A7250430090019850FB01F34FEAA31CD1
:10F060000CEBD37303FB1200504300F2E73050FB6C
:10F0700001F0811101EBD070009908440090FFE786
:10F08000009802B07047000041F62850C1F6FE70AB
:10F090000068704780B582B041F62850C1F6FE7016
:10F0A000016801310160FFF7E3FE01900198016CF6
:10F0B000013901640198006C002806D1FFE701982E
:10F0C000C16B0164FFF770FFFFE700F003F802B0C7
:10F0D00080BD000080B584B0FFF7D6FF0290F1F745
:10F0E000EBF80190FFE741F62C50C1F6FE70FFF7F8
:10F0F0003BFA00283AD1FFE741F62C50C1F6FE70EA
:10F1000000681438039002980399896A401A4FF6F0
:10F11000FE71C7F6FF71884226D8FFE70398FCF717
:10F12000FBFA0398C169006A8847FFF7ADFF0290B8
:10F130000398407A800700280FD5FFE70398407AAC
:10F14000C007002809D0FFE70398417A01F0FE01CB
:10F150004172039800F068F805E00398417A01F0E5
:10F16000FE014172FFE700E000E0BCE70198F1F723
:10F17000A7F804B080BD000084B003900291019212
:10F180000298032800901AD80099DFE801F00702DE
:10F190000C120398406A0199086010E00198006819
:10F1A000039948620BE00398417A01F0FD01417236
:10F1B00005E00398417A41F002014172FFE7002027
:10F1C00004B0704780B582B00190F1F775F80090F7
:10F1D0000198FCF7A1FA0098F1F772F80198FFF78F
:10F1E000D5FA002002B080BD80B588B0DDF82CC013
:10F1F000DDF828E007900691059204938DF80FC082
:10F200000798069A0A21CDF808E0FFF7FDFA07985B
:10F210000599049A0A9B9DF80FC0EE46CEF800C0EF
:10F22000FCF746FA08B080BD80B58AB00990F1F7C6
:10F2300043F806900998FCF76FFA0998417A01F0B3
:10F24000FE0141720698F1F73BF8FFF71DFF09999F
:10F250004A6A10448862F1F72FF8069041F62C5064
:10F26000C1F6FE7007900798059000200890FFE710
:10F27000089800284AD1FFE7FFE7089805A951F848
:10F280002010079A02EBC000406881422CD0FFE7B3
:10F29000089805A951F82000006802900298089982
:10F2A000A0EBC100143803900398806A0999896A19
:10F2B000401A002801D1FFE70EE00398806A0999FF
:10F2C000896A401A4FF6FE71C7F6FF71884201D86D
:10F2D000FFE709E0FFE7FFE7089805A951F82020BC
:10F2E000126841F82020C8E70898002809D0FFE7F5
:10F2F000089805A901EB800251F820000830506001
:10F30000FFE7FFE7089801300890B1E741F6345075
:10F31000C1F6FE7001680131016000680490059833
:10F3200009991431FFF7D0F802200890FFE70898F8
:10F3300001281FD8FFE79DF810008007002810D192
:10F34000FFE70898C0F1010005A951F82010099ABB
:10F3500002EBC0001430019008460199FFF7B4F8A1
:10F3600000E007E0049880080490FFE70898013067
:10F370000890DCE70998417A41F001014172069852
:10F38000F0F79EFF00200AB080BD000080B584B079
:10F3900002900298407AC007002804D1FFE74FF09E
:10F3A000FF30039010E0F0F787FF01900298FCF720
:10F3B000B3F90198F0F784FF0298417A01F0FE0159
:10F3C000417200200390FFE7039804B080BD000065
:10F3D000B0B592B0119310900F910E9210980A90C0
:10F3E00010980F990844099009981099884208D2FA
:10F3F000FFE74FF0FF30099009981099401A0F90DD
:10F40000FFE7FFE70E980078002800F09982FFE7F9
:10F410000E98007825280ED0FFE70A9809998842AF
:10F4200005D2FFE70E9800780A990870FFE70A985E
:10F4300001300A9080E200208DF81A00FFE70E9854
:10F4400001300E900E9800782D2807D1FFE79DF827
:10F450001A0040F010008DF81A0034E00E98007881
:10F460002B2807D1FFE79DF81A0040F004008DF823
:10F470001A0027E00E980078202807D1FFE79DF8B2
:10F480001A0040F008008DF81A001AE00E98007873
:10F49000232807D1FFE79DF81A0040F020008DF8DF
:10F4A0001A000DE00E980078302807D1FFE79DF88C
:10F4B0001A0040F001008DF81A0000E004E0FFE7B8
:10F4C000FFE7FFE7FFE7BAE74FF0FF3005900E9840
:10F4D00000783038092805D8FFE70EA800F0D6FAE2
:10F4E00005901DE00E9800782A2818D1FFE70E98A5
:10F4F00001300E901198011D11910068059005983A
:10F50000B0F1FF3F0ADCFFE70598404205909DF807
:10F510001A0040F010008DF81A00FFE7FFE7FFE740
:10F520004FF0FF3004900E9800782E2826D1FFE788
:10F530000E9801300E900E9800783038092805D8C2
:10F54000FFE70EA800F0A2FA04900EE00E980078F3
:10F550002A2809D1FFE70E9801300E901198011D5D
:10F56000119100680490FFE7FFE70498B0F1FF3FB6
:10F5700003DCFFE700200490FFE7FFE700208DF8A1
:10F5800019000E980078682805D0FFE70E980078DB
:10F590006C2808D1FFE70E9800788DF819000E98B6
:10F5A00001300E90FFE70A208DF81B000E980078BE
:10F5B000253801465328039100F250810399DFE872
:10F5C00011F029014D014D014D014D014D014D013C
:10F5D0004D014D014D014D014D014D014D014D01BB
:10F5E0004D014D014D014D014D014D014D014D01AB
:10F5F0004D014D014D014D014D014D014D014D019B
:10F600004D014D014D014D014D014D014D014D018A
:10F610004D014D014D014D014D014D014D014D017A
:10F620004D014D014D014D013A014D014D014D017D
:10F630004D014D014D014D014D014D014D01540054
:10F6400045014D014D014D014D0145014D014D015A
:10F650004D014D014D01360105014D014D01970050
:10F660004D014C014D014D0141019DF81A00C006AC
:10F67000002815D4FFE7FFE7059801380590012819
:10F680000DDBFFE70A980999884204D2FFE70A9840
:10F6900020210170FFE70A9801300A90ECE7FFE7AC
:10F6A0001198011D119100688DF823000A9809999D
:10F6B000884205D2FFE79DF823000A990870FFE70A
:10F6C0000A9801300A90FFE7059801380590012853
:10F6D0000DDBFFE70A980999884204D2FFE70A98F0
:10F6E00020210170FFE70A9801300A90ECE723E13E
:10F6F0001198011D1191006807900798002806D104
:10F70000FFE741F22110C0F201000790FFE70798E0
:10F71000FFF7E4F90B900498012808DBFFE70B984A
:10F720000499884203DDFFE704980B90FFE79DF8FA
:10F730001A00C006002816D4FFE7FFE70B980599CA
:10F740004A1E059288420DDAFFE70A980999884215
:10F7500004D2FFE70A9820210170FFE70A980130E0
:10F760000A90EBE7FFE700200C90FFE70C980B995D
:10F77000884215DAFFE70A980999884205D2FFE71F
:10F78000079800780A990870FFE70A9801300A90F4
:10F79000079801300790FFE70C9801300C90E5E7DF
:10F7A000FFE70B9805994A1E059288420DDAFFE79C
:10F7B0000A980999884204D2FFE70A98202101702B
:10F7C000FFE70A9801300A90EBE7B5E005980130B1
:10F7D000002809D1FFE7082005909DF81A0040F0A5
:10F7E00001008DF81A00FFE70A980999119A131D74
:10F7F00011931268059BDDF810C09DF81AE06C4665
:10F80000C4F808E0C4F804C023601023FEF760FACF
:10F810000A9091E00A980999884204D2FFE70A9871
:10F8200025210170FFE70A9801300A9084E0082042
:10F830008DF81B0036E09DF81A0040F040008DF86E
:10F840001A00FFE710208DF81B002BE09DF81A002E
:10F8500040F002008DF81A00FFE723E00A980999AA
:10F86000884204D2FFE70A9825210170FFE70A9831
:10F8700001300A900E98007800280ED0FFE70A9811
:10F880000999884205D2FFE70E9800780A99087016
:10F89000FFE70A9801300A9003E00E9801380E90B5
:10F8A000FFE749E09DF819006C280DD1FFE711989A
:10F8B000011D119100680D909DF81A008007002825
:10F8C00001D5FFE7FFE722E09DF81900682810D175
:10F8D000FFE71198011D119100880D909DF81A0005
:10F8E0008007002804D5FFE7BDF934000D90FFE73D
:10F8F0000CE01198011D119100680D909DF81A00FF
:10F900008007002801D5FFE7FFE7FFE7FFE70A9838
:10F9100009990D9A9DF81B30DDF814C0DDF810E050
:10F920009DF81A406D46AC60C5F804E0C5F800C00B
:10F93000FEF7CEF90A90FFE70E9801300E9061E5D0
:10F940000F9800280FD0FFE70A980999884204D23F
:10F95000FFE70A980021017004E00998002100F8EF
:10F96000011CFFE7FFE70A981099401A12B0B0BDDA
:10F97000002070470020704700207047002070472B
:10F9800080B582B0F0F798FC0190FEF773FBFFF7AB
:10F9900057F8FFF73FF9FFF7E7F8FEF7D3FAFFF75D
:10F9A00053F9FFF7DDF9FFF715F9002002B080BD2C
:10F9B00080B586B0049003910498012804DCFFE729
:10F9C0004FF0FF30059012E003980430FCF792FDF1
:10F9D000029003980830FCF78DFD01909DF8080017
:10F9E0009DF80410FCF73EFE00200590FFE7059807
:10F9F00006B080BD80B582B0019040F63E50C0F2A6
:10FA00000100FEF7F3FCFEF763F8012804D1FFE7DD
:10FA10000198FDF70BFF00E0FFE7FCF751FE019AAC
:10FA200040F65A61C0F20101009008460099FEF7C5
:10FA3000DDFC02B080BD000080B584B00390039867
:10FA400000680190FFE70198039988421CD0FFE706
:10FA5000019814380290029940F65C60C0F20100EF
:10FA6000FEF7C4FC019800680399884207D0FFE7BD
:10FA700040F67F50C0F20100FEF7B8FCFFE7FFE759
:10FA8000019800680190DEE704B080BD82B001906B
:10FA900000200090FFE701980068007830380928BE
:10FAA0000DD8FFE7009800EB800001990A68531C0D
:10FAB0000B60117801EB400030380090EBE70098C4
:10FAC00002B0704784B00390029103980190FFE761
:10FAD0000198007800210028009111D0FFE70298DA
:10FAE00000780021002800910AD0FFE701980078F3
:10FAF00002990978401AB0FA80F040090090FFE7B7
:10FB00000098C007002807D0FFE701980130019056
:10FB1000029801300290DBE701980399401A04B083
:10FB20007047000080B59CB040F6B310C0F20100F1
:10FB300000211B9008461B9A1A911146FAF746F8C5
:10FB400040F61A11C0F201011A9A19901046FAF7FC
:10FB50004DF869461B220A6040F63F11C0F20101D0
:10FB600040F68212C0F2010240F6BB13C0F201035C
:10FB7000DDF868C018906046179116921593FAF751
:10FB800035F84CF6FC41C4F20401096841F6B8327C
:10FB9000C1F6FE7211601168149008461392FBF7CB
:10FBA0002BFF4AF20B501290F9F700FFF9F76EFFA6
:10FBB0001298F9F79DFEFCF7F5F940F24800C1F6FE
:10FBC000FE701190F0F762FF1090FCF7A5FA4FF469
:10FBD0007A70FAF7ADFA4FF0FF310F900846FBF755
:10FBE000C3FB40F60610C0F20100FEF7FFFB40F633
:10FBF000AB11C0F201011A98F9F7E8FF40F6601165
:10FC0000C0F201011A9A0E901046F9F7EFFF13990E
:10FC10000A6840F6C711C0F201011A9B0D90184600
:10FC2000F9F7E4FF694627220A601A990C90084602
:10FC30001799169A159BF9F7D9FF1A990B90084650
:10FC40001B99F9F7C3FF1A990A9008461B99F9F70F
:10FC5000BDFF11994A684DF68363C4F21B33A2FBC2
:10FC600003239B0C40F66911C0F20101DDF868C066
:10FC70000990604608921A46F9F7B8FF69462822AB
:10FC80000A601A99079008461799169A159BF9F772
:10FC9000ADFF1A99069008461B99F9F797FF40F6B1
:10FCA0009D11C0F201011A9A05901046F9F79EFFC6
:10FCB000694629220A601A99049008461799169AEB
:10FCC000159BF9F793FF0390FCF7CAFBFBF77AFD4E
:10FCD0001A981B99F9F77AFF40F68D11C0F20101CD
:10FCE0001A9A02901046F9F781FF69462C220A60A1
:10FCF0001A99019008461799169A159BF9F776FFFD
:10FD00001CB080BD80B586B0049003910498012892
:10FD100004DCFFE74FF0FF3005903AE003984068BD
:10FD200040F66F31C0F20101FEF7B0FE002803D1AA
:10FD3000FFE7FAF7ADF9FFE70398406840F66A314C
:10FD4000C0F20101FEF7A2FE002803D1FFE7FAF797
:10FD5000A5F9FFE70398406840F65F31C0F2010162
:10FD6000FEF794FE002803D1FFE7FAF795F9FFE7C5
:10FD70000398406840F66631C0F20101FEF786FE46
:10FD8000002803D1FFE7FAF785F9FFE70020059087
:10FD9000FFE7059806B080BD80B582B040F6BC6034
:10FDA000C0F20100FEF722FB4EF62A50CEF2000010
:10FDB000018841F28B02C0F2010201901046FEF769
:10FDC00015FB01980188C907002907D0FFE741F218
:10FDD0005300C0F20100FEF709FBFFE74EF62A5080
:10FDE000CEF2000000888007002807D5FFE740F624
:10FDF000FA70C0F20100FEF7F9FAFFE74EF62A505A
:10FE0000CEF2000000884007002807D5FFE740F643
:10FE1000E870C0F20100FEF7E9FAFFE74EF62A505B
:10FE2000CEF2000000880007002807D5FFE741F266
:10FE30002300C0F20100FEF7D9FAFFE74EF62A5080
:10FE4000CEF200000088C005002807D5FFE740F685
:10FE5000EF70C0F20100FEF7C9FAFFE74EF62A5034
:10FE6000CEF2000000888005002807D5FFE741F2A8
:10FE70001800C0F20100FEF7B9FAFFE740F63E5065
:10FE8000C0F20100FEF7B2FA02B080BD80B584B0C6
:10FE900044F20000C4F2020000210391FCF7E2F8F2
:10FEA00040F26802C1F6FE7243F20001C4F205019D
:10FEB00002900846039B01911946FBF745FC0A2274
:10FEC00001980399FBF768FC012201980399FBF75D
:10FED0004BFC04B080BD00007047000080B584B0CA
:10FEE0004CF60040C4F201004FF48011FAF744FDD3
:10FEF00043F20000C4F20500002103900291029A2F
:10FF0000FBF732FC44F20000C4F202000299FCF755
:10FF1000A9F840F26802C1F6FE7203990190084602
:10FF20000299FBF711FC0A2203980299FBF734FCB3
:10FF3000012203980299FBF717FC04B080BD000072
:10FF400080B5FEF77DFD002080BD02E008C8121FCD
:10FF500008C1002AFAD17047002001E001C1121F38
:10FF6000002AFBD1704700404040404040404040A4
:10FF7000414141414140404040404040404040407C
:10FF8000404040404040400502020202020202029C
:10FF90000202020202020220202020202020202033
:10FFA00020020202020202029090909090901010A3
:10FFB0001010101010101010101010101010101041
:10FFC00010100202020202028888888888880808C5
:10FFD00008080808080808080808080808080808A1
:10FFE000080802020202400067FF0000303132338D
:10FFF0003435363738394142434445465F5F636D97
:020000040001F9
:10000000645F6366676770696F005F5F636D645FFD
:1000100068656C70005F5F636D645F6C65646374DA
:10002000726C005F5F636D645F6C6973745F6D61B8
:10003000696C626F78005F5F636D645F6C69737495
:100040005F73656D005F5F636D645F6C6973745FA0
:10005000746872656164005F5F636D645F6C69738F
:10006000745F74696D6572005F5F636D645F707368
:10007000005F5F636D645F7365746770696F005FD5
:100080005F636D645F7461736B5F7374617274003E
:100090005F5F636D645F76657273696F6E00636640
:1000A000676770696F0068656C6C6F006C6564638E
:1000B00074726C006C6973745F6D61696C626F78E7
:1000C000006C697374006C6973745F73656D006CA8
:1000D0006973745F746872656164006C6973745FDE
:1000E00074696D6572007365746770696F0074611F
:1000F000736B5F73746172740076657273696F6E8F
:1001000000000001000200010003000100020001E4
:1001100000040001000200010003000100020001D0
:1001200000050001000200010003000100020001BF
:1001300000040001000200010003000100020001B0
:10014000000600010002000100030001000200019E
:100150000004000100020001000300010002000190
:10016000000500010002000100030001000200017F
:100170000004000100020001000300010002000170
:10018000000700010002000100030001000200015D
:100190000004000100020001000300010002000150
:1001A000000500010002000100030001000200013F
:1001B0000004000100020001000300010002000130
:1001C000000600010002000100030001000200011E
:1001D0000004000100020001000300010002000110
:1001E00000050001000200010003000100020001FF
:1001F00000040001000200010003000100020001F0
:1002000000000000010000000200000004000000E7
:1002100008000000200040005D008000BA000001DE
:100220007401000200000000000000000100000056
:1002300001000000000000000200000002000000B9
:1002400000000000040000000300000000000000A7
:100250000800000004000000000000001000000082
:100260000500000000000000200000000600000063
:100270000000000040000000070000000000000037
:1002800080000000080000000000000000010000E5
:100290000900000000000000000200000A00000049
:1002A00000000000000400000B000000000000003F
:1002B000000800000C00000000000000001000001A
:1002C0000D00000000000000002000000E000000F3
:1002D00000000000004000000F00000000000000CF
:1002E000008000001000000001000000010000007C
:1002F00011000000010000000200000012000000D8
:1003000001000000040000001300000001000000D4
:1003100008000000140000000100000010000000B0
:100320001500000001000000200000001600000081
:100330000100000040000000170000000100000064
:100340008000000018000000010000000001000013
:100350001900000001000000000200001A00000067
:1003600001000000000400001B000000010000006C
:10037000000800001C000000010000000010000048
:100380001D00000001000000002000001E00000011
:1003900001000000004000001F00000001000000FC
:1003A00000800000200000000200000001000000AA
:1003B00021000000020000000200000022000000F6
:1003C0000200000004000000230000000200000002
:1003D00008000000240000000200000010000000DF
:1003E00025000000020000002000000026000000A0
:1003F0000200000040000000270000000200000092
:100400008000000028000000020000000001000041
:100410002900000002000000000200002A00000085
:1004200002000000000400002B0000000200000099
:10043000000800002C000000020000000010000076
:100440002D00000002000000002000002E0000002F
:1004500002000000004000002F0000000200000029
:1004600000800000300000000300000001000000D8
:100470003100000003000000020000003200000014
:10048000030000000400000033000000030000002F
:10049000080000003400000003000000100000000D
:1004A00035000000030000002000000036000000BE
:1004B00003000000400000003700000003000000BF
:1004C0008000000038000000030000000001000070
:1004D0003900000003000000000200003A000000A4
:1004E00003000000000400003B00000003000000C7
:1004F000000800003C0000000300000000100000A5
:100500003D00000003000000002000003E0000004D
:1005100003000000004000003F0000000300000056
:100520000080000040000000040000000100000006
:100530004100000004000000020000004200000032
:10054000040000000400000043000000040000005C
:10055000080000004400000004000000100000003B
:1005600045000000040000002000000046000000DC
:1005700004000000400000004700000004000000EC
:10058000800000004800000004000000000100009E
:100590004900000004000000000200004A000000C2
:1005A00004000000000400004B00000004000000F4
:1005B000000800004C0000000400000000100000D3
:1005C0004D00000004000000002000004E0000006C
:1005D00004000000004000004F0000000400000084
:1005E0000080000050000000050000000100000035
:1005F0005100000005000000020000005200000051
:100600000500000004000000530000000500000089
:100610000800000054000000050000001000000069
:1006200055000000050000002000000056000000FA
:100630000500000040000000570000000500000019
:1006400080000000580000000500000000010000CC
:100650005900000005000000000200005A000000E0
:1006600005000000000400005B0000000500000021
:10067000000800005C000000050000000010000001
:100680005D00000005000000002000005E0000008A
:1006900005000000004000005F00000005000000B1
:1006A0000080000060000000060000000100000063
:1006B000610000000600000002000000620000006F
:1006C00006000000040000006300000006000000B7
:1006D0000800000064000000060000001000000098
:1006E0006500000006000000200000006600000019
:1006F0000600000040000000670000000600000047
:1007000080000000680000000600000000010000FA
:100710006900000006000000000200006A000000FE
:1007200006000000000400006B000000060000004E
:10073000000800006C00000006000000001000002F
:100740006D00000006000000002000006E000000A8
:1007500006000000004000006F00000006000000DE
:100760000080000070000000070000000100000091
:10077000710000000700000002000000720000008D
:1007800007000000040000007300000007000000E4
:1007900008000000740000000700000010000000C6
:1007A0007500000007000000200000007600000037
:1007B0000700000040000000770000000700000074
:1007C0008000000078000000070000000001000029
:1007D0007900000007000000000200007A0000001D
:1007E00007000000000400007B000000070000007C
:1007F000000800007C00000007000000001000005E
:100800007D00000007000000002000007E000000C6
:1008100007000000004000007F000000070000000B
:1008200000800000800000000800000001000000BF
:1008300081000000080000000200000082000000AB
:100840000800000004000000830000000800000011
:1008500008000000840000000800000010000000F4
:100860008500000008000000200000008600000055
:1008700008000000400000008700000008000000A1
:100880008000000088000000080000000001000057
:100890008900000008000000000200008A0000003B
:1008A00008000000000400008B00000008000000A9
:1008B000000800008C00000008000000001000008C
:1008C0008D00000008000000002000008E000000E5
:1008D00008000000004000008F0000000800000039
:1008E00000800000303132333435363738394142F8
:1008F0004344454600303132333435363738396178
:1009000062636465660073797374656D20696E69EE
:100910007469616C6564200D0A000D0A2D2D2D2D62
:100920002D2D2D2D73797374656D20696E69746931
:10093000616C6564202D2D2D2D2D2D2D0D0A002D82
:100940002D2D2D46696C653A2025732C46756E63F6
:100950003A2025732C6C696E653A2025640D0A00D7
:100960005761726E696E67210073797374656D20CB
:10097000636F6C6F636B20667265712025644D48F0
:100980005A006170702F6D61696E2E63007374611F
:1009900072742052545F5468726561640074757299
:1009A0006E206F6E206361636865001B5B313B33B3
:1009B000336D001B5B313B33376D007379737465A6
:1009C0006D5F696E6974007265736574636F6465E9
:1009D0003A2030782578006368697020696E666F08
:1009E0003A202563256353432C4843333246257808
:1009F0002578200D0A205549443A20307825782C56
:100A0000307825782C307825780D0A006273702FA5
:100A10006273705F63686970696E666F2E630062EF
:100A200073705F6765745F63686970696E666F0095
:100A30006273702F6273705F726D752E63006273E4
:100A4000705F73686F775F726573657463617573E8
:100A50006500505644312052657365740050564409
:100A60003220526573657400424F442052657365AD
:100A7000740053574454205265736574006D756C4F
:100A80006974706C6520526573657400536F667489
:100A9000776172652052657365740045787465727C
:100AA0006E2050696E20526573657400506F7765D3
:100AB00072446F776E205265736574004350552001
:100AC0006C6F636B75702052657365740052414D95
:100AD00020454343204572726F72205265736574DE
:100AE00000434C4B204572726F72205265736574DF
:100AF000005854414C204572726F722052657365E4
:100B000074004D5055204572726F722052657365A6
:100B1000740052414D20504152495459204572723F
:100B20006F7220526573657400504F522072657366
:100B3000657400300032006F6666006F6E005345CA
:100B40004747455200525454005465726D696E61B6
:100B50006C00696E707574006F75747075740072D6
:100B60006573756D650064656C0073746F700073F8
:100B7000746172740048656C6C6F2052542D546817
:100B800072656164210A00202D2D2D20202D2D2D30
:100B90002D2D2D2D202D2D2D2D2D2D2D2D2D2D209F
:100BA0002D2D2D2D2D2D2D2D2D2D20202D2D2D2D8F
:100BB0002D2D20202D2D2D2D2D2D2D2D2D2D202D8C
:100BC0002D2D0A00202D2D2D2D2D2D2D2D2D2D20BF
:100BD0002D2D2D2D2D2D2D2D2D2D202D2D2D2D2D52
:100BE0002D2D2D2D2D2D0A00202D2D2D202D2D2D9F
:100BF0002D2D2D2D2D2D2D2D2D2D2D0A00202D2D82
:100C00002D2D20202D2D2D2D202D2D2D2D2D2D2D3B
:100C10002D2D2D2D2D2D2D0A002D2D46756E637435
:100C2000696F6E204C6973743A0A00252D2A2E2AAA
:100C30007320253033642025640A00252D2A2E2AAE
:100C40007320253034642020253034642025640A44
:100C500000203078253038782030782530387820DA
:100C60002020202530326425252020203078253092
:100C7000387820253033640A00252D2A2E732076FB
:100C800020202073757370656E64207468726561CE
:100C9000640A00252D2A2E7320656E7472792073E4
:100CA000697A652073757370656E64207468726507
:100CB00061640A0064656163746976617465640ADD
:100CC00000252D2A2E732020706572696F64696378
:100CD00020202074696D656F7574202020202020ED
:100CE00020666C61670A00252D2A2E7320707269B8
:100CF000202073746174757320202020202073706D
:100D00002020202020737461636B2073697A652032
:100D10006D61782075736564206C656674207469F4
:100D2000636B20206572726F720A00637572726560
:100D30006E74207469636B3A3078253038780A0015
:100D400020696E69742020200020636C6F73652019
:100D50002000207265616479202000252D2A2E2A2A
:100D600073202533642000252D2A2E2A7320307805
:100D7000253038782030782530387820002D002F25
:100D800000252D2A2E2A7320253033642025643A2D
:100D900000252D2A2E2A732025303464202025306A
:100DA00034642025643A005F5F0074687265616492
:100DB000002073757370656E640073656D61706893
:100DC0006F7265002072756E6E696E670074696D72
:100DD0006572006D61696C626F780025733A2063FB
:100DE0006F6D6D616E64206E6F7420666F756E64DA
:100DF0002E0A00546F6F206D616E792061726773E7
:100E00002021205765206F6E6C79205573653A0A52
:100E10000052542D546872656164207368656C6C6F
:100E200020636F6D6D616E64733A0A002573200054
:100E30005F5F636D645F0008200800082573202051
:100E400008006D7368200066696E736820003E00BC
:100E5000256300747368656C6C00257325730073DB
:100E60006872780068617264206661756C74206FC6
:100E70006E2068616E646C65720D0A0D0A0068610F
:100E80007264206661756C74206F6E207468726580
:100E900061643A2025730D0A0D0A00465055206101
:100EA0006374697665210D0A006D656D206D616E54
:100EB000616765206661756C743A0A0075736167D5
:100EC00065206661756C743A0A006275732066610C
:100ED000756C743A0A005343422D3E424641523AE1
:100EE000253038580A005343422D3E4D4D41523A69
:100EF000253038580A006661696C65642076656340
:100F0000746F722066657463680A00646562756751
:100F1000206576656E740A007230303A203078258C
:100F20003038780A007231303A20307825303878FD
:100F30000A007230313A203078253038780A007251
:100F400031313A203078253038780A007230323A20
:100F5000203078253038780A007231323A203078E3
:100F6000253038780A007230333A2030782530380E
:100F7000780A007230343A203078253038780A0008
:100F80007230353A203078253038780A00723036A1
:100F90003A203078253038780A007230373A2030DD
:100FA00078253038780A007230383A203078253089
:100FB00038780A007230393A203078253038780A8B
:100FC000002070633A203078253038780A00206C91
:100FD000723A203078253038780A007073723A20DF
:100FE0003078253038780A00494E56504320005555
:100FF0004E414C49474E45442000494E56535441BA
:10100000544520004441434356494F4C2000494138
:10101000434356494F4C200044495642595A455281
:101020004F20004E4F435020004D53544B455252D9
:1010300020004D554E53544B4552522000494D50BF
:101040005245434953455252200049425553455257
:10105000522000554E444546494E535452200053A9
:1010600043425F434653525F424653523A307825DB
:1010700030325820005343425F434653525F4D463F
:1010800053523A30782530325820005343425F4360
:101090004653525F554653523A30782530325820E5
:1010A000006D61696E007469646C65000A205C20E3
:1010B0007C202F0A002032303036202D2032303173
:1010C0003920436F70797269676874206279207281
:1010D000742D746872656164207465616D0A002DF9
:1010E000205254202D2020202020546872656164F5
:1010F000204F7065726174696E67205379737465EF
:101100006D0A00202F207C205C20202020202564D8
:101110002E25642E2564206275696C642025730A6F
:1011200000284E554C4C29004D617220203320324E
:10113000303231007DF9000075F9000071F90000CE
:10114000CDC7000079F90000AC00010085CE000099
:101150001500010085CE0000E6000100B1F9000095
:1011600071000100B1F900009E00010085C400007B
:10117000FCFF000085C40000EE00010005FD00003A
:101180007F00010005FD0000A60001004DCE00001B
:10119000F900010041FF00009000010041FF000044
:1011A000CF00010011D400004500010011D400005F
:1011B000C6000100D5D2000036000100D5D20000E3
:1011C000B400010089D100002300010089D1000092
:1011D000DB000100E1D5000057000100E1D500006F
:1011E000C1000100FDCF00000A00010055DA000037
:1011F0006800010035C50000181201000000FE1F44
:10120000480000004AFF0000601201004800FE1F75
:10121000F83C000058FF0000010000000400FE1F21
:101220000400FE1F78000000020000001400FE1FF2
:101230001400FE1F20000000050000002400FE1F17
:101240002400FE1F300000000A0000003400FE1FD2
:101250003400FE1F2C000000000000000000000011
:040000050000028174
:00000001FF
