Component: ARM Compiler 6.13.1 Tool: armlink [5d895400]

==============================================================================

Section Cross References

    main.o(.ARM.exidx.text.ETH_MAC_GeneratePauseCtrlFrame) refers to main.o(.text.ETH_MAC_GeneratePauseCtrlFrame) for [Anonymous Symbol]
    main.o(.ARM.exidx.text.ETH_MAC_GetFlowCtrlStatus) refers to main.o(.text.ETH_MAC_GetFlowCtrlStatus) for [Anonymous Symbol]
    main.o(.ARM.exidx.text.ETH_DMA_ResumeTransmit) refers to main.o(.text.ETH_DMA_ResumeTransmit) for [Anonymous Symbol]
    main.o(.ARM.exidx.text.ETH_DMA_ResumeReceive) refers to main.o(.text.ETH_DMA_ResumeReceive) for [Anonymous Symbol]
    main.o(.ARM.exidx.text.ETH_DMA_GetErrorStatus) refers to main.o(.text.ETH_DMA_GetErrorStatus) for [Anonymous Symbol]
    main.o(.ARM.exidx.text.ETH_DMA_GetTransmitStatus) refers to main.o(.text.ETH_DMA_GetTransmitStatus) for [Anonymous Symbol]
    main.o(.ARM.exidx.text.ETH_DMA_GetReceiveStatus) refers to main.o(.text.ETH_DMA_GetReceiveStatus) for [Anonymous Symbol]
    main.o(.ARM.exidx.text.ETH_DMA_GetRxOvfMissFrameCnt) refers to main.o(.text.ETH_DMA_GetRxOvfMissFrameCnt) for [Anonymous Symbol]
    main.o(.ARM.exidx.text.ETH_DMA_GetBufferUnavaiMissFrameCnt) refers to main.o(.text.ETH_DMA_GetBufferUnavaiMissFrameCnt) for [Anonymous Symbol]
    main.o(.ARM.exidx.text.ETH_DMA_GetCurTxDescAddr) refers to main.o(.text.ETH_DMA_GetCurTxDescAddr) for [Anonymous Symbol]
    main.o(.ARM.exidx.text.ETH_DMA_GetCurRxDescAddr) refers to main.o(.text.ETH_DMA_GetCurRxDescAddr) for [Anonymous Symbol]
    main.o(.ARM.exidx.text.ETH_DMA_GetCurTxBufferAddr) refers to main.o(.text.ETH_DMA_GetCurTxBufferAddr) for [Anonymous Symbol]
    main.o(.ARM.exidx.text.ETH_DMA_GetCurRxBufferAddr) refers to main.o(.text.ETH_DMA_GetCurRxBufferAddr) for [Anonymous Symbol]
    main.o(.ARM.exidx.text.ETH_PMT_GetWakeupFramePointerIndex) refers to main.o(.text.ETH_PMT_GetWakeupFramePointerIndex) for [Anonymous Symbol]
    main.o(.ARM.exidx.text.ETH_PTP_GetSnapFrameType) refers to main.o(.text.ETH_PTP_GetSnapFrameType) for [Anonymous Symbol]
    main.o(.ARM.exidx.text.FCM_SetUpLimit) refers to main.o(.text.FCM_SetUpLimit) for [Anonymous Symbol]
    main.o(.ARM.exidx.text.FCM_SetLowLimit) refers to main.o(.text.FCM_SetLowLimit) for [Anonymous Symbol]
    main.o(.ARM.exidx.text.GPIO_Unlock) refers to main.o(.text.GPIO_Unlock) for [Anonymous Symbol]
==============================================================================

Removing Unused input sections from the image.

    Removing main.o(.text), (0 bytes).
    Removing main.o(.text.ETH_MAC_GeneratePauseCtrlFrame), (14 bytes).
    Removing main.o(.ARM.exidx.text.ETH_MAC_GeneratePauseCtrlFrame), (8 bytes).
    Removing main.o(.text.ETH_MAC_GetFlowCtrlStatus), (14 bytes).
    Removing main.o(.ARM.exidx.text.ETH_MAC_GetFlowCtrlStatus), (8 bytes).
    Removing main.o(.text.ETH_DMA_ResumeTransmit), (14 bytes).
    Removing main.o(.ARM.exidx.text.ETH_DMA_ResumeTransmit), (8 bytes).
    Removing main.o(.text.ETH_DMA_ResumeReceive), (14 bytes).
    Removing main.o(.ARM.exidx.text.ETH_DMA_ResumeReceive), (8 bytes).
    Removing main.o(.text.ETH_DMA_GetErrorStatus), (16 bytes).
    Removing main.o(.ARM.exidx.text.ETH_DMA_GetErrorStatus), (8 bytes).
    Removing main.o(.text.ETH_DMA_GetTransmitStatus), (16 bytes).
    Removing main.o(.ARM.exidx.text.ETH_DMA_GetTransmitStatus), (8 bytes).
    Removing main.o(.text.ETH_DMA_GetReceiveStatus), (16 bytes).
    Removing main.o(.ARM.exidx.text.ETH_DMA_GetReceiveStatus), (8 bytes).
    Removing main.o(.text.ETH_DMA_GetRxOvfMissFrameCnt), (16 bytes).
    Removing main.o(.ARM.exidx.text.ETH_DMA_GetRxOvfMissFrameCnt), (8 bytes).
    Removing main.o(.text.ETH_DMA_GetBufferUnavaiMissFrameCnt), (14 bytes).
==============================================================================

Image Symbol Table

    Local Symbols

    Symbol Name                              Value     Ov Type        Size  Object(Section)

    ../clib/microlib/ctype/ctype.c           0x00000000   Number         0  ctype_o.o ABSOLUTE
    ../clib/microlib/ctype/ctype.c           0x00000000   Number         0  isalnum_o.o ABSOLUTE
    ../clib/microlib/ctype/ctype.c           0x00000000   Number         0  isalpha_o.o ABSOLUTE
    ../clib/microlib/ctype/ctype.c           0x00000000   Number         0  isblank_o.o ABSOLUTE
    ../clib/microlib/ctype/ctype.c           0x00000000   Number         0  iscntrl_o.o ABSOLUTE
    ../clib/microlib/ctype/ctype.c           0x00000000   Number         0  isdigit_o.o ABSOLUTE
    ../clib/microlib/ctype/ctype.c           0x00000000   Number         0  isgraph_o.o ABSOLUTE
    ../clib/microlib/ctype/ctype.c           0x00000000   Number         0  islower_o.o ABSOLUTE
    ../clib/microlib/ctype/ctype.c           0x00000000   Number         0  isprint_o.o ABSOLUTE
    ../clib/microlib/ctype/ctype.c           0x00000000   Number         0  ispunct_o.o ABSOLUTE
    ../clib/microlib/ctype/ctype.c           0x00000000   Number         0  isspace_o.o ABSOLUTE
    ../clib/microlib/ctype/ctype.c           0x00000000   Number         0  isupper_o.o ABSOLUTE
    ../clib/microlib/ctype/ctype.c           0x00000000   Number         0  isxdigit_o.o ABSOLUTE
    ../clib/microlib/division.c              0x00000000   Number         0  uldiv.o ABSOLUTE
    ../clib/microlib/division.c              0x00000000   Number         0  uidiv.o ABSOLUTE
    ../clib/microlib/errno.c                 0x00000000   Number         0  errno.o ABSOLUTE
    ../clib/microlib/init/entry.s            0x00000000   Number         0  entry.o ABSOLUTE
    ../clib/microlib/init/entry.s            0x00000000   Number         0  entry2.o ABSOLUTE
    ../clib/microlib/init/entry.s            0x00000000   Number         0  entry5.o ABSOLUTE
    ../clib/microlib/init/entry.s            0x00000000   Number         0  entry7a.o ABSOLUTE
    ../clib/microlib/init/entry.s            0x00000000   Number         0  entry7b.o ABSOLUTE
    ../clib/microlib/init/entry.s            0x00000000   Number         0  entry8a.o ABSOLUTE
    ../clib/microlib/init/entry.s            0x00000000   Number         0  entry8b.o ABSOLUTE
    ../clib/microlib/init/entry.s            0x00000000   Number         0  entry9a.o ABSOLUTE
    ../clib/microlib/init/entry.s            0x00000000   Number         0  entry9b.o ABSOLUTE
    ../clib/microlib/init/entry.s            0x00000000   Number         0  entry10a.o ABSOLUTE
    ../clib/microlib/init/entry.s            0x00000000   Number         0  entry10b.o ABSOLUTE
    ../clib/microlib/init/entry.s            0x00000000   Number         0  entry11a.o ABSOLUTE
    ../clib/microlib/init/entry.s            0x00000000   Number         0  entry11b.o ABSOLUTE
    ../clib/microlib/longlong.c              0x00000000   Number         0  llshl.o ABSOLUTE
    ../clib/microlib/longlong.c              0x00000000   Number         0  llushr.o ABSOLUTE
    ../clib/microlib/longlong.c              0x00000000   Number         0  llsshr.o ABSOLUTE
    ../clib/microlib/printf/printf.c         0x00000000   Number         0  printfa.o ABSOLUTE
    ../clib/microlib/stdio/streams.c         0x00000000   Number         0  stdout.o ABSOLUTE
    ../clib/microlib/string/memcpy.c         0x00000000   Number         0  memcpya.o ABSOLUTE
    ../clib/microlib/string/memcpy.c         0x00000000   Number         0  memcpyb.o ABSOLUTE
    ../clib/microlib/string/memset.c         0x00000000   Number         0  memseta.o ABSOLUTE
    ../clib/microlib/string/strcat.c         0x00000000   Number         0  strcat.o ABSOLUTE
    ../clib/microlib/string/strcpy.c         0x00000000   Number         0  strcpy.o ABSOLUTE
    ../clib/microlib/string/strlen.c         0x00000000   Number         0  strlen.o ABSOLUTE
    ../clib/microlib/string/strncmp.c        0x00000000   Number         0  strncmp.o ABSOLUTE
    ../clib/microlib/string/strncpy.c        0x00000000   Number         0  strncpy.o ABSOLUTE
    ../clib/microlib/stubs.s                 0x00000000   Number         0  iusefp.o ABSOLUTE
    ../fplib/microlib/d2f.c                  0x00000000   Number         0  d2f.o ABSOLUTE
    ../fplib/microlib/f2d.c                  0x00000000   Number         0  f2d.o ABSOLUTE
    ../fplib/microlib/fpadd.c                0x00000000   Number         0  dadd.o ABSOLUTE
    ../fplib/microlib/fpdiv.c                0x00000000   Number         0  ddiv.o ABSOLUTE
    ../fplib/microlib/fpepilogue.c           0x00000000   Number         0  fepilogue.o ABSOLUTE
    ../fplib/microlib/fpepilogue.c           0x00000000   Number         0  depilogue.o ABSOLUTE
    ../fplib/microlib/fpfix.c                0x00000000   Number         0  dfixul.o ABSOLUTE
    ../fplib/microlib/fpfix.c                0x00000000   Number         0  dfixi.o ABSOLUTE
    ../fplib/microlib/fpflt.c                0x00000000   Number         0  dfltui.o ABSOLUTE
    ../fplib/microlib/fpflt.c                0x00000000   Number         0  dfltul.o ABSOLUTE
    ../fplib/microlib/fpflt.c                0x00000000   Number         0  dflti.o ABSOLUTE
    ../fplib/microlib/fpmul.c                0x00000000   Number         0  dmul.o ABSOLUTE
    ../fplib/microlib/fpneg.c                0x00000000   Number         0  dneg.o ABSOLUTE
    ../fplib/microlib/fpsqrt.c               0x00000000   Number         0  dsqrt.o ABSOLUTE
    ../mathlib/cos_i.c                       0x00000000   Number         0  cos_i.o ABSOLUTE
    ../mathlib/dunder.c                      0x00000000   Number         0  dunder.o ABSOLUTE
    ../mathlib/fabs.c                        0x00000000   Number         0  fabs.o ABSOLUTE
    ../mathlib/fpclassify.c                  0x00000000   Number         0  fpclassify.o ABSOLUTE
    ../mathlib/poly.c                        0x00000000   Number         0  poly.o ABSOLUTE
    ../mathlib/rred.c                        0x00000000   Number         0  rred.o ABSOLUTE
    ../mathlib/sin.c                         0x00000000   Number         0  sin.o ABSOLUTE
    ../mathlib/sin.c                         0x00000000   Number         0  sin_x.o ABSOLUTE
    ../mathlib/sin_i.c                       0x00000000   Number         0  sin_i.o ABSOLUTE
    ../mathlib/sin_i.c                       0x00000000   Number         0  sin_i_x.o ABSOLUTE
    ../mathlib/sqrt.c                        0x00000000   Number         0  sqrt.o ABSOLUTE
    ../mathlib/sqrt.c                        0x00000000   Number         0  sqrt_x.o ABSOLUTE
    ../mathlib/sqrtf.c                       0x00000000   Number         0  sqrtf.o ABSOLUTE
    ../mathlib/sqrtf.c                       0x00000000   Number         0  sqrtf_x.o ABSOLUTE
    AT24C02.c                                0x00000000   Number         0  at24c02.o ABSOLUTE
    C:\Users\Michael\AppData\Local\Arm\Packs\RealThread\RT-Thread\3.1.3\libcpu\arm\cortex-m4\context_rvds.S 0x00000000   Number         0  context_rvds.o ABSOLUTE
    SEGGER_RTT.c                             0x00000000   Number         0  segger_rtt.o ABSOLUTE
    SEGGER_RTT_printf.c                      0x00000000   Number         0  segger_rtt_printf.o ABSOLUTE
    TCA9539.c                                0x00000000   Number         0  tca9539.o ABSOLUTE
    Task_start.c                             0x00000000   Number         0  task_start.o ABSOLUTE
    User_FFT.c                               0x00000000   Number         0  user_fft.o ABSOLUTE
    arm_bitreversal.c                        0x00000000   Number         0  arm_bitreversal.o ABSOLUTE
    arm_cfft_radix4_f32.c                    0x00000000   Number         0  arm_cfft_radix4_f32.o ABSOLUTE
    arm_cfft_radix4_init_f32.c               0x00000000   Number         0  arm_cfft_radix4_init_f32.o ABSOLUTE
    arm_cmplx_mag_f32.c                      0x00000000   Number         0  arm_cmplx_mag_f32.o ABSOLUTE
    arm_common_tables.c                      0x00000000   Number         0  arm_common_tables.o ABSOLUTE
    arm_sin_f32.c                            0x00000000   Number         0  arm_sin_f32.o ABSOLUTE
    board.c                                  0x00000000   Number         0  board.o ABSOLUTE
    bsp_adc.c                                0x00000000   Number         0  bsp_adc.o ABSOLUTE
    bsp_can.c                                0x00000000   Number         0  bsp_can.o ABSOLUTE
    bsp_chipinfo.c                           0x00000000   Number         0  bsp_chipinfo.o ABSOLUTE
    bsp_clk.c                                0x00000000   Number         0  bsp_clk.o ABSOLUTE
    bsp_dac.c                                0x00000000   Number         0  bsp_dac.o ABSOLUTE
    bsp_dma.c                                0x00000000   Number         0  bsp_dma.o ABSOLUTE
    bsp_efm.c                                0x00000000   Number         0  bsp_efm.o ABSOLUTE
    bsp_efm_switch.c                         0x00000000   Number         0  bsp_efm_switch.o ABSOLUTE
    bsp_eth.c                                0x00000000   Number         0  bsp_eth.o ABSOLUTE
    bsp_exmc.c                               0x00000000   Number         0  bsp_exmc.o ABSOLUTE
    bsp_exmc_sdram.c                         0x00000000   Number         0  bsp_exmc_sdram.o ABSOLUTE
    bsp_exmc_tft.c                           0x00000000   Number         0  bsp_exmc_tft.o ABSOLUTE
    bsp_gpio.c                               0x00000000   Number         0  bsp_gpio.o ABSOLUTE
    bsp_hash.c                               0x00000000   Number         0  bsp_hash.o ABSOLUTE
    bsp_i2c.c                                0x00000000   Number         0  bsp_i2c.o ABSOLUTE
    bsp_i2c_gpio.c                           0x00000000   Number         0  bsp_i2c_gpio.o ABSOLUTE
    bsp_i2c_slave.c                          0x00000000   Number         0  bsp_i2c_slave.o ABSOLUTE
    bsp_interrupt.c                          0x00000000   Number         0  bsp_interrupt.o ABSOLUTE
    bsp_lpm.c                                0x00000000   Number         0  bsp_lpm.o ABSOLUTE
    bsp_mau.c                                0x00000000   Number         0  bsp_mau.o ABSOLUTE
    bsp_mco.c                                0x00000000   Number         0  bsp_mco.o ABSOLUTE
    bsp_rmu.c                                0x00000000   Number         0  bsp_rmu.o ABSOLUTE
    bsp_rtthread_cmd.c                       0x00000000   Number         0  bsp_rtthread_cmd.o ABSOLUTE
    bsp_slave_i2c1_int.c                     0x00000000   Number         0  bsp_slave_i2c1_int.o ABSOLUTE
    bsp_spi.c                                0x00000000   Number         0  bsp_spi.o ABSOLUTE
    bsp_swdt.c                               0x00000000   Number         0  bsp_swdt.o ABSOLUTE
    bsp_timer0.c                             0x00000000   Number         0  bsp_timer0.o ABSOLUTE
    bsp_timer6_freq_meter.c                  0x00000000   Number         0  bsp_timer6_freq_meter.o ABSOLUTE
    bsp_timera_freq_meter.c                  0x00000000   Number         0  bsp_timera_freq_meter.o ABSOLUTE
    bsp_trng.c                               0x00000000   Number         0  bsp_trng.o ABSOLUTE
    bsp_uart.c                               0x00000000   Number         0  bsp_uart.o ABSOLUTE
    bsp_uart_singlewire.c                    0x00000000   Number         0  bsp_uart_singlewire.o ABSOLUTE
    bsp_wdt.c                                0x00000000   Number         0  bsp_wdt.o ABSOLUTE
    cdcmple.s                                0x00000000   Number         0  cdcmple.o ABSOLUTE
    cdrcmple.s                               0x00000000   Number         0  cdrcmple.o ABSOLUTE
    clock.c                                  0x00000000   Number         0  clock.o ABSOLUTE
    cmd.c                                    0x00000000   Number         0  cmd.o ABSOLUTE
    cmd_gpio.c                               0x00000000   Number         0  cmd_gpio.o ABSOLUTE
    cmd_test.c                               0x00000000   Number         0  cmd_test.o ABSOLUTE
    components.c                             0x00000000   Number         0  components.o ABSOLUTE
    cpuport.c                                0x00000000   Number         0  cpuport.o ABSOLUTE
    dc.s                                     0x00000000   Number         0  dc.o ABSOLUTE
    drv_gpio.c                               0x00000000   Number         0  drv_gpio.o ABSOLUTE
    drv_i2c.c                                0x00000000   Number         0  drv_i2c.o ABSOLUTE
    drv_spi.c                                0x00000000   Number         0  drv_spi.o ABSOLUTE
    handlers.s                               0x00000000   Number         0  handlers.o ABSOLUTE
    hc32f4a0_adc.c                           0x00000000   Number         0  hc32f4a0_adc.o ABSOLUTE
    hc32f4a0_aes.c                           0x00000000   Number         0  hc32f4a0_aes.o ABSOLUTE
    hc32f4a0_can.c                           0x00000000   Number         0  hc32f4a0_can.o ABSOLUTE
    hc32f4a0_clk.c                           0x00000000   Number         0  hc32f4a0_clk.o ABSOLUTE
    hc32f4a0_cmp.c                           0x00000000   Number         0  hc32f4a0_cmp.o ABSOLUTE
    hc32f4a0_crc.c                           0x00000000   Number         0  hc32f4a0_crc.o ABSOLUTE
    hc32f4a0_dac.c                           0x00000000   Number         0  hc32f4a0_dac.o ABSOLUTE
    hc32f4a0_dcu.c                           0x00000000   Number         0  hc32f4a0_dcu.o ABSOLUTE
    hc32f4a0_dma.c                           0x00000000   Number         0  hc32f4a0_dma.o ABSOLUTE
    hc32f4a0_dmc.c                           0x00000000   Number         0  hc32f4a0_dmc.o ABSOLUTE
    hc32f4a0_efm.c                           0x00000000   Number         0  hc32f4a0_efm.o ABSOLUTE
    hc32f4a0_emb.c                           0x00000000   Number         0  hc32f4a0_emb.o ABSOLUTE
    hc32f4a0_eth.c                           0x00000000   Number         0  hc32f4a0_eth.o ABSOLUTE
    hc32f4a0_fcm.c                           0x00000000   Number         0  hc32f4a0_fcm.o ABSOLUTE
    hc32f4a0_fmac.c                          0x00000000   Number         0  hc32f4a0_fmac.o ABSOLUTE
    hc32f4a0_gpio.c                          0x00000000   Number         0  hc32f4a0_gpio.o ABSOLUTE
    hc32f4a0_hash.c                          0x00000000   Number         0  hc32f4a0_hash.o ABSOLUTE
    hc32f4a0_hrpwm.c                         0x00000000   Number         0  hc32f4a0_hrpwm.o ABSOLUTE
    hc32f4a0_i2c.c                           0x00000000   Number         0  hc32f4a0_i2c.o ABSOLUTE
    hc32f4a0_icg.c                           0x00000000   Number         0  hc32f4a0_icg.o ABSOLUTE
    hc32f4a0_interrupts.c                    0x00000000   Number         0  hc32f4a0_interrupts.o ABSOLUTE
    hc32f4a0_keyscan.c                       0x00000000   Number         0  hc32f4a0_keyscan.o ABSOLUTE
    hc32f4a0_mau.c                           0x00000000   Number         0  hc32f4a0_mau.o ABSOLUTE
    hc32f4a0_nfc.c                           0x00000000   Number         0  hc32f4a0_nfc.o ABSOLUTE
    hc32f4a0_ots.c                           0x00000000   Number         0  hc32f4a0_ots.o ABSOLUTE
    hc32f4a0_pwc.c                           0x00000000   Number         0  hc32f4a0_pwc.o ABSOLUTE
    hc32f4a0_qspi.c                          0x00000000   Number         0  hc32f4a0_qspi.o ABSOLUTE
    hc32f4a0_rmu.c                           0x00000000   Number         0  hc32f4a0_rmu.o ABSOLUTE
    hc32f4a0_rtc.c                           0x00000000   Number         0  hc32f4a0_rtc.o ABSOLUTE
    hc32f4a0_sdioc.c                         0x00000000   Number         0  hc32f4a0_sdioc.o ABSOLUTE
    hc32f4a0_smc.c                           0x00000000   Number         0  hc32f4a0_smc.o ABSOLUTE
    hc32f4a0_spi.c                           0x00000000   Number         0  hc32f4a0_spi.o ABSOLUTE
    hc32f4a0_sram.c                          0x00000000   Number         0  hc32f4a0_sram.o ABSOLUTE
    hc32f4a0_swdt.c                          0x00000000   Number         0  hc32f4a0_swdt.o ABSOLUTE
    hc32f4a0_tmr0.c                          0x00000000   Number         0  hc32f4a0_tmr0.o ABSOLUTE
    hc32f4a0_tmr2.c                          0x00000000   Number         0  hc32f4a0_tmr2.o ABSOLUTE
    hc32f4a0_tmr4.c                          0x00000000   Number         0  hc32f4a0_tmr4.o ABSOLUTE
    hc32f4a0_tmr6.c                          0x00000000   Number         0  hc32f4a0_tmr6.o ABSOLUTE
    hc32f4a0_tmra.c                          0x00000000   Number         0  hc32f4a0_tmra.o ABSOLUTE
    hc32f4a0_trng.c                          0x00000000   Number         0  hc32f4a0_trng.o ABSOLUTE
    hc32f4a0_usart.c                         0x00000000   Number         0  hc32f4a0_usart.o ABSOLUTE
    hc32f4a0_utility.c                       0x00000000   Number         0  hc32f4a0_utility.o ABSOLUTE
    hc32f4a0_wdt.c                           0x00000000   Number         0  hc32f4a0_wdt.o ABSOLUTE
    idle.c                                   0x00000000   Number         0  idle.o ABSOLUTE
    init.s                                   0x00000000   Number         0  init.o ABSOLUTE
    ipc.c                                    0x00000000   Number         0  ipc.o ABSOLUTE
    irq.c                                    0x00000000   Number         0  irq.o ABSOLUTE
    kservice.c                               0x00000000   Number         0  kservice.o ABSOLUTE
    main.c                                   0x00000000   Number         0  main.o ABSOLUTE
    mcu\startup_hc32f4a0.s                   0x00000000   Number         0  startup_hc32f4a0.o ABSOLUTE
    mem.c                                    0x00000000   Number         0  mem.o ABSOLUTE
    msh.c                                    0x00000000   Number         0  msh.o ABSOLUTE
    object.c                                 0x00000000   Number         0  object.o ABSOLUTE
    rt_task_test.c                           0x00000000   Number         0  rt_task_test.o ABSOLUTE
    scheduler.c                              0x00000000   Number         0  scheduler.o ABSOLUTE
    shell.c                                  0x00000000   Number         0  shell.o ABSOLUTE
    system_hc32f4a0.c                        0x00000000   Number         0  system_hc32f4a0.o ABSOLUTE
    thread.c                                 0x00000000   Number         0  thread.o ABSOLUTE
    timer.c                                  0x00000000   Number         0  timer.o ABSOLUTE
    RESET                                    0x00000000   Section      640  startup_hc32f4a0.o(RESET)
    .ARM.Collect$$$$00000000                 0x00000280   Section        0  entry.o(.ARM.Collect$$$$00000000)
    .ARM.Collect$$$$00000001                 0x00000280   Section        4  entry2.o(.ARM.Collect$$$$00000001)
    .ARM.Collect$$$$00000004                 0x00000284   Section        4  entry5.o(.ARM.Collect$$$$00000004)
    .ARM.Collect$$$$00000008                 0x00000288   Section        0  entry7b.o(.ARM.Collect$$$$00000008)
    .ARM.Collect$$$$0000000A                 0x00000288   Section        0  entry8b.o(.ARM.Collect$$$$0000000A)
    .ARM.Collect$$$$0000000B                 0x00000288   Section        8  entry9a.o(.ARM.Collect$$$$0000000B)
    __lit__00000000                          0x00000290   Data           4  entry2.o(.ARM.Collect$$$$00002712)
    .ARM.Collect$$$$0000000D                 0x00000290   Section        0  entry10a.o(.ARM.Collect$$$$0000000D)
    .ARM.Collect$$$$0000000F                 0x00000290   Section        0  entry11a.o(.ARM.Collect$$$$0000000F)
    .ARM.Collect$$$$00002712                 0x00000290   Section        4  entry2.o(.ARM.Collect$$$$00002712)
    $v0                                      0x00000294   Number         0  startup_hc32f4a0.o(.text)
    .text                                    0x00000294   Section       36  startup_hc32f4a0.o(.text)
    $v0                                      0x000002b8   Number         0  context_rvds.o(.text)
    .text                                    0x000002b8   Section      308  context_rvds.o(.text)
    .text                                    0x000003ec   Section        0  ctype_o.o(.text)
    [Anonymous Symbol]                       0x000003f4   Section        0  hc32f4a0_interrupts.o(.text.ADC_1_Cmp0_IrqHandler)
    .text                                    0x000003f4   Section        0  iusefp.o(.text)
    [Anonymous Symbol]                       0x000003f8   Section        0  hc32f4a0_interrupts.o(.text.ADC_1_Cmp1Comb_IrqHandler)
    [Anonymous Symbol]                       0x000003fc   Section        0  hc32f4a0_interrupts.o(.text.ADC_1_Cmp1Ind_IrqHandler)
    i.__scatterload_null                     0x000003fe   Section        2  handlers.o(i.__scatterload_null)
    .text                                    0x00000460   Section        0  uldiv.o(.text)
    .text                                    0x000004c2   Section        0  memcpya.o(.text)
    .text                                    0x000004e6   Section        0  memseta.o(.text)
    .text                                    0x0000050a   Section        0  strcat.o(.text)
    .text                                    0x00000522   Section        0  strncpy.o(.text)
    .text                                    0x0000053a   Section        0  strlen.o(.text)
    .text                                    0x00000548   Section        0  strcpy.o(.text)
    .text                                    0x0000055a   Section        0  strncmp.o(.text)
    .text                                    0x00000578   Section        0  ddiv.o(.text)
    .text                                    0x00000656   Section        0  dfltui.o(.text)
    .text                                    0x00000670   Section        0  dfltul.o(.text)
    .text                                    0x00000688   Section        0  d2f.o(.text)
    .text                                    0x000006c0   Section        0  llshl.o(.text)
    .text                                    0x000006de   Section        0  llushr.o(.text)
    .text                                    0x000006fe   Section        0  fepilogue.o(.text)
    .text                                    0x0000076c   Section        0  depilogue.o(.text)
    .text                                    0x00000828   Section       36  init.o(.text)
    [Anonymous Symbol]                       0x0000084c   Section        0  components.o(.text.$Sub$$main)
    [Anonymous Symbol]                       0x00000860   Section        0  hc32f4a0_interrupts.o(.text.ADC_1_SeqA_IrqHandler)
    [Anonymous Symbol]                       0x00000864   Section        0  hc32f4a0_interrupts.o(.text.ADC_1_SeqB_IrqHandler)
    [Anonymous Symbol]                       0x00000868   Section        0  hc32f4a0_interrupts.o(.text.ADC_2_Cmp0_IrqHandler)
    [Anonymous Symbol]                       0x0000086c   Section        0  hc32f4a0_interrupts.o(.text.ADC_2_Cmp1Comb_IrqHandler)
    [Anonymous Symbol]                       0x00000870   Section        0  hc32f4a0_interrupts.o(.text.ADC_2_Cmp1Ind_IrqHandler)
    [Anonymous Symbol]                       0x00000874   Section        0  hc32f4a0_interrupts.o(.text.ADC_2_SeqA_IrqHandler)
    [Anonymous Symbol]                       0x00000878   Section        0  hc32f4a0_interrupts.o(.text.ADC_2_SeqB_IrqHandler)
    [Anonymous Symbol]                       0x0000087c   Section        0  hc32f4a0_interrupts.o(.text.ADC_3_Cmp0_IrqHandler)
    [Anonymous Symbol]                       0x00000880   Section        0  hc32f4a0_interrupts.o(.text.ADC_3_Cmp1Comb_IrqHandler)
    [Anonymous Symbol]                       0x00000884   Section        0  hc32f4a0_interrupts.o(.text.ADC_3_Cmp1Ind_IrqHandler)
    [Anonymous Symbol]                       0x00000888   Section        0  hc32f4a0_interrupts.o(.text.ADC_3_SeqA_IrqHandler)
    [Anonymous Symbol]                       0x0000088c   Section        0  hc32f4a0_interrupts.o(.text.ADC_3_SeqB_IrqHandler)
    [Anonymous Symbol]                       0x00000890   Section        0  hc32f4a0_interrupts.o(.text.BusFault_Handler)
    [Anonymous Symbol]                       0x00000898   Section        0  hc32f4a0_interrupts.o(.text.BusFault_IrqHandler)
    [Anonymous Symbol]                       0x0000089c   Section        0  hc32f4a0_interrupts.o(.text.CAN_1_IrqHandler)
    [Anonymous Symbol]                       0x000008a0   Section        0  hc32f4a0_interrupts.o(.text.CAN_2_IrqHandler)
    [Anonymous Symbol]                       0x000008a4   Section        0  hc32f4a0_clk.o(.text.CLK_ClkDiv)
    [Anonymous Symbol]                       0x00000a8c   Section        0  hc32f4a0_clk.o(.text.CLK_GetClockFreq)
    [Anonymous Symbol]                       0x00000c08   Section        0  hc32f4a0_clk.o(.text.CLK_GetPllClockFreq)
    [Anonymous Symbol]                       0x00000d98   Section        0  hc32f4a0_clk.o(.text.CLK_GetStableStatus)
    [Anonymous Symbol]                       0x00000dbc   Section        0  hc32f4a0_clk.o(.text.CLK_PERI_ClkConfig)
    [Anonymous Symbol]                       0x00000dd8   Section        0  hc32f4a0_clk.o(.text.CLK_PLLACmd)
    [Anonymous Symbol]                       0x00000e48   Section        0  hc32f4a0_clk.o(.text.CLK_PLLAInit)
    [Anonymous Symbol]                       0x00000e98   Section        0  hc32f4a0_clk.o(.text.CLK_PLLAStrucInit)
    [Anonymous Symbol]                       0x00000efc   Section        0  hc32f4a0_clk.o(.text.CLK_PLLHCmd)
    [Anonymous Symbol]                       0x00000f88   Section        0  hc32f4a0_clk.o(.text.CLK_PLLHInit)
    [Anonymous Symbol]                       0x00000fec   Section        0  hc32f4a0_clk.o(.text.CLK_PLLHStrucInit)
    [Anonymous Symbol]                       0x00001054   Section        0  hc32f4a0_clk.o(.text.CLK_SetSysClkSrc)
    [Anonymous Symbol]                       0x0000116c   Section        0  hc32f4a0_clk.o(.text.CLK_Xtal32Cmd)
    [Anonymous Symbol]                       0x000011dc   Section        0  hc32f4a0_clk.o(.text.CLK_Xtal32Init)
    [Anonymous Symbol]                       0x00001248   Section        0  hc32f4a0_clk.o(.text.CLK_Xtal32StrucInit)
    [Anonymous Symbol]                       0x0000127c   Section        0  hc32f4a0_clk.o(.text.CLK_XtalCmd)
    [Anonymous Symbol]                       0x00001344   Section        0  hc32f4a0_clk.o(.text.CLK_XtalInit)
    [Anonymous Symbol]                       0x000013ac   Section        0  hc32f4a0_interrupts.o(.text.CLK_XtalStop_IrqHandler)
    [Anonymous Symbol]                       0x000013b0   Section        0  hc32f4a0_clk.o(.text.CLK_XtalStrucInit)
    [Anonymous Symbol]                       0x000013ec   Section        0  hc32f4a0_interrupts.o(.text.CTC_Ovf_IrqHandler)
    [Anonymous Symbol]                       0x000013f0   Section        0  hc32f4a0_interrupts.o(.text.CTC_Udf_IrqHandler)
    CalcClkSyncBaudrate                      0x000013f5   Thumb Code   640  hc32f4a0_usart.o(.text.CalcClkSyncBaudrate)
    [Anonymous Symbol]                       0x000013f4   Section        0  hc32f4a0_usart.o(.text.CalcClkSyncBaudrate)
    CalcSmartcardBaudrate                    0x00001675   Thumb Code   704  hc32f4a0_usart.o(.text.CalcSmartcardBaudrate)
    [Anonymous Symbol]                       0x00001674   Section        0  hc32f4a0_usart.o(.text.CalcSmartcardBaudrate)
    CalcUartBaudrate                         0x00001935   Thumb Code   696  hc32f4a0_usart.o(.text.CalcUartBaudrate)
    [Anonymous Symbol]                       0x00001934   Section        0  hc32f4a0_usart.o(.text.CalcUartBaudrate)
    [Anonymous Symbol]                       0x00001bec   Section        0  hc32f4a0_interrupts.o(.text.DCU_1_IrqHandler)
    [Anonymous Symbol]                       0x00001bf0   Section        0  hc32f4a0_interrupts.o(.text.DCU_2_IrqHandler)
    [Anonymous Symbol]                       0x00001bf4   Section        0  hc32f4a0_interrupts.o(.text.DCU_3_IrqHandler)
    [Anonymous Symbol]                       0x00001bf8   Section        0  hc32f4a0_interrupts.o(.text.DCU_4_IrqHandler)
    [Anonymous Symbol]                       0x00001bfc   Section        0  hc32f4a0_interrupts.o(.text.DCU_5_IrqHandler)
    [Anonymous Symbol]                       0x00001c00   Section        0  hc32f4a0_interrupts.o(.text.DCU_6_IrqHandler)
    [Anonymous Symbol]                       0x00001c04   Section        0  hc32f4a0_interrupts.o(.text.DCU_7_IrqHandler)
    [Anonymous Symbol]                       0x00001c08   Section        0  hc32f4a0_interrupts.o(.text.DCU_8_IrqHandler)
    [Anonymous Symbol]                       0x00001c0c   Section        0  hc32f4a0_utility.o(.text.DDL_DelayMS)
    [Anonymous Symbol]                       0x00001c64   Section        0  hc32f4a0_interrupts.o(.text.DMA_1_Btc0_IrqHandler)
    [Anonymous Symbol]                       0x00001c68   Section        0  hc32f4a0_interrupts.o(.text.DMA_1_Btc1_IrqHandler)
    [Anonymous Symbol]                       0x00001c6c   Section        0  hc32f4a0_interrupts.o(.text.DMA_1_Btc2_IrqHandler)
    [Anonymous Symbol]                       0x00001c70   Section        0  hc32f4a0_interrupts.o(.text.DMA_1_Btc3_IrqHandler)
    [Anonymous Symbol]                       0x00001c74   Section        0  hc32f4a0_interrupts.o(.text.DMA_1_Btc4_IrqHandler)
    [Anonymous Symbol]                       0x00001c78   Section        0  hc32f4a0_interrupts.o(.text.DMA_1_Btc5_IrqHandler)
    [Anonymous Symbol]                       0x00001c7c   Section        0  hc32f4a0_interrupts.o(.text.DMA_1_Btc6_IrqHandler)
    [Anonymous Symbol]                       0x00001c80   Section        0  hc32f4a0_interrupts.o(.text.DMA_1_Btc7_IrqHandler)
    [Anonymous Symbol]                       0x00001c84   Section        0  hc32f4a0_interrupts.o(.text.DMA_1_Err0_IrqHandler)
    [Anonymous Symbol]                       0x00001c88   Section        0  hc32f4a0_interrupts.o(.text.DMA_1_Err1_IrqHandler)
    [Anonymous Symbol]                       0x00001c8c   Section        0  hc32f4a0_interrupts.o(.text.DMA_1_Err2_IrqHandler)
    [Anonymous Symbol]                       0x00001c90   Section        0  hc32f4a0_interrupts.o(.text.DMA_1_Err3_IrqHandler)
    [Anonymous Symbol]                       0x00001c94   Section        0  hc32f4a0_interrupts.o(.text.DMA_1_Err4_IrqHandler)
    [Anonymous Symbol]                       0x00001c98   Section        0  hc32f4a0_interrupts.o(.text.DMA_1_Err5_IrqHandler)
    [Anonymous Symbol]                       0x00001c9c   Section        0  hc32f4a0_interrupts.o(.text.DMA_1_Err6_IrqHandler)
    [Anonymous Symbol]                       0x00001ca0   Section        0  hc32f4a0_interrupts.o(.text.DMA_1_Err7_IrqHandler)
    [Anonymous Symbol]                       0x00001ca4   Section        0  hc32f4a0_interrupts.o(.text.DMA_1_Tc0_IrqHandler)
    [Anonymous Symbol]                       0x00001ca8   Section        0  hc32f4a0_interrupts.o(.text.DMA_1_Tc1_IrqHandler)
    [Anonymous Symbol]                       0x00001cac   Section        0  hc32f4a0_interrupts.o(.text.DMA_1_Tc2_IrqHandler)
    [Anonymous Symbol]                       0x00001cb0   Section        0  hc32f4a0_interrupts.o(.text.DMA_1_Tc3_IrqHandler)
    [Anonymous Symbol]                       0x00001cb4   Section        0  hc32f4a0_interrupts.o(.text.DMA_1_Tc4_IrqHandler)
    [Anonymous Symbol]                       0x00001cb8   Section        0  hc32f4a0_interrupts.o(.text.DMA_1_Tc5_IrqHandler)
    [Anonymous Symbol]                       0x00001cbc   Section        0  hc32f4a0_interrupts.o(.text.DMA_1_Tc6_IrqHandler)
    [Anonymous Symbol]                       0x00001cc0   Section        0  hc32f4a0_interrupts.o(.text.DMA_1_Tc7_IrqHandler)
    [Anonymous Symbol]                       0x00001cc4   Section        0  hc32f4a0_interrupts.o(.text.DMA_2_Btc0_IrqHandler)
    [Anonymous Symbol]                       0x00001cc8   Section        0  hc32f4a0_interrupts.o(.text.DMA_2_Btc1_IrqHandler)
    [Anonymous Symbol]                       0x00001ccc   Section        0  hc32f4a0_interrupts.o(.text.DMA_2_Btc2_IrqHandler)
    [Anonymous Symbol]                       0x00001cd0   Section        0  hc32f4a0_interrupts.o(.text.DMA_2_Btc3_IrqHandler)
    [Anonymous Symbol]                       0x00001cd4   Section        0  hc32f4a0_interrupts.o(.text.DMA_2_Btc4_IrqHandler)
    [Anonymous Symbol]                       0x00001cd8   Section        0  hc32f4a0_interrupts.o(.text.DMA_2_Btc5_IrqHandler)
    [Anonymous Symbol]                       0x00001cdc   Section        0  hc32f4a0_interrupts.o(.text.DMA_2_Btc6_IrqHandler)
    [Anonymous Symbol]                       0x00001ce0   Section        0  hc32f4a0_interrupts.o(.text.DMA_2_Btc7_IrqHandler)
    [Anonymous Symbol]                       0x00001ce4   Section        0  hc32f4a0_interrupts.o(.text.DMA_2_Err0_IrqHandler)
    [Anonymous Symbol]                       0x00001ce8   Section        0  hc32f4a0_interrupts.o(.text.DMA_2_Err1_IrqHandler)
    [Anonymous Symbol]                       0x00001cec   Section        0  hc32f4a0_interrupts.o(.text.DMA_2_Err2_IrqHandler)
    [Anonymous Symbol]                       0x00001cf0   Section        0  hc32f4a0_interrupts.o(.text.DMA_2_Err3_IrqHandler)
    [Anonymous Symbol]                       0x00001cf4   Section        0  hc32f4a0_interrupts.o(.text.DMA_2_Err4_IrqHandler)
    [Anonymous Symbol]                       0x00001cf8   Section        0  hc32f4a0_interrupts.o(.text.DMA_2_Err5_IrqHandler)
    [Anonymous Symbol]                       0x00001cfc   Section        0  hc32f4a0_interrupts.o(.text.DMA_2_Err6_IrqHandler)
    [Anonymous Symbol]                       0x00001d00   Section        0  hc32f4a0_interrupts.o(.text.DMA_2_Err7_IrqHandler)
    [Anonymous Symbol]                       0x00001d04   Section        0  hc32f4a0_interrupts.o(.text.DMA_2_Tc0_IrqHandler)
    [Anonymous Symbol]                       0x00001d08   Section        0  hc32f4a0_interrupts.o(.text.DMA_2_Tc1_IrqHandler)
    [Anonymous Symbol]                       0x00001d0c   Section        0  hc32f4a0_interrupts.o(.text.DMA_2_Tc2_IrqHandler)
    [Anonymous Symbol]                       0x00001d10   Section        0  hc32f4a0_interrupts.o(.text.DMA_2_Tc3_IrqHandler)
    [Anonymous Symbol]                       0x00001d14   Section        0  hc32f4a0_interrupts.o(.text.DMA_2_Tc4_IrqHandler)
    [Anonymous Symbol]                       0x00001d18   Section        0  hc32f4a0_interrupts.o(.text.DMA_2_Tc5_IrqHandler)
    [Anonymous Symbol]                       0x00001d1c   Section        0  hc32f4a0_interrupts.o(.text.DMA_2_Tc6_IrqHandler)
    [Anonymous Symbol]                       0x00001d20   Section        0  hc32f4a0_interrupts.o(.text.DMA_2_Tc7_IrqHandler)
    [Anonymous Symbol]                       0x00001d24   Section        0  hc32f4a0_dma.o(.text.DMA_ChannelCmd)
    [Anonymous Symbol]                       0x00001d70   Section        0  hc32f4a0_dma.o(.text.DMA_SetDestAddr)
    [Anonymous Symbol]                       0x00001d90   Section        0  hc32f4a0_dma.o(.text.DMA_SetTransCnt)
    [Anonymous Symbol]                       0x00001dc4   Section        0  hc32f4a0_interrupts.o(.text.DVP_FifoErr_IrqHandler)
    [Anonymous Symbol]                       0x00001dc8   Section        0  hc32f4a0_interrupts.o(.text.DVP_FrameEnd_IrqHandler)
    [Anonymous Symbol]                       0x00001dcc   Section        0  hc32f4a0_interrupts.o(.text.DVP_FrameStart_IrqHandler)
    [Anonymous Symbol]                       0x00001dd0   Section        0  hc32f4a0_interrupts.o(.text.DVP_LineEnd_IrqHandler)
    [Anonymous Symbol]                       0x00001dd4   Section        0  hc32f4a0_interrupts.o(.text.DVP_LineStart_IrqHandler)
    [Anonymous Symbol]                       0x00001dd8   Section        0  hc32f4a0_interrupts.o(.text.DVP_SwSyncErr_IrqHandler)
    [Anonymous Symbol]                       0x00001ddc   Section        0  hc32f4a0_interrupts.o(.text.DebugMon_Handler)
    [Anonymous Symbol]                       0x00001de4   Section        0  hc32f4a0_interrupts.o(.text.DebugMon_IrqHandler)
    [Anonymous Symbol]                       0x00001de8   Section        0  hc32f4a0_interrupts.o(.text.EFM_ColErr_IrqHandler)
    [Anonymous Symbol]                       0x00001dec   Section        0  hc32f4a0_efm.o(.text.EFM_DataCacheCmd)
    [Anonymous Symbol]                       0x00001e08   Section        0  hc32f4a0_efm.o(.text.EFM_GetCID)
    [Anonymous Symbol]                       0x00001e1c   Section        0  hc32f4a0_efm.o(.text.EFM_GetUID)
    [Anonymous Symbol]                       0x00001e50   Section        0  hc32f4a0_efm.o(.text.EFM_InsCacheCmd)
    EFM_Lock                                 0x00001e6d   Thumb Code    16  main.o(.text.EFM_Lock)
    [Anonymous Symbol]                       0x00001e6c   Section        0  main.o(.text.EFM_Lock)
    EFM_Lock                                 0x00001e7d   Thumb Code    16  bsp_clk.o(.text.EFM_Lock)
    [Anonymous Symbol]                       0x00001e7c   Section        0  bsp_clk.o(.text.EFM_Lock)
    [Anonymous Symbol]                       0x00001e8c   Section        0  hc32f4a0_interrupts.o(.text.EFM_OpEnd_IrqHandler)
    [Anonymous Symbol]                       0x00001e90   Section        0  hc32f4a0_interrupts.o(.text.EFM_PgmEraseErr_IrqHandler)
    [Anonymous Symbol]                       0x00001e94   Section        0  hc32f4a0_efm.o(.text.EFM_PrefetchCmd)
    [Anonymous Symbol]                       0x00001eb0   Section        0  hc32f4a0_efm.o(.text.EFM_SetWaitCycle)
    EFM_Unlock                               0x00001ecd   Thumb Code    22  main.o(.text.EFM_Unlock)
    [Anonymous Symbol]                       0x00001ecc   Section        0  main.o(.text.EFM_Unlock)
    EFM_Unlock                               0x00001ee5   Thumb Code    22  bsp_clk.o(.text.EFM_Unlock)
    [Anonymous Symbol]                       0x00001ee4   Section        0  bsp_clk.o(.text.EFM_Unlock)
    [Anonymous Symbol]                       0x00001efc   Section        0  hc32f4a0_interrupts.o(.text.EMB_GR0_IrqHandler)
    [Anonymous Symbol]                       0x00001f00   Section        0  hc32f4a0_interrupts.o(.text.EMB_GR1_IrqHandler)
    [Anonymous Symbol]                       0x00001f04   Section        0  hc32f4a0_interrupts.o(.text.EMB_GR2_IrqHandler)
    [Anonymous Symbol]                       0x00001f08   Section        0  hc32f4a0_interrupts.o(.text.EMB_GR3_IrqHandler)
    [Anonymous Symbol]                       0x00001f0c   Section        0  hc32f4a0_interrupts.o(.text.EMB_GR4_IrqHandler)
    [Anonymous Symbol]                       0x00001f10   Section        0  hc32f4a0_interrupts.o(.text.EMB_GR5_IrqHandler)
    [Anonymous Symbol]                       0x00001f14   Section        0  hc32f4a0_interrupts.o(.text.EMB_GR6_IrqHandler)
    [Anonymous Symbol]                       0x00001f18   Section        0  hc32f4a0_interrupts.o(.text.ETH_Global_IrqHandler)
    [Anonymous Symbol]                       0x00001f1c   Section        0  hc32f4a0_interrupts.o(.text.ETH_Wakeup_IrqHandler)
    [Anonymous Symbol]                       0x00001f20   Section        0  hc32f4a0_interrupts.o(.text.EXTINT_00_IrqHandler)
    [Anonymous Symbol]                       0x00001f24   Section        0  hc32f4a0_interrupts.o(.text.EXTINT_01_IrqHandler)
    [Anonymous Symbol]                       0x00001f28   Section        0  hc32f4a0_interrupts.o(.text.EXTINT_02_IrqHandler)
    [Anonymous Symbol]                       0x00001f2c   Section        0  hc32f4a0_interrupts.o(.text.EXTINT_03_IrqHandler)
    [Anonymous Symbol]                       0x00001f30   Section        0  hc32f4a0_interrupts.o(.text.EXTINT_04_IrqHandler)
    [Anonymous Symbol]                       0x00001f34   Section        0  hc32f4a0_interrupts.o(.text.EXTINT_05_IrqHandler)
    [Anonymous Symbol]                       0x00001f38   Section        0  hc32f4a0_interrupts.o(.text.EXTINT_06_IrqHandler)
    [Anonymous Symbol]                       0x00001f3c   Section        0  hc32f4a0_interrupts.o(.text.EXTINT_07_IrqHandler)
    [Anonymous Symbol]                       0x00001f40   Section        0  hc32f4a0_interrupts.o(.text.EXTINT_08_IrqHandler)
    [Anonymous Symbol]                       0x00001f44   Section        0  hc32f4a0_interrupts.o(.text.EXTINT_09_IrqHandler)
    [Anonymous Symbol]                       0x00001f48   Section        0  hc32f4a0_interrupts.o(.text.EXTINT_10_IrqHandler)
    [Anonymous Symbol]                       0x00001f4c   Section        0  hc32f4a0_interrupts.o(.text.EXTINT_11_IrqHandler)
    [Anonymous Symbol]                       0x00001f50   Section        0  hc32f4a0_interrupts.o(.text.EXTINT_12_IrqHandler)
    [Anonymous Symbol]                       0x00001f54   Section        0  hc32f4a0_interrupts.o(.text.EXTINT_13_IrqHandler)
    [Anonymous Symbol]                       0x00001f58   Section        0  hc32f4a0_interrupts.o(.text.EXTINT_14_IrqHandler)
    [Anonymous Symbol]                       0x00001f5c   Section        0  hc32f4a0_interrupts.o(.text.EXTINT_15_IrqHandler)
    [Anonymous Symbol]                       0x00001f60   Section        0  hc32f4a0_interrupts.o(.text.FCM_End_IrqHandler)
    [Anonymous Symbol]                       0x00001f64   Section        0  hc32f4a0_interrupts.o(.text.FCM_Err_IrqHandler)
    [Anonymous Symbol]                       0x00001f68   Section        0  hc32f4a0_interrupts.o(.text.FCM_Ovf_IrqHandler)
    [Anonymous Symbol]                       0x00001f6c   Section        0  hc32f4a0_interrupts.o(.text.FMAC_1_IrqHandler)
    [Anonymous Symbol]                       0x00001f70   Section        0  hc32f4a0_interrupts.o(.text.FMAC_2_IrqHandler)
    [Anonymous Symbol]                       0x00001f74   Section        0  hc32f4a0_interrupts.o(.text.FMAC_3_IrqHandler)
    [Anonymous Symbol]                       0x00001f78   Section        0  hc32f4a0_interrupts.o(.text.FMAC_4_IrqHandler)
    [Anonymous Symbol]                       0x00001f7c   Section        0  hc32f4a0_gpio.o(.text.GPIO_Init)
    GPIO_Lock                                0x00002031   Thumb Code    16  bsp_clk.o(.text.GPIO_Lock)
    [Anonymous Symbol]                       0x00002030   Section        0  bsp_clk.o(.text.GPIO_Lock)
    GPIO_Lock                                0x00002041   Thumb Code    16  bsp_i2c.o(.text.GPIO_Lock)
    [Anonymous Symbol]                       0x00002040   Section        0  bsp_i2c.o(.text.GPIO_Lock)
    GPIO_Lock                                0x00002051   Thumb Code    16  bsp_uart.o(.text.GPIO_Lock)
    [Anonymous Symbol]                       0x00002050   Section        0  bsp_uart.o(.text.GPIO_Lock)
    GPIO_Lock                                0x00002061   Thumb Code    16  drv_gpio.o(.text.GPIO_Lock)
    [Anonymous Symbol]                       0x00002060   Section        0  drv_gpio.o(.text.GPIO_Lock)
    [Anonymous Symbol]                       0x00002070   Section        0  hc32f4a0_gpio.o(.text.GPIO_ResetPins)
    [Anonymous Symbol]                       0x000020a4   Section        0  hc32f4a0_gpio.o(.text.GPIO_SetFunc)
    [Anonymous Symbol]                       0x00002120   Section        0  hc32f4a0_gpio.o(.text.GPIO_SetPins)
    [Anonymous Symbol]                       0x00002154   Section        0  hc32f4a0_gpio.o(.text.GPIO_StructInit)
    GPIO_Unlock                              0x000021a5   Thumb Code    16  bsp_clk.o(.text.GPIO_Unlock)
    [Anonymous Symbol]                       0x000021a4   Section        0  bsp_clk.o(.text.GPIO_Unlock)
    GPIO_Unlock                              0x000021b5   Thumb Code    16  bsp_i2c.o(.text.GPIO_Unlock)
    [Anonymous Symbol]                       0x000021b4   Section        0  bsp_i2c.o(.text.GPIO_Unlock)
    GPIO_Unlock                              0x000021c5   Thumb Code    16  bsp_uart.o(.text.GPIO_Unlock)
    [Anonymous Symbol]                       0x000021c4   Section        0  bsp_uart.o(.text.GPIO_Unlock)
    GPIO_Unlock                              0x000021d5   Thumb Code    16  drv_gpio.o(.text.GPIO_Unlock)
    [Anonymous Symbol]                       0x000021d4   Section        0  drv_gpio.o(.text.GPIO_Unlock)
    [Anonymous Symbol]                       0x000021e4   Section        0  bsp_i2c.o(.text.HW_I2C_Port_Init)
    [Anonymous Symbol]                       0x00002210   Section        0  hc32f4a0_interrupts.o(.text.I2C_1_Err_IrqHandler)
    [Anonymous Symbol]                       0x00002214   Section        0  hc32f4a0_interrupts.o(.text.I2C_1_RxEnd_IrqHandler)
    [Anonymous Symbol]                       0x00002218   Section        0  hc32f4a0_interrupts.o(.text.I2C_1_TxEmpty_IrqHandler)
    [Anonymous Symbol]                       0x0000221c   Section        0  hc32f4a0_interrupts.o(.text.I2C_1_TxEnd_IrqHandler)
    [Anonymous Symbol]                       0x00002220   Section        0  hc32f4a0_interrupts.o(.text.I2C_2_Err_IrqHandler)
    [Anonymous Symbol]                       0x00002224   Section        0  hc32f4a0_interrupts.o(.text.I2C_2_RxEnd_IrqHandler)
    [Anonymous Symbol]                       0x00002228   Section        0  hc32f4a0_interrupts.o(.text.I2C_2_TxEmpty_IrqHandler)
    [Anonymous Symbol]                       0x0000222c   Section        0  hc32f4a0_interrupts.o(.text.I2C_2_TxEnd_IrqHandler)
    [Anonymous Symbol]                       0x00002230   Section        0  hc32f4a0_interrupts.o(.text.I2C_3_Err_IrqHandler)
    [Anonymous Symbol]                       0x00002234   Section        0  hc32f4a0_interrupts.o(.text.I2C_3_RxEnd_IrqHandler)
    [Anonymous Symbol]                       0x00002238   Section        0  hc32f4a0_interrupts.o(.text.I2C_3_TxEmpty_IrqHandler)
    [Anonymous Symbol]                       0x0000223c   Section        0  hc32f4a0_interrupts.o(.text.I2C_3_TxEnd_IrqHandler)
    [Anonymous Symbol]                       0x00002240   Section        0  hc32f4a0_interrupts.o(.text.I2C_4_Err_IrqHandler)
    [Anonymous Symbol]                       0x00002244   Section        0  hc32f4a0_interrupts.o(.text.I2C_4_RxEnd_IrqHandler)
    [Anonymous Symbol]                       0x00002248   Section        0  hc32f4a0_interrupts.o(.text.I2C_4_TxEmpty_IrqHandler)
    [Anonymous Symbol]                       0x0000224c   Section        0  hc32f4a0_interrupts.o(.text.I2C_4_TxEnd_IrqHandler)
    [Anonymous Symbol]                       0x00002250   Section        0  hc32f4a0_interrupts.o(.text.I2C_5_Err_IrqHandler)
    [Anonymous Symbol]                       0x00002254   Section        0  hc32f4a0_interrupts.o(.text.I2C_5_RxEnd_IrqHandler)
    [Anonymous Symbol]                       0x00002258   Section        0  hc32f4a0_interrupts.o(.text.I2C_5_TxEmpty_IrqHandler)
    [Anonymous Symbol]                       0x0000225c   Section        0  hc32f4a0_interrupts.o(.text.I2C_5_TxEnd_IrqHandler)
    [Anonymous Symbol]                       0x00002260   Section        0  hc32f4a0_interrupts.o(.text.I2C_6_Err_IrqHandler)
    [Anonymous Symbol]                       0x00002264   Section        0  hc32f4a0_interrupts.o(.text.I2C_6_RxEnd_IrqHandler)
    [Anonymous Symbol]                       0x00002268   Section        0  hc32f4a0_interrupts.o(.text.I2C_6_TxEmpty_IrqHandler)
    [Anonymous Symbol]                       0x0000226c   Section        0  hc32f4a0_interrupts.o(.text.I2C_6_TxEnd_IrqHandler)
    [Anonymous Symbol]                       0x00002270   Section        0  hc32f4a0_i2c.o(.text.I2C_BaudrateConfig)
    [Anonymous Symbol]                       0x00002400   Section        0  hc32f4a0_i2c.o(.text.I2C_Cmd)
    [Anonymous Symbol]                       0x00002420   Section        0  hc32f4a0_i2c.o(.text.I2C_DeInit)
    [Anonymous Symbol]                       0x0000243c   Section        0  hc32f4a0_i2c.o(.text.I2C_FastAckCmd)
    [Anonymous Symbol]                       0x0000246c   Section        0  hc32f4a0_i2c.o(.text.I2C_GenerateStart)
    [Anonymous Symbol]                       0x00002480   Section        0  hc32f4a0_i2c.o(.text.I2C_GenerateStop)
    [Anonymous Symbol]                       0x00002494   Section        0  hc32f4a0_i2c.o(.text.I2C_GetStatus)
    [Anonymous Symbol]                       0x000024ac   Section        0  hc32f4a0_i2c.o(.text.I2C_Init)
    [Anonymous Symbol]                       0x00002528   Section        0  hc32f4a0_i2c.o(.text.I2C_StructInit)
    [Anonymous Symbol]                       0x00002560   Section        0  bsp_i2c.o(.text.I2C_Write_data)
    [Anonymous Symbol]                       0x0000281c   Section        0  hc32f4a0_interrupts.o(.text.I2S_1_Err_IrqHandler)
    [Anonymous Symbol]                       0x00002820   Section        0  hc32f4a0_interrupts.o(.text.I2S_1_Rx_IrqHandler)
    [Anonymous Symbol]                       0x00002824   Section        0  hc32f4a0_interrupts.o(.text.I2S_1_Tx_IrqHandler)
    [Anonymous Symbol]                       0x00002828   Section        0  hc32f4a0_interrupts.o(.text.I2S_2_Err_IrqHandler)
    [Anonymous Symbol]                       0x0000282c   Section        0  hc32f4a0_interrupts.o(.text.I2S_2_Rx_IrqHandler)
    [Anonymous Symbol]                       0x00002830   Section        0  hc32f4a0_interrupts.o(.text.I2S_2_Tx_IrqHandler)
    [Anonymous Symbol]                       0x00002834   Section        0  hc32f4a0_interrupts.o(.text.I2S_3_Err_IrqHandler)
    [Anonymous Symbol]                       0x00002838   Section        0  hc32f4a0_interrupts.o(.text.I2S_3_Rx_IrqHandler)
    [Anonymous Symbol]                       0x0000283c   Section        0  hc32f4a0_interrupts.o(.text.I2S_3_Tx_IrqHandler)
    [Anonymous Symbol]                       0x00002840   Section        0  hc32f4a0_interrupts.o(.text.I2S_4_Err_IrqHandler)
    [Anonymous Symbol]                       0x00002844   Section        0  hc32f4a0_interrupts.o(.text.I2S_4_Rx_IrqHandler)
    [Anonymous Symbol]                       0x00002848   Section        0  hc32f4a0_interrupts.o(.text.I2S_4_Tx_IrqHandler)
    [Anonymous Symbol]                       0x0000284c   Section        0  hc32f4a0_interrupts.o(.text.INTC_IrqSignIn)
    [Anonymous Symbol]                       0x00002938   Section        0  hc32f4a0_interrupts.o(.text.IRQ000_Handler)
    [Anonymous Symbol]                       0x00002948   Section        0  hc32f4a0_interrupts.o(.text.IRQ001_Handler)
    [Anonymous Symbol]                       0x00002958   Section        0  hc32f4a0_interrupts.o(.text.IRQ002_Handler)
    [Anonymous Symbol]                       0x00002968   Section        0  hc32f4a0_interrupts.o(.text.IRQ003_Handler)
    [Anonymous Symbol]                       0x00002978   Section        0  hc32f4a0_interrupts.o(.text.IRQ004_Handler)
    [Anonymous Symbol]                       0x00002988   Section        0  hc32f4a0_interrupts.o(.text.IRQ005_Handler)
    [Anonymous Symbol]                       0x00002998   Section        0  hc32f4a0_interrupts.o(.text.IRQ006_Handler)
    [Anonymous Symbol]                       0x000029a8   Section        0  hc32f4a0_interrupts.o(.text.IRQ007_Handler)
    [Anonymous Symbol]                       0x000029b8   Section        0  hc32f4a0_interrupts.o(.text.IRQ008_Handler)
    [Anonymous Symbol]                       0x000029c8   Section        0  hc32f4a0_interrupts.o(.text.IRQ009_Handler)
    [Anonymous Symbol]                       0x000029d8   Section        0  hc32f4a0_interrupts.o(.text.IRQ010_Handler)
    [Anonymous Symbol]                       0x000029e8   Section        0  hc32f4a0_interrupts.o(.text.IRQ011_Handler)
    [Anonymous Symbol]                       0x000029f8   Section        0  hc32f4a0_interrupts.o(.text.IRQ012_Handler)
    [Anonymous Symbol]                       0x00002a08   Section        0  hc32f4a0_interrupts.o(.text.IRQ013_Handler)
    [Anonymous Symbol]                       0x00002a18   Section        0  hc32f4a0_interrupts.o(.text.IRQ014_Handler)
    [Anonymous Symbol]                       0x00002a28   Section        0  hc32f4a0_interrupts.o(.text.IRQ015_Handler)
    [Anonymous Symbol]                       0x00002a38   Section        0  hc32f4a0_interrupts.o(.text.IRQ016_Handler)
    [Anonymous Symbol]                       0x00002a48   Section        0  hc32f4a0_interrupts.o(.text.IRQ017_Handler)
    [Anonymous Symbol]                       0x00002a58   Section        0  hc32f4a0_interrupts.o(.text.IRQ018_Handler)
    [Anonymous Symbol]                       0x00002a68   Section        0  hc32f4a0_interrupts.o(.text.IRQ019_Handler)
    [Anonymous Symbol]                       0x00002a78   Section        0  hc32f4a0_interrupts.o(.text.IRQ020_Handler)
    [Anonymous Symbol]                       0x00002a88   Section        0  hc32f4a0_interrupts.o(.text.IRQ021_Handler)
    [Anonymous Symbol]                       0x00002a98   Section        0  hc32f4a0_interrupts.o(.text.IRQ022_Handler)
    [Anonymous Symbol]                       0x00002aa8   Section        0  hc32f4a0_interrupts.o(.text.IRQ023_Handler)
    [Anonymous Symbol]                       0x00002ab8   Section        0  hc32f4a0_interrupts.o(.text.IRQ024_Handler)
    [Anonymous Symbol]                       0x00002ac8   Section        0  hc32f4a0_interrupts.o(.text.IRQ025_Handler)
    [Anonymous Symbol]                       0x00002ad8   Section        0  hc32f4a0_interrupts.o(.text.IRQ026_Handler)
    [Anonymous Symbol]                       0x00002ae8   Section        0  hc32f4a0_interrupts.o(.text.IRQ027_Handler)
    [Anonymous Symbol]                       0x00002af8   Section        0  hc32f4a0_interrupts.o(.text.IRQ028_Handler)
    [Anonymous Symbol]                       0x00002b08   Section        0  hc32f4a0_interrupts.o(.text.IRQ029_Handler)
    [Anonymous Symbol]                       0x00002b18   Section        0  hc32f4a0_interrupts.o(.text.IRQ030_Handler)
    [Anonymous Symbol]                       0x00002b28   Section        0  hc32f4a0_interrupts.o(.text.IRQ031_Handler)
    [Anonymous Symbol]                       0x00002b38   Section        0  hc32f4a0_interrupts.o(.text.IRQ032_Handler)
    [Anonymous Symbol]                       0x00002b4c   Section        0  hc32f4a0_interrupts.o(.text.IRQ033_Handler)
    [Anonymous Symbol]                       0x00002b60   Section        0  hc32f4a0_interrupts.o(.text.IRQ034_Handler)
    [Anonymous Symbol]                       0x00002b74   Section        0  hc32f4a0_interrupts.o(.text.IRQ035_Handler)
    [Anonymous Symbol]                       0x00002b88   Section        0  hc32f4a0_interrupts.o(.text.IRQ036_Handler)
    [Anonymous Symbol]                       0x00002b9c   Section        0  hc32f4a0_interrupts.o(.text.IRQ037_Handler)
    [Anonymous Symbol]                       0x00002bb0   Section        0  hc32f4a0_interrupts.o(.text.IRQ038_Handler)
    [Anonymous Symbol]                       0x00002bc4   Section        0  hc32f4a0_interrupts.o(.text.IRQ039_Handler)
    [Anonymous Symbol]                       0x00002bd8   Section        0  hc32f4a0_interrupts.o(.text.IRQ040_Handler)
    [Anonymous Symbol]                       0x00002bec   Section        0  hc32f4a0_interrupts.o(.text.IRQ041_Handler)
    [Anonymous Symbol]                       0x00002c00   Section        0  hc32f4a0_interrupts.o(.text.IRQ042_Handler)
    [Anonymous Symbol]                       0x00002c14   Section        0  hc32f4a0_interrupts.o(.text.IRQ043_Handler)
    [Anonymous Symbol]                       0x00002c28   Section        0  hc32f4a0_interrupts.o(.text.IRQ044_Handler)
    [Anonymous Symbol]                       0x00002c3c   Section        0  hc32f4a0_interrupts.o(.text.IRQ045_Handler)
    [Anonymous Symbol]                       0x00002c50   Section        0  hc32f4a0_interrupts.o(.text.IRQ046_Handler)
    [Anonymous Symbol]                       0x00002c64   Section        0  hc32f4a0_interrupts.o(.text.IRQ047_Handler)
    [Anonymous Symbol]                       0x00002c78   Section        0  hc32f4a0_interrupts.o(.text.IRQ048_Handler)
    [Anonymous Symbol]                       0x00002c8c   Section        0  hc32f4a0_interrupts.o(.text.IRQ049_Handler)
    [Anonymous Symbol]                       0x00002ca0   Section        0  hc32f4a0_interrupts.o(.text.IRQ050_Handler)
    [Anonymous Symbol]                       0x00002cb4   Section        0  hc32f4a0_interrupts.o(.text.IRQ051_Handler)
    [Anonymous Symbol]                       0x00002cc8   Section        0  hc32f4a0_interrupts.o(.text.IRQ052_Handler)
    [Anonymous Symbol]                       0x00002cdc   Section        0  hc32f4a0_interrupts.o(.text.IRQ053_Handler)
    [Anonymous Symbol]                       0x00002cf0   Section        0  hc32f4a0_interrupts.o(.text.IRQ054_Handler)
    [Anonymous Symbol]                       0x00002d04   Section        0  hc32f4a0_interrupts.o(.text.IRQ055_Handler)
    [Anonymous Symbol]                       0x00002d18   Section        0  hc32f4a0_interrupts.o(.text.IRQ056_Handler)
    [Anonymous Symbol]                       0x00002d2c   Section        0  hc32f4a0_interrupts.o(.text.IRQ057_Handler)
    [Anonymous Symbol]                       0x00002d40   Section        0  hc32f4a0_interrupts.o(.text.IRQ058_Handler)
    [Anonymous Symbol]                       0x00002d54   Section        0  hc32f4a0_interrupts.o(.text.IRQ059_Handler)
    [Anonymous Symbol]                       0x00002d68   Section        0  hc32f4a0_interrupts.o(.text.IRQ060_Handler)
    [Anonymous Symbol]                       0x00002d7c   Section        0  hc32f4a0_interrupts.o(.text.IRQ061_Handler)
    [Anonymous Symbol]                       0x00002d90   Section        0  hc32f4a0_interrupts.o(.text.IRQ062_Handler)
    [Anonymous Symbol]                       0x00002da4   Section        0  hc32f4a0_interrupts.o(.text.IRQ063_Handler)
    [Anonymous Symbol]                       0x00002db8   Section        0  hc32f4a0_interrupts.o(.text.IRQ064_Handler)
    [Anonymous Symbol]                       0x00002dcc   Section        0  hc32f4a0_interrupts.o(.text.IRQ065_Handler)
    [Anonymous Symbol]                       0x00002de0   Section        0  hc32f4a0_interrupts.o(.text.IRQ066_Handler)
    [Anonymous Symbol]                       0x00002df4   Section        0  hc32f4a0_interrupts.o(.text.IRQ067_Handler)
    [Anonymous Symbol]                       0x00002e08   Section        0  hc32f4a0_interrupts.o(.text.IRQ068_Handler)
    [Anonymous Symbol]                       0x00002e1c   Section        0  hc32f4a0_interrupts.o(.text.IRQ069_Handler)
    [Anonymous Symbol]                       0x00002e30   Section        0  hc32f4a0_interrupts.o(.text.IRQ070_Handler)
    [Anonymous Symbol]                       0x00002e44   Section        0  hc32f4a0_interrupts.o(.text.IRQ071_Handler)
    [Anonymous Symbol]                       0x00002e58   Section        0  hc32f4a0_interrupts.o(.text.IRQ072_Handler)
    [Anonymous Symbol]                       0x00002e6c   Section        0  hc32f4a0_interrupts.o(.text.IRQ073_Handler)
    [Anonymous Symbol]                       0x00002e80   Section        0  hc32f4a0_interrupts.o(.text.IRQ074_Handler)
    [Anonymous Symbol]                       0x00002e94   Section        0  hc32f4a0_interrupts.o(.text.IRQ075_Handler)
    [Anonymous Symbol]                       0x00002ea8   Section        0  hc32f4a0_interrupts.o(.text.IRQ076_Handler)
    [Anonymous Symbol]                       0x00002ebc   Section        0  hc32f4a0_interrupts.o(.text.IRQ077_Handler)
    [Anonymous Symbol]                       0x00002ed0   Section        0  hc32f4a0_interrupts.o(.text.IRQ078_Handler)
    [Anonymous Symbol]                       0x00002ee4   Section        0  hc32f4a0_interrupts.o(.text.IRQ079_Handler)
    [Anonymous Symbol]                       0x00002ef8   Section        0  hc32f4a0_interrupts.o(.text.IRQ080_Handler)
    [Anonymous Symbol]                       0x00002f0c   Section        0  hc32f4a0_interrupts.o(.text.IRQ081_Handler)
    [Anonymous Symbol]                       0x00002f20   Section        0  hc32f4a0_interrupts.o(.text.IRQ082_Handler)
    [Anonymous Symbol]                       0x00002f34   Section        0  hc32f4a0_interrupts.o(.text.IRQ083_Handler)
    [Anonymous Symbol]                       0x00002f48   Section        0  hc32f4a0_interrupts.o(.text.IRQ084_Handler)
    [Anonymous Symbol]                       0x00002f5c   Section        0  hc32f4a0_interrupts.o(.text.IRQ085_Handler)
    [Anonymous Symbol]                       0x00002f70   Section        0  hc32f4a0_interrupts.o(.text.IRQ086_Handler)
    [Anonymous Symbol]                       0x00002f84   Section        0  hc32f4a0_interrupts.o(.text.IRQ087_Handler)
    [Anonymous Symbol]                       0x00002f98   Section        0  hc32f4a0_interrupts.o(.text.IRQ088_Handler)
    [Anonymous Symbol]                       0x00002fac   Section        0  hc32f4a0_interrupts.o(.text.IRQ089_Handler)
    [Anonymous Symbol]                       0x00002fc0   Section        0  hc32f4a0_interrupts.o(.text.IRQ090_Handler)
    [Anonymous Symbol]                       0x00002fd4   Section        0  hc32f4a0_interrupts.o(.text.IRQ091_Handler)
    [Anonymous Symbol]                       0x00002fe8   Section        0  hc32f4a0_interrupts.o(.text.IRQ092_Handler)
    [Anonymous Symbol]                       0x00002ffc   Section        0  hc32f4a0_interrupts.o(.text.IRQ093_Handler)
    [Anonymous Symbol]                       0x00003010   Section        0  hc32f4a0_interrupts.o(.text.IRQ094_Handler)
    [Anonymous Symbol]                       0x00003024   Section        0  hc32f4a0_interrupts.o(.text.IRQ095_Handler)
    [Anonymous Symbol]                       0x00003038   Section        0  hc32f4a0_interrupts.o(.text.IRQ096_Handler)
    [Anonymous Symbol]                       0x0000304c   Section        0  hc32f4a0_interrupts.o(.text.IRQ097_Handler)
    [Anonymous Symbol]                       0x00003060   Section        0  hc32f4a0_interrupts.o(.text.IRQ098_Handler)
    [Anonymous Symbol]                       0x00003074   Section        0  hc32f4a0_interrupts.o(.text.IRQ099_Handler)
    [Anonymous Symbol]                       0x00003088   Section        0  hc32f4a0_interrupts.o(.text.IRQ100_Handler)
    [Anonymous Symbol]                       0x0000309c   Section        0  hc32f4a0_interrupts.o(.text.IRQ101_Handler)
    [Anonymous Symbol]                       0x000030b0   Section        0  hc32f4a0_interrupts.o(.text.IRQ102_Handler)
    [Anonymous Symbol]                       0x000030c4   Section        0  hc32f4a0_interrupts.o(.text.IRQ103_Handler)
    [Anonymous Symbol]                       0x000030d8   Section        0  hc32f4a0_interrupts.o(.text.IRQ104_Handler)
    [Anonymous Symbol]                       0x000030ec   Section        0  hc32f4a0_interrupts.o(.text.IRQ105_Handler)
    [Anonymous Symbol]                       0x00003100   Section        0  hc32f4a0_interrupts.o(.text.IRQ106_Handler)
    [Anonymous Symbol]                       0x00003114   Section        0  hc32f4a0_interrupts.o(.text.IRQ107_Handler)
    [Anonymous Symbol]                       0x00003128   Section        0  hc32f4a0_interrupts.o(.text.IRQ108_Handler)
    [Anonymous Symbol]                       0x0000313c   Section        0  hc32f4a0_interrupts.o(.text.IRQ109_Handler)
    [Anonymous Symbol]                       0x00003150   Section        0  hc32f4a0_interrupts.o(.text.IRQ110_Handler)
    [Anonymous Symbol]                       0x00003164   Section        0  hc32f4a0_interrupts.o(.text.IRQ111_Handler)
    [Anonymous Symbol]                       0x00003178   Section        0  hc32f4a0_interrupts.o(.text.IRQ112_Handler)
    [Anonymous Symbol]                       0x0000318c   Section        0  hc32f4a0_interrupts.o(.text.IRQ113_Handler)
    [Anonymous Symbol]                       0x000031a0   Section        0  hc32f4a0_interrupts.o(.text.IRQ114_Handler)
    [Anonymous Symbol]                       0x000031b4   Section        0  hc32f4a0_interrupts.o(.text.IRQ115_Handler)
    [Anonymous Symbol]                       0x000031c8   Section        0  hc32f4a0_interrupts.o(.text.IRQ116_Handler)
    [Anonymous Symbol]                       0x000031dc   Section        0  hc32f4a0_interrupts.o(.text.IRQ117_Handler)
    [Anonymous Symbol]                       0x000031f0   Section        0  hc32f4a0_interrupts.o(.text.IRQ118_Handler)
    [Anonymous Symbol]                       0x00003204   Section        0  hc32f4a0_interrupts.o(.text.IRQ119_Handler)
    [Anonymous Symbol]                       0x00003218   Section        0  hc32f4a0_interrupts.o(.text.IRQ120_Handler)
    [Anonymous Symbol]                       0x0000322c   Section        0  hc32f4a0_interrupts.o(.text.IRQ121_Handler)
    [Anonymous Symbol]                       0x00003240   Section        0  hc32f4a0_interrupts.o(.text.IRQ122_Handler)
    [Anonymous Symbol]                       0x00003254   Section        0  hc32f4a0_interrupts.o(.text.IRQ123_Handler)
    [Anonymous Symbol]                       0x00003268   Section        0  hc32f4a0_interrupts.o(.text.IRQ124_Handler)
    [Anonymous Symbol]                       0x0000327c   Section        0  hc32f4a0_interrupts.o(.text.IRQ125_Handler)
    [Anonymous Symbol]                       0x00003290   Section        0  hc32f4a0_interrupts.o(.text.IRQ126_Handler)
    [Anonymous Symbol]                       0x000032a4   Section        0  hc32f4a0_interrupts.o(.text.IRQ127_Handler)
    [Anonymous Symbol]                       0x000032b8   Section        0  hc32f4a0_interrupts.o(.text.IRQ128_Handler)
    [Anonymous Symbol]                       0x000034ec   Section        0  hc32f4a0_interrupts.o(.text.IRQ129_Handler)
    [Anonymous Symbol]                       0x00003d80   Section        0  hc32f4a0_interrupts.o(.text.IRQ130_Handler)
    [Anonymous Symbol]                       0x00004580   Section        0  hc32f4a0_interrupts.o(.text.IRQ131_Handler)
    [Anonymous Symbol]                       0x00004b08   Section        0  hc32f4a0_interrupts.o(.text.IRQ132_Handler)
    [Anonymous Symbol]                       0x0000519c   Section        0  hc32f4a0_interrupts.o(.text.IRQ133_Handler)
    [Anonymous Symbol]                       0x00005830   Section        0  hc32f4a0_interrupts.o(.text.IRQ134_Handler)
    [Anonymous Symbol]                       0x00005c88   Section        0  hc32f4a0_interrupts.o(.text.IRQ135_Handler)
    [Anonymous Symbol]                       0x00006454   Section        0  hc32f4a0_interrupts.o(.text.IRQ136_Handler)
    [Anonymous Symbol]                       0x00006c20   Section        0  hc32f4a0_interrupts.o(.text.IRQ137_Handler)
    [Anonymous Symbol]                       0x0000716c   Section        0  hc32f4a0_interrupts.o(.text.IRQ138_Handler)
    [Anonymous Symbol]                       0x00007b6c   Section        0  hc32f4a0_interrupts.o(.text.IRQ139_Handler)
    [Anonymous Symbol]                       0x00008430   Section        0  hc32f4a0_interrupts.o(.text.IRQ140_Handler)
    [Anonymous Symbol]                       0x0000899c   Section        0  hc32f4a0_interrupts.o(.text.IRQ141_Handler)
    [Anonymous Symbol]                       0x00008f64   Section        0  hc32f4a0_interrupts.o(.text.IRQ142_Handler)
    [Anonymous Symbol]                       0x00009384   Section        0  hc32f4a0_interrupts.o(.text.IRQ143_Handler)
    [Anonymous Symbol]                       0x000096f8   Section        0  hc32f4a0_interrupts.o(.text.MAU_Sqrt_IrqHandler)
    [Anonymous Symbol]                       0x000096fc   Section        0  hc32f4a0_interrupts.o(.text.MemManage_Handler)
    [Anonymous Symbol]                       0x00009704   Section        0  hc32f4a0_interrupts.o(.text.MemManage_IrqHandler)
    [Anonymous Symbol]                       0x00009708   Section        0  hc32f4a0_interrupts.o(.text.NFC_IrqHandler)
    [Anonymous Symbol]                       0x0000970c   Section        0  hc32f4a0_interrupts.o(.text.NMI_Handler)
    [Anonymous Symbol]                       0x00009714   Section        0  hc32f4a0_interrupts.o(.text.NMI_IrqHandler)
    [Anonymous Symbol]                       0x00009738   Section        0  bsp_clk.o(.text.PLLAInit)
    [Anonymous Symbol]                       0x00009788   Section        0  bsp_clk.o(.text.PLLHInit)
    PWC_FCG0_Lock                            0x00009809   Thumb Code    18  bsp_clk.o(.text.PWC_FCG0_Lock)
    [Anonymous Symbol]                       0x00009808   Section        0  bsp_clk.o(.text.PWC_FCG0_Lock)
    PWC_FCG0_Unlock                          0x0000981d   Thumb Code    18  bsp_clk.o(.text.PWC_FCG0_Unlock)
    [Anonymous Symbol]                       0x0000981c   Section        0  bsp_clk.o(.text.PWC_FCG0_Unlock)
    [Anonymous Symbol]                       0x00009830   Section        0  hc32f4a0_pwc.o(.text.PWC_Fcg1PeriphClockCmd)
    [Anonymous Symbol]                       0x00009870   Section        0  hc32f4a0_pwc.o(.text.PWC_Fcg2PeriphClockCmd)
    [Anonymous Symbol]                       0x000098b0   Section        0  hc32f4a0_pwc.o(.text.PWC_Fcg3PeriphClockCmd)
    PWC_Lock                                 0x000098f1   Thumb Code    36  main.o(.text.PWC_Lock)
    [Anonymous Symbol]                       0x000098f0   Section        0  main.o(.text.PWC_Lock)
    PWC_Lock                                 0x00009915   Thumb Code    36  bsp_clk.o(.text.PWC_Lock)
    [Anonymous Symbol]                       0x00009914   Section        0  bsp_clk.o(.text.PWC_Lock)
    PWC_Lock                                 0x00009939   Thumb Code    36  bsp_i2c.o(.text.PWC_Lock)
    [Anonymous Symbol]                       0x00009938   Section        0  bsp_i2c.o(.text.PWC_Lock)
    PWC_Lock                                 0x0000995d   Thumb Code    36  bsp_timer0.o(.text.PWC_Lock)
    [Anonymous Symbol]                       0x0000995c   Section        0  bsp_timer0.o(.text.PWC_Lock)
    PWC_Lock                                 0x00009981   Thumb Code    36  bsp_uart.o(.text.PWC_Lock)
    [Anonymous Symbol]                       0x00009980   Section        0  bsp_uart.o(.text.PWC_Lock)
    [Anonymous Symbol]                       0x000099a4   Section        0  hc32f4a0_interrupts.o(.text.PWC_Pvd1_IrqHandler)
    [Anonymous Symbol]                       0x000099a8   Section        0  hc32f4a0_interrupts.o(.text.PWC_Pvd2_IrqHandler)
    PWC_Unlock                               0x000099ad   Thumb Code    30  main.o(.text.PWC_Unlock)
    [Anonymous Symbol]                       0x000099ac   Section        0  main.o(.text.PWC_Unlock)
    PWC_Unlock                               0x000099cd   Thumb Code    30  bsp_clk.o(.text.PWC_Unlock)
    [Anonymous Symbol]                       0x000099cc   Section        0  bsp_clk.o(.text.PWC_Unlock)
    PWC_Unlock                               0x000099ed   Thumb Code    30  bsp_i2c.o(.text.PWC_Unlock)
    [Anonymous Symbol]                       0x000099ec   Section        0  bsp_i2c.o(.text.PWC_Unlock)
    PWC_Unlock                               0x00009a0d   Thumb Code    30  bsp_timer0.o(.text.PWC_Unlock)
    [Anonymous Symbol]                       0x00009a0c   Section        0  bsp_timer0.o(.text.PWC_Unlock)
    PWC_Unlock                               0x00009a2d   Thumb Code    30  bsp_uart.o(.text.PWC_Unlock)
    [Anonymous Symbol]                       0x00009a2c   Section        0  bsp_uart.o(.text.PWC_Unlock)
    [Anonymous Symbol]                       0x00009a4c   Section        0  hc32f4a0_interrupts.o(.text.PWC_WakeupTimer_IrqHandler)
    [Anonymous Symbol]                       0x00009a50   Section        0  bsp_clk.o(.text.Peripheral_WE)
    [Anonymous Symbol]                       0x00009a6c   Section        0  bsp_clk.o(.text.Peripheral_WP)
    [Anonymous Symbol]                       0x00009a88   Section        0  hc32f4a0_interrupts.o(.text.QSPI_Err_IrqHandler)
    [Anonymous Symbol]                       0x00009a8c   Section        0  hc32f4a0_rmu.o(.text.RMU_ClrStatus)
    [Anonymous Symbol]                       0x00009aac   Section        0  hc32f4a0_interrupts.o(.text.RTC_Alarm_IrqHandler)
    [Anonymous Symbol]                       0x00009ab0   Section        0  hc32f4a0_interrupts.o(.text.RTC_Period_IrqHandler)
    [Anonymous Symbol]                       0x00009ab4   Section        0  hc32f4a0_interrupts.o(.text.RTC_TimeStamp0_IrqHandler)
    [Anonymous Symbol]                       0x00009ab8   Section        0  hc32f4a0_interrupts.o(.text.RTC_TimeStamp1_IrqHandler)
    [Anonymous Symbol]                       0x00009abc   Section        0  hc32f4a0_interrupts.o(.text.SDIOC_1_Error_IrqHandler)
    [Anonymous Symbol]                       0x00009ac0   Section        0  hc32f4a0_interrupts.o(.text.SDIOC_1_Normal_IrqHandler)
    [Anonymous Symbol]                       0x00009ac4   Section        0  hc32f4a0_interrupts.o(.text.SDIOC_2_Error_IrqHandler)
    [Anonymous Symbol]                       0x00009ac8   Section        0  hc32f4a0_interrupts.o(.text.SDIOC_2_Normal_IrqHandler)
    [Anonymous Symbol]                       0x00009acc   Section        0  segger_rtt.o(.text.SEGGER_RTT_Write)
    [Anonymous Symbol]                       0x00009b18   Section        0  segger_rtt.o(.text.SEGGER_RTT_WriteNoLock)
    [Anonymous Symbol]                       0x00009bcc   Section        0  segger_rtt.o(.text.SEGGER_RTT_WriteString)
    [Anonymous Symbol]                       0x00009bec   Section        0  segger_rtt_printf.o(.text.SEGGER_RTT_printf)
    [Anonymous Symbol]                       0x00009c18   Section        0  segger_rtt_printf.o(.text.SEGGER_RTT_vprintf)
    [Anonymous Symbol]                       0x00009f60   Section        0  hc32f4a0_interrupts.o(.text.SPI_1_Err_IrqHandler)
    [Anonymous Symbol]                       0x00009f64   Section        0  hc32f4a0_interrupts.o(.text.SPI_1_Idle_IrqHandler)
    [Anonymous Symbol]                       0x00009f68   Section        0  hc32f4a0_interrupts.o(.text.SPI_1_RxEnd_IrqHandler)
    [Anonymous Symbol]                       0x00009f6c   Section        0  hc32f4a0_interrupts.o(.text.SPI_1_TxEmpty_IrqHandler)
    [Anonymous Symbol]                       0x00009f70   Section        0  hc32f4a0_interrupts.o(.text.SPI_2_Err_IrqHandler)
    [Anonymous Symbol]                       0x00009f74   Section        0  hc32f4a0_interrupts.o(.text.SPI_2_Idle_IrqHandler)
    [Anonymous Symbol]                       0x00009f78   Section        0  hc32f4a0_interrupts.o(.text.SPI_2_RxEnd_IrqHandler)
    [Anonymous Symbol]                       0x00009f7c   Section        0  hc32f4a0_interrupts.o(.text.SPI_2_TxEmpty_IrqHandler)
    [Anonymous Symbol]                       0x00009f80   Section        0  hc32f4a0_interrupts.o(.text.SPI_3_Err_IrqHandler)
    [Anonymous Symbol]                       0x00009f84   Section        0  hc32f4a0_interrupts.o(.text.SPI_3_Idle_IrqHandler)
    [Anonymous Symbol]                       0x00009f88   Section        0  hc32f4a0_interrupts.o(.text.SPI_3_RxEnd_IrqHandler)
    [Anonymous Symbol]                       0x00009f8c   Section        0  hc32f4a0_interrupts.o(.text.SPI_3_TxEmpty_IrqHandler)
    [Anonymous Symbol]                       0x00009f90   Section        0  hc32f4a0_interrupts.o(.text.SPI_4_Err_IrqHandler)
    [Anonymous Symbol]                       0x00009f94   Section        0  hc32f4a0_interrupts.o(.text.SPI_4_Idle_IrqHandler)
    [Anonymous Symbol]                       0x00009f98   Section        0  hc32f4a0_interrupts.o(.text.SPI_4_RxEnd_IrqHandler)
    [Anonymous Symbol]                       0x00009f9c   Section        0  hc32f4a0_interrupts.o(.text.SPI_4_TxEmpty_IrqHandler)
    [Anonymous Symbol]                       0x00009fa0   Section        0  hc32f4a0_interrupts.o(.text.SPI_5_Err_IrqHandler)
    [Anonymous Symbol]                       0x00009fa4   Section        0  hc32f4a0_interrupts.o(.text.SPI_5_Idle_IrqHandler)
    [Anonymous Symbol]                       0x00009fa8   Section        0  hc32f4a0_interrupts.o(.text.SPI_5_RxEnd_IrqHandler)
    [Anonymous Symbol]                       0x00009fac   Section        0  hc32f4a0_interrupts.o(.text.SPI_5_TxEmpty_IrqHandler)
    [Anonymous Symbol]                       0x00009fb0   Section        0  hc32f4a0_interrupts.o(.text.SPI_6_Err_IrqHandler)
    [Anonymous Symbol]                       0x00009fb4   Section        0  hc32f4a0_interrupts.o(.text.SPI_6_Idle_IrqHandler)
    [Anonymous Symbol]                       0x00009fb8   Section        0  hc32f4a0_interrupts.o(.text.SPI_6_RxEnd_IrqHandler)
    [Anonymous Symbol]                       0x00009fbc   Section        0  hc32f4a0_interrupts.o(.text.SPI_6_TxEmpty_IrqHandler)
    [Anonymous Symbol]                       0x00009fc0   Section        0  hc32f4a0_sram.o(.text.SRAM_SetWaitCycle)
    SRAM_WTCR_Lock                           0x0000a06d   Thumb Code    14  bsp_clk.o(.text.SRAM_WTCR_Lock)
    [Anonymous Symbol]                       0x0000a06c   Section        0  bsp_clk.o(.text.SRAM_WTCR_Lock)
    SRAM_WTCR_Unlock                         0x0000a07d   Thumb Code    14  bsp_clk.o(.text.SRAM_WTCR_Unlock)
    [Anonymous Symbol]                       0x0000a07c   Section        0  bsp_clk.o(.text.SRAM_WTCR_Unlock)
    [Anonymous Symbol]                       0x0000a08c   Section        0  hc32f4a0_interrupts.o(.text.SWDT_IrqHandler)
    [Anonymous Symbol]                       0x0000a090   Section        0  task_start.o(.text.Start_Task_Create)
    [Anonymous Symbol]                       0x0000a094   Section        0  task_start.o(.text.Start_Task_del)
    [Anonymous Symbol]                       0x0000a098   Section        0  task_start.o(.text.Start_Task_resume)
    [Anonymous Symbol]                       0x0000a09c   Section        0  task_start.o(.text.Start_Task_stop)
    SysTick_Config                           0x0000a0a1   Thumb Code    82  hc32f4a0_utility.o(.text.SysTick_Config)
    [Anonymous Symbol]                       0x0000a0a0   Section        0  hc32f4a0_utility.o(.text.SysTick_Config)
    [Anonymous Symbol]                       0x0000a0f4   Section        0  hc32f4a0_utility.o(.text.SysTick_GetTick)
    [Anonymous Symbol]                       0x0000a100   Section        0  board.o(.text.SysTick_Handler)
    [Anonymous Symbol]                       0x0000a114   Section        0  hc32f4a0_utility.o(.text.SysTick_IncTick)
    [Anonymous Symbol]                       0x0000a130   Section        0  hc32f4a0_utility.o(.text.SysTick_Init)
    [Anonymous Symbol]                       0x0000a1a0   Section        0  system_hc32f4a0.o(.text.SystemCoreClockUpdate)
    [Anonymous Symbol]                       0x0000a2f4   Section        0  system_hc32f4a0.o(.text.SystemInit)
    [Anonymous Symbol]                       0x0000a30c   Section        0  tca9539.o(.text.TCA9539_CFG)
    [Anonymous Symbol]                       0x0000a34c   Section        0  tca9539.o(.text.TCA9539_cmd)
    [Anonymous Symbol]                       0x0000a394   Section        0  hc32f4a0_interrupts.o(.text.TMR0_1_CmpA_IrqHandler)
    [Anonymous Symbol]                       0x0000a398   Section        0  hc32f4a0_interrupts.o(.text.TMR0_1_CmpB_IrqHandler)
    [Anonymous Symbol]                       0x0000a39c   Section        0  hc32f4a0_interrupts.o(.text.TMR0_2_CmpA_IrqHandler)
    [Anonymous Symbol]                       0x0000a3a0   Section        0  hc32f4a0_interrupts.o(.text.TMR0_2_CmpB_IrqHandler)
    [Anonymous Symbol]                       0x0000a3a4   Section        0  hc32f4a0_tmr0.o(.text.TMR0_Cmd)
    [Anonymous Symbol]                       0x0000a3e4   Section        0  hc32f4a0_tmr0.o(.text.TMR0_HWTrigCmd)
    [Anonymous Symbol]                       0x0000a438   Section        0  hc32f4a0_tmr0.o(.text.TMR0_Init)
    [Anonymous Symbol]                       0x0000a4e4   Section        0  hc32f4a0_tmr0.o(.text.TMR0_SetCntVal)
    [Anonymous Symbol]                       0x0000a50c   Section        0  hc32f4a0_tmr0.o(.text.TMR0_StructInit)
    [Anonymous Symbol]                       0x0000a54c   Section        0  hc32f4a0_interrupts.o(.text.TMR2_1_CmpA_IrqHandler)
    [Anonymous Symbol]                       0x0000a550   Section        0  hc32f4a0_interrupts.o(.text.TMR2_1_CmpB_IrqHandler)
    [Anonymous Symbol]                       0x0000a554   Section        0  hc32f4a0_interrupts.o(.text.TMR2_1_OvfA_IrqHandler)
    [Anonymous Symbol]                       0x0000a558   Section        0  hc32f4a0_interrupts.o(.text.TMR2_1_OvfB_IrqHandler)
    [Anonymous Symbol]                       0x0000a55c   Section        0  hc32f4a0_interrupts.o(.text.TMR2_2_CmpA_IrqHandler)
    [Anonymous Symbol]                       0x0000a560   Section        0  hc32f4a0_interrupts.o(.text.TMR2_2_CmpB_IrqHandler)
    [Anonymous Symbol]                       0x0000a564   Section        0  hc32f4a0_interrupts.o(.text.TMR2_2_OvfA_IrqHandler)
    [Anonymous Symbol]                       0x0000a568   Section        0  hc32f4a0_interrupts.o(.text.TMR2_2_OvfB_IrqHandler)
    [Anonymous Symbol]                       0x0000a56c   Section        0  hc32f4a0_interrupts.o(.text.TMR2_3_CmpA_IrqHandler)
    [Anonymous Symbol]                       0x0000a570   Section        0  hc32f4a0_interrupts.o(.text.TMR2_3_CmpB_IrqHandler)
    [Anonymous Symbol]                       0x0000a574   Section        0  hc32f4a0_interrupts.o(.text.TMR2_3_OvfA_IrqHandler)
    [Anonymous Symbol]                       0x0000a578   Section        0  hc32f4a0_interrupts.o(.text.TMR2_3_OvfB_IrqHandler)
    [Anonymous Symbol]                       0x0000a57c   Section        0  hc32f4a0_interrupts.o(.text.TMR2_4_CmpA_IrqHandler)
    [Anonymous Symbol]                       0x0000a580   Section        0  hc32f4a0_interrupts.o(.text.TMR2_4_CmpB_IrqHandler)
    [Anonymous Symbol]                       0x0000a584   Section        0  hc32f4a0_interrupts.o(.text.TMR2_4_OvfA_IrqHandler)
    [Anonymous Symbol]                       0x0000a588   Section        0  hc32f4a0_interrupts.o(.text.TMR2_4_OvfB_IrqHandler)
    [Anonymous Symbol]                       0x0000a58c   Section        0  hc32f4a0_interrupts.o(.text.TMR4_1_GCmpUH_IrqHandler)
    [Anonymous Symbol]                       0x0000a590   Section        0  hc32f4a0_interrupts.o(.text.TMR4_1_GCmpUL_IrqHandler)
    [Anonymous Symbol]                       0x0000a594   Section        0  hc32f4a0_interrupts.o(.text.TMR4_1_GCmpVH_IrqHandler)
    [Anonymous Symbol]                       0x0000a598   Section        0  hc32f4a0_interrupts.o(.text.TMR4_1_GCmpVL_IrqHandler)
    [Anonymous Symbol]                       0x0000a59c   Section        0  hc32f4a0_interrupts.o(.text.TMR4_1_GCmpWH_IrqHandler)
    [Anonymous Symbol]                       0x0000a5a0   Section        0  hc32f4a0_interrupts.o(.text.TMR4_1_GCmpWL_IrqHandler)
    [Anonymous Symbol]                       0x0000a5a4   Section        0  hc32f4a0_interrupts.o(.text.TMR4_1_Ovf_IrqHandler)
    [Anonymous Symbol]                       0x0000a5a8   Section        0  hc32f4a0_interrupts.o(.text.TMR4_1_ReloadU_IrqHandler)
    [Anonymous Symbol]                       0x0000a5ac   Section        0  hc32f4a0_interrupts.o(.text.TMR4_1_Udf_IrqHandler)
    [Anonymous Symbol]                       0x0000a5b0   Section        0  hc32f4a0_interrupts.o(.text.TMR4_2_GCmpUH_IrqHandler)
    [Anonymous Symbol]                       0x0000a5b4   Section        0  hc32f4a0_interrupts.o(.text.TMR4_2_GCmpUL_IrqHandler)
    [Anonymous Symbol]                       0x0000a5b8   Section        0  hc32f4a0_interrupts.o(.text.TMR4_2_GCmpVH_IrqHandler)
    [Anonymous Symbol]                       0x0000a5bc   Section        0  hc32f4a0_interrupts.o(.text.TMR4_2_GCmpVL_IrqHandler)
    [Anonymous Symbol]                       0x0000a5c0   Section        0  hc32f4a0_interrupts.o(.text.TMR4_2_GCmpWH_IrqHandler)
    [Anonymous Symbol]                       0x0000a5c4   Section        0  hc32f4a0_interrupts.o(.text.TMR4_2_GCmpWL_IrqHandler)
    [Anonymous Symbol]                       0x0000a5c8   Section        0  hc32f4a0_interrupts.o(.text.TMR4_2_Ovf_IrqHandler)
    [Anonymous Symbol]                       0x0000a5cc   Section        0  hc32f4a0_interrupts.o(.text.TMR4_2_ReloadU_IrqHandler)
    [Anonymous Symbol]                       0x0000a5d0   Section        0  hc32f4a0_interrupts.o(.text.TMR4_2_Udf_IrqHandler)
    [Anonymous Symbol]                       0x0000a5d4   Section        0  hc32f4a0_interrupts.o(.text.TMR4_3_GCmpUH_IrqHandler)
    [Anonymous Symbol]                       0x0000a5d8   Section        0  hc32f4a0_interrupts.o(.text.TMR4_3_GCmpUL_IrqHandler)
    [Anonymous Symbol]                       0x0000a5dc   Section        0  hc32f4a0_interrupts.o(.text.TMR4_3_GCmpVH_IrqHandler)
    [Anonymous Symbol]                       0x0000a5e0   Section        0  hc32f4a0_interrupts.o(.text.TMR4_3_GCmpVL_IrqHandler)
    [Anonymous Symbol]                       0x0000a5e4   Section        0  hc32f4a0_interrupts.o(.text.TMR4_3_GCmpWH_IrqHandler)
    [Anonymous Symbol]                       0x0000a5e8   Section        0  hc32f4a0_interrupts.o(.text.TMR4_3_GCmpWL_IrqHandler)
    [Anonymous Symbol]                       0x0000a5ec   Section        0  hc32f4a0_interrupts.o(.text.TMR4_3_Ovf_IrqHandler)
    [Anonymous Symbol]                       0x0000a5f0   Section        0  hc32f4a0_interrupts.o(.text.TMR4_3_ReloadU_IrqHandler)
    [Anonymous Symbol]                       0x0000a5f4   Section        0  hc32f4a0_interrupts.o(.text.TMR4_3_Udf_IrqHandler)
    [Anonymous Symbol]                       0x0000a5f8   Section        0  hc32f4a0_interrupts.o(.text.TMR6_1_GCmpA_IrqHandler)
    [Anonymous Symbol]                       0x0000a5fc   Section        0  hc32f4a0_interrupts.o(.text.TMR6_1_GCmpB_IrqHandler)
    [Anonymous Symbol]                       0x0000a600   Section        0  hc32f4a0_interrupts.o(.text.TMR6_1_GCmpC_IrqHandler)
    [Anonymous Symbol]                       0x0000a604   Section        0  hc32f4a0_interrupts.o(.text.TMR6_1_GCmpD_IrqHandler)
    [Anonymous Symbol]                       0x0000a608   Section        0  hc32f4a0_interrupts.o(.text.TMR6_1_GCmpE_IrqHandler)
    [Anonymous Symbol]                       0x0000a60c   Section        0  hc32f4a0_interrupts.o(.text.TMR6_1_GCmpF_IrqHandler)
    [Anonymous Symbol]                       0x0000a610   Section        0  hc32f4a0_interrupts.o(.text.TMR6_1_GOvf_IrqHandler)
    [Anonymous Symbol]                       0x0000a614   Section        0  hc32f4a0_interrupts.o(.text.TMR6_1_GUdf_IrqHandler)
    [Anonymous Symbol]                       0x0000a618   Section        0  hc32f4a0_interrupts.o(.text.TMR6_1_Gdte_IrqHandler)
    [Anonymous Symbol]                       0x0000a61c   Section        0  hc32f4a0_interrupts.o(.text.TMR6_1_SCmpDownA_IrqHandler)
    [Anonymous Symbol]                       0x0000a620   Section        0  hc32f4a0_interrupts.o(.text.TMR6_1_SCmpDownB_IrqHandler)
    [Anonymous Symbol]                       0x0000a624   Section        0  hc32f4a0_interrupts.o(.text.TMR6_1_SCmpUpA_IrqHandler)
    [Anonymous Symbol]                       0x0000a628   Section        0  hc32f4a0_interrupts.o(.text.TMR6_1_SCmpUpB_IrqHandler)
    [Anonymous Symbol]                       0x0000a62c   Section        0  hc32f4a0_interrupts.o(.text.TMR6_2_GCmpA_IrqHandler)
    [Anonymous Symbol]                       0x0000a630   Section        0  hc32f4a0_interrupts.o(.text.TMR6_2_GCmpB_IrqHandler)
    [Anonymous Symbol]                       0x0000a634   Section        0  hc32f4a0_interrupts.o(.text.TMR6_2_GCmpC_IrqHandler)
    [Anonymous Symbol]                       0x0000a638   Section        0  hc32f4a0_interrupts.o(.text.TMR6_2_GCmpD_IrqHandler)
    [Anonymous Symbol]                       0x0000a63c   Section        0  hc32f4a0_interrupts.o(.text.TMR6_2_GCmpE_IrqHandler)
    [Anonymous Symbol]                       0x0000a640   Section        0  hc32f4a0_interrupts.o(.text.TMR6_2_GCmpF_IrqHandler)
    [Anonymous Symbol]                       0x0000a644   Section        0  hc32f4a0_interrupts.o(.text.TMR6_2_GOvf_IrqHandler)
    [Anonymous Symbol]                       0x0000a648   Section        0  hc32f4a0_interrupts.o(.text.TMR6_2_GUdf_IrqHandler)
    [Anonymous Symbol]                       0x0000a64c   Section        0  hc32f4a0_interrupts.o(.text.TMR6_2_Gdte_IrqHandler)
    [Anonymous Symbol]                       0x0000a650   Section        0  hc32f4a0_interrupts.o(.text.TMR6_2_SCmpDownA_IrqHandler)
    [Anonymous Symbol]                       0x0000a654   Section        0  hc32f4a0_interrupts.o(.text.TMR6_2_SCmpDownB_IrqHandler)
    [Anonymous Symbol]                       0x0000a658   Section        0  hc32f4a0_interrupts.o(.text.TMR6_2_SCmpUpA_IrqHandler)
    [Anonymous Symbol]                       0x0000a65c   Section        0  hc32f4a0_interrupts.o(.text.TMR6_2_SCmpUpB_IrqHandler)
    [Anonymous Symbol]                       0x0000a660   Section        0  hc32f4a0_interrupts.o(.text.TMR6_3_GCmpA_IrqHandler)
    [Anonymous Symbol]                       0x0000a664   Section        0  hc32f4a0_interrupts.o(.text.TMR6_3_GCmpB_IrqHandler)
    [Anonymous Symbol]                       0x0000a668   Section        0  hc32f4a0_interrupts.o(.text.TMR6_3_GCmpC_IrqHandler)
    [Anonymous Symbol]                       0x0000a66c   Section        0  hc32f4a0_interrupts.o(.text.TMR6_3_GCmpD_IrqHandler)
    [Anonymous Symbol]                       0x0000a670   Section        0  hc32f4a0_interrupts.o(.text.TMR6_3_GCmpE_IrqHandler)
    [Anonymous Symbol]                       0x0000a674   Section        0  hc32f4a0_interrupts.o(.text.TMR6_3_GCmpF_IrqHandler)
    [Anonymous Symbol]                       0x0000a678   Section        0  hc32f4a0_interrupts.o(.text.TMR6_3_GOvf_IrqHandler)
    [Anonymous Symbol]                       0x0000a67c   Section        0  hc32f4a0_interrupts.o(.text.TMR6_3_GUdf_IrqHandler)
    [Anonymous Symbol]                       0x0000a680   Section        0  hc32f4a0_interrupts.o(.text.TMR6_3_Gdte_IrqHandler)
    [Anonymous Symbol]                       0x0000a684   Section        0  hc32f4a0_interrupts.o(.text.TMR6_3_SCmpDownA_IrqHandler)
    [Anonymous Symbol]                       0x0000a688   Section        0  hc32f4a0_interrupts.o(.text.TMR6_3_SCmpDownB_IrqHandler)
    [Anonymous Symbol]                       0x0000a68c   Section        0  hc32f4a0_interrupts.o(.text.TMR6_3_SCmpUpA_IrqHandler)
    [Anonymous Symbol]                       0x0000a690   Section        0  hc32f4a0_interrupts.o(.text.TMR6_3_SCmpUpB_IrqHandler)
    [Anonymous Symbol]                       0x0000a694   Section        0  hc32f4a0_interrupts.o(.text.TMR6_4_GCmpA_IrqHandler)
    [Anonymous Symbol]                       0x0000a698   Section        0  hc32f4a0_interrupts.o(.text.TMR6_4_GCmpB_IrqHandler)
    [Anonymous Symbol]                       0x0000a69c   Section        0  hc32f4a0_interrupts.o(.text.TMR6_4_GCmpC_IrqHandler)
    [Anonymous Symbol]                       0x0000a6a0   Section        0  hc32f4a0_interrupts.o(.text.TMR6_4_GCmpD_IrqHandler)
    [Anonymous Symbol]                       0x0000a6a4   Section        0  hc32f4a0_interrupts.o(.text.TMR6_4_GCmpE_IrqHandler)
    [Anonymous Symbol]                       0x0000a6a8   Section        0  hc32f4a0_interrupts.o(.text.TMR6_4_GCmpF_IrqHandler)
    [Anonymous Symbol]                       0x0000a6ac   Section        0  hc32f4a0_interrupts.o(.text.TMR6_4_GOvf_IrqHandler)
    [Anonymous Symbol]                       0x0000a6b0   Section        0  hc32f4a0_interrupts.o(.text.TMR6_4_GUdf_IrqHandler)
    [Anonymous Symbol]                       0x0000a6b4   Section        0  hc32f4a0_interrupts.o(.text.TMR6_4_Gdte_IrqHandler)
    [Anonymous Symbol]                       0x0000a6b8   Section        0  hc32f4a0_interrupts.o(.text.TMR6_4_SCmpDownA_IrqHandler)
    [Anonymous Symbol]                       0x0000a6bc   Section        0  hc32f4a0_interrupts.o(.text.TMR6_4_SCmpDownB_IrqHandler)
    [Anonymous Symbol]                       0x0000a6c0   Section        0  hc32f4a0_interrupts.o(.text.TMR6_4_SCmpUpA_IrqHandler)
    [Anonymous Symbol]                       0x0000a6c4   Section        0  hc32f4a0_interrupts.o(.text.TMR6_4_SCmpUpB_IrqHandler)
    [Anonymous Symbol]                       0x0000a6c8   Section        0  hc32f4a0_interrupts.o(.text.TMR6_5_GCmpA_IrqHandler)
    [Anonymous Symbol]                       0x0000a6cc   Section        0  hc32f4a0_interrupts.o(.text.TMR6_5_GCmpB_IrqHandler)
    [Anonymous Symbol]                       0x0000a6d0   Section        0  hc32f4a0_interrupts.o(.text.TMR6_5_GCmpC_IrqHandler)
    [Anonymous Symbol]                       0x0000a6d4   Section        0  hc32f4a0_interrupts.o(.text.TMR6_5_GCmpD_IrqHandler)
    [Anonymous Symbol]                       0x0000a6d8   Section        0  hc32f4a0_interrupts.o(.text.TMR6_5_GCmpE_IrqHandler)
    [Anonymous Symbol]                       0x0000a6dc   Section        0  hc32f4a0_interrupts.o(.text.TMR6_5_GCmpF_IrqHandler)
    [Anonymous Symbol]                       0x0000a6e0   Section        0  hc32f4a0_interrupts.o(.text.TMR6_5_GOvf_IrqHandler)
    [Anonymous Symbol]                       0x0000a6e4   Section        0  hc32f4a0_interrupts.o(.text.TMR6_5_GUdf_IrqHandler)
    [Anonymous Symbol]                       0x0000a6e8   Section        0  hc32f4a0_interrupts.o(.text.TMR6_5_Gdte_IrqHandler)
    [Anonymous Symbol]                       0x0000a6ec   Section        0  hc32f4a0_interrupts.o(.text.TMR6_5_SCmpDownA_IrqHandler)
    [Anonymous Symbol]                       0x0000a6f0   Section        0  hc32f4a0_interrupts.o(.text.TMR6_5_SCmpDownB_IrqHandler)
    [Anonymous Symbol]                       0x0000a6f4   Section        0  hc32f4a0_interrupts.o(.text.TMR6_5_SCmpUpA_IrqHandler)
    [Anonymous Symbol]                       0x0000a6f8   Section        0  hc32f4a0_interrupts.o(.text.TMR6_5_SCmpUpB_IrqHandler)
    [Anonymous Symbol]                       0x0000a6fc   Section        0  hc32f4a0_interrupts.o(.text.TMR6_6_GCmpA_IrqHandler)
    [Anonymous Symbol]                       0x0000a700   Section        0  hc32f4a0_interrupts.o(.text.TMR6_6_GCmpB_IrqHandler)
    [Anonymous Symbol]                       0x0000a704   Section        0  hc32f4a0_interrupts.o(.text.TMR6_6_GCmpC_IrqHandler)
    [Anonymous Symbol]                       0x0000a708   Section        0  hc32f4a0_interrupts.o(.text.TMR6_6_GCmpD_IrqHandler)
    [Anonymous Symbol]                       0x0000a70c   Section        0  hc32f4a0_interrupts.o(.text.TMR6_6_GCmpE_IrqHandler)
    [Anonymous Symbol]                       0x0000a710   Section        0  hc32f4a0_interrupts.o(.text.TMR6_6_GCmpF_IrqHandler)
    [Anonymous Symbol]                       0x0000a714   Section        0  hc32f4a0_interrupts.o(.text.TMR6_6_GOvf_IrqHandler)
    [Anonymous Symbol]                       0x0000a718   Section        0  hc32f4a0_interrupts.o(.text.TMR6_6_GUdf_IrqHandler)
    [Anonymous Symbol]                       0x0000a71c   Section        0  hc32f4a0_interrupts.o(.text.TMR6_6_Gdte_IrqHandler)
    [Anonymous Symbol]                       0x0000a720   Section        0  hc32f4a0_interrupts.o(.text.TMR6_6_SCmpDownA_IrqHandler)
    [Anonymous Symbol]                       0x0000a724   Section        0  hc32f4a0_interrupts.o(.text.TMR6_6_SCmpDownB_IrqHandler)
    [Anonymous Symbol]                       0x0000a728   Section        0  hc32f4a0_interrupts.o(.text.TMR6_6_SCmpUpA_IrqHandler)
    [Anonymous Symbol]                       0x0000a72c   Section        0  hc32f4a0_interrupts.o(.text.TMR6_6_SCmpUpB_IrqHandler)
    [Anonymous Symbol]                       0x0000a730   Section        0  hc32f4a0_interrupts.o(.text.TMR6_7_GCmpA_IrqHandler)
    [Anonymous Symbol]                       0x0000a734   Section        0  hc32f4a0_interrupts.o(.text.TMR6_7_GCmpB_IrqHandler)
    [Anonymous Symbol]                       0x0000a738   Section        0  hc32f4a0_interrupts.o(.text.TMR6_7_GCmpC_IrqHandler)
    [Anonymous Symbol]                       0x0000a73c   Section        0  hc32f4a0_interrupts.o(.text.TMR6_7_GCmpD_IrqHandler)
    [Anonymous Symbol]                       0x0000a740   Section        0  hc32f4a0_interrupts.o(.text.TMR6_7_GCmpE_IrqHandler)
    [Anonymous Symbol]                       0x0000a744   Section        0  hc32f4a0_interrupts.o(.text.TMR6_7_GCmpF_IrqHandler)
    [Anonymous Symbol]                       0x0000a748   Section        0  hc32f4a0_interrupts.o(.text.TMR6_7_GOvf_IrqHandler)
    [Anonymous Symbol]                       0x0000a74c   Section        0  hc32f4a0_interrupts.o(.text.TMR6_7_GUdf_IrqHandler)
    [Anonymous Symbol]                       0x0000a750   Section        0  hc32f4a0_interrupts.o(.text.TMR6_7_Gdte_IrqHandler)
    [Anonymous Symbol]                       0x0000a754   Section        0  hc32f4a0_interrupts.o(.text.TMR6_7_SCmpDownA_IrqHandler)
    [Anonymous Symbol]                       0x0000a758   Section        0  hc32f4a0_interrupts.o(.text.TMR6_7_SCmpDownB_IrqHandler)
    [Anonymous Symbol]                       0x0000a75c   Section        0  hc32f4a0_interrupts.o(.text.TMR6_7_SCmpUpA_IrqHandler)
    [Anonymous Symbol]                       0x0000a760   Section        0  hc32f4a0_interrupts.o(.text.TMR6_7_SCmpUpB_IrqHandler)
    [Anonymous Symbol]                       0x0000a764   Section        0  hc32f4a0_interrupts.o(.text.TMR6_8_GCmpA_IrqHandler)
    [Anonymous Symbol]                       0x0000a768   Section        0  hc32f4a0_interrupts.o(.text.TMR6_8_GCmpB_IrqHandler)
    [Anonymous Symbol]                       0x0000a76c   Section        0  hc32f4a0_interrupts.o(.text.TMR6_8_GCmpC_IrqHandler)
    [Anonymous Symbol]                       0x0000a770   Section        0  hc32f4a0_interrupts.o(.text.TMR6_8_GCmpD_IrqHandler)
    [Anonymous Symbol]                       0x0000a774   Section        0  hc32f4a0_interrupts.o(.text.TMR6_8_GCmpE_IrqHandler)
    [Anonymous Symbol]                       0x0000a778   Section        0  hc32f4a0_interrupts.o(.text.TMR6_8_GCmpF_IrqHandler)
    [Anonymous Symbol]                       0x0000a77c   Section        0  hc32f4a0_interrupts.o(.text.TMR6_8_GOvf_IrqHandler)
    [Anonymous Symbol]                       0x0000a780   Section        0  hc32f4a0_interrupts.o(.text.TMR6_8_GUdf_IrqHandler)
    [Anonymous Symbol]                       0x0000a784   Section        0  hc32f4a0_interrupts.o(.text.TMR6_8_Gdte_IrqHandler)
    [Anonymous Symbol]                       0x0000a788   Section        0  hc32f4a0_interrupts.o(.text.TMR6_8_SCmpDownA_IrqHandler)
    [Anonymous Symbol]                       0x0000a78c   Section        0  hc32f4a0_interrupts.o(.text.TMR6_8_SCmpDownB_IrqHandler)
    [Anonymous Symbol]                       0x0000a790   Section        0  hc32f4a0_interrupts.o(.text.TMR6_8_SCmpUpA_IrqHandler)
    [Anonymous Symbol]                       0x0000a794   Section        0  hc32f4a0_interrupts.o(.text.TMR6_8_SCmpUpB_IrqHandler)
    [Anonymous Symbol]                       0x0000a798   Section        0  hc32f4a0_interrupts.o(.text.TMRA_10_Cmp1_IrqHandler)
    [Anonymous Symbol]                       0x0000a79c   Section        0  hc32f4a0_interrupts.o(.text.TMRA_10_Cmp2_IrqHandler)
    [Anonymous Symbol]                       0x0000a7a0   Section        0  hc32f4a0_interrupts.o(.text.TMRA_10_Cmp3_IrqHandler)
    [Anonymous Symbol]                       0x0000a7a4   Section        0  hc32f4a0_interrupts.o(.text.TMRA_10_Cmp4_IrqHandler)
    [Anonymous Symbol]                       0x0000a7a8   Section        0  hc32f4a0_interrupts.o(.text.TMRA_10_Ovf_IrqHandler)
    [Anonymous Symbol]                       0x0000a7ac   Section        0  hc32f4a0_interrupts.o(.text.TMRA_10_Udf_IrqHandler)
    [Anonymous Symbol]                       0x0000a7b0   Section        0  hc32f4a0_interrupts.o(.text.TMRA_11_Cmp1_IrqHandler)
    [Anonymous Symbol]                       0x0000a7b4   Section        0  hc32f4a0_interrupts.o(.text.TMRA_11_Cmp2_IrqHandler)
    [Anonymous Symbol]                       0x0000a7b8   Section        0  hc32f4a0_interrupts.o(.text.TMRA_11_Cmp3_IrqHandler)
    [Anonymous Symbol]                       0x0000a7bc   Section        0  hc32f4a0_interrupts.o(.text.TMRA_11_Cmp4_IrqHandler)
    [Anonymous Symbol]                       0x0000a7c0   Section        0  hc32f4a0_interrupts.o(.text.TMRA_11_Ovf_IrqHandler)
    [Anonymous Symbol]                       0x0000a7c4   Section        0  hc32f4a0_interrupts.o(.text.TMRA_11_Udf_IrqHandler)
    [Anonymous Symbol]                       0x0000a7c8   Section        0  hc32f4a0_interrupts.o(.text.TMRA_12_Cmp1_IrqHandler)
    [Anonymous Symbol]                       0x0000a7cc   Section        0  hc32f4a0_interrupts.o(.text.TMRA_12_Cmp2_IrqHandler)
    [Anonymous Symbol]                       0x0000a7d0   Section        0  hc32f4a0_interrupts.o(.text.TMRA_12_Cmp3_IrqHandler)
    [Anonymous Symbol]                       0x0000a7d4   Section        0  hc32f4a0_interrupts.o(.text.TMRA_12_Cmp4_IrqHandler)
    [Anonymous Symbol]                       0x0000a7d8   Section        0  hc32f4a0_interrupts.o(.text.TMRA_12_Ovf_IrqHandler)
    [Anonymous Symbol]                       0x0000a7dc   Section        0  hc32f4a0_interrupts.o(.text.TMRA_12_Udf_IrqHandler)
    [Anonymous Symbol]                       0x0000a7e0   Section        0  hc32f4a0_interrupts.o(.text.TMRA_1_Cmp1_IrqHandler)
    [Anonymous Symbol]                       0x0000a7e4   Section        0  hc32f4a0_interrupts.o(.text.TMRA_1_Cmp2_IrqHandler)
    [Anonymous Symbol]                       0x0000a7e8   Section        0  hc32f4a0_interrupts.o(.text.TMRA_1_Cmp3_IrqHandler)
    [Anonymous Symbol]                       0x0000a7ec   Section        0  hc32f4a0_interrupts.o(.text.TMRA_1_Cmp4_IrqHandler)
    [Anonymous Symbol]                       0x0000a7f0   Section        0  hc32f4a0_interrupts.o(.text.TMRA_1_Ovf_IrqHandler)
    [Anonymous Symbol]                       0x0000a7f4   Section        0  hc32f4a0_interrupts.o(.text.TMRA_1_Udf_IrqHandler)
    [Anonymous Symbol]                       0x0000a7f8   Section        0  hc32f4a0_interrupts.o(.text.TMRA_2_Cmp1_IrqHandler)
    [Anonymous Symbol]                       0x0000a7fc   Section        0  hc32f4a0_interrupts.o(.text.TMRA_2_Cmp2_IrqHandler)
    [Anonymous Symbol]                       0x0000a800   Section        0  hc32f4a0_interrupts.o(.text.TMRA_2_Cmp3_IrqHandler)
    [Anonymous Symbol]                       0x0000a804   Section        0  hc32f4a0_interrupts.o(.text.TMRA_2_Cmp4_IrqHandler)
    [Anonymous Symbol]                       0x0000a808   Section        0  hc32f4a0_interrupts.o(.text.TMRA_2_Ovf_IrqHandler)
    [Anonymous Symbol]                       0x0000a80c   Section        0  hc32f4a0_interrupts.o(.text.TMRA_2_Udf_IrqHandler)
    [Anonymous Symbol]                       0x0000a810   Section        0  hc32f4a0_interrupts.o(.text.TMRA_3_Cmp1_IrqHandler)
    [Anonymous Symbol]                       0x0000a814   Section        0  hc32f4a0_interrupts.o(.text.TMRA_3_Cmp2_IrqHandler)
    [Anonymous Symbol]                       0x0000a818   Section        0  hc32f4a0_interrupts.o(.text.TMRA_3_Cmp3_IrqHandler)
    [Anonymous Symbol]                       0x0000a81c   Section        0  hc32f4a0_interrupts.o(.text.TMRA_3_Cmp4_IrqHandler)
    [Anonymous Symbol]                       0x0000a820   Section        0  hc32f4a0_interrupts.o(.text.TMRA_3_Ovf_IrqHandler)
    [Anonymous Symbol]                       0x0000a824   Section        0  hc32f4a0_interrupts.o(.text.TMRA_3_Udf_IrqHandler)
    [Anonymous Symbol]                       0x0000a828   Section        0  hc32f4a0_interrupts.o(.text.TMRA_4_Cmp1_IrqHandler)
    [Anonymous Symbol]                       0x0000a82c   Section        0  hc32f4a0_interrupts.o(.text.TMRA_4_Cmp2_IrqHandler)
    [Anonymous Symbol]                       0x0000a830   Section        0  hc32f4a0_interrupts.o(.text.TMRA_4_Cmp3_IrqHandler)
    [Anonymous Symbol]                       0x0000a834   Section        0  hc32f4a0_interrupts.o(.text.TMRA_4_Cmp4_IrqHandler)
    [Anonymous Symbol]                       0x0000a838   Section        0  hc32f4a0_interrupts.o(.text.TMRA_4_Ovf_IrqHandler)
    [Anonymous Symbol]                       0x0000a83c   Section        0  hc32f4a0_interrupts.o(.text.TMRA_4_Udf_IrqHandler)
    [Anonymous Symbol]                       0x0000a840   Section        0  hc32f4a0_interrupts.o(.text.TMRA_5_Cmp1_IrqHandler)
    [Anonymous Symbol]                       0x0000a844   Section        0  hc32f4a0_interrupts.o(.text.TMRA_5_Cmp2_IrqHandler)
    [Anonymous Symbol]                       0x0000a848   Section        0  hc32f4a0_interrupts.o(.text.TMRA_5_Cmp3_IrqHandler)
    [Anonymous Symbol]                       0x0000a84c   Section        0  hc32f4a0_interrupts.o(.text.TMRA_5_Cmp4_IrqHandler)
    [Anonymous Symbol]                       0x0000a850   Section        0  hc32f4a0_interrupts.o(.text.TMRA_5_Ovf_IrqHandler)
    [Anonymous Symbol]                       0x0000a854   Section        0  hc32f4a0_interrupts.o(.text.TMRA_5_Udf_IrqHandler)
    [Anonymous Symbol]                       0x0000a858   Section        0  hc32f4a0_interrupts.o(.text.TMRA_6_Cmp1_IrqHandler)
    [Anonymous Symbol]                       0x0000a85c   Section        0  hc32f4a0_interrupts.o(.text.TMRA_6_Cmp2_IrqHandler)
    [Anonymous Symbol]                       0x0000a860   Section        0  hc32f4a0_interrupts.o(.text.TMRA_6_Cmp3_IrqHandler)
    [Anonymous Symbol]                       0x0000a864   Section        0  hc32f4a0_interrupts.o(.text.TMRA_6_Cmp4_IrqHandler)
    [Anonymous Symbol]                       0x0000a868   Section        0  hc32f4a0_interrupts.o(.text.TMRA_6_Ovf_IrqHandler)
    [Anonymous Symbol]                       0x0000a86c   Section        0  hc32f4a0_interrupts.o(.text.TMRA_6_Udf_IrqHandler)
    [Anonymous Symbol]                       0x0000a870   Section        0  hc32f4a0_interrupts.o(.text.TMRA_7_Cmp1_IrqHandler)
    [Anonymous Symbol]                       0x0000a874   Section        0  hc32f4a0_interrupts.o(.text.TMRA_7_Cmp2_IrqHandler)
    [Anonymous Symbol]                       0x0000a878   Section        0  hc32f4a0_interrupts.o(.text.TMRA_7_Cmp3_IrqHandler)
    [Anonymous Symbol]                       0x0000a87c   Section        0  hc32f4a0_interrupts.o(.text.TMRA_7_Cmp4_IrqHandler)
    [Anonymous Symbol]                       0x0000a880   Section        0  hc32f4a0_interrupts.o(.text.TMRA_7_Ovf_IrqHandler)
    [Anonymous Symbol]                       0x0000a884   Section        0  hc32f4a0_interrupts.o(.text.TMRA_7_Udf_IrqHandler)
    [Anonymous Symbol]                       0x0000a888   Section        0  hc32f4a0_interrupts.o(.text.TMRA_8_Cmp1_IrqHandler)
    [Anonymous Symbol]                       0x0000a88c   Section        0  hc32f4a0_interrupts.o(.text.TMRA_8_Cmp2_IrqHandler)
    [Anonymous Symbol]                       0x0000a890   Section        0  hc32f4a0_interrupts.o(.text.TMRA_8_Cmp3_IrqHandler)
    [Anonymous Symbol]                       0x0000a894   Section        0  hc32f4a0_interrupts.o(.text.TMRA_8_Cmp4_IrqHandler)
    [Anonymous Symbol]                       0x0000a898   Section        0  hc32f4a0_interrupts.o(.text.TMRA_8_Ovf_IrqHandler)
    [Anonymous Symbol]                       0x0000a89c   Section        0  hc32f4a0_interrupts.o(.text.TMRA_8_Udf_IrqHandler)
    [Anonymous Symbol]                       0x0000a8a0   Section        0  hc32f4a0_interrupts.o(.text.TMRA_9_Cmp1_IrqHandler)
    [Anonymous Symbol]                       0x0000a8a4   Section        0  hc32f4a0_interrupts.o(.text.TMRA_9_Cmp2_IrqHandler)
    [Anonymous Symbol]                       0x0000a8a8   Section        0  hc32f4a0_interrupts.o(.text.TMRA_9_Cmp3_IrqHandler)
    [Anonymous Symbol]                       0x0000a8ac   Section        0  hc32f4a0_interrupts.o(.text.TMRA_9_Cmp4_IrqHandler)
    [Anonymous Symbol]                       0x0000a8b0   Section        0  hc32f4a0_interrupts.o(.text.TMRA_9_Ovf_IrqHandler)
    [Anonymous Symbol]                       0x0000a8b4   Section        0  hc32f4a0_interrupts.o(.text.TMRA_9_Udf_IrqHandler)
    [Anonymous Symbol]                       0x0000a8b8   Section        0  hc32f4a0_interrupts.o(.text.USART_10_LinBreakField_IrqHandler)
    [Anonymous Symbol]                       0x0000a8bc   Section        0  hc32f4a0_interrupts.o(.text.USART_10_LinWakeup_IrqHandler)
    [Anonymous Symbol]                       0x0000a8c0   Section        0  hc32f4a0_interrupts.o(.text.USART_10_RxEnd_IrqHandler)
    [Anonymous Symbol]                       0x0000a8c4   Section        0  hc32f4a0_interrupts.o(.text.USART_10_RxErr_IrqHandler)
    [Anonymous Symbol]                       0x0000a8c8   Section        0  hc32f4a0_interrupts.o(.text.USART_10_TxEmpty_IrqHandler)
    [Anonymous Symbol]                       0x0000a8cc   Section        0  hc32f4a0_interrupts.o(.text.USART_10_TxEnd_IrqHandler)
    [Anonymous Symbol]                       0x0000a8d0   Section        0  hc32f4a0_interrupts.o(.text.USART_1_RxEnd_IrqHandler)
    [Anonymous Symbol]                       0x0000a8d4   Section        0  hc32f4a0_interrupts.o(.text.USART_1_RxErr_IrqHandler)
    [Anonymous Symbol]                       0x0000a8d8   Section        0  hc32f4a0_interrupts.o(.text.USART_1_RxTO_IrqHandler)
    [Anonymous Symbol]                       0x0000a8dc   Section        0  hc32f4a0_interrupts.o(.text.USART_1_TxEmpty_IrqHandler)
    [Anonymous Symbol]                       0x0000a8e0   Section        0  hc32f4a0_interrupts.o(.text.USART_1_TxEnd_IrqHandler)
    [Anonymous Symbol]                       0x0000a8e4   Section        0  hc32f4a0_interrupts.o(.text.USART_2_RxEnd_IrqHandler)
    [Anonymous Symbol]                       0x0000a8e8   Section        0  hc32f4a0_interrupts.o(.text.USART_2_RxErr_IrqHandler)
    [Anonymous Symbol]                       0x0000a8ec   Section        0  hc32f4a0_interrupts.o(.text.USART_2_RxTO_IrqHandler)
    [Anonymous Symbol]                       0x0000a8f0   Section        0  hc32f4a0_interrupts.o(.text.USART_2_TxEmpty_IrqHandler)
    [Anonymous Symbol]                       0x0000a8f4   Section        0  hc32f4a0_interrupts.o(.text.USART_2_TxEnd_IrqHandler)
    [Anonymous Symbol]                       0x0000a8f8   Section        0  hc32f4a0_interrupts.o(.text.USART_3_RxEnd_IrqHandler)
    [Anonymous Symbol]                       0x0000a8fc   Section        0  hc32f4a0_interrupts.o(.text.USART_3_RxErr_IrqHandler)
    [Anonymous Symbol]                       0x0000a900   Section        0  hc32f4a0_interrupts.o(.text.USART_3_TxEmpty_IrqHandler)
    [Anonymous Symbol]                       0x0000a904   Section        0  hc32f4a0_interrupts.o(.text.USART_3_TxEnd_IrqHandler)
    [Anonymous Symbol]                       0x0000a908   Section        0  hc32f4a0_interrupts.o(.text.USART_4_RxEnd_IrqHandler)
    [Anonymous Symbol]                       0x0000a90c   Section        0  hc32f4a0_interrupts.o(.text.USART_4_RxErr_IrqHandler)
    [Anonymous Symbol]                       0x0000a910   Section        0  hc32f4a0_interrupts.o(.text.USART_4_TxEmpty_IrqHandler)
    [Anonymous Symbol]                       0x0000a914   Section        0  hc32f4a0_interrupts.o(.text.USART_4_TxEnd_IrqHandler)
    [Anonymous Symbol]                       0x0000a918   Section        0  hc32f4a0_interrupts.o(.text.USART_5_LinBreakField_IrqHandler)
    [Anonymous Symbol]                       0x0000a91c   Section        0  hc32f4a0_interrupts.o(.text.USART_5_LinWakeup_IrqHandler)
    [Anonymous Symbol]                       0x0000a920   Section        0  hc32f4a0_interrupts.o(.text.USART_5_RxEnd_IrqHandler)
    [Anonymous Symbol]                       0x0000a924   Section        0  hc32f4a0_interrupts.o(.text.USART_5_RxErr_IrqHandler)
    [Anonymous Symbol]                       0x0000a928   Section        0  hc32f4a0_interrupts.o(.text.USART_5_TxEmpty_IrqHandler)
    [Anonymous Symbol]                       0x0000a92c   Section        0  hc32f4a0_interrupts.o(.text.USART_5_TxEnd_IrqHandler)
    [Anonymous Symbol]                       0x0000a930   Section        0  hc32f4a0_interrupts.o(.text.USART_6_RxEnd_IrqHandler)
    [Anonymous Symbol]                       0x0000a934   Section        0  hc32f4a0_interrupts.o(.text.USART_6_RxErr_IrqHandler)
    [Anonymous Symbol]                       0x0000a938   Section        0  hc32f4a0_interrupts.o(.text.USART_6_RxTO_IrqHandler)
    [Anonymous Symbol]                       0x0000a93c   Section        0  hc32f4a0_interrupts.o(.text.USART_6_TxEmpty_IrqHandler)
    [Anonymous Symbol]                       0x0000a940   Section        0  hc32f4a0_interrupts.o(.text.USART_6_TxEnd_IrqHandler)
    [Anonymous Symbol]                       0x0000a944   Section        0  hc32f4a0_interrupts.o(.text.USART_7_RxEnd_IrqHandler)
    [Anonymous Symbol]                       0x0000a948   Section        0  hc32f4a0_interrupts.o(.text.USART_7_RxErr_IrqHandler)
    [Anonymous Symbol]                       0x0000a94c   Section        0  hc32f4a0_interrupts.o(.text.USART_7_RxTO_IrqHandler)
    [Anonymous Symbol]                       0x0000a950   Section        0  hc32f4a0_interrupts.o(.text.USART_7_TxEmpty_IrqHandler)
    [Anonymous Symbol]                       0x0000a954   Section        0  hc32f4a0_interrupts.o(.text.USART_7_TxEnd_IrqHandler)
    [Anonymous Symbol]                       0x0000a958   Section        0  hc32f4a0_interrupts.o(.text.USART_8_RxEnd_IrqHandler)
    [Anonymous Symbol]                       0x0000a95c   Section        0  hc32f4a0_interrupts.o(.text.USART_8_RxErr_IrqHandler)
    [Anonymous Symbol]                       0x0000a960   Section        0  hc32f4a0_interrupts.o(.text.USART_8_TxEmpty_IrqHandler)
    [Anonymous Symbol]                       0x0000a964   Section        0  hc32f4a0_interrupts.o(.text.USART_8_TxEnd_IrqHandler)
    [Anonymous Symbol]                       0x0000a968   Section        0  hc32f4a0_interrupts.o(.text.USART_9_RxEnd_IrqHandler)
    [Anonymous Symbol]                       0x0000a96c   Section        0  hc32f4a0_interrupts.o(.text.USART_9_RxErr_IrqHandler)
    [Anonymous Symbol]                       0x0000a970   Section        0  hc32f4a0_interrupts.o(.text.USART_9_TxEmpty_IrqHandler)
    [Anonymous Symbol]                       0x0000a974   Section        0  hc32f4a0_interrupts.o(.text.USART_9_TxEnd_IrqHandler)
    [Anonymous Symbol]                       0x0000a978   Section        0  hc32f4a0_usart.o(.text.USART_ClearStatus)
    [Anonymous Symbol]                       0x0000a98c   Section        0  hc32f4a0_usart.o(.text.USART_FuncCmd)
    [Anonymous Symbol]                       0x0000a9c4   Section        0  hc32f4a0_usart.o(.text.USART_GetStatus)
    [Anonymous Symbol]                       0x0000a9dc   Section        0  hc32f4a0_usart.o(.text.USART_RecData)
    [Anonymous Symbol]                       0x0000a9ec   Section        0  hc32f4a0_usart.o(.text.USART_SendData)
    [Anonymous Symbol]                       0x0000aa08   Section        0  hc32f4a0_usart.o(.text.USART_SetBaudrate)
    [Anonymous Symbol]                       0x0000ab90   Section        0  hc32f4a0_usart.o(.text.USART_UartInit)
    [Anonymous Symbol]                       0x0000ac24   Section        0  hc32f4a0_interrupts.o(.text.USBFS_Global_IrqHandler)
    [Anonymous Symbol]                       0x0000ac28   Section        0  hc32f4a0_interrupts.o(.text.UsageFault_Handler)
    [Anonymous Symbol]                       0x0000ac30   Section        0  hc32f4a0_interrupts.o(.text.UsageFault_IrqHandler)
    [Anonymous Symbol]                       0x0000ac34   Section        0  hc32f4a0_interrupts.o(.text.WDT_IrqHandler)
    [Anonymous Symbol]                       0x0000ac38   Section        0  bsp_clk.o(.text.Xtal32Init)
    [Anonymous Symbol]                       0x0000ac60   Section        0  bsp_clk.o(.text.XtalInit)
    _DoInit                                  0x0000ac91   Thumb Code   150  segger_rtt.o(.text._DoInit)
    [Anonymous Symbol]                       0x0000ac90   Section        0  segger_rtt.o(.text._DoInit)
    _GetAvailWriteSpace                      0x0000ad29   Thumb Code    62  segger_rtt.o(.text._GetAvailWriteSpace)
    [Anonymous Symbol]                       0x0000ad28   Section        0  segger_rtt.o(.text._GetAvailWriteSpace)
    _PrintInt                                0x0000ad69   Thumb Code   484  segger_rtt_printf.o(.text._PrintInt)
    [Anonymous Symbol]                       0x0000ad68   Section        0  segger_rtt_printf.o(.text._PrintInt)
    _PrintUnsigned                           0x0000af4d   Thumb Code   446  segger_rtt_printf.o(.text._PrintUnsigned)
    [Anonymous Symbol]                       0x0000af4c   Section        0  segger_rtt_printf.o(.text._PrintUnsigned)
    _StoreChar                               0x0000b10d   Thumb Code   120  segger_rtt_printf.o(.text._StoreChar)
    [Anonymous Symbol]                       0x0000b10c   Section        0  segger_rtt_printf.o(.text._StoreChar)
    _SysTick_Config                          0x0000b185   Thumb Code    82  board.o(.text._SysTick_Config)
    [Anonymous Symbol]                       0x0000b184   Section        0  board.o(.text._SysTick_Config)
    _WriteBlocking                           0x0000b1d9   Thumb Code   220  segger_rtt.o(.text._WriteBlocking)
    [Anonymous Symbol]                       0x0000b1d8   Section        0  segger_rtt.o(.text._WriteBlocking)
    _WriteNoCheck                            0x0000b2b5   Thumb Code   128  segger_rtt.o(.text._WriteNoCheck)
    [Anonymous Symbol]                       0x0000b2b4   Section        0  segger_rtt.o(.text._WriteNoCheck)
    __NVIC_ClearPendingIRQ                   0x0000b335   Thumb Code    52  bsp_interrupt.o(.text.__NVIC_ClearPendingIRQ)
    [Anonymous Symbol]                       0x0000b334   Section        0  bsp_interrupt.o(.text.__NVIC_ClearPendingIRQ)
    __NVIC_EnableIRQ                         0x0000b369   Thumb Code    52  main.o(.text.__NVIC_EnableIRQ)
    [Anonymous Symbol]                       0x0000b368   Section        0  main.o(.text.__NVIC_EnableIRQ)
    __NVIC_EnableIRQ                         0x0000b39d   Thumb Code    52  bsp_interrupt.o(.text.__NVIC_EnableIRQ)
    [Anonymous Symbol]                       0x0000b39c   Section        0  bsp_interrupt.o(.text.__NVIC_EnableIRQ)
    __NVIC_SetPriority                       0x0000b3d1   Thumb Code    68  bsp_interrupt.o(.text.__NVIC_SetPriority)
    [Anonymous Symbol]                       0x0000b3d0   Section        0  bsp_interrupt.o(.text.__NVIC_SetPriority)
    __NVIC_SetPriority                       0x0000b415   Thumb Code    68  hc32f4a0_utility.o(.text.__NVIC_SetPriority)
    [Anonymous Symbol]                       0x0000b414   Section        0  hc32f4a0_utility.o(.text.__NVIC_SetPriority)
    [Anonymous Symbol]                       0x0000b458   Section        0  kservice.o(.text.__rt_ffs)
    _has_defunct_thread                      0x0000b4e1   Thumb Code    28  idle.o(.text._has_defunct_thread)
    [Anonymous Symbol]                       0x0000b4e0   Section        0  idle.o(.text._has_defunct_thread)
    _msh_exec_cmd                            0x0000b4fd   Thumb Code   202  msh.o(.text._msh_exec_cmd)
    [Anonymous Symbol]                       0x0000b4fc   Section        0  msh.o(.text._msh_exec_cmd)
    _rt_thread_init                          0x0000b5c9   Thumb Code   230  thread.o(.text._rt_thread_init)
    [Anonymous Symbol]                       0x0000b5c8   Section        0  thread.o(.text._rt_thread_init)
    _rt_timer_init                           0x0000b6b1   Thumb Code   102  timer.o(.text._rt_timer_init)
    [Anonymous Symbol]                       0x0000b6b0   Section        0  timer.o(.text._rt_timer_init)
    _rt_timer_remove                         0x0000b719   Thumb Code    48  timer.o(.text._rt_timer_remove)
    [Anonymous Symbol]                       0x0000b718   Section        0  timer.o(.text._rt_timer_remove)
    [Anonymous Symbol]                       0x0000b748   Section        0  bsp_dma.o(.text.bsp_dma_SetDesAddr)
    [Anonymous Symbol]                       0x0000b768   Section        0  bsp_dma.o(.text.bsp_dma_ch_enable)
    [Anonymous Symbol]                       0x0000b798   Section        0  bsp_dma.o(.text.bsp_dma_set_count)
    [Anonymous Symbol]                       0x0000b7c4   Section        0  bsp_chipinfo.o(.text.bsp_get_chipinfo)
    [Anonymous Symbol]                       0x0000b874   Section        0  bsp_i2c.o(.text.bsp_i2c_init)
    [Anonymous Symbol]                       0x0000b9a4   Section        0  bsp_interrupt.o(.text.bsp_interrupt_callback_regist)
    [Anonymous Symbol]                       0x0000b9f8   Section        0  bsp_rmu.o(.text.bsp_show_resetcause)
    [Anonymous Symbol]                       0x0000bfa4   Section        0  bsp_clk.o(.text.bsp_sys_clk_init)
    [Anonymous Symbol]                       0x0000bfe0   Section        0  bsp_timer0.o(.text.bsp_timer0_init)
    [Anonymous Symbol]                       0x0000c064   Section        0  bsp_timer0.o(.text.bsp_timer0_stop)
    bsp_uart1_cfg                            0x0000c089   Thumb Code   144  bsp_uart.o(.text.bsp_uart1_cfg)
    [Anonymous Symbol]                       0x0000c088   Section        0  bsp_uart.o(.text.bsp_uart1_cfg)
    [Anonymous Symbol]                       0x0000c118   Section        0  bsp_uart.o(.text.bsp_uart1_init)
    [Anonymous Symbol]                       0x0000c180   Section        0  bsp_uart.o(.text.bsp_uart_init)
    [Anonymous Symbol]                       0x0000c318   Section        0  bsp_uart.o(.text.bsp_usart_gpio_init)
    bus_fault_track                          0x0000c361   Thumb Code   256  cpuport.o(.text.bus_fault_track)
    [Anonymous Symbol]                       0x0000c360   Section        0  cpuport.o(.text.bus_fault_track)
    [Anonymous Symbol]                       0x0000c460   Section        0  main.o(.text.cacheon)
    [Anonymous Symbol]                       0x0000c484   Section        0  cmd_gpio.o(.text.cfggpio)
    cmd_atoi                                 0x0000c4f5   Thumb Code    64  cmd_gpio.o(.text.cmd_atoi)
    [Anonymous Symbol]                       0x0000c4f4   Section        0  cmd_gpio.o(.text.cmd_atoi)
    [Anonymous Symbol]                       0x0000c534   Section        0  msh.o(.text.cmd_ps)
    divide                                   0x0000c54d   Thumb Code    82  kservice.o(.text.divide)
    [Anonymous Symbol]                       0x0000c54c   Section        0  kservice.o(.text.divide)
    [Anonymous Symbol]                       0x0000c5a0   Section        0  drv_gpio.o(.text.drv_hc32_pin_mode)
    [Anonymous Symbol]                       0x0000c664   Section        0  drv_gpio.o(.text.drv_hc32_pin_write)
    [Anonymous Symbol]                       0x0000c6c0   Section        0  shell.o(.text.finsh_get_prompt)
    finsh_getchar                            0x0000c775   Thumb Code     8  shell.o(.text.finsh_getchar)
    [Anonymous Symbol]                       0x0000c774   Section        0  shell.o(.text.finsh_getchar)
    [Anonymous Symbol]                       0x0000c77c   Section        0  shell.o(.text.finsh_set_prompt_mode)
    [Anonymous Symbol]                       0x0000c7a8   Section        0  shell.o(.text.finsh_system_function_init)
    [Anonymous Symbol]                       0x0000c7cc   Section        0  shell.o(.text.finsh_system_init)
    [Anonymous Symbol]                       0x0000c880   Section        0  shell.o(.text.finsh_thread_entry)
    [Anonymous Symbol]                       0x0000cd68   Section        0  drv_gpio.o(.text.get_pin)
    hard_fault_track                         0x0000cdb1   Thumb Code   154  cpuport.o(.text.hard_fault_track)
    [Anonymous Symbol]                       0x0000cdb0   Section        0  cpuport.o(.text.hard_fault_track)
    [Anonymous Symbol]                       0x0000ce4c   Section        0  cmd.o(.text.hello)
    [Anonymous Symbol]                       0x0000ce60   Section        0  tca9539.o(.text.ledcontrol)
    [Anonymous Symbol]                       0x0000ce84   Section        0  bsp_rtthread_cmd.o(.text.ledctrl)
    [Anonymous Symbol]                       0x0000cffc   Section        0  cmd.o(.text.list)
    list_find_init                           0x0000d069   Thumb Code    72  cmd.o(.text.list_find_init)
    [Anonymous Symbol]                       0x0000d068   Section        0  cmd.o(.text.list_find_init)
    list_get_next                            0x0000d0b1   Thumb Code   214  cmd.o(.text.list_get_next)
    [Anonymous Symbol]                       0x0000d0b0   Section        0  cmd.o(.text.list_get_next)
    [Anonymous Symbol]                       0x0000d188   Section        0  cmd.o(.text.list_mailbox)
    [Anonymous Symbol]                       0x0000d2d4   Section        0  cmd.o(.text.list_sem)
    [Anonymous Symbol]                       0x0000d410   Section        0  cmd.o(.text.list_thread)
    [Anonymous Symbol]                       0x0000d5e0   Section        0  cmd.o(.text.list_timer)
    [Anonymous Symbol]                       0x0000d6f8   Section        0  main.o(.text.main)
    [Anonymous Symbol]                       0x0000d738   Section        0  components.o(.text.main_thread_entry)
    mem_manage_fault_track                   0x0000d74d   Thumb Code   224  cpuport.o(.text.mem_manage_fault_track)
    [Anonymous Symbol]                       0x0000d74c   Section        0  cpuport.o(.text.mem_manage_fault_track)
    [Anonymous Symbol]                       0x0000d82c   Section        0  msh.o(.text.msh_auto_complete)
    [Anonymous Symbol]                       0x0000d914   Section        0  msh.o(.text.msh_exec)
    msh_get_cmd                              0x0000d9d1   Thumb Code   130  msh.o(.text.msh_get_cmd)
    [Anonymous Symbol]                       0x0000d9d0   Section        0  msh.o(.text.msh_get_cmd)
    [Anonymous Symbol]                       0x0000da54   Section        0  msh.o(.text.msh_help)
    [Anonymous Symbol]                       0x0000dad0   Section        0  msh.o(.text.msh_is_used)
    msh_split                                0x0000dad5   Thumb Code   468  msh.o(.text.msh_split)
    [Anonymous Symbol]                       0x0000dad4   Section        0  msh.o(.text.msh_split)
    object_split                             0x0000dca9   Thumb Code    38  cmd.o(.text.object_split)
    [Anonymous Symbol]                       0x0000dca8   Section        0  cmd.o(.text.object_split)
    print_number                             0x0000dcd1   Thumb Code   626  kservice.o(.text.print_number)
    [Anonymous Symbol]                       0x0000dcd0   Section        0  kservice.o(.text.print_number)
    [Anonymous Symbol]                       0x0000df44   Section        0  components.o(.text.rt_application_init)
    [Anonymous Symbol]                       0x0000df90   Section        0  components.o(.text.rt_components_board_init)
    [Anonymous Symbol]                       0x0000dfc4   Section        0  components.o(.text.rt_components_init)
    [Anonymous Symbol]                       0x0000dff8   Section        0  scheduler.o(.text.rt_enter_critical)
    [Anonymous Symbol]                       0x0000e01c   Section        0  scheduler.o(.text.rt_exit_critical)
    [Anonymous Symbol]                       0x0000e074   Section        0  board.o(.text.rt_hw_board_init)
    [Anonymous Symbol]                       0x0000e0b0   Section        0  bsp_uart.o(.text.rt_hw_console_getchar)
    [Anonymous Symbol]                       0x0000e114   Section        0  bsp_uart.o(.text.rt_hw_console_output)
    [Anonymous Symbol]                       0x0000e170   Section        0  cpuport.o(.text.rt_hw_hard_fault_exception)
    [Anonymous Symbol]                       0x0000e310   Section        0  cpuport.o(.text.rt_hw_stack_init)
    [Anonymous Symbol]                       0x0000e390   Section        0  irq.o(.text.rt_interrupt_enter)
    [Anonymous Symbol]                       0x0000e3b4   Section        0  irq.o(.text.rt_interrupt_leave)
    rt_ipc_object_init                       0x0000e3d9   Thumb Code    20  ipc.o(.text.rt_ipc_object_init)
    [Anonymous Symbol]                       0x0000e3d8   Section        0  ipc.o(.text.rt_ipc_object_init)
    [Anonymous Symbol]                       0x0000e3ec   Section        0  kservice.o(.text.rt_kprintf)
    rt_list_init                             0x0000e439   Thumb Code    16  ipc.o(.text.rt_list_init)
    [Anonymous Symbol]                       0x0000e438   Section        0  ipc.o(.text.rt_list_init)
    rt_list_init                             0x0000e449   Thumb Code    16  scheduler.o(.text.rt_list_init)
    [Anonymous Symbol]                       0x0000e448   Section        0  scheduler.o(.text.rt_list_init)
    rt_list_init                             0x0000e459   Thumb Code    16  thread.o(.text.rt_list_init)
    [Anonymous Symbol]                       0x0000e458   Section        0  thread.o(.text.rt_list_init)
    rt_list_init                             0x0000e469   Thumb Code    16  timer.o(.text.rt_list_init)
    [Anonymous Symbol]                       0x0000e468   Section        0  timer.o(.text.rt_list_init)
    rt_list_insert_after                     0x0000e479   Thumb Code    38  object.o(.text.rt_list_insert_after)
    [Anonymous Symbol]                       0x0000e478   Section        0  object.o(.text.rt_list_insert_after)
    rt_list_insert_after                     0x0000e4a1   Thumb Code    38  thread.o(.text.rt_list_insert_after)
    [Anonymous Symbol]                       0x0000e4a0   Section        0  thread.o(.text.rt_list_insert_after)
    rt_list_insert_after                     0x0000e4c9   Thumb Code    38  timer.o(.text.rt_list_insert_after)
    [Anonymous Symbol]                       0x0000e4c8   Section        0  timer.o(.text.rt_list_insert_after)
    rt_list_insert_before                    0x0000e4f1   Thumb Code    38  scheduler.o(.text.rt_list_insert_before)
    [Anonymous Symbol]                       0x0000e4f0   Section        0  scheduler.o(.text.rt_list_insert_before)
    rt_list_insert_before                    0x0000e519   Thumb Code    38  thread.o(.text.rt_list_insert_before)
    [Anonymous Symbol]                       0x0000e518   Section        0  thread.o(.text.rt_list_insert_before)
    rt_list_isempty                          0x0000e541   Thumb Code    20  cmd.o(.text.rt_list_isempty)
    [Anonymous Symbol]                       0x0000e540   Section        0  cmd.o(.text.rt_list_isempty)
    rt_list_isempty                          0x0000e555   Thumb Code    20  scheduler.o(.text.rt_list_isempty)
    [Anonymous Symbol]                       0x0000e554   Section        0  scheduler.o(.text.rt_list_isempty)
    rt_list_isempty                          0x0000e569   Thumb Code    20  timer.o(.text.rt_list_isempty)
    [Anonymous Symbol]                       0x0000e568   Section        0  timer.o(.text.rt_list_isempty)
    rt_list_len                              0x0000e57d   Thumb Code    46  cmd.o(.text.rt_list_len)
    [Anonymous Symbol]                       0x0000e57c   Section        0  cmd.o(.text.rt_list_len)
    rt_list_remove                           0x0000e5ad   Thumb Code    32  idle.o(.text.rt_list_remove)
    [Anonymous Symbol]                       0x0000e5ac   Section        0  idle.o(.text.rt_list_remove)
    rt_list_remove                           0x0000e5cd   Thumb Code    32  object.o(.text.rt_list_remove)
    [Anonymous Symbol]                       0x0000e5cc   Section        0  object.o(.text.rt_list_remove)
    rt_list_remove                           0x0000e5ed   Thumb Code    32  scheduler.o(.text.rt_list_remove)
    [Anonymous Symbol]                       0x0000e5ec   Section        0  scheduler.o(.text.rt_list_remove)
    rt_list_remove                           0x0000e60d   Thumb Code    32  thread.o(.text.rt_list_remove)
    [Anonymous Symbol]                       0x0000e60c   Section        0  thread.o(.text.rt_list_remove)
    rt_list_remove                           0x0000e62d   Thumb Code    32  timer.o(.text.rt_list_remove)
    [Anonymous Symbol]                       0x0000e62c   Section        0  timer.o(.text.rt_list_remove)
    [Anonymous Symbol]                       0x0000e64c   Section        0  kservice.o(.text.rt_memmove)
    [Anonymous Symbol]                       0x0000e6d4   Section        0  kservice.o(.text.rt_memset)
    [Anonymous Symbol]                       0x0000e78c   Section        0  object.o(.text.rt_object_detach)
    [Anonymous Symbol]                       0x0000e7b0   Section        0  object.o(.text.rt_object_get_information)
    [Anonymous Symbol]                       0x0000e808   Section        0  object.o(.text.rt_object_init)
    [Anonymous Symbol]                       0x0000e888   Section        0  object.o(.text.rt_object_is_systemobject)
    [Anonymous Symbol]                       0x0000e8ac   Section        0  scheduler.o(.text.rt_schedule)
    [Anonymous Symbol]                       0x0000e95c   Section        0  scheduler.o(.text.rt_schedule_insert_thread)
    [Anonymous Symbol]                       0x0000e9b4   Section        0  scheduler.o(.text.rt_schedule_remove_thread)
    [Anonymous Symbol]                       0x0000ea04   Section        0  ipc.o(.text.rt_sem_init)
    [Anonymous Symbol]                       0x0000ea40   Section        0  kservice.o(.text.rt_show_version)
    [Anonymous Symbol]                       0x0000ea8c   Section        0  kservice.o(.text.rt_strcmp)
    [Anonymous Symbol]                       0x0000eadc   Section        0  kservice.o(.text.rt_strlen)
    [Anonymous Symbol]                       0x0000eb04   Section        0  kservice.o(.text.rt_strncpy)
    [Anonymous Symbol]                       0x0000eb68   Section        0  scheduler.o(.text.rt_system_scheduler_init)
    [Anonymous Symbol]                       0x0000ebd4   Section        0  scheduler.o(.text.rt_system_scheduler_start)
    [Anonymous Symbol]                       0x0000ec14   Section        0  timer.o(.text.rt_system_timer_init)
    [Anonymous Symbol]                       0x0000ec48   Section        0  timer.o(.text.rt_system_timer_thread_init)
    [Anonymous Symbol]                       0x0000ec4c   Section        0  thread.o(.text.rt_thread_delay)
    [Anonymous Symbol]                       0x0000ec5c   Section        0  thread.o(.text.rt_thread_exit)
    rt_thread_idle_entry                     0x0000eccd   Thumb Code    14  idle.o(.text.rt_thread_idle_entry)
    [Anonymous Symbol]                       0x0000eccc   Section        0  idle.o(.text.rt_thread_idle_entry)
    [Anonymous Symbol]                       0x0000ecdc   Section        0  idle.o(.text.rt_thread_idle_excute)
    [Anonymous Symbol]                       0x0000ed60   Section        0  idle.o(.text.rt_thread_idle_init)
    [Anonymous Symbol]                       0x0000edac   Section        0  thread.o(.text.rt_thread_init)
    [Anonymous Symbol]                       0x0000ee08   Section        0  thread.o(.text.rt_thread_mdelay)
    [Anonymous Symbol]                       0x0000ee20   Section        0  thread.o(.text.rt_thread_resume)
    [Anonymous Symbol]                       0x0000ee70   Section        0  thread.o(.text.rt_thread_self)
    [Anonymous Symbol]                       0x0000ee7c   Section        0  thread.o(.text.rt_thread_sleep)
    [Anonymous Symbol]                       0x0000eee4   Section        0  thread.o(.text.rt_thread_startup)
    [Anonymous Symbol]                       0x0000ef28   Section        0  thread.o(.text.rt_thread_suspend)
    [Anonymous Symbol]                       0x0000ef80   Section        0  thread.o(.text.rt_thread_timeout)
    [Anonymous Symbol]                       0x0000efa8   Section        0  thread.o(.text.rt_thread_yield)
    [Anonymous Symbol]                       0x0000f024   Section        0  clock.o(.text.rt_tick_from_millisecond)
    [Anonymous Symbol]                       0x0000f088   Section        0  clock.o(.text.rt_tick_get)
    [Anonymous Symbol]                       0x0000f094   Section        0  clock.o(.text.rt_tick_increase)
    [Anonymous Symbol]                       0x0000f0d4   Section        0  timer.o(.text.rt_timer_check)
    [Anonymous Symbol]                       0x0000f178   Section        0  timer.o(.text.rt_timer_control)
    [Anonymous Symbol]                       0x0000f1c4   Section        0  timer.o(.text.rt_timer_detach)
    [Anonymous Symbol]                       0x0000f1e8   Section        0  timer.o(.text.rt_timer_init)
    [Anonymous Symbol]                       0x0000f228   Section        0  timer.o(.text.rt_timer_start)
    [Anonymous Symbol]                       0x0000f38c   Section        0  timer.o(.text.rt_timer_stop)
    [Anonymous Symbol]                       0x0000f3d0   Section        0  kservice.o(.text.rt_vsnprintf)
    rti_board_end                            0x0000f971   Thumb Code     4  components.o(.text.rti_board_end)
    [Anonymous Symbol]                       0x0000f970   Section        0  components.o(.text.rti_board_end)
    rti_board_start                          0x0000f975   Thumb Code     4  components.o(.text.rti_board_start)
    [Anonymous Symbol]                       0x0000f974   Section        0  components.o(.text.rti_board_start)
    rti_end                                  0x0000f979   Thumb Code     4  components.o(.text.rti_end)
    [Anonymous Symbol]                       0x0000f978   Section        0  components.o(.text.rti_end)
    rti_start                                0x0000f97d   Thumb Code     4  components.o(.text.rti_start)
    [Anonymous Symbol]                       0x0000f97c   Section        0  components.o(.text.rti_start)
    [Anonymous Symbol]                       0x0000f980   Section        0  components.o(.text.rtthread_startup)
    [Anonymous Symbol]                       0x0000f9b0   Section        0  cmd_gpio.o(.text.setgpio)
    shell_auto_complete                      0x0000f9f5   Thumb Code    66  shell.o(.text.shell_auto_complete)
    [Anonymous Symbol]                       0x0000f9f4   Section        0  shell.o(.text.shell_auto_complete)
    show_wait_queue                          0x0000fa39   Thumb Code    84  cmd.o(.text.show_wait_queue)
    [Anonymous Symbol]                       0x0000fa38   Section        0  cmd.o(.text.show_wait_queue)
    skip_atoi                                0x0000fa8d   Thumb Code    56  kservice.o(.text.skip_atoi)
    [Anonymous Symbol]                       0x0000fa8c   Section        0  kservice.o(.text.skip_atoi)
    str_common                               0x0000fac5   Thumb Code    94  msh.o(.text.str_common)
    [Anonymous Symbol]                       0x0000fac4   Section        0  msh.o(.text.str_common)
    [Anonymous Symbol]                       0x0000fb24   Section        0  main.o(.text.system_init)
    [Anonymous Symbol]                       0x0000fd04   Section        0  cmd_test.o(.text.task_start)
    usage_fault_track                        0x0000fd99   Thumb Code   244  cpuport.o(.text.usage_fault_track)
    [Anonymous Symbol]                       0x0000fd98   Section        0  cpuport.o(.text.usage_fault_track)
    usart1_dma_callback                      0x0000fe8d   Thumb Code    74  bsp_uart.o(.text.usart1_dma_callback)
    [Anonymous Symbol]                       0x0000fe8c   Section        0  bsp_uart.o(.text.usart1_dma_callback)
    usart1_error_callback                    0x0000fed9   Thumb Code     2  bsp_uart.o(.text.usart1_error_callback)
    [Anonymous Symbol]                       0x0000fed8   Section        0  bsp_uart.o(.text.usart1_error_callback)
    usart1_rx_timerout_callback              0x0000fedd   Thumb Code    98  bsp_uart.o(.text.usart1_rx_timerout_callback)
    [Anonymous Symbol]                       0x0000fedc   Section        0  bsp_uart.o(.text.usart1_rx_timerout_callback)
    [Anonymous Symbol]                       0x0000ff40   Section        0  cmd.o(.text.version)
    i.__scatterload_copy                     0x0000ff4a   Section       14  handlers.o(i.__scatterload_copy)
    i.__scatterload_zeroinit                 0x0000ff58   Section       14  handlers.o(i.__scatterload_zeroinit)
    .constdata                               0x0000ff66   Section      129  ctype_o.o(.constdata)
    table                                    0x0000ffe8   Data           4  ctype_o.o(.constdata)
    .constdata                               0x0000ffe8   Section        4  ctype_o.o(.constdata)
    _PrintUnsigned._aV2C                     0x0000ffec   Data          16  segger_rtt_printf.o(.rodata._PrintUnsigned._aV2C)
    [Anonymous Symbol]                       0x0000ffec   Section        0  segger_rtt_printf.o(.rodata._PrintUnsigned._aV2C)
    .L__const.SRAM_SetWaitCycle.au32SramList 0x00010204   Data          16  hc32f4a0_sram.o(.rodata.cst16)
    .L__const.CalcSmartcardBaudrate.au16EtuClkCnts 0x00010214   Data          16  hc32f4a0_usart.o(.rodata.cst16)
    pins                                     0x00010224   Data        1728  drv_gpio.o(.rodata.pins)
    [Anonymous Symbol]                       0x00010224   Section        0  drv_gpio.o(.rodata.pins)
    print_number.large_digits                0x000108e4   Data          17  kservice.o(.rodata.print_number.large_digits)
    [Anonymous Symbol]                       0x000108e4   Section        0  kservice.o(.rodata.print_number.large_digits)
    print_number.small_digits                0x000108f5   Data          17  kservice.o(.rodata.print_number.small_digits)
    [Anonymous Symbol]                       0x000108f5   Section        0  kservice.o(.rodata.print_number.small_digits)
    .L.str.4                                 0x00010906   Data          20  main.o(.rodata.str1.1)
    [Anonymous Symbol]                       0x00010906   Section        0  main.o(.rodata.str1.1)
    .L.str.1                                 0x0001091a   Data          37  main.o(.rodata.str1.1)
    .L.str.2                                 0x0001093f   Data          33  main.o(.rodata.str1.1)
    .L.str.2                                 0x0001093f   Data          33  main.o(.rodata.str1.1)
    .L.str.2                                 0x0001093f   Data          33  main.o(.rodata.str1.1)
    .L.str.6                                 0x00010960   Data           9  main.o(.rodata.str1.1)
    .L.str.8                                 0x00010969   Data          25  main.o(.rodata.str1.1)
    .L.str.3                                 0x00010982   Data          11  main.o(.rodata.str1.1)
    .L.str.10                                0x0001098d   Data          16  main.o(.rodata.str1.1)
    .L.str.9                                 0x0001099d   Data          14  main.o(.rodata.str1.1)
    .L.str.5                                 0x000109ab   Data           8  main.o(.rodata.str1.1)
    .L.str                                   0x000109b3   Data           8  main.o(.rodata.str1.1)
    .L.str                                   0x000109b3   Data           8  main.o(.rodata.str1.1)
    .L.str                                   0x000109b3   Data           8  main.o(.rodata.str1.1)
    .L__func__.system_init                   0x000109bb   Data          12  main.o(.rodata.str1.1)
    .L.str.7                                 0x000109c7   Data          16  main.o(.rodata.str1.1)
    .L.str.1                                 0x000109d7   Data          53  bsp_chipinfo.o(.rodata.str1.1)
    [Anonymous Symbol]                       0x000109d7   Section        0  bsp_chipinfo.o(.rodata.str1.1)
    .L.str.3                                 0x00010a0c   Data          19  bsp_chipinfo.o(.rodata.str1.1)
    .L__func__.bsp_get_chipinfo              0x00010a1f   Data          17  bsp_chipinfo.o(.rodata.str1.1)
    .L.str.3                                 0x00010a30   Data          14  bsp_rmu.o(.rodata.str1.1)
    [Anonymous Symbol]                       0x00010a30   Section        0  bsp_rmu.o(.rodata.str1.1)
    .L__func__.bsp_show_resetcause           0x00010a3e   Data          20  bsp_rmu.o(.rodata.str1.1)
    .L.str.6                                 0x00010a52   Data          11  bsp_rmu.o(.rodata.str1.1)
    .L.str.7                                 0x00010a5d   Data          11  bsp_rmu.o(.rodata.str1.1)
    .L.str.5                                 0x00010a68   Data          10  bsp_rmu.o(.rodata.str1.1)
    .L.str.9                                 0x00010a72   Data          11  bsp_rmu.o(.rodata.str1.1)
    .L.str.8                                 0x00010a73   Data          10  bsp_rmu.o(.rodata.str1.1)
    .L.str.18                                0x00010a7d   Data          15  bsp_rmu.o(.rodata.str1.1)
    .L.str.11                                0x00010a8c   Data          15  bsp_rmu.o(.rodata.str1.1)
    .L.str.4                                 0x00010a9b   Data          17  bsp_rmu.o(.rodata.str1.1)
    .L.str.10                                0x00010aac   Data          16  bsp_rmu.o(.rodata.str1.1)
    .L.str.17                                0x00010abc   Data          17  bsp_rmu.o(.rodata.str1.1)
    .L.str.14                                0x00010acd   Data          20  bsp_rmu.o(.rodata.str1.1)
    .L.str.15                                0x00010ae1   Data          16  bsp_rmu.o(.rodata.str1.1)
    .L.str.16                                0x00010af1   Data          17  bsp_rmu.o(.rodata.str1.1)
    .L.str.12                                0x00010b02   Data          16  bsp_rmu.o(.rodata.str1.1)
    .L.str.13                                0x00010b12   Data          23  bsp_rmu.o(.rodata.str1.1)
    .L.str.1                                 0x00010b29   Data          10  bsp_rmu.o(.rodata.str1.1)
    .L.str                                   0x00010b33   Data           2  bsp_rtthread_cmd.o(.rodata.str1.1)
    [Anonymous Symbol]                       0x00010b33   Section        0  bsp_rtthread_cmd.o(.rodata.str1.1)
    .L.str.2                                 0x00010b35   Data           2  bsp_rtthread_cmd.o(.rodata.str1.1)
    .L.str.4                                 0x00010b37   Data           4  bsp_rtthread_cmd.o(.rodata.str1.1)
    .L.str.3                                 0x00010b3b   Data           3  bsp_rtthread_cmd.o(.rodata.str1.1)
    .L.str.2                                 0x00010b3e   Data           7  segger_rtt.o(.rodata.str1.1)
    [Anonymous Symbol]                       0x00010b3e   Section        0  segger_rtt.o(.rodata.str1.1)
    .L.str.1                                 0x00010b45   Data           4  segger_rtt.o(.rodata.str1.1)
    .L.str                                   0x00010b49   Data           9  segger_rtt.o(.rodata.str1.1)
    .L.str.1                                 0x00010b52   Data           6  cmd_gpio.o(.rodata.str1.1)
    [Anonymous Symbol]                       0x00010b52   Section        0  cmd_gpio.o(.rodata.str1.1)
    .L.str                                   0x00010b58   Data           7  cmd_gpio.o(.rodata.str1.1)
    .L.str.2                                 0x00010b5f   Data           7  cmd_test.o(.rodata.str1.1)
    [Anonymous Symbol]                       0x00010b5f   Section        0  cmd_test.o(.rodata.str1.1)
    .L.str.3                                 0x00010b66   Data           4  cmd_test.o(.rodata.str1.1)
    .L.str.1                                 0x00010b6a   Data           5  cmd_test.o(.rodata.str1.1)
    .L.str                                   0x00010b6f   Data           6  cmd_test.o(.rodata.str1.1)
    .L.str                                   0x00010b75   Data          18  cmd.o(.rodata.str1.1)
    [Anonymous Symbol]                       0x00010b75   Section        0  cmd.o(.rodata.str1.1)
    .L.str.3                                 0x00010b87   Data          61  cmd.o(.rodata.str1.1)
    .L.str.24                                0x00010bc4   Data          36  cmd.o(.rodata.str1.1)
    .L.str.13                                0x00010be8   Data          21  cmd.o(.rodata.str1.1)
    .L.str.19                                0x00010bfd   Data          28  cmd.o(.rodata.str1.1)
    .L.str.29                                0x00010c19   Data          18  cmd.o(.rodata.str1.1)
    .L.str.16                                0x00010c2b   Data          16  cmd.o(.rodata.str1.1)
    .L.str.21                                0x00010c3b   Data          22  cmd.o(.rodata.str1.1)
    .L.str.10                                0x00010c51   Data          40  cmd.o(.rodata.str1.1)
    .L.str.12                                0x00010c79   Data          26  cmd.o(.rodata.str1.1)
    .L.str.18                                0x00010c93   Data          33  cmd.o(.rodata.str1.1)
    .L.str.27                                0x00010cb4   Data          13  cmd.o(.rodata.str1.1)
    .L.str.26                                0x00010cb6   Data          11  cmd.o(.rodata.str1.1)
    .L.str.23                                0x00010cc1   Data          38  cmd.o(.rodata.str1.1)
    .L.str.2                                 0x00010ce7   Data          68  cmd.o(.rodata.str1.1)
    .L.str.28                                0x00010d2b   Data          21  cmd.o(.rodata.str1.1)
    .L.str.15                                0x00010d3e   Data           2  cmd.o(.rodata.str1.1)
    .L.str.3                                 0x00010d3e   Data           2  cmd.o(.rodata.str1.1)
    .L.str.30                                0x00010d3e   Data           2  cmd.o(.rodata.str1.1)
    .L.str.7                                 0x00010d3e   Data           2  cmd.o(.rodata.str1.1)
    .L.str.7                                 0x00010d40   Data           9  cmd.o(.rodata.str1.1)
    .L.str.8                                 0x00010d49   Data           9  cmd.o(.rodata.str1.1)
    .L.str.5                                 0x00010d52   Data           9  cmd.o(.rodata.str1.1)
    .L.str.4                                 0x00010d5b   Data          12  cmd.o(.rodata.str1.1)
    .L.str.25                                0x00010d67   Data          22  cmd.o(.rodata.str1.1)
    .L.str.32                                0x00010d7d   Data           2  cmd.o(.rodata.str1.1)
    .L.str.34                                0x00010d7f   Data           2  cmd.o(.rodata.str1.1)
    .L.str.14                                0x00010d81   Data          16  cmd.o(.rodata.str1.1)
    .L.str.20                                0x00010d91   Data          22  cmd.o(.rodata.str1.1)
    .L.str.30                                0x00010da7   Data           3  cmd.o(.rodata.str1.1)
    .L.str.1                                 0x00010daa   Data           7  cmd.o(.rodata.str1.1)
    .L.str.6                                 0x00010db1   Data           9  cmd.o(.rodata.str1.1)
    .L.str.11                                0x00010dba   Data          10  cmd.o(.rodata.str1.1)
    .L.str.9                                 0x00010dc4   Data           9  cmd.o(.rodata.str1.1)
    .L.str.22                                0x00010dcd   Data           6  cmd.o(.rodata.str1.1)
    .L.str.17                                0x00010dd3   Data           8  cmd.o(.rodata.str1.1)
    .L.str.4                                 0x00010ddb   Data          24  msh.o(.rodata.str1.1)
    [Anonymous Symbol]                       0x00010ddb   Section        0  msh.o(.rodata.str1.1)
    .L.str.6                                 0x00010df3   Data          30  msh.o(.rodata.str1.1)
    .L.str                                   0x00010e11   Data          27  msh.o(.rodata.str1.1)
    .L.str.2                                 0x00010e2c   Data           4  msh.o(.rodata.str1.1)
    .L.str.1                                 0x00010e30   Data           7  msh.o(.rodata.str1.1)
    .L.str.6                                 0x00010e37   Data           4  shell.o(.rodata.str1.1)
    [Anonymous Symbol]                       0x00010e37   Section        0  shell.o(.rodata.str1.1)
    .L.str.5                                 0x00010e3b   Data           7  shell.o(.rodata.str1.1)
    .L.str.3                                 0x00010e40   Data           2  shell.o(.rodata.str1.1)
    .L.str                                   0x00010e42   Data           5  shell.o(.rodata.str1.1)
    .L.str.1                                 0x00010e47   Data           7  shell.o(.rodata.str1.1)
    .L.str.2                                 0x00010e4e   Data           2  shell.o(.rodata.str1.1)
    .L.str.4                                 0x00010e50   Data           3  shell.o(.rodata.str1.1)
    .L.str.9                                 0x00010e53   Data           7  shell.o(.rodata.str1.1)
    .L.str.11                                0x00010e5a   Data           5  shell.o(.rodata.str1.1)
    .L.str.33                                0x00010e5c   Data           3  shell.o(.rodata.str1.1)
    .L.str.8                                 0x00010e5c   Data           3  shell.o(.rodata.str1.1)
    .L.str.10                                0x00010e5f   Data           5  shell.o(.rodata.str1.1)
    .L.str.17                                0x00010e64   Data          26  cpuport.o(.rodata.str1.1)
    [Anonymous Symbol]                       0x00010e64   Section        0  cpuport.o(.rodata.str1.1)
    .L.str.16                                0x00010e7e   Data          29  cpuport.o(.rodata.str1.1)
    .L.str.18                                0x00010e9b   Data          14  cpuport.o(.rodata.str1.1)
    .L.str.31                                0x00010ea9   Data          19  cpuport.o(.rodata.str1.1)
    .L.str.38                                0x00010ebc   Data          14  cpuport.o(.rodata.str1.1)
    .L.str.22                                0x00010eca   Data          12  cpuport.o(.rodata.str1.1)
    .L.str.29                                0x00010ed6   Data          16  cpuport.o(.rodata.str1.1)
    .L.str.37                                0x00010ee6   Data          16  cpuport.o(.rodata.str1.1)
    .L.str.20                                0x00010ef6   Data          21  cpuport.o(.rodata.str1.1)
    .L.str.21                                0x00010f0b   Data          13  cpuport.o(.rodata.str1.1)
    .L.str.1                                 0x00010f18   Data          13  cpuport.o(.rodata.str1.1)
    .L.str.11                                0x00010f25   Data          13  cpuport.o(.rodata.str1.1)
    .L.str.2                                 0x00010f32   Data          13  cpuport.o(.rodata.str1.1)
    .L.str.12                                0x00010f3f   Data          13  cpuport.o(.rodata.str1.1)
    .L.str.3                                 0x00010f4c   Data          13  cpuport.o(.rodata.str1.1)
    .L.str.13                                0x00010f59   Data          13  cpuport.o(.rodata.str1.1)
    .L.str.4                                 0x00010f66   Data          13  cpuport.o(.rodata.str1.1)
    .L.str.5                                 0x00010f73   Data          13  cpuport.o(.rodata.str1.1)
    .L.str.19                                0x00010f79   Data          13  cpuport.o(.rodata.str1.1)
    .L.str.6                                 0x00010f80   Data          13  cpuport.o(.rodata.str1.1)
    .L.str.7                                 0x00010f8d   Data          13  cpuport.o(.rodata.str1.1)
    .L.str.8                                 0x00010f9a   Data          13  cpuport.o(.rodata.str1.1)
    .L.str.9                                 0x00010fa7   Data          13  cpuport.o(.rodata.str1.1)
    .L.str.10                                0x00010fb4   Data          13  cpuport.o(.rodata.str1.1)
    .L.str.15                                0x00010fc1   Data          13  cpuport.o(.rodata.str1.1)
    .L.str.14                                0x00010fce   Data          13  cpuport.o(.rodata.str1.1)
    .L.str                                   0x00010fdb   Data          13  cpuport.o(.rodata.str1.1)
    .L.str.42                                0x00010fe8   Data           7  cpuport.o(.rodata.str1.1)
    .L.str.44                                0x00010fef   Data          11  cpuport.o(.rodata.str1.1)
    .L.str.41                                0x00010ffa   Data          10  cpuport.o(.rodata.str1.1)
    .L.str.34                                0x00011004   Data          10  cpuport.o(.rodata.str1.1)
    .L.str.33                                0x0001100e   Data          10  cpuport.o(.rodata.str1.1)
    .L.str.45                                0x00011018   Data          11  cpuport.o(.rodata.str1.1)
    .L.str.43                                0x00011023   Data           6  cpuport.o(.rodata.str1.1)
    .L.str.36                                0x00011029   Data           9  cpuport.o(.rodata.str1.1)
    .L.str.35                                0x00011032   Data          11  cpuport.o(.rodata.str1.1)
    .L.str.27                                0x00011033   Data          10  cpuport.o(.rodata.str1.1)
    .L.str.28                                0x00011035   Data           8  cpuport.o(.rodata.str1.1)
    .L.str.26                                0x0001103d   Data          13  cpuport.o(.rodata.str1.1)
    .L.str.25                                0x0001103f   Data          11  cpuport.o(.rodata.str1.1)
    .L.str.24                                0x0001104a   Data           9  cpuport.o(.rodata.str1.1)
    .L.str.40                                0x00011053   Data          12  cpuport.o(.rodata.str1.1)
    .L.str.23                                0x0001105f   Data          22  cpuport.o(.rodata.str1.1)
    .L.str.32                                0x00011075   Data          22  cpuport.o(.rodata.str1.1)
    .L.str.39                                0x0001108b   Data          22  cpuport.o(.rodata.str1.1)
    .L.str                                   0x000110a1   Data           5  components.o(.rodata.str1.1)
    [Anonymous Symbol]                       0x000110a1   Section        0  components.o(.rodata.str1.1)
    .L.str                                   0x000110a6   Data           6  idle.o(.rodata.str1.1)
    [Anonymous Symbol]                       0x000110a6   Section        0  idle.o(.rodata.str1.1)
    .L.str                                   0x000110ac   Data           9  kservice.o(.rodata.str1.1)
    [Anonymous Symbol]                       0x000110ac   Section        0  kservice.o(.rodata.str1.1)
    .L.str.4                                 0x000110b5   Data          42  kservice.o(.rodata.str1.1)
    .L.str.1                                 0x000110df   Data          36  kservice.o(.rodata.str1.1)
    .L.str.2                                 0x00011103   Data          30  kservice.o(.rodata.str1.1)
    .L.str.31                                0x0001111d   Data           4  kservice.o(.rodata.str1.1)
    .L.str.5                                 0x0001111d   Data           4  kservice.o(.rodata.str1.1)
    .L.str.5                                 0x00011121   Data           7  kservice.o(.rodata.str1.1)
    .L.str.3                                 0x00011128   Data          12  kservice.o(.rodata.str1.1)
    .L.str.1                                 0x00011132   Data           2  kservice.o(.rodata.str1.1)
    __tagsym$$used.0                         0x00011134   Number         0  components.o(.rti_fn.0)
    __tagsym$$used.1                         0x00011138   Number         0  components.o(.rti_fn.0.end)
    __tagsym$$used.2                         0x0001113c   Number         0  components.o(.rti_fn.1.end)
    __tagsym$$used.0                         0x00011140   Number         0  shell.o(.rti_fn.6)
    __tagsym$$used.3                         0x00011144   Number         0  components.o(.rti_fn.6.end)
    __tagsym$$used.0                         0x00011148   Number         0  bsp_rtthread_cmd.o(FSymTab)
    __tagsym$$used.1                         0x00011150   Number         0  bsp_rtthread_cmd.o(FSymTab)
    __tagsym$$used.0                         0x00011158   Number         0  cmd_gpio.o(FSymTab)
    __tagsym$$used.1                         0x00011160   Number         0  cmd_gpio.o(FSymTab)
    __tagsym$$used.2                         0x00011168   Number         0  cmd_gpio.o(FSymTab)
    __tagsym$$used.3                         0x00011170   Number         0  cmd_gpio.o(FSymTab)
    __tagsym$$used.0                         0x00011178   Number         0  cmd_test.o(FSymTab)
    __tagsym$$used.1                         0x00011180   Number         0  cmd_test.o(FSymTab)
    __tagsym$$used.0                         0x00011188   Number         0  cmd.o(FSymTab)
    __tagsym$$used.1                         0x00011190   Number         0  cmd.o(FSymTab)
    __tagsym$$used.2                         0x00011198   Number         0  cmd.o(FSymTab)
    __tagsym$$used.3                         0x000111a0   Number         0  cmd.o(FSymTab)
    __tagsym$$used.4                         0x000111a8   Number         0  cmd.o(FSymTab)
    __tagsym$$used.5                         0x000111b0   Number         0  cmd.o(FSymTab)
    __tagsym$$used.6                         0x000111b8   Number         0  cmd.o(FSymTab)
    __tagsym$$used.7                         0x000111c0   Number         0  cmd.o(FSymTab)
    __tagsym$$used.8                         0x000111c8   Number         0  cmd.o(FSymTab)
    __tagsym$$used.9                         0x000111d0   Number         0  cmd.o(FSymTab)
    __tagsym$$used.10                        0x000111d8   Number         0  cmd.o(FSymTab)
    __tagsym$$used.11                        0x000111e0   Number         0  cmd.o(FSymTab)
    __tagsym$$used.0                         0x000111e8   Number         0  msh.o(FSymTab)
    __tagsym$$used.1                         0x000111f0   Number         0  msh.o(FSymTab)
    rt_object_container                      0x1ffe0000   Data          64  object.o(.data.rt_object_container)
    [Anonymous Symbol]                       0x1ffe0000   Section        0  object.o(.data.rt_object_container)
    _acDownBuffer                            0x1ffe011c   Data          16  segger_rtt.o(.bss._acDownBuffer)
    [Anonymous Symbol]                       0x1ffe011c   Section        0  segger_rtt.o(.bss._acDownBuffer)
    _acUpBuffer                              0x1ffe012c   Data        1024  segger_rtt.o(.bss._acUpBuffer)
    [Anonymous Symbol]                       0x1ffe012c   Section        0  segger_rtt.o(.bss._acUpBuffer)
    finsh_get_prompt.finsh_prompt            0x1ffe05c0   Data         129  shell.o(.bss.finsh_get_prompt.finsh_prompt)
    [Anonymous Symbol]                       0x1ffe05c0   Section        0  shell.o(.bss.finsh_get_prompt.finsh_prompt)
    finsh_prompt_custom                      0x1ffe0644   Data           4  shell.o(.bss.finsh_prompt_custom)
    [Anonymous Symbol]                       0x1ffe0644   Section        0  shell.o(.bss.finsh_prompt_custom)
    finsh_thread                             0x1ffe0648   Data         120  shell.o(.bss.finsh_thread)
    [Anonymous Symbol]                       0x1ffe0648   Section        0  shell.o(.bss.finsh_thread)
    finsh_thread_stack                       0x1ffe06c0   Data         512  shell.o(.bss.finsh_thread_stack)
    [Anonymous Symbol]                       0x1ffe06c0   Section        0  shell.o(.bss.finsh_thread_stack)
    idle                                     0x1ffe08c0   Data         120  idle.o(.bss.idle)
    [Anonymous Symbol]                       0x1ffe08c0   Section        0  idle.o(.bss.idle)
    ledctrl.status                           0x1ffe0938   Data           1  bsp_rtthread_cmd.o(.bss.ledctrl.status)
    [Anonymous Symbol]                       0x1ffe0938   Section        0  bsp_rtthread_cmd.o(.bss.ledctrl.status)
    m_apfnIrqHandler                         0x1ffe093c   Data         512  hc32f4a0_interrupts.o(.bss.m_apfnIrqHandler)
    [Anonymous Symbol]                       0x1ffe093c   Section        0  hc32f4a0_interrupts.o(.bss.m_apfnIrqHandler)
    m_pfnNmiCallback                         0x1ffe0b3c   Data           4  hc32f4a0_interrupts.o(.bss.m_pfnNmiCallback)
    [Anonymous Symbol]                       0x1ffe0b3c   Section        0  hc32f4a0_interrupts.o(.bss.m_pfnNmiCallback)
    m_u32TickCount                           0x1ffe0b40   Data           4  hc32f4a0_utility.o(.bss.m_u32TickCount)
    [Anonymous Symbol]                       0x1ffe0b40   Section        0  hc32f4a0_utility.o(.bss.m_u32TickCount)
    m_u32TickStep                            0x1ffe0b44   Data           4  hc32f4a0_utility.o(.bss.m_u32TickStep)
    [Anonymous Symbol]                       0x1ffe0b44   Section        0  hc32f4a0_utility.o(.bss.m_u32TickStep)
    main_stack                               0x1ffe0b48   Data        4086  components.o(.bss.main_stack)
    [Anonymous Symbol]                       0x1ffe0b48   Section        0  components.o(.bss.main_stack)
    rt_exception_hook                        0x1ffe1bc4   Data           4  cpuport.o(.bss.rt_exception_hook)
    [Anonymous Symbol]                       0x1ffe1bc4   Section        0  cpuport.o(.bss.rt_exception_hook)
    rt_kprintf.rt_log_buf                    0x1ffe1bd4   Data         128  kservice.o(.bss.rt_kprintf.rt_log_buf)
    [Anonymous Symbol]                       0x1ffe1bd4   Section        0  kservice.o(.bss.rt_kprintf.rt_log_buf)
    rt_scheduler_lock_nest                   0x1ffe1c54   Data           2  scheduler.o(.bss.rt_scheduler_lock_nest)
    [Anonymous Symbol]                       0x1ffe1c54   Section        0  scheduler.o(.bss.rt_scheduler_lock_nest)
    rt_thread_stack                          0x1ffe1ca4   Data         128  idle.o(.bss.rt_thread_stack)
    [Anonymous Symbol]                       0x1ffe1ca4   Section        0  idle.o(.bss.rt_thread_stack)
    rt_tick                                  0x1ffe1d28   Data           4  clock.o(.bss.rt_tick)
    [Anonymous Symbol]                       0x1ffe1d28   Section        0  clock.o(.bss.rt_tick)
    rt_timer_list                            0x1ffe1d2c   Data           8  timer.o(.bss.rt_timer_list)
    [Anonymous Symbol]                       0x1ffe1d2c   Section        0  timer.o(.bss.rt_timer_list)
    rt_timer_start.random_nr                 0x1ffe1d34   Data           4  timer.o(.bss.rt_timer_start.random_nr)
    [Anonymous Symbol]                       0x1ffe1d34   Section        0  timer.o(.bss.rt_timer_start.random_nr)
    STACK                                    0x1ffe1d40   Section     8192  startup_hc32f4a0.o(STACK)

    Global Symbols

    Symbol Name                              Value     Ov Type        Size  Object(Section)

    BuildAttributes$$THM_ISAv4$E$P$D$K$B$S$7EM$VFPi3$EXTD16$VFPS$VFMA$PE$A:L22UL41UL21$X:L11$S22US41US21$IEEE1$IW$~IW$USESV6$~STKCKD$USESV7$~SHL$OTIME$ROPI$IEEEX$EBA8$MICROLIB$REQ8$PRES8$EABIv2 0x00000000   Number         0  anon$$obj.o ABSOLUTE
    __Vectors                                0x00000000   Data           4  startup_hc32f4a0.o(RESET)
    __cpp_initialize__aeabi_                  - Undefined Weak Reference
    __cxa_finalize                            - Undefined Weak Reference
    __decompress                              - Undefined Weak Reference
    _clock_init                               - Undefined Weak Reference
    _microlib_exit                            - Undefined Weak Reference
    __Vectors_End                            0x00000280   Data           0  startup_hc32f4a0.o(RESET)
    __Vectors_Size                           0x00000280   Number         0  startup_hc32f4a0.o ABSOLUTE
    __main                                   0x00000281   Thumb Code     0  entry.o(.ARM.Collect$$$$00000000)
    _main_stk                                0x00000281   Thumb Code     0  entry2.o(.ARM.Collect$$$$00000001)
    _main_scatterload                        0x00000285   Thumb Code     0  entry5.o(.ARM.Collect$$$$00000004)
    __main_after_scatterload                 0x00000289   Thumb Code     0  entry5.o(.ARM.Collect$$$$00000004)
    _main_clock                              0x00000289   Thumb Code     0  entry7b.o(.ARM.Collect$$$$00000008)
    _main_cpp_init                           0x00000289   Thumb Code     0  entry8b.o(.ARM.Collect$$$$0000000A)
    _main_init                               0x00000289   Thumb Code     0  entry9a.o(.ARM.Collect$$$$0000000B)
    __rt_final_cpp                           0x00000291   Thumb Code     0  entry10a.o(.ARM.Collect$$$$0000000D)
    __rt_final_exit                          0x00000291   Thumb Code     0  entry11a.o(.ARM.Collect$$$$0000000F)
    Reset_Handler                            0x00000295   Thumb Code     8  startup_hc32f4a0.o(.text)
    SVC_Handler                              0x000002a7   Thumb Code     2  startup_hc32f4a0.o(.text)
    rt_hw_interrupt_disable                  0x000002b9   Thumb Code     8  context_rvds.o(.text)
    rt_hw_interrupt_enable                   0x000002c1   Thumb Code     6  context_rvds.o(.text)
    rt_hw_context_switch                     0x000002c7   Thumb Code    32  context_rvds.o(.text)
    rt_hw_context_switch_interrupt           0x000002c7   Thumb Code     0  context_rvds.o(.text)
    PendSV_Handler                           0x000002e7   Thumb Code   108  context_rvds.o(.text)
    rt_hw_context_switch_to                  0x00000353   Thumb Code    70  context_rvds.o(.text)
    rt_hw_interrupt_thread_switch            0x00000399   Thumb Code     2  context_rvds.o(.text)
    HardFault_Handler                        0x0000039b   Thumb Code    56  context_rvds.o(.text)
    __rt_ctype_table                         0x000003ed   Thumb Code     4  ctype_o.o(.text)
    ADC_1_Cmp0_IrqHandler                    0x000003f5   Thumb Code     2  hc32f4a0_interrupts.o(.text.ADC_1_Cmp0_IrqHandler)
    __I$use$fp                               0x000003f5   Thumb Code     0  iusefp.o(.text)
    ADC_1_Cmp1Comb_IrqHandler                0x000003f9   Thumb Code     2  hc32f4a0_interrupts.o(.text.ADC_1_Cmp1Comb_IrqHandler)
    ADC_1_Cmp1Ind_IrqHandler                 0x000003fd   Thumb Code     2  hc32f4a0_interrupts.o(.text.ADC_1_Cmp1Ind_IrqHandler)
    __scatterload_null                       0x000003ff   Thumb Code     2  handlers.o(i.__scatterload_null)
    u32ICG                                   0x00000400   Data          96  hc32f4a0_icg.o(.ARM.__at_0x400)
    __aeabi_uldivmod                         0x00000461   Thumb Code    98  uldiv.o(.text)
    __aeabi_memcpy                           0x000004c3   Thumb Code    36  memcpya.o(.text)
    __aeabi_memcpy4                          0x000004c3   Thumb Code     0  memcpya.o(.text)
    __aeabi_memcpy8                          0x000004c3   Thumb Code     0  memcpya.o(.text)
    __aeabi_memset                           0x000004e7   Thumb Code    14  memseta.o(.text)
    __aeabi_memset4                          0x000004e7   Thumb Code     0  memseta.o(.text)
    __aeabi_memset8                          0x000004e7   Thumb Code     0  memseta.o(.text)
    __aeabi_memclr                           0x000004f5   Thumb Code     4  memseta.o(.text)
    __aeabi_memclr4                          0x000004f5   Thumb Code     0  memseta.o(.text)
    __aeabi_memclr8                          0x000004f5   Thumb Code     0  memseta.o(.text)
    _memset$wrapper                          0x000004f9   Thumb Code    18  memseta.o(.text)
    strcat                                   0x0000050b   Thumb Code    24  strcat.o(.text)
    strncpy                                  0x00000523   Thumb Code    24  strncpy.o(.text)
    strlen                                   0x0000053b   Thumb Code    14  strlen.o(.text)
    strcpy                                   0x00000549   Thumb Code    18  strcpy.o(.text)
    strncmp                                  0x0000055b   Thumb Code    30  strncmp.o(.text)
    __aeabi_ddiv                             0x00000579   Thumb Code   222  ddiv.o(.text)
    __aeabi_ui2d                             0x00000657   Thumb Code    26  dfltui.o(.text)
    __aeabi_ul2d                             0x00000671   Thumb Code    24  dfltul.o(.text)
    __aeabi_d2f                              0x00000689   Thumb Code    56  d2f.o(.text)
    __aeabi_llsl                             0x000006c1   Thumb Code    30  llshl.o(.text)
    _ll_shift_l                              0x000006c1   Thumb Code     0  llshl.o(.text)
    __aeabi_llsr                             0x000006df   Thumb Code    32  llushr.o(.text)
    _ll_ushift_r                             0x000006df   Thumb Code     0  llushr.o(.text)
    _float_round                             0x000006ff   Thumb Code    18  fepilogue.o(.text)
    _float_epilogue                          0x00000711   Thumb Code    92  fepilogue.o(.text)
    _double_round                            0x0000076d   Thumb Code    30  depilogue.o(.text)
    _double_epilogue                         0x0000078b   Thumb Code   156  depilogue.o(.text)
    __scatterload                            0x00000829   Thumb Code    28  init.o(.text)
    __scatterload_rt2                        0x00000829   Thumb Code     0  init.o(.text)
    main                                     0x0000084d   Thumb Code    18  components.o(.text.$Sub$$main)
    ADC_1_SeqA_IrqHandler                    0x00000861   Thumb Code     2  hc32f4a0_interrupts.o(.text.ADC_1_SeqA_IrqHandler)
    ADC_1_SeqB_IrqHandler                    0x00000865   Thumb Code     2  hc32f4a0_interrupts.o(.text.ADC_1_SeqB_IrqHandler)
    ADC_2_Cmp0_IrqHandler                    0x00000869   Thumb Code     2  hc32f4a0_interrupts.o(.text.ADC_2_Cmp0_IrqHandler)
    ADC_2_Cmp1Comb_IrqHandler                0x0000086d   Thumb Code     2  hc32f4a0_interrupts.o(.text.ADC_2_Cmp1Comb_IrqHandler)
    ADC_2_Cmp1Ind_IrqHandler                 0x00000871   Thumb Code     2  hc32f4a0_interrupts.o(.text.ADC_2_Cmp1Ind_IrqHandler)
    ADC_2_SeqA_IrqHandler                    0x00000875   Thumb Code     2  hc32f4a0_interrupts.o(.text.ADC_2_SeqA_IrqHandler)
    ADC_2_SeqB_IrqHandler                    0x00000879   Thumb Code     2  hc32f4a0_interrupts.o(.text.ADC_2_SeqB_IrqHandler)
    ADC_3_Cmp0_IrqHandler                    0x0000087d   Thumb Code     2  hc32f4a0_interrupts.o(.text.ADC_3_Cmp0_IrqHandler)
    ADC_3_Cmp1Comb_IrqHandler                0x00000881   Thumb Code     2  hc32f4a0_interrupts.o(.text.ADC_3_Cmp1Comb_IrqHandler)
    ADC_3_Cmp1Ind_IrqHandler                 0x00000885   Thumb Code     2  hc32f4a0_interrupts.o(.text.ADC_3_Cmp1Ind_IrqHandler)
    ADC_3_SeqA_IrqHandler                    0x00000889   Thumb Code     2  hc32f4a0_interrupts.o(.text.ADC_3_SeqA_IrqHandler)
    ADC_3_SeqB_IrqHandler                    0x0000088d   Thumb Code     2  hc32f4a0_interrupts.o(.text.ADC_3_SeqB_IrqHandler)
    BusFault_Handler                         0x00000891   Thumb Code     8  hc32f4a0_interrupts.o(.text.BusFault_Handler)
    BusFault_IrqHandler                      0x00000899   Thumb Code     2  hc32f4a0_interrupts.o(.text.BusFault_IrqHandler)
    CAN_1_IrqHandler                         0x0000089d   Thumb Code     2  hc32f4a0_interrupts.o(.text.CAN_1_IrqHandler)
    CAN_2_IrqHandler                         0x000008a1   Thumb Code     2  hc32f4a0_interrupts.o(.text.CAN_2_IrqHandler)
    CLK_ClkDiv                               0x000008a5   Thumb Code   486  hc32f4a0_clk.o(.text.CLK_ClkDiv)
    CLK_GetClockFreq                         0x00000a8d   Thumb Code   378  hc32f4a0_clk.o(.text.CLK_GetClockFreq)
    CLK_GetPllClockFreq                      0x00000c09   Thumb Code   400  hc32f4a0_clk.o(.text.CLK_GetPllClockFreq)
    CLK_GetStableStatus                      0x00000d99   Thumb Code    36  hc32f4a0_clk.o(.text.CLK_GetStableStatus)
    CLK_PERI_ClkConfig                       0x00000dbd   Thumb Code    26  hc32f4a0_clk.o(.text.CLK_PERI_ClkConfig)
    CLK_PLLACmd                              0x00000dd9   Thumb Code   110  hc32f4a0_clk.o(.text.CLK_PLLACmd)
    CLK_PLLAInit                             0x00000e49   Thumb Code    80  hc32f4a0_clk.o(.text.CLK_PLLAInit)
    CLK_PLLAStrucInit                        0x00000e99   Thumb Code   100  hc32f4a0_clk.o(.text.CLK_PLLAStrucInit)
    CLK_PLLHCmd                              0x00000efd   Thumb Code   140  hc32f4a0_clk.o(.text.CLK_PLLHCmd)
    CLK_PLLHInit                             0x00000f89   Thumb Code    98  hc32f4a0_clk.o(.text.CLK_PLLHInit)
    CLK_PLLHStrucInit                        0x00000fed   Thumb Code   104  hc32f4a0_clk.o(.text.CLK_PLLHStrucInit)
    CLK_SetSysClkSrc                         0x00001055   Thumb Code   278  hc32f4a0_clk.o(.text.CLK_SetSysClkSrc)
    CLK_Xtal32Cmd                            0x0000116d   Thumb Code   112  hc32f4a0_clk.o(.text.CLK_Xtal32Cmd)
    CLK_Xtal32Init                           0x000011dd   Thumb Code   106  hc32f4a0_clk.o(.text.CLK_Xtal32Init)
    CLK_Xtal32StrucInit                      0x00001249   Thumb Code    52  hc32f4a0_clk.o(.text.CLK_Xtal32StrucInit)
    CLK_XtalCmd                              0x0000127d   Thumb Code   198  hc32f4a0_clk.o(.text.CLK_XtalCmd)
    CLK_XtalInit                             0x00001345   Thumb Code   102  hc32f4a0_clk.o(.text.CLK_XtalInit)
    CLK_XtalStop_IrqHandler                  0x000013ad   Thumb Code     2  hc32f4a0_interrupts.o(.text.CLK_XtalStop_IrqHandler)
    CLK_XtalStrucInit                        0x000013b1   Thumb Code    58  hc32f4a0_clk.o(.text.CLK_XtalStrucInit)
    CTC_Ovf_IrqHandler                       0x000013ed   Thumb Code     2  hc32f4a0_interrupts.o(.text.CTC_Ovf_IrqHandler)
    CTC_Udf_IrqHandler                       0x000013f1   Thumb Code     2  hc32f4a0_interrupts.o(.text.CTC_Udf_IrqHandler)
    DCU_1_IrqHandler                         0x00001bed   Thumb Code     2  hc32f4a0_interrupts.o(.text.DCU_1_IrqHandler)
    DCU_2_IrqHandler                         0x00001bf1   Thumb Code     2  hc32f4a0_interrupts.o(.text.DCU_2_IrqHandler)
    DCU_3_IrqHandler                         0x00001bf5   Thumb Code     2  hc32f4a0_interrupts.o(.text.DCU_3_IrqHandler)
    DCU_4_IrqHandler                         0x00001bf9   Thumb Code     2  hc32f4a0_interrupts.o(.text.DCU_4_IrqHandler)
    DCU_5_IrqHandler                         0x00001bfd   Thumb Code     2  hc32f4a0_interrupts.o(.text.DCU_5_IrqHandler)
    DCU_6_IrqHandler                         0x00001c01   Thumb Code     2  hc32f4a0_interrupts.o(.text.DCU_6_IrqHandler)
    DCU_7_IrqHandler                         0x00001c05   Thumb Code     2  hc32f4a0_interrupts.o(.text.DCU_7_IrqHandler)
    DCU_8_IrqHandler                         0x00001c09   Thumb Code     2  hc32f4a0_interrupts.o(.text.DCU_8_IrqHandler)
    DDL_DelayMS                              0x00001c0d   Thumb Code    86  hc32f4a0_utility.o(.text.DDL_DelayMS)
    DMA_1_Btc0_IrqHandler                    0x00001c65   Thumb Code     2  hc32f4a0_interrupts.o(.text.DMA_1_Btc0_IrqHandler)
    DMA_1_Btc1_IrqHandler                    0x00001c69   Thumb Code     2  hc32f4a0_interrupts.o(.text.DMA_1_Btc1_IrqHandler)
    DMA_1_Btc2_IrqHandler                    0x00001c6d   Thumb Code     2  hc32f4a0_interrupts.o(.text.DMA_1_Btc2_IrqHandler)
    DMA_1_Btc3_IrqHandler                    0x00001c71   Thumb Code     2  hc32f4a0_interrupts.o(.text.DMA_1_Btc3_IrqHandler)
    DMA_1_Btc4_IrqHandler                    0x00001c75   Thumb Code     2  hc32f4a0_interrupts.o(.text.DMA_1_Btc4_IrqHandler)
    DMA_1_Btc5_IrqHandler                    0x00001c79   Thumb Code     2  hc32f4a0_interrupts.o(.text.DMA_1_Btc5_IrqHandler)
    DMA_1_Btc6_IrqHandler                    0x00001c7d   Thumb Code     2  hc32f4a0_interrupts.o(.text.DMA_1_Btc6_IrqHandler)
    DMA_1_Btc7_IrqHandler                    0x00001c81   Thumb Code     2  hc32f4a0_interrupts.o(.text.DMA_1_Btc7_IrqHandler)
    DMA_1_Err0_IrqHandler                    0x00001c85   Thumb Code     2  hc32f4a0_interrupts.o(.text.DMA_1_Err0_IrqHandler)
    DMA_1_Err1_IrqHandler                    0x00001c89   Thumb Code     2  hc32f4a0_interrupts.o(.text.DMA_1_Err1_IrqHandler)
    DMA_1_Err2_IrqHandler                    0x00001c8d   Thumb Code     2  hc32f4a0_interrupts.o(.text.DMA_1_Err2_IrqHandler)
    DMA_1_Err3_IrqHandler                    0x00001c91   Thumb Code     2  hc32f4a0_interrupts.o(.text.DMA_1_Err3_IrqHandler)
    DMA_1_Err4_IrqHandler                    0x00001c95   Thumb Code     2  hc32f4a0_interrupts.o(.text.DMA_1_Err4_IrqHandler)
    DMA_1_Err5_IrqHandler                    0x00001c99   Thumb Code     2  hc32f4a0_interrupts.o(.text.DMA_1_Err5_IrqHandler)
    DMA_1_Err6_IrqHandler                    0x00001c9d   Thumb Code     2  hc32f4a0_interrupts.o(.text.DMA_1_Err6_IrqHandler)
    DMA_1_Err7_IrqHandler                    0x00001ca1   Thumb Code     2  hc32f4a0_interrupts.o(.text.DMA_1_Err7_IrqHandler)
    DMA_1_Tc0_IrqHandler                     0x00001ca5   Thumb Code     2  hc32f4a0_interrupts.o(.text.DMA_1_Tc0_IrqHandler)
    DMA_1_Tc1_IrqHandler                     0x00001ca9   Thumb Code     2  hc32f4a0_interrupts.o(.text.DMA_1_Tc1_IrqHandler)
    DMA_1_Tc2_IrqHandler                     0x00001cad   Thumb Code     2  hc32f4a0_interrupts.o(.text.DMA_1_Tc2_IrqHandler)
    DMA_1_Tc3_IrqHandler                     0x00001cb1   Thumb Code     2  hc32f4a0_interrupts.o(.text.DMA_1_Tc3_IrqHandler)
    DMA_1_Tc4_IrqHandler                     0x00001cb5   Thumb Code     2  hc32f4a0_interrupts.o(.text.DMA_1_Tc4_IrqHandler)
    DMA_1_Tc5_IrqHandler                     0x00001cb9   Thumb Code     2  hc32f4a0_interrupts.o(.text.DMA_1_Tc5_IrqHandler)
    DMA_1_Tc6_IrqHandler                     0x00001cbd   Thumb Code     2  hc32f4a0_interrupts.o(.text.DMA_1_Tc6_IrqHandler)
    DMA_1_Tc7_IrqHandler                     0x00001cc1   Thumb Code     2  hc32f4a0_interrupts.o(.text.DMA_1_Tc7_IrqHandler)
    DMA_2_Btc0_IrqHandler                    0x00001cc5   Thumb Code     2  hc32f4a0_interrupts.o(.text.DMA_2_Btc0_IrqHandler)
    DMA_2_Btc1_IrqHandler                    0x00001cc9   Thumb Code     2  hc32f4a0_interrupts.o(.text.DMA_2_Btc1_IrqHandler)
    DMA_2_Btc2_IrqHandler                    0x00001ccd   Thumb Code     2  hc32f4a0_interrupts.o(.text.DMA_2_Btc2_IrqHandler)
    DMA_2_Btc3_IrqHandler                    0x00001cd1   Thumb Code     2  hc32f4a0_interrupts.o(.text.DMA_2_Btc3_IrqHandler)
    DMA_2_Btc4_IrqHandler                    0x00001cd5   Thumb Code     2  hc32f4a0_interrupts.o(.text.DMA_2_Btc4_IrqHandler)
    DMA_2_Btc5_IrqHandler                    0x00001cd9   Thumb Code     2  hc32f4a0_interrupts.o(.text.DMA_2_Btc5_IrqHandler)
    DMA_2_Btc6_IrqHandler                    0x00001cdd   Thumb Code     2  hc32f4a0_interrupts.o(.text.DMA_2_Btc6_IrqHandler)
    DMA_2_Btc7_IrqHandler                    0x00001ce1   Thumb Code     2  hc32f4a0_interrupts.o(.text.DMA_2_Btc7_IrqHandler)
    DMA_2_Err0_IrqHandler                    0x00001ce5   Thumb Code     2  hc32f4a0_interrupts.o(.text.DMA_2_Err0_IrqHandler)
    DMA_2_Err1_IrqHandler                    0x00001ce9   Thumb Code     2  hc32f4a0_interrupts.o(.text.DMA_2_Err1_IrqHandler)
    DMA_2_Err2_IrqHandler                    0x00001ced   Thumb Code     2  hc32f4a0_interrupts.o(.text.DMA_2_Err2_IrqHandler)
    DMA_2_Err3_IrqHandler                    0x00001cf1   Thumb Code     2  hc32f4a0_interrupts.o(.text.DMA_2_Err3_IrqHandler)
    DMA_2_Err4_IrqHandler                    0x00001cf5   Thumb Code     2  hc32f4a0_interrupts.o(.text.DMA_2_Err4_IrqHandler)
    DMA_2_Err5_IrqHandler                    0x00001cf9   Thumb Code     2  hc32f4a0_interrupts.o(.text.DMA_2_Err5_IrqHandler)
    DMA_2_Err6_IrqHandler                    0x00001cfd   Thumb Code     2  hc32f4a0_interrupts.o(.text.DMA_2_Err6_IrqHandler)
    DMA_2_Err7_IrqHandler                    0x00001d01   Thumb Code     2  hc32f4a0_interrupts.o(.text.DMA_2_Err7_IrqHandler)
    DMA_2_Tc0_IrqHandler                     0x00001d05   Thumb Code     2  hc32f4a0_interrupts.o(.text.DMA_2_Tc0_IrqHandler)
    DMA_2_Tc1_IrqHandler                     0x00001d09   Thumb Code     2  hc32f4a0_interrupts.o(.text.DMA_2_Tc1_IrqHandler)
    DMA_2_Tc2_IrqHandler                     0x00001d0d   Thumb Code     2  hc32f4a0_interrupts.o(.text.DMA_2_Tc2_IrqHandler)
    DMA_2_Tc3_IrqHandler                     0x00001d11   Thumb Code     2  hc32f4a0_interrupts.o(.text.DMA_2_Tc3_IrqHandler)
    DMA_2_Tc4_IrqHandler                     0x00001d15   Thumb Code     2  hc32f4a0_interrupts.o(.text.DMA_2_Tc4_IrqHandler)
    DMA_2_Tc5_IrqHandler                     0x00001d19   Thumb Code     2  hc32f4a0_interrupts.o(.text.DMA_2_Tc5_IrqHandler)
    DMA_2_Tc6_IrqHandler                     0x00001d1d   Thumb Code     2  hc32f4a0_interrupts.o(.text.DMA_2_Tc6_IrqHandler)
    DMA_2_Tc7_IrqHandler                     0x00001d21   Thumb Code     2  hc32f4a0_interrupts.o(.text.DMA_2_Tc7_IrqHandler)
    DMA_ChannelCmd                           0x00001d25   Thumb Code    74  hc32f4a0_dma.o(.text.DMA_ChannelCmd)
    DMA_SetDestAddr                          0x00001d71   Thumb Code    30  hc32f4a0_dma.o(.text.DMA_SetDestAddr)
    DMA_SetTransCnt                          0x00001d91   Thumb Code    50  hc32f4a0_dma.o(.text.DMA_SetTransCnt)
    DVP_FifoErr_IrqHandler                   0x00001dc5   Thumb Code     2  hc32f4a0_interrupts.o(.text.DVP_FifoErr_IrqHandler)
    DVP_FrameEnd_IrqHandler                  0x00001dc9   Thumb Code     2  hc32f4a0_interrupts.o(.text.DVP_FrameEnd_IrqHandler)
    DVP_FrameStart_IrqHandler                0x00001dcd   Thumb Code     2  hc32f4a0_interrupts.o(.text.DVP_FrameStart_IrqHandler)
    DVP_LineEnd_IrqHandler                   0x00001dd1   Thumb Code     2  hc32f4a0_interrupts.o(.text.DVP_LineEnd_IrqHandler)
    DVP_LineStart_IrqHandler                 0x00001dd5   Thumb Code     2  hc32f4a0_interrupts.o(.text.DVP_LineStart_IrqHandler)
    DVP_SwSyncErr_IrqHandler                 0x00001dd9   Thumb Code     2  hc32f4a0_interrupts.o(.text.DVP_SwSyncErr_IrqHandler)
    DebugMon_Handler                         0x00001ddd   Thumb Code     8  hc32f4a0_interrupts.o(.text.DebugMon_Handler)
    DebugMon_IrqHandler                      0x00001de5   Thumb Code     2  hc32f4a0_interrupts.o(.text.DebugMon_IrqHandler)
    EFM_ColErr_IrqHandler                    0x00001de9   Thumb Code     2  hc32f4a0_interrupts.o(.text.EFM_ColErr_IrqHandler)
    EFM_DataCacheCmd                         0x00001ded   Thumb Code    26  hc32f4a0_efm.o(.text.EFM_DataCacheCmd)
    EFM_GetCID                               0x00001e09   Thumb Code    20  hc32f4a0_efm.o(.text.EFM_GetCID)
    EFM_GetUID                               0x00001e1d   Thumb Code    50  hc32f4a0_efm.o(.text.EFM_GetUID)
    EFM_InsCacheCmd                          0x00001e51   Thumb Code    26  hc32f4a0_efm.o(.text.EFM_InsCacheCmd)
    EFM_OpEnd_IrqHandler                     0x00001e8d   Thumb Code     2  hc32f4a0_interrupts.o(.text.EFM_OpEnd_IrqHandler)
    EFM_PgmEraseErr_IrqHandler               0x00001e91   Thumb Code     2  hc32f4a0_interrupts.o(.text.EFM_PgmEraseErr_IrqHandler)
    EFM_PrefetchCmd                          0x00001e95   Thumb Code    26  hc32f4a0_efm.o(.text.EFM_PrefetchCmd)
    EFM_SetWaitCycle                         0x00001eb1   Thumb Code    26  hc32f4a0_efm.o(.text.EFM_SetWaitCycle)
    EMB_GR0_IrqHandler                       0x00001efd   Thumb Code     2  hc32f4a0_interrupts.o(.text.EMB_GR0_IrqHandler)
    EMB_GR1_IrqHandler                       0x00001f01   Thumb Code     2  hc32f4a0_interrupts.o(.text.EMB_GR1_IrqHandler)
    EMB_GR2_IrqHandler                       0x00001f05   Thumb Code     2  hc32f4a0_interrupts.o(.text.EMB_GR2_IrqHandler)
    EMB_GR3_IrqHandler                       0x00001f09   Thumb Code     2  hc32f4a0_interrupts.o(.text.EMB_GR3_IrqHandler)
    EMB_GR4_IrqHandler                       0x00001f0d   Thumb Code     2  hc32f4a0_interrupts.o(.text.EMB_GR4_IrqHandler)
    EMB_GR5_IrqHandler                       0x00001f11   Thumb Code     2  hc32f4a0_interrupts.o(.text.EMB_GR5_IrqHandler)
    EMB_GR6_IrqHandler                       0x00001f15   Thumb Code     2  hc32f4a0_interrupts.o(.text.EMB_GR6_IrqHandler)
    ETH_Global_IrqHandler                    0x00001f19   Thumb Code     2  hc32f4a0_interrupts.o(.text.ETH_Global_IrqHandler)
    ETH_Wakeup_IrqHandler                    0x00001f1d   Thumb Code     2  hc32f4a0_interrupts.o(.text.ETH_Wakeup_IrqHandler)
    EXTINT_00_IrqHandler                     0x00001f21   Thumb Code     2  hc32f4a0_interrupts.o(.text.EXTINT_00_IrqHandler)
    EXTINT_01_IrqHandler                     0x00001f25   Thumb Code     2  hc32f4a0_interrupts.o(.text.EXTINT_01_IrqHandler)
    EXTINT_02_IrqHandler                     0x00001f29   Thumb Code     2  hc32f4a0_interrupts.o(.text.EXTINT_02_IrqHandler)
    EXTINT_03_IrqHandler                     0x00001f2d   Thumb Code     2  hc32f4a0_interrupts.o(.text.EXTINT_03_IrqHandler)
    EXTINT_04_IrqHandler                     0x00001f31   Thumb Code     2  hc32f4a0_interrupts.o(.text.EXTINT_04_IrqHandler)
    EXTINT_05_IrqHandler                     0x00001f35   Thumb Code     2  hc32f4a0_interrupts.o(.text.EXTINT_05_IrqHandler)
    EXTINT_06_IrqHandler                     0x00001f39   Thumb Code     2  hc32f4a0_interrupts.o(.text.EXTINT_06_IrqHandler)
    EXTINT_07_IrqHandler                     0x00001f3d   Thumb Code     2  hc32f4a0_interrupts.o(.text.EXTINT_07_IrqHandler)
    EXTINT_08_IrqHandler                     0x00001f41   Thumb Code     2  hc32f4a0_interrupts.o(.text.EXTINT_08_IrqHandler)
    EXTINT_09_IrqHandler                     0x00001f45   Thumb Code     2  hc32f4a0_interrupts.o(.text.EXTINT_09_IrqHandler)
    EXTINT_10_IrqHandler                     0x00001f49   Thumb Code     2  hc32f4a0_interrupts.o(.text.EXTINT_10_IrqHandler)
    EXTINT_11_IrqHandler                     0x00001f4d   Thumb Code     2  hc32f4a0_interrupts.o(.text.EXTINT_11_IrqHandler)
    EXTINT_12_IrqHandler                     0x00001f51   Thumb Code     2  hc32f4a0_interrupts.o(.text.EXTINT_12_IrqHandler)
    EXTINT_13_IrqHandler                     0x00001f55   Thumb Code     2  hc32f4a0_interrupts.o(.text.EXTINT_13_IrqHandler)
    EXTINT_14_IrqHandler                     0x00001f59   Thumb Code     2  hc32f4a0_interrupts.o(.text.EXTINT_14_IrqHandler)
    EXTINT_15_IrqHandler                     0x00001f5d   Thumb Code     2  hc32f4a0_interrupts.o(.text.EXTINT_15_IrqHandler)
    FCM_End_IrqHandler                       0x00001f61   Thumb Code     2  hc32f4a0_interrupts.o(.text.FCM_End_IrqHandler)
    FCM_Err_IrqHandler                       0x00001f65   Thumb Code     2  hc32f4a0_interrupts.o(.text.FCM_Err_IrqHandler)
    FCM_Ovf_IrqHandler                       0x00001f69   Thumb Code     2  hc32f4a0_interrupts.o(.text.FCM_Ovf_IrqHandler)
    FMAC_1_IrqHandler                        0x00001f6d   Thumb Code     2  hc32f4a0_interrupts.o(.text.FMAC_1_IrqHandler)
    FMAC_2_IrqHandler                        0x00001f71   Thumb Code     2  hc32f4a0_interrupts.o(.text.FMAC_2_IrqHandler)
    FMAC_3_IrqHandler                        0x00001f75   Thumb Code     2  hc32f4a0_interrupts.o(.text.FMAC_3_IrqHandler)
    FMAC_4_IrqHandler                        0x00001f79   Thumb Code     2  hc32f4a0_interrupts.o(.text.FMAC_4_IrqHandler)
    GPIO_Init                                0x00001f7d   Thumb Code   178  hc32f4a0_gpio.o(.text.GPIO_Init)
    GPIO_ResetPins                           0x00002071   Thumb Code    52  hc32f4a0_gpio.o(.text.GPIO_ResetPins)
    GPIO_SetFunc                             0x000020a5   Thumb Code   124  hc32f4a0_gpio.o(.text.GPIO_SetFunc)
    GPIO_SetPins                             0x00002121   Thumb Code    52  hc32f4a0_gpio.o(.text.GPIO_SetPins)
    GPIO_StructInit                          0x00002155   Thumb Code    78  hc32f4a0_gpio.o(.text.GPIO_StructInit)
    HW_I2C_Port_Init                         0x000021e5   Thumb Code    44  bsp_i2c.o(.text.HW_I2C_Port_Init)
    I2C_1_Err_IrqHandler                     0x00002211   Thumb Code     2  hc32f4a0_interrupts.o(.text.I2C_1_Err_IrqHandler)
    I2C_1_RxEnd_IrqHandler                   0x00002215   Thumb Code     2  hc32f4a0_interrupts.o(.text.I2C_1_RxEnd_IrqHandler)
    I2C_1_TxEmpty_IrqHandler                 0x00002219   Thumb Code     2  hc32f4a0_interrupts.o(.text.I2C_1_TxEmpty_IrqHandler)
    I2C_1_TxEnd_IrqHandler                   0x0000221d   Thumb Code     2  hc32f4a0_interrupts.o(.text.I2C_1_TxEnd_IrqHandler)
    I2C_2_Err_IrqHandler                     0x00002221   Thumb Code     2  hc32f4a0_interrupts.o(.text.I2C_2_Err_IrqHandler)
    I2C_2_RxEnd_IrqHandler                   0x00002225   Thumb Code     2  hc32f4a0_interrupts.o(.text.I2C_2_RxEnd_IrqHandler)
    I2C_2_TxEmpty_IrqHandler                 0x00002229   Thumb Code     2  hc32f4a0_interrupts.o(.text.I2C_2_TxEmpty_IrqHandler)
    I2C_2_TxEnd_IrqHandler                   0x0000222d   Thumb Code     2  hc32f4a0_interrupts.o(.text.I2C_2_TxEnd_IrqHandler)
    I2C_3_Err_IrqHandler                     0x00002231   Thumb Code     2  hc32f4a0_interrupts.o(.text.I2C_3_Err_IrqHandler)
    I2C_3_RxEnd_IrqHandler                   0x00002235   Thumb Code     2  hc32f4a0_interrupts.o(.text.I2C_3_RxEnd_IrqHandler)
    I2C_3_TxEmpty_IrqHandler                 0x00002239   Thumb Code     2  hc32f4a0_interrupts.o(.text.I2C_3_TxEmpty_IrqHandler)
    I2C_3_TxEnd_IrqHandler                   0x0000223d   Thumb Code     2  hc32f4a0_interrupts.o(.text.I2C_3_TxEnd_IrqHandler)
    I2C_4_Err_IrqHandler                     0x00002241   Thumb Code     2  hc32f4a0_interrupts.o(.text.I2C_4_Err_IrqHandler)
    I2C_4_RxEnd_IrqHandler                   0x00002245   Thumb Code     2  hc32f4a0_interrupts.o(.text.I2C_4_RxEnd_IrqHandler)
    I2C_4_TxEmpty_IrqHandler                 0x00002249   Thumb Code     2  hc32f4a0_interrupts.o(.text.I2C_4_TxEmpty_IrqHandler)
    I2C_4_TxEnd_IrqHandler                   0x0000224d   Thumb Code     2  hc32f4a0_interrupts.o(.text.I2C_4_TxEnd_IrqHandler)
    I2C_5_Err_IrqHandler                     0x00002251   Thumb Code     2  hc32f4a0_interrupts.o(.text.I2C_5_Err_IrqHandler)
    I2C_5_RxEnd_IrqHandler                   0x00002255   Thumb Code     2  hc32f4a0_interrupts.o(.text.I2C_5_RxEnd_IrqHandler)
    I2C_5_TxEmpty_IrqHandler                 0x00002259   Thumb Code     2  hc32f4a0_interrupts.o(.text.I2C_5_TxEmpty_IrqHandler)
    I2C_5_TxEnd_IrqHandler                   0x0000225d   Thumb Code     2  hc32f4a0_interrupts.o(.text.I2C_5_TxEnd_IrqHandler)
    I2C_6_Err_IrqHandler                     0x00002261   Thumb Code     2  hc32f4a0_interrupts.o(.text.I2C_6_Err_IrqHandler)
    I2C_6_RxEnd_IrqHandler                   0x00002265   Thumb Code     2  hc32f4a0_interrupts.o(.text.I2C_6_RxEnd_IrqHandler)
    I2C_6_TxEmpty_IrqHandler                 0x00002269   Thumb Code     2  hc32f4a0_interrupts.o(.text.I2C_6_TxEmpty_IrqHandler)
    I2C_6_TxEnd_IrqHandler                   0x0000226d   Thumb Code     2  hc32f4a0_interrupts.o(.text.I2C_6_TxEnd_IrqHandler)
    I2C_BaudrateConfig                       0x00002271   Thumb Code   400  hc32f4a0_i2c.o(.text.I2C_BaudrateConfig)
    I2C_Cmd                                  0x00002401   Thumb Code    30  hc32f4a0_i2c.o(.text.I2C_Cmd)
    I2C_DeInit                               0x00002421   Thumb Code    28  hc32f4a0_i2c.o(.text.I2C_DeInit)
    I2C_FastAckCmd                           0x0000243d   Thumb Code    48  hc32f4a0_i2c.o(.text.I2C_FastAckCmd)
